:020000040800F2
:1000000050200020CD120108951401089914010810
:100010009D140108A1140108A514010800000000A6
:10002000000000000000000000000000A91401080A
:10003000AD14010800000000B1140108C1BA0008A5
:1000400065A80008B3760008C1140108036B000816
:10005000C91401084FB60008E1A00008FBA0000881
:1000600015A100082FA1000849A10008E514010806
:10007000E9140108ED140108F1140108F514010850
:10008000F9140108FD1401080115010805150108FE
:10009000091501080D1501081115010863A10008D3
:1000A00019150108737000083FB5000877D10008E2
:1000B000C3B500082D1501083115010835150108D3
:1000C000391501083D1501084115010845150108BC
:1000D0004915010869B800085115010855150108AE
:1000E0000FA20008416B00086115010865150108A1
:1000F0006915010810F007007047C0F3C100C0B2D5
:100100007047C0F34110C0B270474FF69F72104065
:10011000C9B250EA411080B2704780B2C0F3C0103B
:1001200070474FF67F72104050EAC11080B270479E
:1001300080B2000A80B2704780B5401CC0B200F0A7
:1001400071F980B202BD80B5C0B2FFF7F5FF0121A1
:1001500080B2FFF7E6FF02BD80B5401CC0B200F0E0
:1001600061F9FF2801D0012000E00020C0B202BDEB
:1001700010B50C0002E0C0B200F005FA21004C1EE0
:10018000C9B20029F7D1C0B210BD01000878497882
:1001900050EA012080B27047010008784A7850EA9E
:1001A00002208A7850EA0240C97850EA016070471C
:1001B0000100C8788A7850EA02204A7850EA024062
:1001C000097850EA01607047017089B2090A4170EC
:1001D000704701700A00120A42700A00120C827005
:1001E000090EC1707047C1700A00120A82700A00BD
:1001F000120C4270090E017070472DE9F84305009A
:100200000E0014001F0010210022DFF8448BC146AD
:10021000484603F017FC492088F80000002C01D064
:10022000012000E0002088F8050088F80F70290000
:1002300018F10600FFF7CDFF310018F10A00FFF7B3
:10024000C8FFBDE8F183F8B50600080011001A00E8
:10025000069C079D2B00FFF7D0FF1022DFF8F47AF1
:100260003100380003F03EFC2800020092B2210069
:10027000022003F0DEFC060004EB0500FFF798FF08
:10028000864201D1012000E00020C0B2F2BDF8B5E5
:100290000600080011001A00069C079D2B00FFF7BE
:1002A000ACFF1022DFF8AC7A3100380003F01AFC02
:1002B0002800020092B22100022003F0BAFC0100E3
:1002C00004EB0500FFF78FFFF1BD38B504000D000A
:1002D000DFF8800A05F0FEFA2800020092B2210041
:1002E0000A2003F0A6FC010004EB0500FFF77BFFEA
:1002F00031BD70B504000D00DFF8580A05F0EAFAC8
:100300002800020092B221000A2003F092FC0600AD
:1003100004EB0500FFF74CFF864201D1012000E00D
:100320000020C0B270BD38B504000D00DFF8240A0B
:1003300005F0D0FA2A0092B22100002003F079FCE7
:1003400031BD2DE9F04707000D0016001C00DDF857
:100350002480B8F1010F2DDB10210022DFF8F09985
:10036000CA46504603F06EFB012089F80F0099F849
:100370000F0089F80000002C01D0012000E00020CF
:10038000089C290089F8050019F10600FFF721FFF4
:10039000310019F10A00FFF71CFF1022DFF8B459F1
:1003A0003900280003F09EFB424692B2210004204F
:1003B00003F03FFCBDE8F0872DE9F04106000F0097
:1003C00014001D0010210022A046404603F03AFB15
:1003D00001202070062214F101083900404603F084
:1003E00081FB310089B2E01DFFF7EEFE10222100F3
:1003F0002E00300003F076FB02202870DFF85469ED
:10040000300005F067FA10222100002003F011FCF3
:10041000300005F05FFA10222900002003F009FCEB
:10042000BDE8F0810100C9B20A2901D3FF2010E024
:10043000DFF8E41B91F8691611F07F01032904D15C
:10044000DFF8D81BC0B2085C03E0DFF8D41BC0B2F1
:10045000085C70470100DFF8C00B027D0B00DBB2C7
:100460009A4206D390F91300C9B2B0EB410040B2F2
:1004700000E000207047DFF8A00B90F8600601282C
:1004800001D1012000E00020704730B4DFF8881B64
:1004900091F87926012A05D10200D2B2022A01D1AF
:1004A00001201AE0002200E0521C1300DBB2102BE6
:1004B00012DA0123B1F8A04113FA02F52C42F3D06D
:1004C00083405B1E1400E4B201EB4404B4F88041A5
:1004D0002342E9D0002000E0012030BC7047DFF863
:1004E000382BC9B202EB4101B1F880110141C807B4
:1004F00001D5012000E00020704770B504000E0017
:10050000002500E06D1C2800C0B210281DDADFF8BD
:10051000080B2900C9B200EB810191F8001111F01C
:1005200007013200D2B29142ECD1B0F8A001012112
:10053000A9400842E6D02900C9B22000C0B2FFF7A6
:10054000CEFF0028DED0012000E0002070BD70B595
:1005500004000D00002600E0761C3000C0B2102818
:100560000FDA0120B040290089B20142F4D03100F5
:10057000C9B22000C0B2FFF7B2FF0028ECD00120C2
:1005800000E0002070BD38B5040025002000C0B296
:10059000FFF77BFF002813D1641EDFF87C0AB0F858
:1005A000A0112000C0B2FFF7D2FF0028EED0601CDF
:1005B000C0B2FFF737FFFF28E8D02000C0B201E04B
:1005C0002800C0B232BD2DE9F04705000F00280019
:1005D00080B2FFF792FD0400280080B2FFF78AFD89
:1005E00006003000C0B2002809D1FFB20B375FF41B
:1005F000802047434CF2503097FBF0F05BE0B01D99
:10060000C0B25FEA80083000C0B2052802DB5FF0AC
:10061000080901E05FF00009B8EB0909280080B281
:10062000FFF77BFD002802D05FF0000A01E05FF0D9
:10063000100A280080B2FFF77BFD002801D01420AB
:1006400000E00020FFB25FFA88F8D8EBC7081AEB89
:10065000080818F11C08B8EB0008B8F1010F11DB0D
:100660004846C0B210EB0808B8F101085FFA89F9F2
:1006700098FBF9F7280080B2FFF743FD401D474380
:10068000083700E00827BF003137761C341B43F6DB
:1006900009512000C0B2052802DB201F01410424BB
:1006A00017FA04F44FF40042022091FBF0F002FB31
:1006B000040494FBF1F0BDE8F08738B5040005F0C0
:1006C0009EFC0500EDB205F09AFC020052EA0522FC
:1006D000110089B248F20100814207DB100080B2AC
:1006E0004FF4004390FBF3F103FB11012000C0B273
:1006F00000280AD0D2B2E4B292FBF4F004FB10243A
:100700004FF4004000FB04142100080032BD70B516
:1007100004000C19002531E0307B00282DD1B06891
:10072000A0422ADA16F1100005F0F6FCB4600020B1
:1007300030730FF24D52B16816F1100005F019FD3B
:100740001BE02A00D2B22420424301EB020010F148
:10075000240696F8200000280FD03088002802D008
:10076000307B0128D8D1B460002030730FF21152D1
:10077000B16816F1100005F0FCFC6D1CDFF898184C
:10078000280091F8FC20C0B29042DAD370BDDFF8A7
:10079000880880F8B0117047100040B210F1800F47
:1007A00003D0DFF8740880F8AF21DFF86C0890F808
:1007B000B0210B00DBB29A4207D080F8B011B0F83C
:1007C000AC1151F40061A0F8AC117FF03F0180F84A
:1007D000E1127047DFF8400890F92800704770B5C3
:1007E000050040210022DFF8304814F58076300003
:1007F00003F028F94021002214F5A076300003F020
:1008000021F92021002214F5C076300003F01AF9F6
:10081000002084F83504002084F83C04002084F88B
:100820004404002084F8450494F869060A380A282C
:1008300006D2012084F87906012084F87A0605E0C2
:10084000002084F87906002084F87A0602F010FF70
:10085000DFF8846C32002900C9B294F8690602F00E
:10086000D0FF0020A4F8A001307884F86A060025A3
:1008700011E05FF0FF332800C0B206EB4000B0F893
:1008800044202800C0B206EB800041682800C0B2B6
:1008900000F0C5F86D1C28003178C0B28842E8D35A
:1008A00096F8640084F8EA02B06EC4F8EC0270BDF9
:1008B00010B4002208E01400E4B224214C4303EBFE
:1008C000040124310871521CDFF84C37110093F8F1
:1008D000FC40C9B2A142EED310BC7047DFF8380724
:1008E00090F8691611F07F01C9B2012902D00329DD
:1008F00012D013E04FF47A7181846422A0F848206A
:100900006422A0F86C20A0F890100A21A0F8B4107E
:100910006421A0F8D81001E000218184704710B54F
:10092000C0B2002802D0FFF7D9FF1EE0002414E077
:100930002200D2B22420424301EB020010F1240134
:100940000020088091F82000002805D001200873BD
:1009500011F1100005F0E0FB641CDFF8BC1620006C
:1009600091F8FC20C0B29042E2D310BDF8B5DFF898
:10097000A846C0B204EB800090F8005115F00705BE
:1009800024262800C0B27043204490F84400002878
:100990000ED12800C0B270432044012180F83010ED
:1009A0002800C0B2704304EB000705F0A3FBF86217
:1009B0002800C0B270432044EDB2754304EB05013A
:1009C00091F84410491C80F84410F1BD10B4DFF8D0
:1009D0004826C0B202EB800090F8001111F0070128
:1009E00024230800C0B2584310440C00E4B25C4316
:1009F000144494F84440641E80F844400800C0B297
:100A00005843104490F84400002806D1C9B2594315
:100A100002EB0100002180F8301010BC7047F8B5DF
:100A200004000E0015002000C0B2102801DB0020D9
:100A300040E018005FF0FF3140B2884203D130003F
:100A400002F0AAFE0300F608F6005BB21E43DFF8D0
:100A5000C8752000C0B207EB8000D0F80001002864
:100A600003D02000C0B200F026F82000C0B207EB8F
:100A70008000C0F8006100202100C9B207EB8101AD
:100A8000C1F84001280080B2002801D13F25FFE7CE
:100A90002000C0B207EB4000A0F88051B7F8A001D9
:100AA0000121A1400843A7F8A0012000C0B2FFF730
:100AB0005DFF0120F2BD70B50400DFF85C55200039
:100AC000C0B205EB8000D0F80001002827D0012635
:100AD000B5F8A00116FA04F1084203D02000C0B214
:100AE000FFF774FF00202100C9B205EB8101C1F8B6
:100AF000000100202100C9B205EB8101C1F84001CD
:100B000000202100C9B205EB4101A1F88001B5F830
:100B1000A00116FA04F430EA0404A5F8A04170BD5F
:100B200080B5401EFFF738FB000A64214843DFF818
:100B3000E81491F8691611F07F01C9B2012902D0B9
:100B4000032909D011E0DFF89419411ADFF8902940
:100B5000914200D3002010E0DFF88819411ADFF835
:100B60008829914200D3002007E0DFF87019411A6C
:100B7000DFF86C29914200D3002002BD70B504005B
:100B800000251DE02800C0B2FFF720FF17E0DFF8C6
:100B90008814012223009BB212FA05F00340B1F839
:100BA000A06112FA05F00640B34208D0B1F8A001E6
:100BB000AA401042E6D02800C0B2FFF7D7FE6D1C55
:100BC0002800C0B21028E2DB70BD002000220DE03A
:100BD000DFF844141300DBB201EB8301D1F80011FC
:100BE000002902D0012191400843521C1100C9B2D2
:100BF0001029EDDB80B2704780B50022C0B26028BA
:100C000003D1FFF7E2FF0100FFE7080080B202BD59
:100C100070B504000A00DFF80064B6F8A0512000A7
:100C200080B2002801D1002027E0002100E0491C0B
:100C30000800C0B210280FDA0120884023009BB2C0
:100C40000342F4D00800C0B206EB8000D0F80001E7
:100C50000028ECD1002010E0210089B21000C0B2C1
:100C6000FFF775FC002801D1022006E0A6F8A0419C
:100C7000280080B2FFF782FF012070BD0000000055
:100C8000DFF89413027B2420424301EB020024305E
:100C90000121017370472DE9F0410400DFF878531A
:100CA00095F8A20105EB8000D0F8006195F80713D4
:100CB000E889FFF788FC07004FF47A7080FB070192
:100CC0004FF40042002305F0D3FAC5F8740616F07D
:100CD00007012420414305EB010010F12408F60828
:100CE000F600AE6098F9020098F90410884203DA21
:100CF00098F80200A87402E098F80400A874B8F804
:100D0000000000FB0740C8F80800B8F80000002801
:100D10000BD0002088F80C00DFF8D027D8F8081096
:100D200018F1100005F025FA06E0012088F80C0003
:100D300005F0E0F9C8F8080095F8A301002805D0EF
:100D400095F9A30187403C19C5F8A441BDE8F0819D
:100D50003C1700201C1200202DE9F24F84B0040043
:100D6000FF26DFF8245D2F195FF0000942E04846B6
:100D7000C0B20AFB00F0404490F83000002837D0A1
:100D80002819874234D14946C9B298F8B001FFF713
:100D9000B4FB00282CD04E463000C0B20AFB00FA4B
:100DA00008EB0A00C76A23E05FF0240A4846C0B295
:100DB0000AFB00F04044C06A381A0128D7DB4846D5
:100DC000C0B20AFB00F0404490F8300000280FD079
:100DD0004946C9B298F8B001FFF78FFB002807D049
:100DE0004E463000C0B20AFB00FA08EB0A00C76AA0
:100DF00019F10109DFF82082484698F8FC10C0B2CA
:100E00008842D1D3381BA8424AD198F8A20108EBF6
:100E1000800090F8009119F0070919F1010948467E
:100E200098F8FC10C0B2884201D15FF000095FF071
:100E3000000A2FE05FF0240B4846C0B20BFB00F025
:100E40004044C06A381A012818DB4846C0B20BFB80
:100E500000F0404490F8440000280FD04946C9B241
:100E600098F8B001FFF749FB002807D04E46300044
:100E7000C0B20BFB00FB08EB0B00C76A19F10109BC
:100E8000484698F8FC10C0B2884201D15FF00009D2
:100E90001AF1010A504698F8FC10C0B28842C9D332
:100EA000381BA84201D1380090E05FF00009002112
:100EB00018E030000A00D2B208EB820292F800215A
:100EC00012F00702C0B290420BD1B8F8A001012283
:100ED0008A40104205D068464A46D2B2815419F180
:100EE0000109491C0800C0B21028E2DB05F087F8B0
:100EF0005FFA89F990FBF9F109FB1101002216E074
:100F0000491C0800B4465FFA8CFC03FB0CFCC4448B
:100F10009CF844C0C0B2604508D33000C0B203FBA7
:100F200000F308EB030090F84400091A521C242334
:100F30001000B4465FFA8CFC03FB0CFCC4449CF824
:100F400044C0C0B260453FD268468C465FFA8CFC14
:100F500010F80CC0B8F8A0015FF0010E1EFA0CFEEC
:100F600010EA0E0FCCD06046C0B208EB4000B0F8DB
:100F7000800198F8B0E11EF00F0E80B230FA0EF04A
:100F8000C007BDD53000E6465FFA8EFE08EB8E0E38
:100F90009EF800E11EF0070EC0B27045B0D19DF87A
:100FA0001000C0B200280DD13000C0B258434044F8
:100FB00080F829C0F6B25E4308EB060090F82900DD
:100FC00088F8A201380001E02C19200005B0BDE826
:100FD000F08F114991F8691611F07F010A00D2B221
:100FE000032A03D0C9B20A390A2913D20100C9B2AF
:100FF000062901DA40B20EE00100C9B2062902D189
:101000005FF0FF3007E00100C9B2072902D17FF08D
:10101000010000E040B27047600000204414010865
:101020005014010810B5DFF8904C94F83504FFF720
:10103000D0FF002294F87A16012900D10222637CA5
:10104000010049B25B1A1100C9B28B4202DA84F87E
:10105000362410E094F87826637C010049B25B1ACC
:101060009A4204DA94F8780684F8360403E0617C46
:10107000081A84F8360494F8A20104EB8000D0F832
:101080004001002803D1A068C4F8380407E094F8B0
:10109000A20104EB8000D0F84001C4F8380410BD70
:1010A00010B5DFF8144C0E2084F8AF0194F86906EF
:1010B0000A380A2804D202210020FFF768FB03E067
:1010C00005210020FFF763FB0120FFF788FB04F0F8
:1010D00096FF94F86A1690FBF1F201FB120084F877
:1010E000A20105F007F8206010BD70B5002405F0DE
:1010F00001F80021FFF730FEDFF8BC5BB5F8AC115A
:101100004FF2FF700140A5F8AC1104F0F3FF0600A8
:1011100095F8A20105EB8000D0F8001111F007014D
:101120002420414305EB010024308168711A002915
:1011300000D58668FF2095F9B0110841C0B2FFF7CD
:10114000BCFA861916F500462E6095F869060A382D
:101150000A2810D295F80403401C85F8040395F87A
:1011600004030C2805DA95F8B0110120FFF70FFBF6
:1011700019E0012417E095F80403401C85F80403E6
:1011800095F80403C0070ED495F8B001002801D1EA
:10119000012408E095F8B001FFF7F5F90100C9B2A4
:1011A0000120FFF7F4FAE4B2200070BD80B501F031
:1011B0005BFE01BD80B5C0B204F0E6FC01F054FE58
:1011C00001BD80B5DFF8F00A0021C0F8DC12D0F8CC
:1011D000DC12C0F8D812002180F8B211002180F88A
:1011E0004414002180F8E51280F8E41280F8E2123D
:1011F00080F8E012002180F8E81280F8E91280F807
:10120000F01280F8E712002180F8481490F8481492
:1012100080F84614002180F8F312002180F8AE1106
:101220007FF03F0180F8E112012180F8601690F90B
:10123000122090F847140020FFF7AEFA01BD10B558
:10124000DFF8744A217D0200D2B291420BD3C0B2C2
:10125000FFF700F940B294F96E16401A801E00287C
:1012600001D4012000E0002010BDDFF84C1A497DB8
:10127000C0B2814201D3012000E00020704700008D
:101280002DE9F0410E0015001F0087243100C9B27E
:1012900080B2FFF7BDFC0100C9B2002902D114F0F1
:1012A000FE0404E0C0B2022801D114F0FD042000C5
:1012B000C0B210F07F00072833D1DFF8FC8988F82E
:1012C000AE712800C0B20F280BD02800C0B2FFF7C3
:1012D000C1F8020052B23100C9B20420FFF75CFA33
:1012E00006E07FF07F023100C9B20420FFF754FA14
:1012F0002800C0B20F2814D000260CE02800C0B28D
:10130000FFF7A8F83200D2B224214A4308EB0201C9
:1013100081F82800761C300098F8FC10C0B2884292
:10132000ECD32000C0B2BDE8F0812DE9F047070002
:10133000884691461C000020DFF87C5995F8E602AB
:10134000802830D18726BA465FFA8AFA5FEA1A1AED
:101350005046C0B2FEF700FF002802D116F0FD068D
:1013600044E095F87906002806D05046C0B202281D
:1013700002DA16F0FD0639E017F00F073800C0B2A8
:10138000FFF75DFF002802D116F0FB062EE04B466A
:10139000DBB23A00D2B25146C9B2404680B2FFF742
:1013A0006FFF060022E0802695F87C06002803D017
:1013B000022810D001D319E018E0FFB2FF2F09D1A5
:1013C0004B46DBB20F2295F8B011404680B2FFF7D2
:1013D00057FF06000AE04B46DBB20F2295F8B0112A
:1013E000404680B2FFF74CFF0600FFE7002017E001
:1013F000032195F860242A4482F8611495F860145A
:10140000491C85F8601416F0070195F860242A44F9
:1014100082F8611495F86014491C85F86014401C2A
:1014200001002200C9B2D2B29142E1D3BDE8F087F7
:101430002DE9F843DFF8EC2C101806004FF47A740D
:101440000025DFF8747889467A683868121AD3174D
:10145000A4FB020104FB031105FB02114FF400423F
:10146000002304F005FF804697F80713F889FFF77B
:10147000AAF8C11702000B00A4FB020104FB031130
:1014800005FB02114FF40042002304F0F1FEB8EB1B
:10149000000010EB09094FF47A71B9EB0900B9FBB0
:1014A000F1F201FB02004FF47A72B0FBF2F0861900
:1014B0003000B9FBF1F201FB1299B9F5FA7F00D3C4
:1014C000401C05F0EFF9D7F84C04002802D0D7F8FB
:1014D0004C048047BDE8F18340140020C0557033B0
:1014E000C1CF6A0040DA8E3381841E00810C00086F
:1014F0002DE9FE4FDFF8C05795F80D23C2F34012D7
:1015000012F00102002A04D195F8BB21012A00F053
:10151000B982002285F860245FF0000900228DF86E
:10152000012000228DF800200022ADF804205FF099
:10153000000806000F0001E018F10308B84580F22A
:1015400093824846C0B200280FD016F8080003283E
:101550000BD04B46DBB29DF80020BDF804109DF87F
:101560000100FFF7E2FE5FF0000916F8080002280C
:1015700015D0032819D0042800F0FF8005286ED06C
:1015800006283BD0072800F01A81082800F0C08107
:101590000A2800F0EC810D2800F0408262E218F188
:1015A00003008742C8DAB846C8E718F10500874249
:1015B00001DAB846C2E719F1010906EB08004078E4
:1015C0008DF8010006EB0800801CFEF7DEFD06EB3F
:1015D00008010A7912F0F00206EB0801097911F00E
:1015E0000F018DF8001018F10508010089B21000F4
:1015F000C0B2FFF701FBADF804009FE718F101004E
:10160000874201DAB84699E7012085F8E50206200D
:1016100095F86014294481F8610495F86004401C31
:1016200085F8600495F87D0695F86014294481F8E2
:10163000610495F86004401C85F8600495F8E302A5
:1016400010F03F0095F86014294481F8610495F882
:101650006004401C85F8600418F101086EE718F179
:101660000500874201DAB84668E706EB080090F803
:1016700001A01AF00F0A06EB08004078C0F3021B25
:1016800006EB0800801CFFF74BFA040018F1050870
:10169000802085F8F0025046C0B2FEF75DFD0028BC
:1016A00006D095F8F00250F0020085F8F00205E04F
:1016B00095F8F00210F0FD0085F8F0025846C0B22F
:1016C000FFF7D3FD002806D095F8F00250F0040093
:1016D00085F8F00205E095F8F00210F0FB0085F8BF
:1016E000F002002C06D095F8F00250F0010085F8C9
:1016F000F00205E095F8F00210F0FE0085F8F00227
:1017000095F8F002872805D185F835B485F8EAA266
:10171000C5F8EC42052095F86014294481F861046D
:1017200095F86004401C85F8600495F8F00210F00C
:10173000070095F86014294481F8610495F8600465
:10174000401C85F86004052095F86015294481F84F
:10175000610595F86005401C85F8600595F8F00274
:1017600010F0070095F86015294481F8610595F897
:101770006005401C85F86005E0E618F1020087422C
:1017800001DAB846DAE606EB0800407818F10208FC
:1017900010F00F0085F8A30104F0ACFCC5F8A4011B
:1017A000012085F8E802042095F86014294481F8A6
:1017B000610495F86004401C85F86004BEE618F1E9
:1017C0000600874201DAB846B8E606EB080090F852
:1017D00001A006EB0800801CFFF7A2F9040006EB4D
:1017E000080090F805B0802085F8E90295F86A06AF
:1017F000401E5146C9B2884268DA002C20D106EB5F
:1018000008008078002814D106EB0800C078002872
:101810000FD106EB0800007900280AD15046C0B26B
:10182000FFF749F995F8E90250F0030085F8E9025D
:1018300052E095F8E90210F0FE0085F8E9024BE06D
:101840001BF00F005946C9B209098DF80210C0B249
:10185000FEF782FC002805D19DF80200FEF77CFC13
:10186000002806D095F8E90250F0020085F8E90258
:1018700005E095F8E90210F0FD0085F8E9024FF661
:10188000FF725FF0FF3311001BF00F0081405FFA21
:101890008BFB5FEA1B1BDBF10F0B52FA0BF20A40CA
:1018A00092B221005046C0B2FFF7B9F8002806D026
:1018B00095F8E90250F0010085F8E9020CE095F88E
:1018C000E90210F0FE0085F8E90205E095F8E9026A
:1018D00010F0FE0085F8E90218F10608072095F8D7
:1018E0006014294481F8610495F86004401C85F86F
:1018F000600495F8E90210F0030095F8601429449B
:1019000081F8610495F86004401C85F8600415E6D0
:1019100018F10200874201DAB8460FE606EB08002C
:10192000407810F00F000100C9B2002900D1012059
:10193000401E85F83C04012085F8460418F1020891
:10194000082095F86014294481F8610495F8600432
:10195000401C85F86004082095F86015294481F83A
:10196000610595F86005401C85F86005E6E518F10D
:101970000500874201DAB846E0E506EB0800447846
:1019800006EB0800801CFFF7CBF8FC22002801D0F2
:1019900052F001022100C9B205EB8101D1F800111A
:1019A000002901D052F002021100C9B2FF2904D16E
:1019B000E4B205EB8401C1F8400118F105080A20E2
:1019C00095F86014294481F8610495F86004401C7E
:1019D00085F8600412F0030095F86014294481F83A
:1019E000610495F86004401C85F860040A2095F8AD
:1019F0006015294481F8610595F86005401C85F85B
:101A0000600512F0030295F86005284480F861250E
:101A100095F86005401C85F860058FE518F1060013
:101A2000874201DAB84689E506EB0800407806EB04
:101A30000801897850EA012006EB0801C97850EACC
:101A4000014006EB0801097950EA016006EB080144
:101A500049794FF47A725143090AFFF7E9FC18F10A
:101A600006086BE5B84669E54846C0B2002809D0CB
:101A70004B46DBB29DF80020BDF804109DF8010034
:101A8000FFF753FCBDE8F78F0000504638B504005F
:101A9000002500E06D1C03F002F92900C9B2C0B2B4
:101AA00081420ED22800C0B203F0FBF80028F1D02A
:101AB0002800C0B203F009F98442EBD12800C0B27B
:101AC00000E0FF2032BD2DE9F84F8CB082467A4FFE
:101AD00017F54276307810F0E00097F807530021B0
:101AE00087F86F16C0B260280AD0012087F86F0609
:101AF000002087F80703152004F046F80020D7E0FF
:101B00007479701CFEF748FBB01DFEF73EFB804663
:101B100014F00F000390C4F3401111F00101C4F35D
:101B2000801010F00100DDF80C9019F108092D1F4C
:101B3000012901D001280AD1802087F86F060020F2
:101B400087F80703152004F01FF80020B0E04D458A
:101B50000ADA202087F86F06002087F8070315208F
:101B600004F012F80020A3E05FF0FF34A94503DA87
:101B700016F8094019F101098DF808A09DF8080030
:101B800003F0A3F882469DF8080003F0D5F88346D9
:101B900008AA04A99DF8080003F0DCF80195009656
:101BA00001234246514604A8FEF74DFB002807D109
:101BB000042087F86F06152003F0E6FF002077E089
:101BC0001BF1010F05D141469DF8080003F0A8F86C
:101BD0002DE0D84514D25FF0FF30B0EB0B0B18EBC3
:101BE0000B0B44F20100834521D3082087F86F06D0
:101BF000002087F80703152003F0C6FF002057E0F8
:101C0000B8EB0B0B44F2010083450AD3082087F898
:101C10006F06002087F80703152003F0B5FF0020AA
:101C200046E018F101019DF8080003F079F8002C56
:101C300013D4B5EB090001280FDB012C01DA04A84D
:101C400000E008A8B5EB0901019106EB090100913C
:101C5000012342465146FEF774FB0398012801DA3E
:101C6000002C0AD1102087F86F06002087F80703A0
:101C7000152003F089FF00201AE0002C0BD597F8FF
:101C8000050350F0200087F8050387F8069300202D
:101C900087F807030BE097F8050350F0100087F86A
:101CA000050387F80693B5EB090987F80793012028
:101CB0000DB0BDE8F08F0000600000202DE9F84F66
:101CC00086B0DFF8506A16F54277387810F0E001F8
:101CD0008DF8081096F80793002186F86F16D6F84D
:101CE000D8120591B9F10C0F02DB10F0030F19D0D7
:101CF000202086F86F06002086F807030598C6F8AE
:101D0000D80296F8050300070AD596F86F06002852
:101D100006D096F86F06FF2802D0152003F034FF96
:101D2000002098E197F80580781CFEF735FA050049
:101D3000B81DFEF72AFA18F00F010391C8F34014FA
:101D400014F00104DDF80CA01AF1080AB9F1040935
:101D5000D6F8D4128D4216D096F8050300070AD59E
:101D60002800FFF793FE0100C9B2FF2903D0C0B2DB
:101D7000FFF7A9FE6FE196F80503000702D40220E1
:101D800086F86F06B7E79DF8081060290AD09DF81D
:101D90000810A02906D096F80513090702D40121DE
:101DA00086F86F16D14503DA202086F86F06A2E781
:101DB0005FF0FF35CA4503DA17F80A501AF1010A35
:101DC000D6F8D812090C61F31F40834606F2B22000
:101DD0000490CDF80490009701235A46D6F8D41207
:101DE0000498FEF730FA002814D11BF5803BCDF89B
:101DF0000490009701235A46D6F8D4120498FEF7AF
:101E000022FA002806D1042086F86F06142003F079
:101E1000BBFE70E7D6F8D802834517D2D6F8D802B1
:101E2000401E834503D19DF80800A0281AD05FF01A
:101E3000FF31D6F8D802091A1BEB010144F2010068
:101E400081420FD3082086F86F0654E7D6F8D802EF
:101E5000BBEB000044F20101884203D3082086F85E
:101E60006F0648E796F8BB01012805D1002C03D185
:101E7000402086F86F063EE7002D0AD1B9EB0A0034
:101E8000012806DB0398012803DB102086F86F0683
:101E900031E71BF10100C6F8D80218F0100086F8EF
:101EA0004404002086F845049DF80800A02801D1CC
:101EB000202000E0002086F8E00296F8E0020028EA
:101EC00002D15FEAC86010D5B6F8AC0150F010003E
:101ED000A6F8AC0196F83404022806D1B6F8AC1185
:101EE0004FF6FE700140A6F8AC11002086F8B20152
:101EF00096F8B20186F8E20296F9E10210F1800F3D
:101F000003D07FF03F0086F8E10296F90D0010F152
:101F1000200F01DAE02003E0202801DB1F20FFE78B
:101F200086F8E302002D15D4B9EB0A00012811DB75
:101F3000012D01DA049801E006F2C220B9EB0A0192
:101F4000019107EB0A01009101235A46D6F8D412F9
:101F5000FEF7F7F9002086F8600517F10808002D54
:101F60000AD1B9EB0A00012806DB07EB0A00B9EB3E
:101F70000A01FFF7BDFA0DE0039886F85004039AB2
:101F8000414606F25147380001F0ACFD0399404646
:101F9000FFF7AEFA96F87B0696F86014884210D2E6
:101FA000B6F8AC0150F01000A6F8AC0196F8340475
:101FB000022806D1B6F8AC114FF6FE700140A6F823
:101FC000AC1196F8BB0101281BD1002C01D0802058
:101FD00000E0402096F80513084386F80503002C1E
:101FE0001ED0002086F80403002086F8BB010020E4
:101FF00086F8BC01002086F84804002086F84904D1
:102000000EE0002086F80403002086F8BB010020C3
:1020100086F8BC01002086F84804002086F84904B0
:10202000002D0BD596F8050350F0200086F8050327
:1020300086F806A3002086F807030BE096F8050350
:1020400050F0100086F8050386F806A3B9EB0A0ADB
:1020500086F807A3012007B0BDE8F08F10B5DFF8C0
:10206000B446022084F8050394F8EA02FEF76BF800
:10207000E081D4F8EC02A060002084F8070394F813
:10208000340402280DD194F8AC01C00709D594F8A6
:10209000050350F0080084F80503032004F0F7FE60
:1020A00002E0022004F0F3FE10BDDFF8682613689A
:1020B000C318513B53600B00DBB2072B02D13C200D
:1020C000107412E00B00DBB2022B02DA062010744F
:1020D0000BE0C9B2062906D111684018A238506039
:1020E0001020107401E008201074704738B50C00FF
:1020F000DFF8205695F8EA12FFF7D7FF95F8340479
:10210000022807D122006968413915F5856004F07D
:1021100030F806E022006968413915F1180004F032
:1021200028F831BD803DD51238B50400DFF8E455FC
:10213000012085F8050395F83604FEF704F8E881D8
:10214000D5F83804A8600121E889FDF7EAFFE881A5
:10215000002085F80703C5F8404495F834040228A8
:1021600006D1B5F8AC114FF6FE700140A5F8AC11E0
:10217000022004F08CFE31BD70B504000D00FEF7A6
:1021800051FFDFF89065717C2000FFF78EFF2A0079
:102190007168413916F1180003F0EBFF70BD80B58E
:1021A0000820FFF707F800F069FF01BD2DE9F041B5
:1021B000DFF8604594F8AC01000601D40020F2E09D
:1021C00094F8070300283AD194F8AC0140071AD4D8
:1021D00094F8AC01800601D40020E4E0B4F8AC111E
:1021E0004FF65F700140A4F8AC1194F8B2010A28D0
:1021F00004DA94F8B201401C84F8B2010920FEF719
:10220000D9FF0120CFE0B4F8AC114FF67F70014048
:10221000A4F8AC11FEF769FF0500E80702D5DFF866
:10222000406C01E0DFF83C6C03F064FF32002D18D5
:10223000290014F1180003F09CFF0120B3E094F88A
:10224000086394F807532800C0B2204410F5417089
:10225000FDF7A2FF2800C0B2112803D02800C0B2A9
:10226000212804D1F6B216F0E306202E09D094F806
:102270000503C00701D5002095E0002084F807037E
:10228000A2E704F209362900C9B2491E3000FEF760
:102290004AF82900C9B2091F14F54270FEF729F85F
:1022A0000028E4D004F20F30FDF776FFC4F8D40222
:1022B00014F54370FDF770FF20F07F40C4F8A801CB
:1022C0000020FEF78CFA94F8137317F00F0794F8B8
:1022D0001303C0F302183800C0B2FDF73DFF002819
:1022E00009D04046C0B2FEF7C0FF002803D084F8F2
:1022F000358484F8EA7294F8140310F00F0001009A
:10230000C9B2002900D10120401E84F83C04EDB27E
:10231000122D1DDB0D2594F86A7612E02800C0B25C
:10232000204410F54270FEF7FBFB002807D05FF059
:10233000FF33002201003800C0B2FEF770FB7F1CA3
:10234000ED1C3800C0B294F86A16491D8842E5DBDE
:1023500004F2C22304F2B2223100B4F8B002401EEB
:1023600080B2FEF729F894F8AC0110F0240F01D1E7
:10237000002018E094F8AC01800607D594F8B2115B
:1023800094F8B001FDF7F4FE84F8B001B4F8AC1194
:102390004FF659500140A4F8AC11FEF712FF062089
:1023A000FEF708FF0120BDE8F08180B5FFF7FEFED3
:1023B000DFF8601391F80703002805D1002081F8A9
:1023C0000503102003F0E0FB01BD80B5DFF8840CAD
:1023D000D049C1F84004FFF741FE01BD80B5CD48AA
:1023E00090F80703002803D0FFF7E0FE002805D18E
:1023F000DFF8801C5FF44030FFF778FE01BD80B548
:10240000DFF8740CFFF790FE01BD80B5052003F0E6
:10241000BBFBDFF8C81C5FF42030FFF7ADFE01BD49
:1024200010B5BC4C14F5856003F076FE0020C4F8AE
:102430004004002084F8070394F86F06FF2802D0B8
:10244000102003F0A1FB00F025FB94F87006002893
:1024500002D0162003F098FB94F83404022806D129
:1024600094F8AC0110F0180F01D100F039F910BD4B
:1024700010B5A84C94F80703002817D1002084F861
:10248000050394F83404022809D194F8AC01C0077C
:1024900005D5FF2084F86F0600F022F905E0DFF88B
:1024A000B01C14F1180003F04FFE5EE094F8340401
:1024B000022809D114F5856003F02EFEB4F8AC01B2
:1024C00050F08000A4F8AC0100F0E4FA00281AD122
:1024D000002084F8050394F8340402280CD194F801
:1024E000AC01C00705D4DFF8681C14F5856003F063
:1024F0002BFE00F0F5F805E0DFF8541C14F118008D
:1025000003F022FE31E094F8340402280BD194F851
:102510000503000707D594F8AC01C00703D514F1F3
:10252000180003F0F9FD94F80503400612D5B4F83D
:10253000AC0150F08000A4F8AC01DFF8141C14F1D9
:10254000180003F001FE94F8340402280DD100F0C5
:10255000C7F80AE094F83404022806D194F8AC01D4
:1025600010F0900F01D100F0BBF810BD10B5694C10
:10257000B4F8AC114FF6FE700140A4F8AC11DFF8CE
:102580002C0CC4F8400494F83404022802D1002032
:1025900004F07DFCFFF762FDDFF8902C216894F8D1
:1025A0003C344FF4004000FB031111F5A02114F15D
:1025B000180003F0DEFD10BD80B5002004F067FCBC
:1025C000042004F064FCDFF8881BDFF87C0C03F0C7
:1025D000BBFD01BD38B54F4C14F11805280003F0C0
:1025E0009BFD002084F86F0694F80703002803D0B1
:1025F00000F050FA002811D1DFF8501C94F83C0488
:102600004FF40042504310F58030FFF76FFD94F80F
:102610003404022801D100F063F81AE094F80503AD
:1026200040060BD5B4F8AC0150F08000A4F8AC0122
:10263000DFF8F81B280003F087FD0AE094F8340463
:10264000022806D194F8AC0110F0900F01D100F0EF
:1026500047F831BD10B52F4C94F83404022802D14C
:10266000002004F014FCDFF8440CFFF75DFDDFF8F8
:10267000402C216894F83C344FF4004000FB0311D7
:1026800011F5A02114F1180003F073FD10BD10B571
:10269000204CB4F8AC0150F08000A4F8AC0100204C
:1026A00084F85004002084F80503002084F86F06A5
:1026B000002084F870060A2003F066FADFF8541C44
:1026C00094F83C044FF40042504310F50040FFF7EB
:1026D00053FD94F83404022801D100F001F810BD34
:1026E00010B5FDF7C8FE002813D00A4C94F8EA0292
:1026F00007280ED0002004F0CAFBB4F8AC0150F05B
:102700000100A4F8AC01DFF8A40AC4F84004FFF704
:10271000A5FC10BD600000202DE9FC41DFF8905AB7
:1027200095F8AC0110F01800102801D0012400E049
:1027300000242000C0B2002802D095F8BC6100E05F
:102740000026082795F8480400280ED095F80403C1
:1027500000280AD1022095F86014294481F8610408
:1027600095F86004401C85F8600495F84904002839
:102770000ED095F8040300280AD10D2095F86014B6
:10278000294481F8610495F86004401C85F86004D0
:1027900095F8600400283BD095F8B001082805DAC8
:1027A000DFF8EC0B95F8B011405C00E0FF2095F8E5
:1027B0006014884203DA002085F860044DE095F843
:1027C0007B0695F8601488420ED395F8602405F2D4
:1027D000614105EB070010F54278404601F082F9AF
:1027E00095F86004C71938E0002085F8BA0195F81B
:1027F000602405F2614105F2BD14200001F072F978
:1028000095F8600485F8BC0195F8BC61012424E0CA
:1028100095F86005002820D095F8600510281CDA8E
:1028200095F8B001082805DADFF8640B95F8B011C7
:10283000405C00E0FF2095F8601588420DDB95F8BC
:10284000602505F2615105EB070010F5427840461E
:1028500001F048F995F86005C71995F8E2020028DB
:1028600009D095F9E102002802D5002085F8E1029F
:10287000002085F8E2022000C0B2002805D0B04652
:102880005FFA88F818F1050801E05FF0040818EB1A
:102890000708404680B2B0F5807F02DB002417F1C4
:1028A0000408402085F8080395F9E102002801D4C6
:1028B000402100E0002195F8E02295F8E60202436D
:1028C000114338000838014385F80D13D5F8D412A8
:1028D00005F20930FDF77DFC95F80403002804D1CA
:1028E000D5F8DC02401CC5F8DC02D5F8DC02411E3C
:1028F00089B205F20E30FDF767FC95F8E00200287A
:102900000ED095F8AE0100280AD095F8040395F88A
:10291000AE11491E884206D1002085F8E00202E08F
:10292000002085F8E002E4B2002C36D095F8BB0117
:10293000002809D0802085F8080395F804030028B2
:1029400002D1012085F8040395F8BA0105EB0701CF
:1029500081F808033200D2B205F2BD1105EB070081
:1029600000F20934200001F0BDF895F8BA01002802
:1029700002D105F2B22001E005F2C220F6B20196C2
:1029800005EB070101F2093100910023D5F8DC22A3
:10299000521ED5F8D412FDF7D4FC404680B2001F79
:1029A000019015F5427000900023D5F8DC22521EEC
:1029B000D5F8D41205F2B220FDF769FC85F807833B
:1029C000BDE8F38138B5DFF8E85715F5427420709B
:1029D000601C02F06BFF14F1090002F071FFB5F802
:1029E000B01214F11100FDF7EFFB13212000FDF7E9
:1029F0006CFC172085F80703B5F8B002401CA5F859
:102A0000B00231BD80B500F02FFA01BD10B5FDF761
:102A100032FD002835D1DFF8984794F8AC0110F06A
:102A2000900F01D000202DE0002084F8A3010020A9
:102A300084F83504002084F83C04002084F87006F3
:102A4000002084F86F06B4F8AC114EF2DE7001403D
:102A5000A4F8AC11002084F8BB0184F8040384F8C6
:102A6000B201FEF71DFBB4F8AC0150F00400A4F86D
:102A7000AC01DFF8981B14F1180003F065FB01208E
:102A800000E0002010BD80B5DFF8E00B401CFDF732
:102A900083FB02BD38B5DFF8184794F8AC01000697
:102AA0003AD594F80703002803D094F805034006AC
:102AB00032D594F8BB0100282ED194F8040394F881
:102AC000AE11491E884227DA0020C4F8400494F869
:102AD0000403401C84F804030220FDF7EEFD01000E
:102AE00094F83C044FF4004202FB001111F5C03190
:102AF0002068FDF70CFEB4F8AC114FF67E70014073
:102B0000A4F8AC11B4F8AC0150F00800A4F8AC0182
:102B100000F0AAF9012032BD94F8AC0110F0810058
:102B2000012804D1FF2084F86F060020F3E794F811
:102B30000703002804D094F80503400640F15A81A9
:102B400094F8040300287BD094F8BB01012877D1C6
:102B500094F8040394F86816884254D20020C4F80C
:102B6000400494F80403401C84F8040394F804031C
:102B7000022190FBF1F201FB1200012815D194F81B
:102B80000403022811DB94F8B001FDF77EFC002855
:102B90000BD1012194F8B001FDF7EAFA7FF07F0232
:102BA0000100C9B20220FDF7F7FD00F0D9FC94F84E
:102BB000BC11C0B2884206D2002084F8BB010420B8
:102BC00084F8700625E00220FDF777FD94F83C14A8
:102BD0004FF4004202FB010010F5C03001002068F4
:102BE000FDF795FDB4F8AC114FF67E700140A4F8E6
:102BF000AC11B4F8AC0150F00800A4F8AC0100F03E
:102C000033F9012087E7002084F8BB01022084F813
:102C10007006602084F80503002084F84804002032
:102C200084F84904002084F8600494F834040228ED
:102C30007DD1B4F8AC0150F00100A4F8AC0176E00D
:102C400094F8440410285CD1012194F8AE010028C6
:102C500002D094F8AE01414394F84504C9B28842C9
:102C600032D294F80403002809D094F8451494F85B
:102C70000403411884F84514002084F8040394F8F0
:102C80004504401C84F845040220FDF716FD94F825
:102C90003C144FF4004202FB010010F5C03001006B
:102CA0002068FDF734FDB4F8AC114FF67E7001409A
:102CB000A4F8AC11B4F8AC0150F00800A4F8AC01D1
:102CC00000F0D2F8012026E7002084F84404002018
:102CD00084F84504202084F80503002084F8480483
:102CE000002084F84904002084F8600494F8340437
:102CF00002281CD1B4F8AC0150F00100A4F8AC01DA
:102D000015E0202084F80503002084F84804002002
:102D100084F84904002084F8600494F834040228FC
:102D200005D1B4F8AC0150F00100A4F8AC0194F95D
:102D3000E10210F1800F04D094F8E102401C84F805
:102D4000E10294F8B001FDF7A0FB002803D07FF06A
:102D50007F0084F8E10294F9E102002806D1B4F87A
:102D6000AC01C00402D4002084F8E102002084F801
:102D7000070394F8070384F80603B4F8AC114FF680
:102D800077700140A4F8AC1194F8050310F0070F18
:102D90000AD0B4F8AC01C00406D5B4F8AC114EF6B4
:102DA000FF700140A4F8AC1100F05EF894F9E10264
:102DB00020281DDB94F8B001FDF7E5FB7FF07F05CF
:102DC0002A000100C9B20320FDF7E6FC94F8B00127
:102DD000FDF75BFB002803D1002084F8E10201E04D
:102DE00084F8E152B4F8AC0150F48050A4F8AC017E
:102DF000012090E6FEF762FF002801D100208AE65C
:102E00000020C4F84004FFF73EFED4F8D4128842F4
:102E100003D10A2002F0B8FE02E0172002F0B4FE4F
:102E2000ABE710B5DFF88843B4F8AC114FF6777014
:102E30000140A4F8AC1114F1180003F06DF914F579
:102E4000856003F069F9002004F021F8112002F0F8
:102E50009BFE94F83404022801D1FFF741FC10BD19
:102E60009F210008AD1100082DE9F041DFF8406313
:102E700096F8AC0110F0C10F40F0D58003F03AF99C
:102E80000700002000250020C6F8740696F8AC0163
:102E900010F03C0F00F0CD8096F8AC0110F0240F3C
:102EA00001D0012400E00024B6F8AC0100051DD5D6
:102EB00000213800FDF750FF05003560E81BDFF802
:102EC000A41A88420AD1B6F8AC114FF6E770014057
:102ED000A6F8AC11122002F057FEA4E0B6F8AC112F
:102EE0004FF2FF700140A6F8AC1100E0356896F88B
:102EF000A301002803D1B6F8AC01C00506D5D6F869
:102F0000A401281A002801D5D6F8A45196F8A201E8
:102F100006EB800090F8001111F00701E81B413822
:102F2000002808D4C9B22420414306EB010090F8E0
:102F30003000002868D03D0096F8B0812000C0B273
:102F4000002815D096F8AC01800608D596F8B21185
:102F50004046C0B2FDF70CF98046C02000E00020DA
:102F6000C0B2FFF72FFDDFF8680AC6F8400405E09D
:102F7000FFF7D2FBDFF85C0AC6F840044046C0B257
:102F8000FDF7DAF896F8B11180B2FDF7BEF8F081DE
:102F900086F81180B6F8AC114FF6EF60014051F49D
:102FA0000861A6F8AC112800FDF775FE96F8340408
:102FB000022802D1002003F06AFFE4B2002C08D0FE
:102FC000DFF8142A17F5A02116F1180003F0D1F844
:102FD00007E0DFF8042A17F5802116F1180003F046
:102FE000C8F8D6F86406002802D0D6F864068047F0
:102FF000012003F04CFF96F80713F089FDF7E3FA80
:10300000C719553737600EE096F8AC0180070CD42D
:10301000132002F0B9FDDFF8C429413D290016F163
:10302000180003F0A6F8BDE8F081002DF3D16D1C67
:10303000F1E796F8AC018007EDD4F4E7C0B20028C0
:1030400001D0802000E00020DFF8941981F8E6022A
:1030500070470000AB23000880B50A00DFF8801934
:1030600081F8470452B20100C9B20020FDF794FB79
:1030700001BD0000CB230008DD23000810B50020AF
:1030800003F005FF4A4C14F1180003F045F814F55D
:10309000856003F041F8002084F86006002084F881
:1030A0000403002084F8BB010020C4F8D4020020EF
:1030B000A4F8AC01002084F8B101002084F8480491
:1030C000002084F84904002084F86004002084F87B
:1030D00060050020FDF783FB10BD0000FF23000802
:1030E00038B5334C4020A4F8AC01012084F86906BF
:1030F0000020A4F86C06002084F86E06802084F876
:10310000E602002084F84504FF2084F87D060021B3
:1031100009E000220B00DBB22420434304EB030050
:1031200080F82720491C0800C0B20628F1DB00F017
:103130009FFA0020C4F84C0402F061FF0500EDB2D4
:1031400002F05DFF50EA0520A4F8B00231BD000096
:103150002124000880B5DFF88818002081F8700667
:10316000002081F86F0691F83404022806D1B1F8E6
:10317000AC214FF67E700240A1F8AC21B1F8AC2131
:103180004FF67F700240A1F8AC21B1F8AC0150F0CD
:103190000800A1F8AC0191F8AC01400702D400206E
:1031A00081F80403FFF760FE01BD000071240008F0
:1031B000600000202DE9F84305000C0090461E0039
:1031C000FDF759F9002802D17FF002002CE0DFF86A
:1031D000107897F8B001072808DA00F0C1F94146E5
:1031E000C9B288420DD27FF001001DE097F860045B
:1031F000D0F1F2004146C9B2884202DA7FF0010004
:1032000012E0002C07D04246D2B207F2BD192100CD
:10321000484600F067FC87F8BB6187F8BA5187F829
:10322000BC81FFF797FF0020BDE8F283212400084E
:1032300080B5FDF720F9002805D0002300220021E9
:103240000120FFF7B7FF01BD780000206D250008C1
:1032500070B50D0011001C00DFF88467C6F8A801E6
:10326000C6F8D452002905D0102206F2B225280053
:1032700000F038FC002C06D0102206F2C2252100F6
:10328000280000F02FFC0020FDF7A9FAB6F8AC11D9
:103290004FF659500140A6F8AC11B6F8AC0150F405
:1032A0000060A6F8AC01FDF78CFF70BDD5250008C5
:1032B000B925000880B5DFF8281791F834240300F9
:1032C000DBB29A421ED081F834040200D2B2012A45
:1032D0000AD1B1F8AC214FF67E700240A1F8AC21C2
:1032E000002003F0D4FD0DE0C0B202280AD1FDF7A2
:1032F000C2F8002806D002F0FDFEC01C03F087FED5
:10330000FFF7EEF901BDDFF8D80690F834047047F6
:1033100000000000552600080120DFF8C41681F8DF
:10332000480470470120DFF8B81681F84904704757
:10333000DFF8AC16A1F86C06704710B5DFF8A046B0
:1033400094F8690610F07F00032803D11E2000F0D6
:10335000DFF802E0102000F0DBF8002107E094F82D
:103360002700002802D1E07C84F82600491C94F84C
:10337000FC008142F3DB10BD80B5DFF8641681F8F4
:103380006E0640B203F060FDFFF7D7FF01BD0000FD
:103390008414010810B502F0ADFE040001212000E4
:1033A000FDF7DAFC011BDFF8BC25914202D17FF06A
:1033B000010022E0DFF8283693F8A21103EB810127
:1033C00091F8002112F00702011B4139002908D4AD
:1033D000D2B224214A4303EB020191F830100029B4
:1033E00001D0002009E0041B4FF47A7080FB040137
:1033F0004FF40042002302F03BFF10BDDFF8E01560
:1034000091F869260300DBB29A4203D191F91300C7
:10341000C0B218E0C0B210F07F00C0B2012802D0E4
:10342000032802D003E0102002E01E2000E010205C
:1034300091F96E2616320300DBB29A4202DA91F954
:103440006E061630C0B2704770B50500002406E065
:10345000681CC0B2FCF7E6FFFF281ED1641C2000E8
:10346000C0B210281BDADFF87865B6F8A001012198
:10347000A1400842F2D02100C9B22800C0B2FDF735
:103480002EF80128EAD196F879060128E0D1280023
:10349000C0B20228DCDA002002E0012000E00020B7
:1034A00070BD30B59BB004000D006A4600212000BD
:1034B000C0B200F0A6F9002000E0401C01009DF819
:1034C0000020C9B2914215D269460200D2B201EB86
:1034D0004201B1F844100122AA401142EDD0E4B2F9
:1034E0000A3C0A2C04D2EDB2022D01DA002002E0DF
:1034F000012000E000201BB030BDDFF8E414C1F86B
:1035000064067047401CDFF8D81481F868067047DD
:10351000DFF8CC1491F96E26163203005BB29A42A2
:1035200004DA91F86E061630C87400E0C87470476B
:10353000DFF8AC0490F8B01108290FDA90F879168A
:10354000012905D1DFF89C1490F8B001085C06E071
:10355000DFF8941490F8B001085C00E00020704798
:1035600080B5FFF7E5FF0100C9B2002906D0DFF8FA
:10357000701491F86014401AC0B200E0002002BD3F
:1035800070B4DFF85C4494F8693613F07F03012BC4
:103590002CD10300DBB2062B26DA94F91330150088
:1035A000EDB21BB22DB2AB421EDB0B00DBB2002B27
:1035B00001D0012300E0002324250600F6B26E436B
:1035C000264486F82730C9B2002905D0C0B2684326
:1035D000204480F8262005E0C0B268432044E17C06
:1035E00080F82610012002E0002000E0002070BCDE
:1035F0007047DFF8EC0390F8690610F07F000128AF
:1036000001D1062000E0002070470000052A0008D4
:1036100030B4DFF8CC3393F8694614F07F04012C02
:1036200020D10400E4B2062C1ADA24240500EDB2FD
:1036300065431D4495F827500D700100C9B26143E0
:10364000194491F82710002902D1D87C107005E0A8
:10365000C0B26043184490F826001070012002E0C8
:10366000002000E0002030BC70470000680300200C
:10367000F8B502F03FFD0400DFF8645395F86906E1
:1036800010F07F00032829D11E20FFF741FF012001
:1036900085F8FC00E87C85F8280095F827000028CC
:1036A00002D1E87C85F8260002F0A9FC102190FBED
:1036B000F1F201FB120085F82900EC62002085F888
:1036C0004400FDF70BF9002085F840000A2028751A
:1036D00007206875052085F878064FE01020FFF771
:1036E00017FF062085F8FC00002638E0242730006C
:1036F000C0B278432844E97C80F828103000C0B27A
:103700007843284490F82700002806D13000C0B242
:1037100078432844E97C80F8261002F070FC1021E0
:103720003200D2B27A432A4490FBF1F301FB13003A
:1037300082F829003000C0B278432844C4623000C7
:10374000C0B278432844002180F844103000C0B251
:1037500007FB00F705EB070080F84060761C30009F
:1037600095F8FC10C0B28842C0D3FDF7B7F8072027
:10377000287505206875072085F87806F1BD80B5A5
:103780009749020091F86936D2B29A4203D081F883
:103790006906FFF773FC01BD914991F8691611F0B4
:1037A0007F01032901D100202AE09049411A904A63
:1037B000914201D2002023E08E49411A8E4A914263
:1037C00001D201201CE08D49411A8D4A914201D25B
:1037D000022015E08B49411A8B4A914201D2032005
:1037E0000EE08A49411A8A4A914201D2042007E038
:1037F0008849401A8849884201D2052000E000200B
:10380000704710B40100C9B211F07F01C9B201299B
:1038100002D0032923D045E0032111707F49516074
:103820007F4991607F49D160002107E03F230C0070
:10383000E4B202EB4404A4F84430491C0B001478B1
:10384000DBB2A342F2D3000603D4002082F8640066
:1038500002E0032082F86400734890663EE0032192
:10386000117072495160724991607249D1600021B2
:1038700007E03F230C00E4B202EB4404A4F8443018
:10388000491C0B001478DBB2A342F2D3000603D428
:10389000022082F8640002E0042082F86400664896
:1038A00090661BE0032010705C4850605C4890609C
:1038B0005C48D060002007E03F210300DBB202EB50
:1038C0004303A3F84410401C01001378C9B2994285
:1038D000F2D3002082F864005348906610BC704711
:1038E0000100C9B2102900DB0F203D4981F87B0699
:1038F00070470100C9B2032904DA394981F87C060E
:10390000012000E00020704780B5C0B203F0A1FAAA
:1039100001BD334981F87D06704710B51400C0B26F
:1039200000280ED00800FDF7FBF8002807D02C492E
:1039300088608C74052003F0AAFA012005E00020BD
:1039400003E0002003F0A3FA012010BD80B50020A1
:1039500003F09DFA042003F09AFA3849384802F03F
:10396000F3FB01BD0000504610B5C0B2002829D0BD
:103970000021002213E02423194C1000C0B2584348
:10398000204490F83000002808D01000C0B203FB9B
:1039900000F304EB030090F844004118521C10009F
:1039A000C0B20628E7DBC9B2012909D102F0A2FBA7
:1039B0000021FDF7D1F9052003F069FA012005E0A7
:1039C000002003E0002003F062FA012010BD000097
:1039D0000B2400088F260008232E0008AD110008D4
:1039E000600000208C14010884140108C055703355
:1039F00081841E0040DA8E33C1C62D0000A1BC3385
:103A0000C1270900604FC73321A10700C0FDD13392
:103A100091D00300A091D633E1930400A027BE33D8
:103A2000E034C1332042C43308E6D33364CE8F334D
:103A300084FE9433E8E19D33F080A633212400080E
:103A40007800002062F30F2262F31F42401810F04A
:103A5000030308D0C91A1FD3DB0748BF00F8012DA4
:103A600028BF20F8022D130030B414461546103933
:103A700028BF20E93C00FAD8490728BF20E90C00FC
:103A800048BF40F8042D890028BF20F8022D48BF08
:103A900000F8012D30BC7047C91818BF00F8012D7F
:103AA000CB0728BF00F8012D704730B4002513E084
:103AB00050F8042BD30744BFA9F101039A18091F3A
:103AC000042942F8045BFAD213468C0744BF1580E0
:103AD0009B1CC90748BF1D7050F8041B0029E7D183
:103AE00030BC704762B38B0708D0521E11F8013BFF
:103AF00000F8013B00F024808B07F6D1830740F0EB
:103B0000208000BF103A07D330B4B1E83810103A23
:103B1000A0E83810F9D230BC530724BFB1E8081030
:103B2000A0E8081044BF51F8043B40F8043BD2071A
:103B300024BF31F8022B20F8022B44BF0B7803700E
:103B40007047121F17D35B0009D151F8043B20F8CE
:103B5000023B1B0C121F20F8023BF6D20BE051F87F
:103B6000043B00F8013B1B0A20F8023B1B0C121F10
:103B700000F8013BF3D238BF121D521E24BF11F8CA
:103B8000013B00F8013BF8D87047018130B40021B7
:103B900017E0DFF8480750F8212050F821301B02C9
:103BA00013F47F0353EA026350F82120120A12F43F
:103BB0007F42134350F8212053EA126340F821302A
:103BC000491C0429E5DBDFF81427D3682DE0042025
:103BD00091FBF0F400FB141000281ED1DFF8000761
:103BE0001C00240CE4B2045D1D002D0AEDB2455DFD
:103BF0002D0495EA04651C00E4B2045D95EA0425F1
:103C00001B0EC05C2B004340081F042490FBF4F003
:103C1000DFF8D04654F82000434002EB810050F812
:103C2000100C434042F82130491C2C29CFDB30BC1A
:103C300070472DE9F74F82B00400FFF7A7FF200778
:103C400007D50021DFF8A006C160816041600160F6
:103C5000A3E0DFF8940601680268120212F47F0202
:103C600052EA01620168090A11F47F410A430168BE
:103C700052EA1162026041684268120212F47F0245
:103C800052EA01624168090A11F47F410A4341681E
:103C900052EA1162426081688268120212F47F0265
:103CA00052EA01628168090A11F47F410A4381687E
:103CB00052EA11628260C168C268120212F47F0285
:103CC00052EA0162C168090A11F47F410A43C168DE
:103CD00052EA1162C26060E01000000E03990870A1
:103CE0001000000C039948701000000A03998870B6
:103CF0000398C2703000000E039908713000000C68
:103D0000039948713000000A039988710398C671BD
:103D10003800000E039908723800000C03994872AD
:103D20003800000A039988720398C7721800000EC1
:103D3000039908731800000C039948731800000ACF
:103D4000039988730398C37319E0039810F805C0AA
:103D50001000000E90EA0C0C039800F805C0120247
:103D600015F00300032802D132003E001F006D1C35
:103D70008D42EAD3DFF87005C168491CC16014F0B8
:103D80000A00022807D0039810300390BDF81000F5
:103D90001038ADF8100054F00804BDF9100000B25E
:103DA0000128C0F29682610703D414F00A010229A7
:103DB00006D1DFF83405026846688768C3683EE0CC
:103DC000A10740F17182BDF81010112980F26C82B8
:103DD0000022130017001600BDF81000102801D1B2
:103DE000012000E0022054EA001428E0002504E04D
:103DF000BDF81050A942F9D180258446280050EA28
:103E00000C2011F00305032D03D132003E001F00EA
:103E10000300491C102906D2BDF81050A942E7D270
:103E2000039D6D5CE9E7A00709D5DFF8BC140868BD
:103E300042404868464088684740C8684340DFF8C9
:103E40009CE41EF180000090DEF800004240150066
:103E5000DEF804004640DEF808004740DEF80C00BB
:103E600043409C46DEF81480DEF81890DEF81CA073
:103E7000DEF810B0DFF874042900C9B250F8211040
:103E800091EA0808DFF868142A00120AD2B251F841
:103E9000222092EA0909DFF85C242B001B0CDBB21C
:103EA00052F8233093EA0A0ADFF84C342D0E53F807
:103EB000255095EA0B05B3465FFA8BFB50F82BB003
:103EC0009BEA0909B3465FEA1B2B5FFA8BFB51F8AB
:103ED0002BB09BEA0A0AB3465FEA1B4B5FFA8BFBE7
:103EE00052F82BB09BEA0505360E53F8266096EA89
:103EF00008084646B8465FFA88F850F8288098EADD
:103F00000A0AD046BA465FEA1A2A5FFA8AFA51F8D4
:103F10002AA09AEA0505BA465FEA1A4A5FFA8AFABF
:103F200052F82AA09AEA06063F0E53F8277097EA3D
:103F300009094F46E1465FFA89F950F8299099EA54
:103F40000505E1465FEA19295FFA89F951F82990D8
:103F500099EA0606E1465FEA19495FFA89F952F8DB
:103F6000299099EA07075FEA1C6C53F82CC09CEA79
:103F70000808C446DEF82480DEF82890DEF82CA07D
:103F8000DEF820B0CDF804B0AB465FFA8BFB50F8FA
:103F90002BB09BEA0808AB465FEA1B2B5FFA8BFB52
:103FA00051F82BB09BEA0909AB465FEA1B4B5FFA5D
:103FB0008BFB52F82BB09BEA0A0ADDF804B02D0EF9
:103FC00053F8255095EA0B05B3465FFA8BFB50F882
:103FD0002BB09BEA0909B3465FEA1B2B5FFA8BFB08
:103FE00051F82BB09BEA0A0AB3465FEA1B4B5FFA13
:103FF0008BFB52F82BB09BEA0505360E53F8266072
:1040000096EA08084646B8465FFA88F850F82880CD
:1040100098EA0A0AD046BA465FEA1A2A5FFA8AFA8A
:1040200051F82AA09AEA0505BA465FEA1A4A5FFAE9
:104030008AFA52F82AA09AEA06063F0E53F8277029
:1040400097EA09094F46E1465FFA89F950F8299045
:1040500099EA0505E1465FEA19295FFA89F951F8FD
:10406000299099EA0606E1465FEA19495FFA89F95B
:1040700052F8299099EA07075FEA1C6C53F82C90D4
:10408000C44699EA0C0C1EF1200EDDF80080C645EE
:10409000FFF4E8AEDEF81480DEF81890DEF81CA01D
:1040A000DEF810B0CDF800B0AB465FFA8BFB50F8ED
:1040B0002BB09BEA0808AB465FEA1B2B5FFA8BFB31
:1040C00051F82BB09BEA0909AB465FEA1B4B5FFA3C
:1040D0008BFB52F82BB09BEA0A0ADDF800B02D0EDC
:1040E00053F8255095EA0B05B3465FFA8BFB50F861
:1040F0002BB09BEA0909B3465FEA1B2B5FFA8BFBE7
:1041000051F82BB09BEA0A0AB3465FEA1B4B5FFAF1
:104110008BFB52F82BB09BEA0505360E53F8266050
:1041200096EA08083E00F6B250F8266096EA0A0AB7
:104130003E00360AF6B251F8266075403E00360C55
:10414000F6B252F8266096EA08083F0E53F8276048
:1041500096EA09096646F6B250F8260045406046E0
:10416000000AC0B251F8200090EA08086046000C2E
:10417000C0B252F8200090EA09095FEA1C6C53F8BB
:104180002C0090EA0A0ADEF8202055492800000E8B
:10419000085C92EA00624046000CC0B2085C92EAF9
:1041A00000424846000AC0B2085C92EA002250462B
:1041B000C0B2085C4240DEF824604046000E085C55
:1041C00096EA00664846000CC0B2085C96EA0046D3
:1041D0005046000AC0B2085C96EA00262800C0B229
:1041E000085C4640DEF828704846000E085C97EAF6
:1041F00000675046000CC0B2085C97EA00472800F0
:10420000000AC0B2085C97EA00274046C0B2085CCA
:104210004740DEF82C005FEA1A6A11F80A3090EA8B
:1042200003602D0CEDB24B5D90EA03405FEA182865
:104230005FFA88F811F8083090EA03205FFA89F9EC
:1042400011F8091003004B40A00735D52000C0B27B
:10425000C0F30110002829D01100C90F1500320049
:10426000D20F52EA450235003E00F60F56EA4506E7
:104270003D001F00FF0F57EA45075B00002901D0F2
:1042800093F08703401E0028E6D117490D6855407A
:104290000D604D6875404D608D687D408D60CD68C6
:1042A0005D40CD6014F0CF040021B3E50E480260FC
:1042B00046608760C36062E560077FF50DADBDF8BD
:1042C0001000112801DB102101E0BDF810100025BD
:1042D0004EE50548006805B0BDE8F08F1C120020CF
:1042E0007C0E01082C1301083C170020240701084C
:1042F0002403010824FF000824FB0008DFF8680BF2
:10430000002180F83C10102180F83D10032180F836
:104310003E10012180F83F10072180F8491001214B
:1043200080F84A100021C1640F2180F85310002149
:1043300080F85410002180F84810002180F8E21124
:10434000704738B5002414E0DFF81C5B002005EB53
:10435000840181F8A50195F84A00FFF74FF805EBB5
:10436000840181F8A601002005EB840181F8A701F2
:10437000641C0F2CE8DB31BD10B50024DFF8E80A1F
:10438000012180F8E111022300F2E112082100204E
:1043900002F033FF002800D101242000C0B210BD7C
:1043A00010B5DFF8C44A022304F2E112082100200C
:1043B00002F0DCFEC0B2002804D0002084F8E20144
:1043C000002000E0012010BD7FB504000D006E4606
:1043D000CD20307328208DF80D000C21684603F0A5
:1043E00043F936208DF80E00B5208DF80F0000211E
:1043F00004E0625C705C42406254491CA942F8DBF4
:104400007FBD10B5DFF8784B102114F11800FFF7CD
:10441000DBFF102114F12800FFF7D6FF0821200050
:10442000FFF7D2FF102114F10800FFF7CDFF08219C
:1044300014F15500FFF7C8FF10BD70B50024082225
:10444000DFF83C5B15F1400115F155063000FFF730
:1044500049FBFFF7D6FF062085F8500060232A00AD
:104460000121022002F0C9FE002800D1012403F03E
:10447000B1FA00280AD060232A000221022002F0AB
:10448000BCFE002801D1012400E00024FFF7B9FFA1
:104490002000C0B270BD70B50500DFF8CC696023A4
:1044A00032002900C9B2022002F060FE040096F832
:1044B0005000002801D0FFF7A4FF96F85000032811
:1044C00002DA0F2086F8530096F85000042802DA2A
:1044D000002086F85400E4B2002C1DD0582332008E
:1044E0002900C9B2022002F041FE0400FFF789FF53
:1044F0002000C0B200280FD0E4B2082C0CD0EDB2DE
:10450000012D05D10220FFF7C6FFFFF71AFF01E0DA
:10451000FFF7F4FE002041E096F84A00002804D19D
:10452000DFF86C0B007886F84A0096F850000628F1
:104530001CDB2800C0B2012818D1012000210BE0AB
:1045400006EB010292F8402006EB010393F8553088
:104550009A4200D00020491C0829F1DBC0B2002893
:1045600004D10220FFF797FFFFF7EBFE96F850000B
:1045700005280EDBEDB2012D06D1FFF711FF96F8ED
:10458000E20186F8480008E096F8480086F8E20163
:1045900003E096F8480086F8E201012070BD10B5EE
:1045A0000024DFF8DC09012180F8A4113D2310F577
:1045B000D2720321022002F020FE002800D1012443
:1045C0002000C0B210BD80B501003D23DFF8302BC4
:1045D000C9B2022002F0CAFDC0B2002803D0FFF722
:1045E000B0FE002000E0012002BDDFF8940990F841
:1045F0003C11042905D090F83C01052801D0012088
:1046000000E00020704738B50400DFF8745985F8E1
:104610003F40FFF7EAFF00280DD0E4B2002C03D1A1
:10462000802003F0BBFA06E095F83C01002802D197
:10463000802003F0C0FA31BDDFF8440990F83F0054
:10464000002801D0012000E00020C0B2704780B5F2
:10465000FFF7F2FF002802D0802003F0ACFA01BD82
:10466000C0B200280ED0C9B2002905D00220DFF860
:10467000101981F8480013E00120DFF8041981F8CF
:1046800048000DE0C9B2002905D00320DFF8F0187A
:1046900081F8480004E00020DFF8E41881F84800C1
:1046A000DFF8DC0890F8481080F8E211704780B518
:1046B000C9B2C0B2FFF7D4FFFFF75EFE03F08AF97C
:1046C000002801D0FFF7B9FE01BD10B50400DFF8E6
:1046D000980790F84810802902D10020207016E039
:1046E00090F8480020702078012802D02078022815
:1046F0000DD100F0A2FA6060DFF82C0C90F8B00148
:104700002072FCF767F86072FEF72AFFA07210BDF6
:10471000DFF86C0890F848100800C0B2002802D0FA
:10472000C9B2032901D1002000E00120704710B573
:104730000400DFF84C0880F83E4014F00100FEF75A
:104740007DFC14F00400C0B28008C0B2002803D081
:104750000220FEF7AFFD02E00120FEF7ABFD14F0F2
:104760001000C0B20009C0B203F0D2F914F0200466
:10477000E4B264092000C0B2FFF7C6F810BD38B536
:10478000DFF8FC4794F83C0094F83D500100C9B2B2
:10479000082904DA290049B2C0B2FEF75DFC2800FE
:1047A00040B2FCF785F894F83E00800703D501205D
:1047B000FCF7B5F802E00020FCF7B1F894F85300DC
:1047C000FFF78EF831BD30B40221002200E0521C08
:1047D00013000C00DBB2E4B2A3420AD20300DFF8FC
:1047E000B0481500EDB2645DDBB2A342EFD1012009
:1047F00000E0002030BC704738B50500DFF868469F
:1048000094F83C01052801D1082059E094F83C01B6
:10481000002803D094F83C01042850D16879FFF7B0
:10482000D2FF002801D109204AE094F84A006979B2
:10483000884207D029786879FEF733FE002808D12E
:1048400007203DE02878FEF7FFFD002801D1072072
:1048500036E06879FEF7D2FD6978C0B2884201D2AD
:104860000A202DE0287884F83C00687884F83D0020
:10487000A878FFF75CFFE878FFF7C5FE2879FF28E6
:1048800001D1FE202871287984F849002879FEF7A3
:1048900039FE94F84A006979884207D0687984F82B
:1048A0004A006879FEF76BFF00F044FBA87984F8B2
:1048B0005300FFF764FFFFF7C0FD012000E0002078
:1048C00032BD38B50400DFF8B85695F83C002070CA
:1048D00095F83D00607095F83E00A070FFF7ACFEC3
:1048E000E07095F84900207195F84A00607195F8DC
:1048F0005300A07131BDDFF8880690F83E00000635
:1049000001D5012000E00020704770B505000224A9
:1049100089B22000C0B2B1EB400F1FDB002613E0CC
:10492000DFF86C073100C9B2415C3200D2B205F841
:1049300012103100C9B2405CFEF760FD3100C9B20F
:1049400005EB41014870761C30002100C0B2C9B2AD
:104950008842E5D3E4B26000C0B200E0002070BD40
:10496000F8B506000C001700DFF8145695F83C0166
:10497000052801D108203FE0FEF73BFE00283AD091
:1049800095F83C01002803D095F83C01042830D16B
:10499000FEF72FFE3100C9B2814201D30B202BE07C
:1049A0000120FEF72BFD3900C9B2884201D20A204E
:1049B00022E02000C0B2022800DB01243A00D2B27B
:1049C0002100C9B23000C0B2FEF7DAFD01280ED1D5
:1049D0003000C0B205EB800080F8A541F6B205EBCF
:1049E000860080F8A671FFF7DAFD012004E0FF20C1
:1049F00002E0002000E00920F2BD70B505000E00C5
:104A0000FEF7F7FD04002000C0B200282BD0B6B29C
:104A10002100C9B2032041438E4224DB002617E067
:104A20003100C9B2032041436E543100C9B20320A2
:104A3000414305EB0100821C3100C9B20320414310
:104A400005EB0100411C3000C0B2FEF7E1FD761C11
:104A500030002100C0B2C9B28842E1D303204443F0
:104A60002000C0B200E0002070BD38B50400DFF8BF
:104A7000105595F83C01052801D1082016E095F85D
:104A80003C01002803D095F83C0104280DD12000FA
:104A9000C0B2FEF72EFF002805D085F85440FFF77E
:104AA000CCFC012002E0042000E0002032BDDFF851
:104AB000D00490F85400704780B5DFF8C42492F811
:104AC0003C11052901D108200DE092F83C11002984
:104AD00003D092F83C11042904D1C0B2FEF719FFAB
:104AE000012000E0002002BDDFF8940490F83E00B1
:104AF000400601D5012000E00020704780B5DFF8B6
:104B0000802492F83C11052901D1082012E092F886
:104B10003C11002903D092F83C11042909D1006806
:104B2000D064D06C40B2FEF727FCFFF786FC012072
:104B300000E0002002BDDFF84814C96C0160704736
:104B400010B504000822DFF838142000FEF7CAFF71
:104B500010BD10B501000822DFF824442000FEF744
:104B6000C1FF10BD10B504000822DFF83C1A200078
:104B7000FEF7B8FF10BD10B501000822DFF8284A83
:104B80002000FEF7AFFFFFF758FC10BD10B5040082
:104B90001022DFF8C41C2000FEF7A4FF10BD10B5E2
:104BA00001001022DFF8B04C2000FEF79BFF10BD83
:104BB00010B50C00DFF8C81391F83C11052901D19C
:104BC000002007E0FFF7C5FF2000FFF7E8FFFFF731
:104BD00034FC012010BD10B50C00FFF7B1FF200020
:104BE000FFF7D4FF10BDDFF8981391F8380091F863
:104BF000392050EA022080B291F83A2091F83B1017
:104C000052EA012292B250EA02407047964981F876
:104C10003800020092B2120A81F839200200120C08
:104C200081F83A200200120C92B2120A81F83B205D
:104C3000DFF8F416C1F8D4027047DFF8EC06D0F8BC
:104C4000D402704770B50C001022CD4D15F1180636
:104C500001003000FEF746FF102228352100280011
:104C6000FEF740FF70BD38B504000D001000FFF7DF
:104C7000CDFF29002000FFF7E5FF31BD70B504002E
:104C80000D001022BE4E16F118012000FEF72AFF7B
:104C9000102216F128012800FEF724FF70BD032022
:104CA00070470100C9B203290DDAB54AC0B22C2100
:104CB0004843104490F86000002801D0012000E033
:104CC0000020C0B200E00020704710B401000800CE
:104CD000C0B2032821DA2C22A94B0800C0B25043ED
:104CE000184490F881000C00E4B254431C4494F83A
:104CF000824050EA042080B20C00E4B254431C44C9
:104D000094F88340C9B25143194491F8841054EA8D
:104D10000124A4B250EA044000E0002010BC704717
:104D20000200D2B2032A06DA954BC0B22C225043BD
:104D30001844C0F8881070470100C9B2032907DA87
:104D40008F4AC0B22C2148431044D0F8880000E0BC
:104D5000002070472DE9F041050088461400280026
:104D6000C0B2032815DA10222C26854F2800C0B2C5
:104D70007043384410F161014046FEF7B3FE102243
:104D8000EDB2754307EB050010F171012000FEF74D
:104D9000A9FEBDE8F08138B504000D00FFF725FC41
:104DA000002801D1082030E0FFF7B2FC002801D133
:104DB00003202AE02C4890F83C01002824D1002C44
:104DC00022D42800C0B202280ED1FEF7A5FA04981A
:104DD0000599C0B200280FD10091002300220121C3
:104DE000200000F00DFA10E0EDB20D2D02D1FEF71B
:104DF00099FAECE7042008E0009100230022012149
:104E0000200000F0E2F900E0002032BD38B50024B7
:104E10000CE005EBC40010F58A710868406A0028B0
:104E200003D000200968496A8847641C544D95F8EE
:104E300010018442EDD302F0CDFD00280DD195F88C
:104E40003C00FEF701FB002804D1002085F83C005F
:104E5000FFF795FCFEF7ECF904E0002085F83C0133
:104E6000FFF7F5FB31BD0000080C002080B5DFF82E
:104E7000B80C02F0D9FFFFF74BFC002802D0FFF777
:104E8000C5FF01E0FDF7C2FD01BD80B5DFF8F00C04
:104E900002F0CAFFFEF75AFD01BD10B54FF48C7148
:104EA0000022DFF8884C2000FEF7CCFDFFF79BFEC8
:104EB000334C14F1280314F1180201000020FEF70E
:104EC000C7F9FFF75CFC0022642114F5B67002F00C
:104ED00095FF10BD80B5FFF788FB002801D10020A9
:104EE0000AE08020264981F8110100210120FFF706
:104EF000DEFBFFF7D2FF012002BD70B504000D00FC
:104F00001600FFF772FB002801D1002011E080207D
:104F10001B4981F81101320029002000FFF7A3FE90
:104F200000210120FFF7C3FBFFF787FAFFF7B5FF6A
:104F3000012070BD38B5FFF758FB002801D10020D3
:104F40001CE00F4C14F5C47002F06EFF4FF48C712E
:104F50000022DFF8D85B2800FEF774FD002084F8FB
:104F60003C0100210020FFF77BFB00F087FA0021C5
:104F70000020FFF79CFBFFF76AFB012032BD000019
:104F8000080C00202DE9F041040015002C26DFF864
:104F9000F47B2000C0B270433844012280F86020C6
:104FA0002000C0B27043384480F881302000C0B285
:104FB000704338441A0092B2120A80F8822020000E
:104FC000C0B2704338441A00120C80F883202000CD
:104FD000C0B2704338441B0C9BB21B0A80F884306B
:104FE00010222000C0B27043384410F161084046DE
:104FF000FEF778FD10222000C0B27043384410F153
:10500000710829004046FEF76DFDE4B2744307EBDA
:1050100004005FF0FF31C0F88810BDE8F081F8B5FA
:1050200004000D0016001F00FFF7DFFA002801D171
:10503000002012E02000C0B2032801DB00200CE0B9
:105040008020DFF8401B81F811013B00320029006D
:105050002000C0B2FFF796FF0120F2BD10B504009A
:10506000FFF7C3FA002801D1002010E02000C0B2F1
:10507000032801DB00200AE00021DFF8082BE4B25E
:105080002C20444302EB040080F86010012010BD86
:105090008A3B000838B50400FFF7A7FA002801D1C1
:1050A00008202CE0DFF8DC5A95F8110110F07F00A1
:1050B00085F8110195F83C0100281FD1002C1DD462
:1050C000012085F83C0185F8114100210020FFF7FF
:1050D000C7FA00F0D3F9802C04D001210020FFF79B
:1050E000E6FA03E001210020FFF7BAFA002264216A
:1050F00015F5B67002F082FE012000E0002032BDFE
:10510000AC0D00202DE9F04704000E001700984672
:10511000DDF824A00020CAF80000FFF7F9FA002803
:1051200001D103204FE0DFF85C5A95F83C010328D9
:1051300002D1002085F83C0195F83C01002841D1BE
:10514000FEF728F910F1010F04D1012085F83C0188
:10515000002038E07FF00109484504D1002085F89F
:105160003C0107202FE0012803DBCAF800000620DD
:1051700029E0089A3300DBB2D2B241463800C0B20F
:10518000FEF718F800280FD195F83C01032804D148
:10519000002085F83C01052015E0012085F83C0140
:1051A00085F8114101200EE010F1010F04D101201A
:1051B00085F83C01002006E0484501D1022002E0CC
:1051C000032000E00020BDE8F087FEB504000D00DC
:1051D00016001F00FFF709FA002801D108200EE091
:1051E000002C0BD408980190FFB2009733002A00DE
:1051F000D2B201212000FFF785FF00E00020FEBDB4
:10520000FEB504000D0016001F00FFF7EEF90028A0
:1052100001D108200EE0002C0BD408980190FFB2B9
:10522000009733002A00D2B200212000FFF76AFF66
:1052300000E00020FEBD70B53B4C94F8E002800613
:1052400005D50120DFF8E41881F8120104E0002000
:10525000DFF8D81881F8120194F80503000605D587
:105260000120DFF8C81881F8110104E00020DFF800
:10527000BC1881F8110194F80503C00609D594F80B
:105280000603204490F80703DFF8A01881F8100106
:1052900004E0FF20DFF8941881F8100194F8070368
:1052A000002812D094F8072394F80603204410F540
:1052B0004271DFF8785815F110063000FEF712FC45
:1052C00094F8070385F80F0104E00020DFF85C186C
:1052D00081F80F0194F84404002801D0012000E077
:1052E0000020DFF8485885F8130194F8500400288E
:1052F00012D094F8500410280BDA94F8502404F2D9
:1053000051412E003000FEF7EDFB94F85004E87395
:1053100004E00020E87301E00020E873FDF7B3FB30
:10532000C5F8140170BD00006000002038B5DFF83A
:10533000084CDFF85C5995F8A2012070FFF7E8F9F6
:10534000002803D095F8BB01002804D195F8040388
:10535000401CA07002E095F80403A07095F8B0011D
:1053600060700020E07095F9121095F96E06091A28
:10537000891E012906DB95F9121095F96E06091AA6
:10538000881EE070D5F8740660600020207231BD80
:10539000DFF8A40B00210170002181700021417011
:1053A0000021C17000214160002101727047DFF8C7
:1053B000AC1491F80523D2070BD5DFF8F82BDFF8F2
:1053C000783B1B78137091F83634537001231371B6
:1053D00012E091F8052392070ED5DFF8D82B802331
:1053E000137091F8EA3253700223137191F8053368
:1053F0001B0701D503231371DFF8B82B0B7B9370C8
:10540000497BD170C0B200282BD0DFF8200790F87C
:105410001201002812D01079012807D1DFF8980B6B
:10542000D0F85011491CC0F8501121E0DFF8880B6A
:10543000D0F85C11491CC0F85C1119E01079012802
:1054400007D1DFF8740BD0F84C11491CC0F84C118F
:105450000EE0DFF8640BD0F85811491CC0F8581161
:1054600006E0DFF8540BD0F86811491CC0F8681149
:10547000704780B5802002F091FB01BD70B5DFF868
:10548000044794F84A00FFF79EF9002807D1DFF897
:105490002C0B007884F84A00002084F8480094F827
:1054A0004A00FEF76CF9FDF7E9FDDFF8140BFEF793
:1054B00024F894F83E00FFF73AF994F84900FEF713
:1054C00021F80020FDF734FFE06C40B2FDF754FFF7
:1054D00094F85400FEF70DFAFEF78BF80500012D45
:1054E00010DB00260CE004EB860090F8A62104EB0C
:1054F000860090F8A5113000C0B2FEF741F8761C86
:10550000AE42F0DBFFF73BF9FFF76FF8002815D04C
:1055100094F84800012802D1FFF7BFFC0EE094F890
:105520004800022807D094F84800032803D094F8D4
:105530004800802802D18020FFF7ACFD70BD10B577
:105540000020DFF8741A81F83C010220FEF7A3FF67
:105550000400FEF772FFFEF70FFFFEF7F2FEFFF703
:105560001EF800F07DF92000C0B210BDDFF8481A27
:1055700091F81021052A14DA91F8102101EBC202EA
:10558000C2F8140191F8100101EBC00091F810214C
:1055900080F8182191F81001421C81F81021C0B246
:1055A00001E05FF0FF307047480C002010B400228B
:1055B00089B22C29C0F24C81DFF8FC19D1F84031B6
:1055C0001400E4B20355D1F840319BB21B0A140019
:1055D000E4B204446370D1F840311B0C1400E4B20F
:1055E0000444A370D1F840311B0C9BB21B0A140079
:1055F000E4B20444E370121DD1F844311400E4B263
:105600000355D1F844319BB21B0A1400E4B20444A0
:105610006370D1F844311B0C1400E4B20444A3704D
:10562000D1F844311B0C9BB21B0A1400E4B20444B1
:10563000E370121DD1F848311400E4B20355D1F8DB
:1056400048319BB21B0A1400E4B204446370D1F8E1
:1056500048311B0C1400E4B20444A370D1F8483163
:105660001B0C9BB21B0A1400E4B20444E370121D2D
:10567000D1F84C311400E4B20355D1F84C319BB24F
:105680001B0A1400E4B204446370D1F84C311B0CC3
:105690001400E4B20444A370D1F84C311B0C9BB24B
:1056A0001B0A1400E4B20444E370121DD1F8503117
:1056B0001400E4B20355D1F850319BB21B0A140018
:1056C000E4B204446370D1F850311B0C1400E4B20E
:1056D0000444A370D1F850311B0C9BB21B0A140078
:1056E000E4B20444E370121DD1F854311400E4B262
:1056F0000355D1F854319BB21B0A1400E4B20444A0
:105700006370D1F854311B0C1400E4B20444A3704C
:10571000D1F854311B0C9BB21B0A1400E4B20444B0
:10572000E370121DD1F858311400E4B20355D1F8DA
:1057300058319BB21B0A1400E4B204446370D1F8E0
:1057400058311B0C1400E4B20444A370D1F8583152
:105750001B0C9BB21B0A1400E4B20444E370121D3C
:10576000D1F85C311400E4B20355D1F85C319BB23E
:105770001B0A1400E4B204446370D1F85C311B0CC2
:105780001400E4B20444A370D1F85C311B0C9BB24A
:105790001B0A1400E4B20444E370121DD1F8603116
:1057A0001400E4B20355D1F860319BB21B0A140017
:1057B000E4B204446370D1F860311B0C1400E4B20D
:1057C0000444A370D1F860311B0C9BB21B0A140077
:1057D000E4B20444E370121DD1F864311400E4B261
:1057E0000355D1F864319BB21B0A1400E4B204449F
:1057F0006370D1F864311B0C1400E4B20444A3704C
:10580000D1F864311B0C9BB21B0A1400E4B20444AF
:10581000E370121DD1F868311400E4B20355D1F8D9
:1058200068319BB21B0A1400E4B204446370D1F8DF
:1058300068311B0C1400E4B20444A370D1F8681161
:10584000090C89B2090A1300DBB21844C170121D99
:105850001000C0B210BC7047100C00206000002087
:1058600080B5802002F09AF9FFF708FEFEF750FF9E
:10587000002801D1FEF7EBFE01BD30B40A00D2B220
:10588000520800230CE0C45C0D00EDB26D1EED1A51
:10589000455DC5540D00EDB26D1EED1A44555B1CFF
:1058A0001400E4B2A342EEDB30BC704710B5040034
:1058B0002000FFF745F908212000FFF7DEFF10BDAB
:1058C00010B504002000FFF74DF908212000FFF774
:1058D000D4FF10BD80B5FFF759F901BD10B5DFF851
:1058E000D846D4F86401401CC4F86401802002F05A
:1058F00055F9FFF71BFD022084F83C01012114F14A
:10590000F40002F08BFB10BD80B50020FFF74FFDC7
:10591000FEF735FF01210120FEF7C9FE0221DFF865
:10592000A40602F07BFBFFF771FA01BD80B5DFF83A
:105930008806002180F83C11802180F8481004215D
:10594000F43002F06BFBFDF799FBFEF780FE01BD22
:1059500038B5DFF83C4394F8050310F0030F68D125
:10596000FFF7E4FC802002F019F9DFF84C56012023
:1059700085F83C01002294F83C144FF47A7342F607
:10598000E06003FB0101012091FBF0F115F5C4700B
:1059900002F034FA94F8BB01012815D1D5F844017E
:1059A000401CC5F84401DFF89005807895F849104F
:1059B000491C884202D1022085F83C01102115F1D2
:1059C000F40002F02BFB94E0D5F84001401CC5F830
:1059D0004001564991F8130101281AD1012294F887
:1059E000AE01002802D094F8AE01424394F8450479
:1059F000D2B2904217D1DFF84005807894F8AE21FA
:105A0000904210D3002081F81301022085F83C0158
:105A100009E0DFF82405807894F8AE11884202D3BB
:105A2000022085F83C01082115F1F40002F0F6FA95
:105A30005FE094F80603002854D0DFF87C5515F594
:105A4000C47002F0F1F9FFF7F6FB0120FFF7AFFC9D
:105A5000364890F81211012909D090F81311012944
:105A600005D095F8531094F86024914203D2012098
:105A700085F83C011FE090F81101002808D0DFF8FC
:105A8000B8048078002803D0002085F83C0112E09B
:105A900095F83C01022807D095F83C01002803D076
:105AA00094F8BB01002803D1002085F83C0102E0F6
:105AB000012085F83C01DFF8FC040079032805D1BA
:105AC00095F8110150F0800085F81101202115F1A1
:105AD000F40002F0A3FA95F83C01002809D1FEF782
