:020000040800F2
:100000006020002051150108251701082917010853
:100010002D170108311701083517010800000000ED
:100020000000000000000000000000003917010877
:100030003D170108000000004117010835BD000808
:10004000D9AA00082779000851170108776D000820
:1000500059170108C3B8000855A300086FA300088A
:1000600089A30008A3A30008BDA300087517010811
:10007000791701087D170108811701088517010804
:10008000891701088D1701089117010895170108B4
:10009000991701089D170108A1170108D7A30008A7
:1000A000A9170108E7720008B3B70008EBD30008EE
:1000B00037B80008BD170108C1170108C5170108A6
:1000C000C9170108CD170108D1170108D517010874
:1000D000D9170108DDBA0008E1170108E517010882
:1000E00083A40008B56D0008F1170108F517010891
:1000F000F917010810F007007047C0F3C100C0B243
:100100007047C0F34110C0B270474FF69F72104065
:10011000C9B250EA411080B2704780B2C0F3C0103B
:1001200070474FF67F72104050EAC11080B270479E
:1001300080B2000A80B2704780B5401CC0B200F0A7
:1001400071F980B202BD80B5C0B2FFF7F5FF0121A1
:1001500080B2FFF7E6FF02BD80B5401CC0B200F0E0
:1001600061F9FF2801D0012000E00020C0B202BDEB
:1001700010B50C0002E0C0B200F005FA21004C1EE0
:10018000C9B20029F7D1C0B210BD01000878497882
:1001900050EA012080B27047010008784A7850EA9E
:1001A00002208A7850EA0240C97850EA016070471C
:1001B0000100C8788A7850EA02204A7850EA024062
:1001C000097850EA01607047017089B2090A4170EC
:1001D000704701700A00120A42700A00120C827005
:1001E000090EC1707047C1700A00120A82700A00BD
:1001F000120C4270090E017070472DE9F84305009A
:100200000E0014001F0010210022DFF8688BC14689
:10021000484603F049FD492088F80000002C01D031
:10022000012000E0002088F8050088F80F70290000
:1002300018F10600FFF7CDFF310018F10A00FFF7B3
:10024000C8FFBDE8F183F8B50600080011001A00E8
:10025000069C079D2B00FFF7D0FF1022DFF8D07B14
:100260003100380003F070FD2800020092B2210036
:10027000022003F010FE060004EB0500FFF798FFD4
:10028000864201D1012000E00020C0B2F2BDF8B5E5
:100290000600080011001A00069C079D2B00FFF7BE
:1002A000ACFF1022DFF8887B3100380003F04CFDF2
:1002B0002800020092B22100022003F0ECFD0100B0
:1002C00004EB0500FFF78FFFF1BD38B504000D000A
:1002D000DFF85C0B05F038FC2800020092B2210028
:1002E0000A2003F0D8FD010004EB0500FFF77BFFB7
:1002F00031BD70B504000D00DFF8340B05F024FCAF
:100300002800020092B221000A2003F0C4FD06007A
:1003100004EB0500FFF74CFF864201D1012000E00D
:100320000020C0B270BD38B504000D00DFF8000B2E
:1003300005F00AFC2A0092B22100002003F0ABFD78
:1003400031BD2DE9F04707000D0016001C00DDF857
:100350002480B8F1010F2DDB10210022DFF8149A60
:10036000CA46504603F0A0FC012089F80F0099F816
:100370000F0089F80000002C01D0012000E00020CF
:10038000089C290089F8050019F10600FFF721FFF4
:10039000310019F10A00FFF71CFF1022DFF8905A14
:1003A0003900280003F0D0FC424692B2210004201C
:1003B00003F071FDBDE8F0872DE9F04106000F0064
:1003C00014001D0010210022A046404603F06CFCE2
:1003D00001202070062214F101083900404603F084
:1003E000B3FC310089B2E01DFFF7EEFE10222100C0
:1003F0002E00300003F0A8FC02202870DFF8306ADD
:10040000300005F0A1FB10222100002003F043FD85
:10041000300005F099FB10222900002003F03BFD7D
:10042000BDE8F0810100C9B20A2901D3FF2010E024
:10043000DFF8001A91F8691611F07F01032904D141
:10044000DFF8F419C0B2085C03E0DFF8F019C0B2BD
:10045000085C70470100DFF8DC09027D0B00DBB2AD
:100460009A4206D390F91300C9B2B0EB410040B2F2
:1004700000E000207047DFF8BC0990F86006012812
:1004800001D1012000E00020704730B4DFF8A4194A
:1004900091F87926012A05D10200D2B2022A01D1AF
:1004A00001201AE0002200E0521C1300DBB2102BE6
:1004B00012DA0123B1F8A04113FA02F52C42F3D06D
:1004C00083405B1E1400E4B201EB4404B4F88041A5
:1004D0002342E9D0002000E0012030BC7047DFF863
:1004E0005429C9B202EB4101B1F880110141C8079A
:1004F00001D5012000E00020704770B504000E0017
:10050000002500E06D1C2800C0B210281DDADFF8BD
:1005100024092900C9B200EB810191F8001111F002
:1005200007013200D2B29142ECD1B0F8A001012112
:10053000A9400842E6D02900C9B22000C0B2FFF7A6
:10054000CEFF0028DED0012000E0002070BD70B595
:1005500004000D00002600E0761C3000C0B2102818
:100560000FDA0120B040290089B20142F4D03100F5
:10057000C9B22000C0B2FFF7B2FF0028ECD00120C2
:1005800000E0002070BD38B5040025002000C0B296
:10059000FFF77BFF002813D1641EDFF89808B0F83E
:1005A000A0112000C0B2FFF7D2FF0028EED0601CDF
:1005B000C0B2FFF737FFFF28E8D02000C0B201E04B
:1005C0002800C0B232BD2DE9F04705000F00280019
:1005D00080B2FFF792FD0400280080B2FFF78AFD89
:1005E00006003000C0B2002809D1FFB20B375FF41B
:1005F000802047434CF2503097FBF0F05BE0B01D99
:10060000C0B25FEA80083000C0B2052802DB5FF0AC
:10061000080901E05FF00009B8EB0909280080B281
:10062000FFF77BFD002802D05FF0000A01E05FF0D9
:10063000100A280080B2FFF77BFD002801D01420AB
:1006400000E00020FFB25FFA88F8D8EBC7081AEB89
:10065000080818F11C08B8EB0008B8F1010F11DB0D
:100660004846C0B210EB0808B8F101085FFA89F9F2
:1006700098FBF9F7280080B2FFF743FD401D474380
:10068000083700E00827BF003137761C341B43F6DB
:1006900009512000C0B2052802DB201F01410424BB
:1006A00017FA04F44FF40042022091FBF0F002FB31
:1006B000040494FBF1F0BDE8F08738B5040005F0C0
:1006C000D8FD0500EDB205F0D4FD020052EA052286
:1006D000110089B248F20100814207DB100080B2AC
:1006E0004FF4004390FBF3F103FB11012000C0B273
:1006F00000280AD0D2B2E4B292FBF4F004FB10243A
:100700004FF4004000FB04142100080032BD70B516
:1007100004000C19002531E0307B00282DD1B06891
:10072000A0422ADA16F1100005F030FEB460002075
:1007300030730FF22D62B16816F1100005F053FE10
:100740001BE02A00D2B22420424301EB020010F148
:10075000240696F8200000280FD03088002802D008
:10076000307B0128D8D1B460002030730FF2F152F1
:10077000B16816F1100005F036FE6D1CDFF8B416F6
:10078000280091F8FC20C0B29042DAD370BDDFF8A7
:10079000A40680F8B0117047100040B210F1800F2D
:1007A00003D0DFF8900680F8AF21DFF8880690F8D4
:1007B000B0210B00DBB29A4207D080F8B011B0F83C
:1007C000AC1151F40061A0F8AC117FF03F0180F84A
:1007D000E1127047DFF85C0690F92800704770B5A9
:1007E000050040210022DFF84C4614F580763000E9
:1007F00003F05AFA4021002214F5A076300003F0ED
:1008000053FA2021002214F5C076300003F04CFA90
:10081000002084F83504002084F83C04002084F88B
:100820004404002084F8450494F869060A380A282C
:1008300006D2012084F87906012084F87A0605E0C2
:10084000002084F87906002084F87A0602F0EDFF93
:10085000DFF8B46B32002900C9B294F8690603F0DE
:10086000E0F80020A4F8A001307884F86A0600259A
:1008700011E05FF0FF332800C0B206EB4000B0F893
:1008800044202800C0B206EB800041682800C0B2B6
:1008900000F0CBF86D1C28003178C0B28842E8D354
:1008A00096F8640084F8EA02B06EC4F8EC0270BDF9
:1008B00010B4002208E01400E4B224214C4303EBFE
:1008C000040124310871521CDFF86835110093F8D7
:1008D000FC40C9B2A142EED310BC7047DFF854050A
:1008E00090F8691611F07F01C9B2491E05D0891E22
:1008F00018D0C91F092912D916E04FF47A718184E2
:100900006422A0F848206422A0F86C20A0F890107F
:100910000A21A0F8B4106421A0F8D81004E06421E2
:10092000818401E000218184704710B5C0B20028A5
:1009300002D0FFF7D3FF1EE0002414E02200D2B261
:100940002420424301EB020010F124010020088022
:1009500091F82000002805D00120087311F1100043
:1009600005F014FD641CDFF8CC14200091F8FC2085
:10097000C0B29042E2D310BDF8B5DFF8B844C0B2BF
:1009800004EB800090F8005115F00705242628009C
:10099000C0B27043204490F8440000280ED12800D3
:1009A000C0B270432044012180F830102800C0B24A
:1009B000704304EB000705F0D7FCF8622800C0B2D2
:1009C00070432044EDB2754304EB050191F84410E7
:1009D000491C80F84410F1BD10B4DFF85824C0B2AF
:1009E00002EB800090F8001111F0070124230800A9
:1009F000C0B2584310440C00E4B25C43144494F871
:100A00004440641E80F844400800C0B2584310447B
:100A100090F84400002806D1C9B2594302EB010006
:100A2000002180F8301010BC7047F8B504000E00AB
:100A300015002000C0B2102801DB002040E01800A3
:100A40005FF0FF3140B2884203D1300002F0ADFFC9
:100A50000300F608F6005BB21E43DFF8D8732000EF
:100A6000C0B207EB8000D0F80001002803D02000BE
:100A7000C0B200F026F82000C0B207EB8000C0F83A
:100A8000006100202100C9B207EB8101C1F84001DB
:100A9000280080B2002801D13F25FFE72000C0B226
:100AA00007EB4000A0F88051B7F8A0010121A14058
:100AB0000843A7F8A0012000C0B2FFF75DFF0120A6
:100AC000F2BD70B50400DFF86C532000C0B205EB36
:100AD0008000D0F80001002827D00126B5F8A00139
:100AE00016FA04F1084203D02000C0B2FFF774FFE9
:100AF00000202100C9B205EB8101C1F800010020EE
:100B00002100C9B205EB8101C1F84001002021009C
:100B1000C9B205EB4101A1F88001B5F8A00116FAB0
:100B200004F430EA0404A5F8A04170BD80B5401E6D
:100B3000FFF732FB000A64214843BE4991F8691669
:100B400011F07F01C9B2012916D003291DD00A294D
:100B500024D00B292BD00C2932D00D2939D00E29C5
:100B600040D00F2947D010294ED0112955D0122935
:100B70005CD0132963D06BE0DFF8401A411ADFF82C
:100B8000402A914200D300206AE0DFF8381A411A67
:100B9000DFF8342A914200D3002061E0DFF82C1AFC
:100BA000411ADFF8242A914200D3002058E0DFF8F0
:100BB0001C1A411ADFF8102A914200D300204FE09E
:100BC000DFF8081A411ADFF8002A914200D300200A
:100BD00046E0DFF8FC19411ADFF8F829914200D30A
:100BE00000203DE0DFF8E419411ADFF8DC299142EA
:100BF00000D3002034E0DFF8E019411ADFF8DC29E7
:100C0000914200D300202BE0DFF8C419411ADFF82D
:100C1000D029914200D3002022E0DFF8C819411A00
:100C2000DFF8C429914200D3002019E0DFF8A019B1
:100C3000411ADFF8AC29914200D3002010E0DFF820
:100C40009019411ADFF89829914200D3002007E05B
:100C5000DFF86819411ADFF86829914200D30020B3
:100C600002BD70B5040000251CE02800C0B2FFF7EB
:100C7000B3FE16E06F49012223009BB212FA05F081
:100C80000340B1F8A06112FA05F00640B34208D063
:100C9000B1F8A001AA401042E7D02800C0B2FFF787
:100CA0006BFE6D1C2800C0B21028E3DB70BD002075
:100CB00000220CE05F491300DBB201EB8301D1F8A5
:100CC0000011002902D0012191400843521C11005B
:100CD000C9B21029EEDB80B2704780B50022C0B2E5
:100CE000602803D1FFF7E3FF0100FFE7080080B2AF
:100CF00002BD70B504000A004E4EB6F8A0512000A7
:100D000080B2002801D1002027E0002100E0491C2A
:100D10000800C0B210280FDA0120884023009BB2DF
:100D20000342F4D00800C0B206EB8000D0F8000106
:100D30000028ECD1002010E0210089B21000C0B2E0
:100D4000FFF705FC002801D1022006E0A6F8A0412B
:100D5000280080B2FFF785FF012070BD0000000071
:100D60003449027B2420424301EB0200243001215C
:100D7000017370474C1700202DE9F04104002D4D00
:100D800095F8A20105EB8000D0F8006195F80713F3
:100D9000E889FFF718FC07004FF47A7080FB070121
:100DA0004FF40042002305F09DFBC5F8740616F0D1
:100DB00007012420414305EB010010F12408F60847
:100DC000F600AE6098F9020098F90410884203DA40
:100DD00098F80200A87402E098F80400A874B8F823
:100DE000000000FB0740C8F80800B8F80000002821
:100DF0000BD0002088F80C00DFF8F027D8F8081096
:100E000018F1100005F0EFFA06E0012088F80C0058
:100E100005F0AAFAC8F8080095F8A301002805D043
:100E200095F9A30187403C19C5F8A441BDE8F081BC
:100E30002C12002070000020C8160108D4160108EA
:100E40002DE9F24F84B00400FF26DFF8A4572F19D4
:100E50005FF0000942E04846C0B20AFB00F040449F
:100E600090F83000002837D02819874234D14946FD
:100E7000C9B298F8B001FFF740FB00282CD04E46CD
:100E80003000C0B20AFB00FA08EB0A00C76A23E090
:100E90005FF0240A4846C0B20AFB00F04044C06A32
:100EA000381A0128D7DB4846C0B20AFB00F040449C
:100EB00090F8300000280FD04946C9B298F8B00128
:100EC000FFF71BFB002807D04E463000C0B20AFBDC
:100ED00000FA08EB0A00C76A19F10109DFF8388D3A
:100EE000484698F8FC10C0B28842D1D3381BA842BB
:100EF0004AD198F8A20108EB800090F8009119F00F
:100F0000070919F10109484698F8FC10C0B2884257
:100F100001D15FF000095FF0000A2FE05FF0240BC1
:100F20004846C0B20BFB00F04044C06A381A0128A2
:100F300018DB4846C0B20BFB00F0404490F8440078
:100F400000280FD04946C9B298F8B001FFF7D5FA8A
:100F5000002807D04E463000C0B20BFB00FB08EB68
:100F60000B00C76A19F10109484698F8FC10C0B295
:100F7000884201D15FF000091AF1010A504698F841
:100F8000FC10C0B28842C9D3381BA84201D1380036
:100F900090E05FF00009002118E030000A00D2B2B2
:100FA00008EB820292F8002112F00702C0B29042D0
:100FB0000BD1B8F8A00101228A40104205D0684642
:100FC0004A46D2B2815419F10109491C0800C0B245
:100FD0001028E2DB05F04DF95FFA89F990FBF9F191
:100FE00009FB1101002216E0491C0800B4465FFA13
:100FF0008CFC03FB0CFCC4449CF844C0C0B26045AC
:1010000008D33000C0B203FB00F308EB030090F8F4
:101010004400091A521C24231000B4465FFA8CFCC9
:1010200003FB0CFCC4449CF844C0C0B260453FD2F2
:1010300068468C465FFA8CFC10F80CC0B8F8A0012A
:101040005FF0010E1EFA0CFE10EA0E0FCCD06046C7
:10105000C0B208EB4000B0F8800198F8B0E11EF093
:101060000F0E80B230FA0EF0C007BDD53000E64654
:101070005FFA8EFE08EB8E0E9EF800E11EF0070E62
:10108000C0B27045B0D19DF81000C0B200280DD19B
:101090003000C0B25843404480F829C0F6B25E43E5
:1010A00008EB060090F8290088F8A201380001E05A
:1010B0002C19200005B0BDE8F08FDFF85C1B91F81B
:1010C000691611F07F010A00D2B2032A03D0C9B217
:1010D0000A390A2913D20100C9B2062901DA40B23D
:1010E0000EE00100C9B2062902D15FF0FF3007E02F
:1010F0000100C9B2072902D17FF0010000E040B22F
:10110000704710B5DFF8104B94F83504FFF7D5FFA2
:10111000002294F87A16012900D10222637C010092
:1011200049B25B1A1100C9B28B4202DA84F8362444
:1011300010E094F87826637C010049B25B1A9A4269
:1011400004DA94F8780684F8360403E0617C081A1F
:1011500084F8360494F8A20104EB8000D0F8400132
:10116000002803D1A068C4F8380407E094F8A2016D
:1011700004EB8000D0F84001C4F8380410BD10B56D
:10118000DFF8944A0E2084F8AF0194F869060A3813
:101190000A2804D202210020FFF7F9FA03E0052112
:1011A0000020FFF7F4FA0120FFF719FB05F061F8C2
:1011B00094F86A1690FBF1F201FB120084F8A20188
:1011C00005F0D2F8206010BD70B5002405F0CCF811
:1011D0000021FFF735FEDFF8405AB5F8AC114FF2A9
:1011E000FF700140A5F8AC1105F0BEF8060095F8B7
:1011F000A20105EB8000D0F8001111F007012420B6
:10120000414305EB010024308168711A002900D5A3
:101210008668FF2095F9B0110841C0B2FFF74DFA7A
:10122000861916F500462E6095F869060A380A28D0
:1012300010D295F80403401C85F8040395F80403C4
:101240000C2805DA95F8B0110120FFF7A0FA19E093
:10125000012417E095F80403401C85F8040395F871
:101260000403C0070ED495F8B001002801D1012471
:1012700008E095F8B001FFF786F90100C9B2012036
:10128000FFF785FAE4B2200070BD80B501F0BCFE26
:1012900001BD80B5C0B204F0B1FD01F0B5FE01BDE5
:1012A00080B5DFF874090021C0F8DC12D0F8DC1238
:1012B000C0F8D812002180F8B211002180F844143F
:1012C000002180F8E51280F8E41280F8E21280F83C
:1012D000E012002180F8E81280F8E91280F8F0129C
:1012E00080F8E712002180F8481490F8481480F83C
:1012F0004614002180F8F312002180F8AE117FF02F
:101300003F0180F8E112012180F8601690F9122067
:1013100090F847140020FFF73FFA01BD10B5DFF841
:10132000F848217D0200D2B291420BD3C0B2FFF740
:1013300091F840B294F96E16401A801E002801D42C
:10134000012000E0002010BDDFF8CC18497DC0B2BC
:10135000814201D3012000E0002070472DE9F041D7
:101360000E0015001F0087243100C9B280B2FFF7BC
:10137000C0FC0100C9B2002902D114F0FE0404E04F
:10138000C0B2022801D114F0FD042000C0B210F058
:101390007F00072833D1DFF8808888F8AE712800F5
:1013A000C0B20F280BD02800C0B2FFF753F80200DC
:1013B00052B23100C9B20420FFF7EEF906E07FF027
:1013C0007F023100C9B20420FFF7E6F92800C0B25D
:1013D0000F2814D000260CE02800C0B2FFF73AF81E
:1013E0003200D2B224214A4308EB020181F82800DE
:1013F000761C300098F8FC10C0B28842ECD3200074
:10140000C0B2BDE8F0810000501400202DE9F04783
:101410000700884691461C000020DFF8FC5795F82D
:10142000E602802830D18726BA465FFA8AFA5FEA58
:101430001A1A5046C0B2FEF78FFE002802D116F0ED
:10144000FD0644E095F87906002806D05046C0B263
:10145000022802DA16F0FD0639E017F00F0738000F
:10146000C0B2FFF75BFF002802D116F0FB062EE0AA
:101470004B46DBB23A00D2B25146C9B2404680B2C6
:10148000FFF76CFF060022E0802695F87C06002816
:1014900003D0022810D001D319E018E0FFB2FF2FCB
:1014A00009D14B46DBB20F2295F8B011404680B20D
:1014B000FFF754FF06000AE04B46DBB20F2295F817
:1014C000B011404680B2FFF749FF0600FFE7002059
:1014D00017E0032195F860242A4482F8611495F8F6
:1014E0006014491C85F8601416F0070195F8602413
:1014F0002A4482F8611495F86014491C85F8601438
:10150000401C01002200C9B2D2B29142E1D3BDE831
:10151000F0872DE9F843DFF81C2D101806004FF472
:101520007A740025DFF8F07689467A683868121AEE
:10153000D317A4FB020104FB031105FB02114FF4B6
:101540000042002304F0CEFF804697F80713F88985
:10155000FFF739F8C11702000B00A4FB020104FBDE
:10156000031105FB02114FF40042002304F0BAFFFF
:10157000B8EB000010EB09094FF47A71B9EB0900E0
:10158000B9FBF1F201FB02004FF47A72B0FBF2F00A
:1015900086193000B9FBF1F201FB1299B9F5FA7F17
:1015A00000D3401C05F0B8FAD7F84C04002802D04C
:1015B000D7F84C048047BDE8F1830000C055703374
:1015C000C1CF6A0040DA8E3381841E00C0DC03374D
:1015D0000016D63601127A00C0CA8936415DC600AF
:1015E000414B4C00809AF436818D5B00610D000800
:1015F000000050462DE9FE4FDFF81C5695F80D23EC
:10160000C2F3401212F00102002A04D195F8BB2166
:10161000012A00F0FE82002285F860245FF00009B4
:1016200000228DF8012000228DF800200022ADF864
:1016300004205FF0000806000F0001E018F1030825
:10164000B84580F2D8824846C0B200280FD016F8BC
:10165000080003280BD04B46DBB29DF80020BDF8F4
:1016600004109DF80100FFF7D1FE5FF0000916F8A5
:101670000800022818D003281CD0042800F002819A
:10168000052871D006283ED0072800F01D810828C3
:1016900000F0C381092800F06A820A2800F0EC817A
:1016A0000D2800F04082A4E218F103008742C5DA59
:1016B000B846C5E718F10500874201DAB846BFE72A
:1016C00019F1010906EB080040788DF8010006EBDE
:1016D0000800801CFEF759FD06EB08010A7912F09C
:1016E000F00206EB0801097911F00F018DF80010E6
:1016F00018F10508010089B21000C0B2FFF7EDFA39
:10170000ADF804009CE718F10100874201DAB84601
:1017100096E7012085F8E502062095F86014294433
:1017200081F8610495F86004401C85F8600495F820
:101730007D0695F86014294481F8610495F86004E9
:10174000401C85F8600495F8E30210F03F0095F81E
:101750006014294481F8610495F86004401C85F800
:10176000600418F101086BE718F10500874201DAFF
:10177000B84665E706EB080090F801A01AF00F0ADA
:1017800006EB08004078C0F3021B06EB0800801C43
:10179000FFF7CCF9040018F10508802085F8F00265
:1017A0005046C0B2FEF7D8FC002806D095F8F002EB
:1017B00050F0020085F8F00205E095F8F00210F014
:1017C000FD0085F8F0025846C0B2FFF7BDFD0028C5
:1017D00006D095F8F00250F0040085F8F00205E01C
:1017E00095F8F00210F0FB0085F8F002002C06D00E
:1017F00095F8F00250F0010085F8F00205E095F848
:10180000F00210F0FE0085F8F00295F8F00287284B
:1018100005D185F835B485F8EAA2C5F8EC42052073
:1018200095F86014294481F8610495F86004401C1F
:1018300085F8600495F8F00210F0070095F8601440
:10184000294481F8610495F86004401C85F860041F
:10185000052095F86015294481F8610595F8600523
:10186000401C85F8600595F8F00210F0070095F827
:101870006015294481F8610595F86005401C85F8DC
:101880006005DDE618F10200874201DAB846D7E6C6
:1018900006EB0800407818F1020810F00F0085F8F8
:1018A000A30104F061FDC5F8A401012085F8E80258
:1018B000042095F86014294481F8610495F86004C7
:1018C000401C85F86004BBE618F10600874201DA87
:1018D000B846B5E606EB080090F801A006EB080054
:1018E000801CFFF723F9040006EB080090F805B010
:1018F000802085F8E90295F86A06401E5146C9B273
:10190000884268DA002C20D106EB08008078002895
:1019100014D106EB0800C07800280FD106EB0800B0
:10192000007900280AD15046C0B2FFF7CAF895F8EE
:10193000E90250F0030085F8E90252E095F8E90267
:1019400010F0FE0085F8E9024BE01BF00F0059464D
:10195000C9B209098DF80210C0B2FEF7FDFB0028DC
:1019600005D19DF80200FEF7F7FB002806D095F898
:10197000E90250F0020085F8E90205E095F8E90275
:1019800010F0FD0085F8E9024FF6FF725FF0FF33BB
:1019900011001BF00F0081405FFA8BFB5FEA1B1BFD
:1019A000DBF10F0B52FA0BF20A4092B221005046C3
:1019B000C0B2FFF73AF8002806D095F8E90250F0D7
:1019C000010085F8E9020CE095F8E90210F0FE004C
:1019D00085F8E90205E095F8E90210F0FE0085F8C7
:1019E000E90218F10608072095F86014294481F8E7
:1019F000610495F86004401C85F8600495F8E902DC
:101A000010F0030095F86014294481F8610495F8FA
:101A10006004401C85F8600412E618F10200874259
:101A200001DAB8460CE606EB0800407810F00F002B
:101A30000100C9B2002900D10120401E85F83C04F4
:101A4000012085F8460418F10208082095F8601472
:101A5000294481F8610495F86004401C85F860040D
:101A6000082095F86015294481F8610595F860050E
:101A7000401C85F86005E3E518F10500874201DAAE
:101A8000B846DDE506EB0800447806EB0800801C4C
:101A9000FFF74CF8FC22002801D052F0010221008F
:101AA000C9B205EB8101D1F80011002901D052F033
:101AB00002021100C9B2FF2904D1E4B205EB84018E
:101AC000C1F8400118F105080A2095F8601429446E
:101AD00081F8610495F86004401C85F8600412F0F8
:101AE000030095F86014294481F8610495F86004B6
:101AF000401C85F860040A2095F86015294481F897
:101B0000610595F86005401C85F8600512F0030238
:101B100095F86005284480F8612595F86005401C1B
:101B200085F860058CE518F10600874201DAB846B1
:101B300086E506EB0800407806EB0801897850EA54
:101B4000012006EB0801C97850EA014006EB0801C4
:101B5000097950EA016006EB080149794FF47A727D
:101B60005143090AFFF7D5FC18F1060868E518F19A
:101B70000200874201DAB84662E595F869060A383C
:101B80000A2833D206EB08004078C0B2400910F0B2
:101B9000010085F87A0606EB08004078C0B200091B
:101BA00010F0010085F8790606EB0800407810F087
:101BB0000F00DFF8701CC0B2085640B201F087FD7C
:101BC00095F87906002806D095F8B001022802DAC7
:101BD000022085F8B001092095F86014294481F8A5
:101BE000610495F86004401C85F8600418F102084F
:101BF00026E5B84624E54846C0B2002809D04B4641
:101C0000DBB29DF80020BDF804109DF80100FFF73D
:101C1000FDFBBDE8F78F00007000002038B5040020
:101C2000002500E06D1C03F06DF92900C9B2C0B2B7
:101C300081420ED22800C0B203F066F90028F1D02C
:101C40002800C0B203F074F98442EBD12800C0B27E
:101C500000E0FF2032BD2DE9F84F8CB08246DFF85E
:101C60009C7617F54276307810F0E00097F807532D
:101C7000002187F86F16C0B260280AD0012087F8CB
:101C80006F06002087F80703152004F0B7F800203E
:101C9000D7E07479701CFEF77FFAB01DFEF775FA75
:101CA000804614F00F000390C4F3401111F00101BD
:101CB000C4F3801010F00100DDF80C9019F1080950
:101CC0002D1F012901D001280AD1802087F86F0635
:101CD000002087F80703152004F090F80020B0E0FA
:101CE0004D450ADA202087F86F06002087F80703A1
:101CF000152004F083F80020A3E05FF0FF34A9452D
:101D000003DA16F8094019F101098DF808A09DF8C9
:101D1000080003F00DF982469DF8080003F03FF932
:101D2000834608AA04A99DF8080003F046F9019526
:101D3000009601234246514604A8FEF784FA002883
:101D400007D1042087F86F06152004F057F800200B
:101D500077E01BF1010F05D141469DF8080003F023
:101D600012F92DE0D84514D25FF0FF30B0EB0B0B29
:101D700018EB0B0B44F20100834521D3082087F8B0
:101D80006F06002087F80703152004F037F80020BD
:101D900057E0B8EB0B0B44F2010083450AD308204F
:101DA00087F86F06002087F80703152004F026F84F
:101DB000002046E018F101019DF8080003F0E3F867
:101DC000002C13D4B5EB090001280FDB012C01DA3C
:101DD00004A800E008A8B5EB0901019106EB090190
:101DE0000091012342465146FEF7ABFA03980128C1
:101DF00001DA002C0AD1102087F86F06002087F83E
:101E00000703152003F0FAFF00201AE0002C0BD581
:101E100097F8050350F0200087F8050387F806932C
:101E2000002087F807030BE097F8050350F0100037
:101E300087F8050387F80693B5EB090987F8079338
:101E400001200DB0BDE8F08F2DE9F84F86B0DFF826
:101E5000AC6416F54277387810F0E0018DF8081080
:101E600096F80793002186F86F16D6F8D8120591D8
:101E7000B9F10C0F02DB10F0030F19D0202086F807
:101E80006F06002086F807030598C6F8D80296F872
:101E9000050300070AD596F86F06002806D096F8C5
:101EA0006F06FF2802D0152003F0A8FF002098E15C
:101EB00097F80580781CFEF76FF90500B81DFEF74E
:101EC00064F918F00F010391C8F3401414F00104F1
:101ED000DDF80CA01AF1080AB9F10409D6F8D412F9
:101EE0008D4216D096F8050300070AD52800FFF7A3
:101EF00095FE0100C9B2FF2903D0C0B2FFF7ABFEC7
:101F00006FE196F80503000702D4022086F86F06F9
:101F1000B7E79DF8081060290AD09DF80810A0299D
:101F200006D096F80513090702D4012186F86F162A
:101F3000D14503DA202086F86F06A2E75FF0FF356F
:101F4000CA4503DA17F80A501AF1010AD6F8D8126E
:101F5000090C61F31F40834606F2B2200490CDF8CD
:101F60000490009701235A46D6F8D4120498FEF73D
:101F70006AF9002814D11BF5803BCDF80490009736
:101F800001235A46D6F8D4120498FEF75CF90028CB
:101F900006D1042086F86F06142003F02FFF70E7A7
:101FA000D6F8D802834517D2D6F8D802401E83450A
:101FB00003D19DF80800A0281AD05FF0FF31D6F8B1
:101FC000D802091A1BEB010144F2010081420FD330
:101FD000082086F86F0654E7D6F8D802BBEB00005D
:101FE00044F20101884203D3082086F86F0648E7CF
:101FF00096F8BB01012805D1002C03D1402086F8BA
:102000006F063EE7002D0AD1B9EB0A00012806DB76
:102010000398012803DB102086F86F0631E71BF1D7
:102020000100C6F8D80218F0100086F84404002019
:1020300086F845049DF80800A02801D1202000E082
:10204000002086F8E00296F8E002002802D15FEA5C
:10205000C86010D5B6F8AC0150F01000A6F8AC017D
:1020600096F83404022806D1B6F8AC114FF6FE708B
:102070000140A6F8AC11002086F8B20196F8B20132
:1020800086F8E20296F9E10210F1800F03D07FF0AA
:102090003F0086F8E10296F90D0010F1200F01DAF9
:1020A000E02003E0202801DB1F20FFE786F8E302A1
:1020B000002D15D4B9EB0A00012811DB012D01DA3E
:1020C000049801E006F2C220B9EB0A01019107EB86
:1020D0000A01009101235A46D6F8D412FEF731F9CD
:1020E000002086F8600517F10808002D0AD1B9EB29
:1020F0000A00012806DB07EB0A00B9EB0A01FFF72B
:1021000079FA0DE0039886F85004039A414606F2E6
:102110005147380001F018FE03994046FFF76AFA6C
:1021200096F87B0696F86014884210D2B6F8AC0197
:1021300050F01000A6F8AC0196F83404022806D13D
:10214000B6F8AC114FF6FE700140A6F8AC1196F847
:10215000BB0101281BD1002C01D0802000E04020D1
:1021600096F80513084386F80503002C1ED00020BE
:1021700086F80403002086F8BB01002086F8BC0125
:10218000002086F84804002086F849040EE000206C
:1021900086F80403002086F8BB01002086F8BC0105
:1021A000002086F84804002086F84904002D0BD54D
:1021B00096F8050350F0200086F8050386F806A37C
:1021C000002086F807030BE096F8050350F0100096
:1021D00086F8050386F806A3B9EB0A0A86F807A372
:1021E000012007B0BDE8F08F10B5444C022084F800
:1021F000050394F8EA02FDF7A6FFE081D4F8EC02AB
:10220000A060002084F8070394F8340402280DD15C
:1022100094F8AC01C00709D594F8050350F0080004
:1022200084F80503032004F06CFF02E0022004F0B0
:1022300068FF10BD803DD512304A1368C318513B6A
:1022400053600B00DBB2072B02D13C20107412E06C
:102250000B00DBB2022B02DA062010740BE0C9B2CD
:10226000062906D111684018A23850601020107459
:1022700001E008201074704738B50C001F4D95F828
:10228000EA12FFF7D9FF95F83404022807D122009B
:102290006968413915F5856004F0A5F806E022006B
:1022A0006968413915F1180004F09DF831BD38B561
:1022B0000400124D012085F8050395F83604FDF75A
:1022C00042FFE881D5F83804A8600121E889FDF7CC
:1022D00028FFE881002085F80703C5F8404495F8F9
:1022E0003404022806D1B5F8AC114FF6FE70014057
:1022F000A5F8AC11022004F004FF31BD70000020ED
:1023000070B504000D00FEF7FCFEDFF8B06C717CC8
:102310002000FFF791FF2A007168413916F118007B
:1023200004F061F870BD80B50820FEF7B2FF00F040
:1023300075FF01BD2DE9F041DFF8804C94F8AC0148
:10234000000601D40020F2E094F8070300283AD1F7
:1023500094F8AC0140071AD494F8AC01800601D47B
:102360000020E4E0B4F8AC114FF65F700140A4F82F
:10237000AC1194F8B2010A2804DA94F8B201401CB6
:1023800084F8B2010920FEF784FF0120CFE0B4F801
:10239000AC114FF67F700140A4F8AC11FEF714FFAA
:1023A0000500E80702D5DFF8586C01E0DFF8546C4F
:1023B00003F0DAFF32002D18290014F1180004F0A0
:1023C00012F80120B3E094F8086394F8075328004A
:1023D000C0B2204410F54170FDF7DEFE2800C0B207
:1023E000112803D02800C0B2212804D1F6B216F07B
:1023F000E306202E09D094F80503C00701D500207C
:1024000095E0002084F80703A2E704F209362900CA
:10241000C9B2491E3000FDF786FF2900C9B2091F65
:1024200014F54270FDF765FF0028E4D004F20F3088
:10243000FDF7B2FEC4F8D40214F54370FDF7ACFE0C
:1024400020F07F40C4F8A8010020FEF7C8F994F8F6
:10245000137317F00F0794F81303C0F30218380032
:10246000C0B2FDF779FE002809D04046C0B2FEF7A1
:102470006BFF002803D084F8358484F8EA7294F85E
:10248000140310F00F000100C9B2002900D101208F
:10249000401E84F83C04EDB2122D1DDB0D2594F88E
:1024A0006A7612E02800C0B2204410F54270FEF7B0
:1024B0003DFB002807D05FF0FF3300220100380009
:1024C000C0B2FEF7B2FA7F1CED1C3800C0B294F81F
:1024D0006A16491D8842E5DB04F2C22304F2B222E7
:1024E0003100B4F8B002401E80B2FDF765FF94F8E9
:1024F000AC0110F0240F01D1002018E094F8AC01D9
:10250000800607D594F8B21194F8B001FDF730FEBB
:1025100084F8B001B4F8AC114FF659500140A4F85A
:10252000AC11FEF7BDFE0620FEF7B3FE0120BDE8AC
:10253000F08180B5FFF7FEFEDFF8801A91F80703FF
:10254000002805D1002081F80503102003F056FC77
:1025500001BD80B5DFF89C0CDFF8601AC1F84004BB
:10256000FFF742FE01BD80B5DFF8500A90F807037F
:10257000002803D0FFF7DEFE002805D1DFF8941C09
:102580005FF44030FFF778FE01BD80B5DFF8880CBE
:10259000FFF78DFE01BD80B5052003F02FFCDFF8AD
:1025A000DC1C5FF42030FFF7ABFE01BD10B5DFF897
:1025B0000C4A14F5856003F0E9FE0020C4F84004DD
:1025C000002084F8070394F86F06FF2802D010203B
:1025D00003F014FC00F02BFB94F87006002802D0E6
:1025E000162003F00BFC94F83404022806D194F86A
:1025F000AC0110F0180F01D100F040F910BD10B57A
:10260000DFF8B84994F80703002817D1002084F8B0
:10261000050394F83404022809D194F8AC01C007EA
:1026200005D5FF2084F86F0600F028F905E0DFF8F3
:10263000C01C14F1180003F0C1FE5EE094F83404ED
:10264000022809D114F5856003F0A0FEB4F8AC01AE
:1026500050F08000A4F8AC0100F0E9FA00281AD18B
:10266000002084F8050394F8340402280CD194F86F
:10267000AC01C00705D4DFF8781C14F5856003F0C1
:102680009DFE00F0FBF805E0DFF8641C14F1180073
:1026900003F094FE31E094F8340402280BD194F84E
:1026A0000503000707D594F8AC01C00703D514F162
:1026B000180003F06BFE94F80503400612D5B4F839
:1026C000AC0150F08000A4F8AC01DFF8241C14F138
:1026D000180003F073FE94F8340402280DD100F0C2
:1026E000CDF80AE094F83404022806D194F8AC013D
:1026F00010F0900F01D100F0C1F810BD10B5DFF857
:10270000BC48B4F8AC114FF6FE700140A4F8AC110F
:10271000DFF8380CC4F8400494F83404022802D1DD
:10272000002004F0EEFCFFF75FFDDFF8A02C21682D
:1027300094F83C344FF4004000FB031111F5A02144
:1027400014F1180003F04FFE10BD80B5002004F016
:10275000D8FC042004F0D5FCDFF8941BDFF8880CCB
:1027600003F02CFE01BD38B5DFF8E44B14F1180579
:10277000280003F00BFE002084F86F0694F807038E
:10278000002803D000F053FA002811D1DFF85C1CB8
:1027900094F83C044FF40042504310F58030FFF7AA
:1027A0006BFD94F83404022801D100F067F81AE0B8
:1027B00094F8050340060BD5B4F8AC0150F0800046
:1027C000A4F8AC01DFF8041C280003F0F7FD0AE0D0
:1027D00094F83404022806D194F8AC0110F0900F5C
:1027E00001D100F04BF831BD10B5DFF8D04794F8B7
:1027F0003404022802D1002004F083FCDFF84C0CE2
:10280000FFF755FDDFF8482C216894F83C344FF46D
:10281000004000FB031111F5A02114F1180003F092
:10282000E2FD10BD3C00002010B5DFF89047B4F881
:10283000AC0150F08000A4F8AC01002084F85004F2
:10284000002084F80503002084F86F06002084F837
:1028500070060A2003F0D2FADFF8581C94F83C0402
:102860004FF40042504310F50040FFF749FD94F843
:102870003404022801D100F001F810BD10B5FDF7B5
:10288000FAFD002814D0DFF8344794F8EA0207284C
:102890000ED0002004F035FCB4F8AC0150F001007B
:1028A000A4F8AC01DFF8A40AC4F84004FFF79CFCCC
:1028B00010BD2DE9FC41DFF8045795F8AC0110F08C
:1028C0001800102801D0012400E000242000C0B22C
:1028D000002802D095F8BC6100E00026082795F892
:1028E000480400280ED095F8040300280AD10220DD
:1028F00095F86014294481F8610495F86004401C3F
:1029000085F8600495F8490400280ED095F8040372
:1029100000280AD10D2095F86014294481F861043B
:1029200095F86004401C85F8600495F86004002860
:102930003BD095F8B001082805DADFF8080C95F8C7
:10294000B011405C00E0FF2095F86014884203DA83
:10295000002085F860044DE095F87B0695F860143A
:1029600088420ED395F8602405F2614105EB07001B
:1029700010F54278404601F0E7F995F86004C71970
:1029800038E0002085F8BA0195F8602405F261412D
:1029900005F2BD14200001F0D7F995F8600485F820
:1029A000BC0195F8BC61012424E095F8600500287D
:1029B00020D095F8600510281CDA95F8B001082899
:1029C00005DADFF8800B95F8B011405C00E0FF20DD
:1029D00095F8601588420DDB95F8602505F2615188
:1029E00005EB070010F54278404601F0ADF995F887
:1029F0006005C71995F8E202002809D095F9E102AF
:102A0000002802D5002085F8E102002085F8E202C6
:102A10002000C0B2002805D0B0465FFA88F818F14F
:102A2000050801E05FF0040818EB0708404680B293
:102A3000B0F5807F02DB002417F10408402085F800
:102A4000080395F9E102002801D4402100E00021AB
:102A500095F8E02295F8E602024311433800083861
:102A6000014385F80D13D5F8D41205F20930FDF7AE
:102A7000B0FB95F80403002804D1D5F8DC02401C13
:102A8000C5F8DC02D5F8DC02411E89B205F20E3031
:102A9000FDF79AFB95F8E00200280ED095F8AE01FC
:102AA00000280AD095F8040395F8AE11491E884213
:102AB00006D1002085F8E00202E0002085F8E0025F
:102AC000E4B2002C36D095F8BB01002809D0802054
:102AD00085F8080395F80403002802D1012085F841
:102AE000040395F8BA0105EB070181F808033200E9
:102AF000D2B205F2BD1105EB070000F20934200047
:102B000001F022F995F8BA01002802D105F2B220AD
:102B100001E005F2C220F6B2019605EB070101F2D1
:102B2000093100910023D5F8DC22521ED5F8D412C9
:102B3000FDF707FC404680B2001F019015F542707A
:102B400000900023D5F8DC22521ED5F8D41205F2ED
:102B5000B220FDF79CFB85F80783BDE8F38138B50B
:102B6000DFF8585415F542742070601C02F0D8FF4D
:102B700014F1090002F0DEFFB5F8B01214F11100F3
:102B8000FDF722FB13212000FDF79FFB172085F89E
:102B90000703B5F8B002401CA5F8B00231BD80B5FE
:102BA00000F032FA01BD10B5FDF765FC002835D103
:102BB000DFF8084494F8AC0110F0900F01D0002029
:102BC0002DE0002084F8A301002084F835040020C3
:102BD00084F83C04002084F87006002084F86F0616
:102BE000B4F8AC114EF2DE700140A4F8AC11002034
:102BF00084F8BB0184F8040384F8B201FEF7BFFA3D
:102C0000B4F8AC0150F00400A4F8AC01DFF8B81B34
:102C100014F1180003F0D2FB012000E0002010BDE9
:102C200080B5DFF8A80B401CFDF7B6FA02BD38B539
:102C3000DFF8884394F8AC0100063AD594F807030E
:102C4000002803D094F80503400632D594F8BB0160
:102C500000282ED194F8040394F8AE11491E88423E
:102C600027DA0020C4F8400494F80403401C84F8D8
:102C700004030220FDF721FD010094F83C044FF409
:102C8000004202FB001111F5C0312068FDF73FFD45
:102C9000B4F8AC114FF67E700140A4F8AC11B4F852
:102CA000AC0150F00800A4F8AC0100F0ADF901202F
:102CB00032BD94F8AC0110F08100012804D1FF204E
:102CC00084F86F060020F3E794F80703002804D087
:102CD00094F80503400640F15A8194F80403002853
:102CE0007BD094F8BB01012877D194F8040394F8C1
:102CF0006816884254D20020C4F8400494F80403B3
:102D0000401C84F8040394F80403022190FBF1F2C0
:102D100001FB1200012815D194F80403022811DBED
:102D200094F8B001FDF7B1FB00280BD1012194F814
:102D3000B001FDF71DFA7FF07F020100C9B2022049
:102D4000FDF72AFD00F0EBFC94F8BC11C0B28842FC
:102D500006D2002084F8BB01042084F8700625E028
:102D60000220FDF7AAFC94F83C144FF4004202FB49
:102D7000010010F5C03001002068FDF7C8FCB4F870
:102D8000AC114FF67E700140A4F8AC11B4F8AC0160
:102D900050F00800A4F8AC0100F036F9012087E7F4
:102DA000002084F8BB01022084F87006602084F8BB
:102DB0000503002084F84804002084F8490400201A
:102DC00084F8600494F8340402287DD1B4F8AC018E
:102DD00050F00100A4F8AC0176E094F84404102807
:102DE0005CD1012194F8AE01002802D094F8AE0124
:102DF000414394F84504C9B2884232D294F804039E
:102E0000002809D094F8451494F80403411884F874
:102E10004514002084F8040394F84504401C84F809
:102E200045040220FDF749FC94F83C144FF400429D
:102E300002FB010010F5C03001002068FDF767FCBF
:102E4000B4F8AC114FF67E700140A4F8AC11B4F8A0
:102E5000AC0150F00800A4F8AC0100F0D5F8012056
:102E600026E7002084F84404002084F8450420204C
:102E700084F80503002084F84804002084F84904FD
:102E8000002084F8600494F8340402281CD1B4F8BB
:102E9000AC0150F00100A4F8AC0115E0202084F84A
:102EA0000503002084F84804002084F84904002029
:102EB00084F8600494F83404022805D1B4F8AC0115
:102EC00050F00100A4F8AC0194F9E10210F1800F78
:102ED00004D094F8E102401C84F8E10294F8B001B7
:102EE000FDF7D3FA002803D07FF07F0084F8E102D9
:102EF00094F9E102002806D1B4F8AC01C00402D470
:102F0000002084F8E102002084F8070394F8070306
:102F100084F80603B4F8AC114FF677700140A4F8BA
:102F2000AC1194F8050310F0070F0AD0B4F8AC0107
:102F3000C00406D5B4F8AC114EF6FF700140A4F8F9
:102F4000AC1100F061F894F9E10220281DDB94F83F
:102F5000B001FDF718FB7FF07F052A000100C9B220
:102F60000320FDF719FC94F8B001FDF78EFA002854
:102F700003D1002084F8E10201E084F8E152B4F8C2
:102F8000AC0150F48050A4F8AC01012090E6FEF7AB
:102F90005BFF002801D100208AE60020C4F840042D
:102FA000FFF73EFED4F8D412884203D10A2002F083
:102FB00025FF02E0172002F021FFABE770000020A0
:102FC00010B5DFF88C43B4F8AC114FF677700140C0
:102FD000A4F8AC1114F1180003F0D8F914F58560C9
:102FE00003F0D4F9002004F08CF8112002F006FF61
:102FF00094F83404022801D1FFF740FC10BD000012
:10300000272300088B1200082DE9F041DFF8406308
:1030100096F8AC0110F0C10F40F0D58003F0A4F990
:103020000700002000250020C6F8740696F8AC01C1
:1030300010F03C0F00F0CD8096F8AC0110F0240F9A
:1030400001D0012400E00024B6F8AC0100051DD534
:1030500000213800FDF7F4FE05003560E81BDFF8BD
:10306000EC1A88420AD1B6F8AC114FF6E77001406D
:10307000A6F8AC11122002F0C1FEA4E0B6F8AC1123
:103080004FF2FF700140A6F8AC1100E0356896F8E9
:10309000A301002803D1B6F8AC01C00506D5D6F8C7
:1030A000A401281A002801D5D6F8A45196F8A20147
:1030B00006EB800090F8001111F00701E81B413881
:1030C000002808D4C9B22420414306EB010090F83F
:1030D0003000002868D03D0096F8B0812000C0B2D2
:1030E000002815D096F8AC01800608D596F8B211E4
:1030F0004046C0B2FDF73CF88046C02000E000200A
:10310000C0B2FFF72CFDDFF8BC0AC6F8400405E0AA
:10311000FFF7CFFBDFF8B00AC6F840044046C0B264
:10312000FDF70AF896F8B11180B2FCF7EEFFF081D6
:1031300086F81180B6F8AC114FF6EF60014051F4FB
:103140000861A6F8AC112800FDF716FE96F83404C5
:10315000022802D1002003F0D4FFE4B2002C08D0F2
:10316000DFF8D02A17F5A02116F1180003F03BF97B
:1031700007E0DFF8C02A17F5802116F1180003F0E8
:1031800032F9D6F86406002802D0D6F864068047E3
:10319000012003F0B6FF96F80713F089FDF713FA44
:1031A000C719553737600EE096F8AC0180070CD48C
:1031B000132002F023FEDFF8802A413D290016F19A
:1031C000180003F010F9BDE8F081002DF3D16D1C5B
:1031D000F1E796F8AC018007EDD4F4E7C0B200281F
:1031E00001D0802000E00020DFF8501A81F8E602CC
:1031F000704700003325000880B50A00DFF83C1A4C
:1032000081F8470452B20100C9B20020FDF7C4FAA8
:1032100001BD0000532500086725000810B50020F7
:1032200003F06FFF4A4C14F1180003F0AFF814F5E7
:10323000856003F0ABF8002084F86006002084F875
:103240000403002084F8BB010020C4F8D40200204D
:10325000A4F8AC01002084F8B101002084F84804EF
:10326000002084F84904002084F86004002084F8D9
:1032700060050020FDF7B3FA10BD00008B250008A3
:1032800038B5334C4020A4F8AC01012084F869061D
:103290000020A4F86C06002084F86E06802084F8D4
:1032A000E602002084F84504FF2084F87D06002112
:1032B00009E000220B00DBB22420434304EB0300AF
:1032C00080F82720491C0800C0B20628F1DB00F076
:1032D000ACFA0020C4F84C0402F0CBFF0500EDB2BC
:1032E00002F0C7FF50EA0520A4F8B00231BD00008B
:1032F000AD25000880B5DFF84419002081F870067C
:10330000002081F86F0691F83404022806D1B1F844
:10331000AC214FF67E700240A1F8AC21B1F8AC218F
:103320004FF67F700240A1F8AC21B1F8AC0150F02B
:103330000800A1F8AC0191F8AC01400702D40020CC
:1033400081F80403FFF760FE01BD0000FF250008BF
:10335000700000202DE9F84305000C0090461E0087
:10336000FDF789F8002802D17FF002002CE0DFF899
:10337000CC7897F8B001072808DA00F0D0F9414678
:10338000C9B288420DD27FF001001DE097F86004B9
:10339000D0F1F2004146C9B2884202DA7FF0010062
:1033A00012E0002C07D04246D2B207F2BD1921002C
:1033B000484600F0C9FC87F8BB6187F8BA5187F826
:1033C000BC81FFF797FF0020BDE8F283AD25000820
:1033D00080B5FDF750F8002805D000230022002119
:1033E0000120FFF7B7FF01BD88000020FD2600087F
:1033F00070B50D0011001C00DFF84068C6F8A80188
:10340000C6F8D452002905D0102206F2B2252800B1
:1034100000F09AFC002C06D0102206F2C2252100F2
:10342000280000F091FC0020FDF7D9F9B6F8AC11A6
:103430004FF659500140A6F8AC11B6F8AC0150F463
:103440000060A6F8AC01FDF72BFF70BD67270008F0
:103450004B27000880B5DFF8E41791F83424030007
:10346000DBB29A421ED081F834040200D2B2012AA3
:103470000AD1B1F8AC214FF67E700240A1F8AC2120
:10348000002003F03EFE0DE0C0B202280AD1FCF796
:10349000F2FF002806D002F067FFC01C03F0F1FE27
:1034A000FFF7ECF901BDDFF8940790F8340470479A
:1034B00000000000E92700080120DFF8801781F8EC
:1034C000480470470120DFF8741781F849047047F9
:1034D000DFF86817A1F86C06704710B5DFF85C4795
:1034E00094F8690610F07F00C0B2C01E03D0C01F60
:1034F000092804D907E01E2000F0E9F806E01020B2
:1035000000F0E5F802E0102000F0E1F8002107E00B
:1035100094F82700002802D1E07C84F82600491C9A
:1035200094F8FC008142F3DB10BD80B5DFF80C1786
:1035300081F86E0640B203F0C1FDFFF7CEFF01BD7A
:10354000000000001417010810B502F00DFF040080
:1035500001212000FDF774FC011BDFF8F0259142EA
:1035600002D17FF0010022E0DFF8D03693F8A211FB
:1035700003EB810191F8002112F00702011B413990
:10358000002908D4D2B224214A4303EB020191F866
:103590003010002901D0002009E0041B4FF47A709C
:1035A00080FB04014FF40042002302F09BFF10BD9A
:1035B000DFF8881691F869260300DBB29A4203D13E
:1035C00091F91300C0B21DE0C0B210F07F00C0B28C
:1035D000401E05D0801E05D0C01F092804D905E073
:1035E000102004E01E2002E0102000E0102091F9DD
:1035F0006E2616320300DBB29A4202DA91F96E06A9
:103600001630C0B2704770B50500002406E0681C93
:10361000C0B2FCF707FFFF281ED1641C2000C0B217
:1036200010281BDADFF81466B6F8A0010121A140CA
:103630000842F2D02100C9B22800C0B2FCF74FFF07
:103640000128EAD196F879060128E0D12800C0B215
:103650000228DCDA002002E0012000E0002070BD3A
:1036600030B59BB004000D006A4600212000C0B2B6
:1036700000F0D7F9002000E0401C01009DF8002078
:10368000C9B2914215D269460200D2B201EB4201A1
:10369000B1F844100122AA401142EDD0E4B20A3C34
:1036A0000A2C04D2EDB2022D01DA002002E0012042
:1036B00000E000201BB030BDDFF88015C1F86406C3
:1036C0007047401CDFF8741581F868067047DFF812
:1036D0006C1591F96E26163203005BB29A4204DA39
:1036E00091F86E061630C87400E0C8747047DFF8B1
:1036F0004C0590F8B01108290FDA90F879160129D5
:1037000005D1DFF83C1590F8B001085C06E0DFF861
:10371000341590F8B001085C00E00020704780B5D7
:10372000FFF7E5FF0100C9B2002906D0DFF80C154C
:1037300091F86014401AC0B200E0002002BD70B4DD
:10374000DFF8F84494F8693613F07F03012B2CD18D
:103750000300DBB2062B26DA94F913301500EDB224
:103760001BB22DB2AB421EDB0B00DBB2002B01D033
:10377000012300E0002324250600F6B26E43264410
:1037800086F82730C9B2002905D0C0B2684320446A
:1037900080F8262005E0C0B268432044E17C80F830
:1037A0002610012002E0002000E0002070BC7047DD
:1037B000DFF8880490F8690610F07F00012801D135
:1037C000062000E0002070479F2B000878030020AF
:1037D00030B4DFF8683493F8694614F07F04012CA4
:1037E00020D10400E4B2062C1ADA24240500EDB23C
:1037F00065431D4495F827500D700100C9B261431F
:10380000194491F82710002902D1D87C107005E0E6
:10381000C0B26043184490F826001070012002E006
:10382000002000E0002030BC7047F8B502F09CFD9D
:103830000400DFF8085495F8690610F07F00C0B264
:10384000C01E03D0C01F09282AD950E01E20FFF750
:103850003EFF012085F8FC00E87C85F8280095F8FB
:103860002700002802D1E87C85F8260002F001FD3F
:10387000102190FBF1F201FB120085F82900EC62A7
:10388000002085F84400FDF729F8002085F8400065
:103890000A20287507206875052085F8780676E0E7
:1038A0001020FFF714FF012085F8FC00E87C85F864
:1038B000280095F82700002802D1E87C85F826002A
:1038C00002F0D7FC102190FBF1F201FB120085F809
:1038D0002900EC62002085F84400FCF7FFFF072078
:1038E000287507206875052085F878064FE01020B8
:1038F000FFF7EDFE062085F8FC00002638E02427BF
:103900003000C0B278432844E97C80F828103000A9
:10391000C0B27843284490F82700002806D1300030
:10392000C0B278432844E97C80F8261002F0A1FC5C
:1039300010213200D2B27A432A4490FBF1F301FB0A
:10394000130082F829003000C0B278432844C462D2
:103950003000C0B278432844002180F84410300081
:10396000C0B207FB00F705EB070080F84060761C4B
:10397000300095F8FC10C0B28842C0D3FCF7AEFF0F
:103980000720287505206875072085F87806F1BDA1
:1039900080B5AA49020091F86936D2B29A4203D0A2
:1039A00081F86906FFF73AFC01BDA44991F8691650
:1039B00011F07F01C9B2C91E03D0C91F092902D95C
:1039C00003E000202CE000202AE09F49411A9F4A92
:1039D000914201D2002023E09D49411A9D4A914223
:1039E00001D201201CE09C49411A9C4A914201D21B
:1039F000022015E09A49411A9A4A914201D20320C5
:103A00000EE09949411A994A914201D2042007E0F7
:103A10009749401A9749884201D2052000E00020CA
:103A2000704710B40100C9B211F07F01C9B2491E3C
:103A300005D0891E26D0C91F092946D95FE0032178
:103A400011708D4951608D4991608D49D16000217F
:103A500007E03F230C00E4B202EB4404A4F8443036
:103A6000491C0B001478DBB2A342F2D3000603D446
:103A7000002082F8640002E0032082F8640081489C
:103A8000906658E0032111707F4951607F49916031
:103A90007F49D160002107E03F230C00E4B202EB34
:103AA0004404A4F84430491C0B001478DBB2A34250
:103AB000F2D3000603D4022082F8640002E004205E
:103AC00082F864007348906635E0022010707248F6
:103AD000506072499160002107E03F230C00E4B27E
:103AE00002EB4404A4F84430491C0B001478DBB208
:103AF000A342F2D3022182F8641090661BE00320F7
:103B000010705D4850605D4890605D48D060002056
:103B100007E03F210300DBB202EB4303A3F84410AC
:103B2000401C01001378C9B29942F2D3002082F8F8
:103B300064005448906610BC70470100C9B2102957
:103B400000DB0F203D4981F87B067047000050469E
:103B50000100C9B2032904DA384981F87C06012042
:103B600000E00020704780B5C0B203F0ACFA01BDA0
:103B7000324981F87D06704710B51400C0B20028A4
:103B80000ED00800FCF7D2FF002807D02B49886030
:103B90008C74052003F0B5FA012005E0002003E055
:103BA000002003F0AEFA012010BD80B5002003F024
:103BB000A8FA042003F0A5FA39493A4802F0FEFBBE
:103BC00001BD0000972500082928000810B5C0B2E3
:103BD000002829D00021002213E02423174C1000D4
:103BE000C0B25843204490F83000002808D010009C
:103BF000C0B203FB00F304EB030090F8440041184B
:103C0000521C1000C0B20628E7DBC9B2012909D155
:103C100002F0AAFB0021FDF713F9052003F071FA69
:103C2000012005E0002003E0002003F06AFA0120F3
:103C300010BD0000C12F00088B120008700000208A
:103C40001C17010814170108C055703381841E0029
:103C500040DA8E33C1C62D0000A1BC33C127090054
:103C6000604FC73321A10700C0FDD13391D00300BD
:103C7000A091D633E1930400A027BE33E034C133D2
:103C80002042C43308E6D33364CE8F3384FE9433AA
:103C9000E8E19D33F080A63300EA063740F70937A4
:103CA000AD2500088800002062F30F2262F31F4256
:103CB000401810F0030308D0C91A1FD3DB0748BF10
:103CC00000F8012D28BF20F8022D130030B414464F
:103CD0001546103928BF20E93C00FAD8490728BF0B
:103CE00020E90C0048BF40F8042D890028BF20F8C7
:103CF000022D48BF00F8012D30BC7047C91818BF0D
:103D000000F8012DCB0728BF00F8012D704730B413
:103D1000002513E050F8042BD30744BFA9F1010399
:103D20009A18091F042942F8045BFAD213468C073B
:103D300044BF15809B1CC90748BF1D7050F8041B69
:103D40000029E7D130BC704762B38B0708D0521E00
:103D500011F8013B00F8013B00F024808B07F6D1FD
:103D6000830740F0208000BF103A07D330B4B1E899
:103D70003810103AA0E83810F9D230BC530724BFED
:103D8000B1E80810A0E8081044BF51F8043B40F81F
:103D9000043BD20724BF31F8022B20F8022B44BF8A
:103DA0000B7803707047121F17D35B0009D151F8CD
:103DB000043B20F8023B1B0C121F20F8023BF6D2FA
:103DC0000BE051F8043B00F8013B1B0A20F8023BD2
:103DD0001B0C121F00F8013BF3D238BF121D521EFC
:103DE00024BF11F8013B00F8013BF8D870470000F0
:103DF00030B4002117E0DFF8480750F8212050F8D0
:103E000021301B0213F47F0353EA026350F8212090
:103E1000120A12F47F42134350F8212053EA12632E
:103E200040F82130491C0429E5DBDFF81427D3686A
:103E30002DE0042091FBF0F400FB141000281ED1AB
:103E4000DFF800071C00240CE4B2045D1D002D0AFD
:103E5000EDB2455D2D0495EA04651C00E4B2045DF5
:103E600095EA04251B0EC05C2B004340081F042468
:103E700090FBF4F0DFF8D04654F82000434002EB0A
:103E8000810050F8100C434042F82130491C2C2985
:103E9000CFDB30BC70472DE9F74F82B00400FFF74D
:103EA000A7FF200707D50021DFF8A006C1608160C9
:103EB00041600160A3E0DFF8940601680268120225
:103EC00012F47F0252EA01620168090A11F47F418B
:103ED0000A43016852EA11620260416842681202B4
:103EE00012F47F0252EA01624168090A11F47F412B
:103EF0000A43416852EA1162426081688268120294
:103F000012F47F0252EA01628168090A11F47F41CA
:103F10000A43816852EA11628260C168C268120273
:103F200012F47F0252EA0162C168090A11F47F416A
:103F30000A43C16852EA1162C26060E01000000EDC
:103F4000039908701000000C039948701000000AD3
:103F5000039988700398C2703000000E03990871AD
:103F60003000000C039948713000000A03998871F1
:103F70000398C6713800000E039908723800000CCF
:103F8000039948723800000A039988720398C7722F
:103F90001800000E039908731800000C0399487369
:103FA0001800000A039988730398C37319E00398F3
:103FB00010F805C01000000E90EA0C0C039800F8F1
:103FC00005C0120215F00300032802D132003E00A2
:103FD0001F006D1C8D42EAD3DFF87005C168491CD3
:103FE000C16014F00A00022807D003981030039033
:103FF000BDF810001038ADF8100054F00804BDF9F9
:10400000100000B20128C0F29682610703D414F0B8
:104010000A01022906D1DFF834050268466887687C
:10402000C3683EE0A10740F17182BDF8101011296C
:1040300080F26C820022130017001600BDF81000F9
:10404000102801D1012000E0022054EA001428E0E9
:10405000002504E0BDF81050A942F9D1802584461E
:10406000280050EA0C2011F00305032D03D1320083
:104070003E001F000300491C102906D2BDF8105055
:10408000A942E7D2039D6D5CE9E7A00709D5DFF8F7
:10409000BC14086842404868464088684740C86881
:1040A0004340DFF89CE41EF180000090DEF8000041
:1040B00042401500DEF804004640DEF808004740A4
:1040C000DEF80C0043409C46DEF81480DEF81890C1
:1040D000DEF81CA0DEF810B0DFF874042900C9B2C5
:1040E00050F8211091EA0808DFF868142A00120A33
:1040F000D2B251F8222092EA0909DFF85C242B00A1
:104100001B0CDBB252F8233093EA0A0ADFF84C3476
:104110002D0E53F8255095EA0B05B3465FFA8BFB3D
:1041200050F82BB09BEA0909B3465FEA1B2B5FFAF4
:104130008BFB51F82BB09BEA0A0AB3465FEA1B4B94
:104140005FFA8BFB52F82BB09BEA0505360E53F84D
:10415000266096EA08084646B8465FFA88F850F89E
:10416000288098EA0A0AD046BA465FEA1A2A5FFA15
:104170008AFA51F82AA09AEA0505BA465FEA1A4A6D
:104180005FFA8AFA52F82AA09AEA06063F0E53F816
:10419000277097EA09094F46E1465FFA89F950F816
:1041A000299099EA0505E1465FEA19295FFA89F93C
:1041B00051F8299099EA0606E1465FEA19495FFA43
:1041C00089F952F8299099EA07075FEA1C6C53F8BD
:1041D0002CC09CEA0808C446DEF82480DEF828904B
:1041E000DEF82CA0DEF820B0CDF804B0AB465FFAC4
:1041F0008BFB50F82BB09BEA0808AB465FEA1B2B01
:104200005FFA8BFB51F82BB09BEA0909AB465FEADA
:104210001B4B5FFA8BFB52F82BB09BEA0A0ADDF8C6
:1042200004B02D0E53F8255095EA0B05B3465FFAFE
:104230008BFB50F82BB09BEA0909B3465FEA1B2BB6
:104240005FFA8BFB51F82BB09BEA0A0AB3465FEA90
:104250001B4B5FFA8BFB52F82BB09BEA0505360E21
:1042600053F8266096EA08084646B8465FFA88F88A
:1042700050F8288098EA0A0AD046BA465FEA1A2A15
:104280005FFA8AFA51F82AA09AEA0505BA465FEA67
:104290001A4A5FFA8AFA52F82AA09AEA06063F0EEC
:1042A00053F8277097EA09094F46E1465FFA89F902
:1042B00050F8299099EA0505E1465FEA19295FFA65
:1042C00089F951F8299099EA0606E1465FEA194909
:1042D0005FFA89F952F8299099EA07075FEA1C6C9E
:1042E00053F82C90C44699EA0C0C1EF1200EDDF810
:1042F0000080C645FFF4E8AEDEF81480DEF81890C2
:10430000DEF81CA0DEF810B0CDF800B0AB465FFAC6
:104310008BFB50F82BB09BEA0808AB465FEA1B2BDF
:104320005FFA8BFB51F82BB09BEA0909AB465FEAB9
:104330001B4B5FFA8BFB52F82BB09BEA0A0ADDF8A5
:1043400000B02D0E53F8255095EA0B05B3465FFAE1
:104350008BFB50F82BB09BEA0909B3465FEA1B2B95
:104360005FFA8BFB51F82BB09BEA0A0AB3465FEA6F
:104370001B4B5FFA8BFB52F82BB09BEA0505360E00
:1043800053F8266096EA08083E00F6B250F8266018
:1043900096EA0A0A3E00360AF6B251F826607540DF
:1043A0003E00360CF6B252F8266096EA08083F0E38
:1043B00053F8276096EA09096646F6B250F82600D7
:1043C00045406046000AC0B251F8200090EA080853
:1043D0006046000CC0B252F8200090EA09095FEA7A
:1043E0001C6C53F82C0090EA0A0ADEF8202055498C
:1043F0002800000E085C92EA00624046000CC0B241
:10440000085C92EA00424846000AC0B2085C92EAA0
:1044100000225046C0B2085C4240DEF824604046AC
:10442000000E085C96EA00664846000CC0B2085CC4
:1044300096EA00465046000AC0B2085C96EA00269A
:104440002800C0B2085C4640DEF828704846000EDE
:10445000085C97EA00675046000CC0B2085C97EA17
:1044600000472800000AC0B2085C97EA00274046CF
:10447000C0B2085C4740DEF82C005FEA1A6A11F807
:104480000A3090EA03602D0CEDB24B5D90EA0340D8
:104490005FEA18285FFA88F811F8083090EA0320DC
:1044A0005FFA89F911F8091003004B40A00735D5D0
:1044B0002000C0B2C0F30110002829D01100C90F9C
:1044C00015003200D20F52EA450235003E00F60FC9
:1044D00056EA45063D001F00FF0F57EA45075B00FF
:1044E000002901D093F08703401E0028E6D1174928
:1044F0000D6855400D604D6875404D608D687D407C
:104500008D60CD685D40CD6014F0CF040021B3E52F
:104510000E48026046608760C36062E560077FF511
:104520000DADBDF81000112801DB102101E0BDF830
:10453000101000254EE50548006805B0BDE8F08F75
:104540002C120020F0100108B01501084C170020B3
:1045500098090108980501089801010898FD0008CC
:10456000DFF8780B022180F83C10102180F83D1014
:10457000032180F83E10012180F83F10072180F8C8
:1045800049100A2180F84A100021C1640F2180F8E7
:104590005310002180F85410002180F848100021A9
:1045A00080F8E211704738B5002414E0DFF82C5B86
:1045B000002005EB840181F8A50195F84A00FEF77B
:1045C000F7FF05EB840181F8A601002005EB8401CB
:1045D00081F8A701641C0F2CE8DB31BD10B5002465
:1045E000DFF8F80A012180F8E111022300F2E1125C
:1045F0000821002002F03BFF002800D10124200008
:10460000C0B210BD10B5DFF8D44A022304F2E112A3
:104610000821002002F0E4FEC0B2002804D00020EF
:1046200084F8E201002000E0012010BD7FB5040005
:104630000D006E46CD20307328208DF80D000C2122
:10464000684603F04BF936208DF80E00B5208DF842
:104650000F00002104E0625C705C42406254491C1F
:10466000A942F8DB7FBD10B5DFF8704A102114F1C4
:104670001800FFF7DBFF102114F12800FFF7D6FF29
:1046800008212000FFF7D2FF102114F10800FFF7E6
:10469000CDFF082114F15500FFF7C8FF10BD70B51C
:1046A00000240822DFF84C5B15F1400115F1550696
:1046B0003000FFF749FBFFF7D6FF062085F85000D2
:1046C00060232A000121022002F0D1FE002800D13F
:1046D000012403F0B9FA00280AD060232A0002213D
:1046E000022002F0C4FE002801D1012400E00024D1
:1046F000FFF7B9FF2000C0B270BD70B50500DFF84C
:10470000DC69602332002900C9B2022002F068FE91
:10471000040096F85000002801D0FFF7A4FF96F897
:104720005000032802DA0F2086F8530096F8500054
:10473000042802DA002086F85400E4B2002C1DD0D0
:10474000582332002900C9B2022002F049FE0400B9
:10475000FFF789FF2000C0B200280FD0E4B2082C78
:104760000CD0EDB2012D05D10220FFF7C6FFFFF7F7
:104770001AFF01E0FFF7F4FE002041E096F84A003E
:10478000002804D1DFF87C0B007886F84A0096F800
:10479000500006281CDB2800C0B2012818D10120D7
:1047A00000210BE006EB010292F8402006EB01032A
:1047B00093F855309A4200D00020491C0829F1DBBB
:1047C000C0B2002804D10220FFF797FFFFF7EBFEED
:1047D00096F8500005280EDBEDB2012D06D1FFF74B
:1047E00011FF96F8E20186F8480008E096F84800C4
:1047F00086F8E20103E096F8480086F8E20101201D
:1048000070BD10B50024DFF8EC09012180F8A41177
:104810003D2310F5D2720321022002F028FE002869
:1048200000D101242000C0B210BD80B501003D239D
:10483000DFF8402BC9B2022002F0D2FDC0B200283E
:1048400003D0FFF7B0FE002000E0012002BDDFF83A
:10485000A40990F83C11042905D090F83C010528E2
:1048600001D0012000E00020704738B50400DFF8D7
:10487000845985F83F40FFF7EAFF00280DD0E4B2E5
:10488000002C03D1802003F0C3FA06E095F83C0128
:10489000002802D1802003F0C8FA31BDDFF85409A6
:1048A00090F83F00002801D0012000E00020C0B2B5
:1048B000704780B5FFF7F2FF002802D0802003F098
:1048C000B4FA01BDC0B200280ED0C9B2002905D08B
:1048D0000220DFF8201981F8480013E00120DFF8FA
:1048E000141981F848000DE0C9B2002905D0032051
:1048F000DFF8001981F8480004E00020DFF8F41820
:1049000081F84800DFF8EC0890F8481080F8E211D0
:10491000704780B5C9B2C0B2FFF7D4FFFFF75EFEA3
:1049200003F092F9002801D0FFF7B9FE01BD10B5E0
:104930000400DFF8A80790F84810802902D1002071
:10494000207016E090F8480020702078012802D0EE
:10495000207802280DD100F0A2FA6060DFF83C0C4C
:1049600090F8B0012072FBF735FF6072FEF7D7FEBA
:10497000A07210BDDFF87C0890F848100800C0B2A3
:10498000002802D0C9B2032901D1002000E0012093
:10499000704710B50400DFF85C0880F83E4014F062
:1049A0000100FEF71BFC14F00400C0B28008C0B286
:1049B000002803D00220FEF74DFD02E00120FEF7A3
:1049C00049FD14F01000C0B20009C0B203F0DAF9DA
:1049D00014F02004E4B264092000C0B2FFF7C3F869
:1049E00010BD38B5DFF80C4894F83C0094F83D5001
:1049F0000100C9B2082904DA290049B2C0B2FEF7A1
:104A0000FBFB280040B2FBF753FF94F83E00800701
:104A100003D50120FBF789FF02E00020FBF785FFAB
:104A200094F85300FFF789F831BD30B40A21002211
:104A300000E0521C13000C00DBB2E4B2A3420AD225
:104A40000300DFF8C0481500EDB2645DDBB2A3429D
:104A5000EFD1012000E0002030BC704738B50500E0
:104A6000DFF8784694F83C01052801D1082059E088
:104A700094F83C01002803D094F83C01042850D15C
:104A80006879FFF7D2FF002801D109204AE094F8A5
:104A90004A006979884207D029786879FEF7E0FDF5
:104AA000002808D107203DE02878FEF7ACFD00285B
:104AB00001D1072036E06879FEF77AFD6978C0B247
:104AC000884201D20A202DE0287884F83C006878DA
:104AD00084F83D00A878FFF75CFFE878FFF7C5FE93
:104AE0002879FF2801D1FE202871287984F849000F
:104AF0002879FEF7E6FD94F84A006979884207D0E4
:104B0000687984F84A006879FEF742FF00F04CFBB0
:104B1000A87984F85300FFF764FFFFF7C0FD012078
:104B200000E0002032BD38B50400DFF8C85695F823
:104B30003C00207095F83D00607095F83E00A07034
:104B4000FFF7ACFEE07095F84900207195F84A0037
:104B5000607195F85300A07131BDDFF8980690F8A8
:104B60003E00000601D5012000E00020704770B52E
:104B700005000A2489B22000C0B2B1EB400F1FDB50
:104B8000002613E0DFF87C073100C9B2415C320037
:104B9000D2B205F812103100C9B2405CFEF708FD30
:104BA0003100C9B205EB41014870761C300021008C
:104BB000C0B2C9B28842E5D3E4B26000C0B200E03E
:104BC000002070BDF8B506000C001700DFF8245671
:104BD00095F83C01052801D108203FE0FEF7E8FDEB
:104BE00000283AD095F83C01002803D095F83C0104
:104BF000042830D1FEF7DCFD3100C9B2814201D377
:104C00000B202BE00120FEF7D3FC3900C9B288420B
:104C100001D20A2022E02000C0B2022800DB0124D9
:104C20003A00D2B22100C9B23000C0B2FEF787FD0F
:104C300001280ED13000C0B205EB800080F8A541FC
:104C4000F6B205EB860080F8A671FFF7DAFD0120C9
:104C500004E0FF2002E0002000E00920F2BD70B572
:104C600005000E00FEF7A4FD04002000C0B20028DD
:104C70002BD0B6B22100C9B2032041438E4224DBBF
:104C8000002617E03100C9B2032041436E543100C1
:104C9000C9B20320414305EB0100821C3100C9B2B7
:104CA0000320414305EB0100411C3000C0B2FEF778
:104CB0008FFD761C30002100C0B2C9B28842E1D31A
:104CC000032044432000C0B200E0002070BD38B58E
:104CD0000400DFF8205595F83C01052801D1082093
:104CE00016E095F83C01002803D095F83C01042813
:104CF0000DD12000C0B2FEF72BFF002805D085F8AB
:104D00005440FFF7CCFC012002E0042000E000202A
:104D100032BDDFF8E00490F85400704780B5DFF84A
:104D2000D42492F83C11052901D108200DE092F815
:104D30003C11002903D092F83C11042904D1C0B2DF
:104D4000FEF716FF012000E0002002BDDFF8A404FA
:104D500090F83E00400601D5012000E00020704799
:104D600080B5DFF8902492F83C11052901D1082084
:104D700012E092F83C11002903D092F83C1104296A
:104D800009D10068D064D06C40B2FEF7CEFBFFF7CB
:104D900086FC012000E0002002BDDFF85814C96C39
:104DA0000160704710B504000822DFF848142000A5
:104DB000FEF7CAFF10BD10B501000822DFF8344429
:104DC0002000FEF7C1FF10BD10B504000822DFF877
:104DD0004C1A2000FEF7B8FF10BD10B501000822E4
:104DE000DFF8384A2000FEF7AFFFFFF758FC10BD90
:104DF00010B504001022DFF8D41C2000FEF7A4FF39
:104E000010BD10B501001022DFF8C04C2000FEF7E5
:104E10009BFF10BD10B50C00DFF8D81391F83C11C2
:104E2000052901D1002007E0FFF7C5FF2000FFF7AB
:104E3000E8FFFFF734FC012010BD10B50C00FFF7B0
:104E4000B1FF2000FFF7D4FF10BDDFF8A81391F8E1
:104E5000380091F8392050EA022080B291F83A20C7
:104E600091F83B1052EA012292B250EA0240704798
:104E70009A4981F83800020092B2120A81F839206A
:104E80000200120C81F83A200200120C92B2120AAF
:104E900081F83B20DFF80417C1F8D4027047DFF82F
:104EA000FC06D0F8D402704770B50C001022DFF871
:104EB000445315F1180601003000FEF745FF10229B
:104EC000283521002800FEF73FFF70BD38B50400EB
:104ED0000D001000FFF7CCFF29002000FFF7E4FFD2
:104EE00031BD70B504000D001022C24E16F118013C
:104EF0002000FEF729FF102216F128012800FEF7F6
:104F000023FF70BD032070470100C9B203290DDAE9
:104F1000B84AC0B22C214843104490F860000028E1
:104F200001D0012000E00020C0B200E00020704766
:104F300010B401000800C0B2032821DA2C22AD4BC6
:104F40000800C0B25043184490F881000C00E4B24D
:104F500054431C4494F8824050EA042080B20C0070
:104F6000E4B254431C4494F88340C9B251431944F9
:104F700091F8841054EA0124A4B250EA044000E0FD
:104F8000002010BC70470200D2B2032A06DA994B07
:104F9000C0B22C2250431844C0F88810704701005A
:104FA000C9B2032907DA934AC0B22C2148431044FE
:104FB000D0F8880000E0002070472DE9F04105009E
:104FC000884614002800C0B2032815DA10222C26C7
:104FD000884F2800C0B27043384410F16101404648
:104FE000FEF7B2FE1022EDB2754307EB050010F19B
:104FF00071012000FEF7A8FEBDE8F08138B504007D
:105000000D00FFF724FC002801D1082030E0FFF755
:10501000B1FC002801D103202AE0304890F83C017F
:10502000002824D1002C22D42800C0B202280ED19E
:10503000FEF742FA04980599C0B200280FD10091FA
:10504000002300220121200000F014FA10E0EDB24C
:105050000D2D02D1FEF736FAECE7042008E00091AE
:10506000002300220121200000F0E9F900E00020E7
:1050700032BD38B500240CE005EBC40010F58A7190
:105080000868406A002803D000200968496A8847F8
:10509000641C584D95F810018442EDD302F0D4FD04
:1050A000002815D195F83C00FEF7ADFA00280CD188
:1050B000022085F83C0095F84A000A380A2802D2F6
:1050C000022085F83C00FFF78CFCFEF781F904E034
:1050D000002085F83C01FFF7ECFB31BD180C0020E7
:1050E00080B5DFF8B80C02F0D9FFFFF743FC0028C9
:1050F00002D0FFF7BEFF01E0FDF755FD01BD80B511
:10510000DFF8F00C02F0CAFFFEF74FFD01BD10B54D
:105110004FF48C710022DFF8884C2000FEF7C4FDAC
:10512000FFF793FE334C14F1280314F11802010029
:105130000020FEF75DF9FFF754FC0022642114F50E
:10514000B67002F095FF10BD80B5FFF780FB002818
:1051500001D100200AE08020264981F811010021B8
:105160000120FFF7D6FBFFF7D2FF012002BD70B58B
:1051700004000D001600FFF76AFB002801D1002093
:1051800011E080201B4981F8110132002900200024
:10519000FFF79CFE00210120FFF7BBFBFFF77FFA22
:1051A000FFF7B5FF012070BD38B5FFF750FB0028B1
:1051B00001D100201CE00F4C14F5C47002F06EFF0A
:1051C0004FF48C710022DFF8D85B2800FEF76CFDED
:1051D000002084F83C0100210020FFF773FB00F061
:1051E00087FA00210020FFF794FBFFF762FB012004
:1051F00032BD0000180C00202DE9F041040015001C
:105200002C26DFF8F47B2000C0B270433844012222
:1052100080F860202000C0B27043384480F88130AC
:105220002000C0B2704338441A0092B2120A80F8CB
:1052300082202000C0B2704338441A00120C80F85B
:1052400083202000C0B2704338441B0C9BB21B0A61
:1052500080F8843010222000C0B27043384410F12E
:1052600061084046FEF770FD10222000C0B2704376
:10527000384410F1710829004046FEF765FDE4B29C
:10528000744307EB04005FF0FF31C0F88810BDE8FD
:10529000F081F8B504000D0016001F00FFF7D7FAE3
:1052A000002801D1002012E02000C0B2032801DB59
:1052B00000200CE08020DFF8401B81F811013B004A
:1052C000320029002000C0B2FFF796FF0120F2BD96
:1052D00010B50400FFF7BBFA002801D1002010E050
:1052E0002000C0B2032801DB00200AE00021DFF823
:1052F000082BE4B22C20444302EB040080F8601039
:10530000012010BDEC16010838B50400FFF79FFA24
:10531000002801D108202CE0DFF8DC5A95F81101B3
:1053200010F07F0085F8110195F83C0100281FD18D
:10533000002C1DD4012085F83C0185F81141002185
:105340000020FFF7BFFA00F0D3F9802C04D0012130
:105350000020FFF7DEFA03E001210020FFF7B2FA98
:105360000022642115F5B67002F082FE012000E0F3
:10537000002032BDBC0D00202DE9F04704000E00D6
:1053800017009846DDF824A00020CAF80000FFF7B7
:10539000F1FA002801D103204FE0DFF85C5A95F8BC
:1053A0003C01032802D1002085F83C0195F83C011E
:1053B000002841D1FEF7C8F810F1010F04D10120F7
:1053C00085F83C01002038E07FF00109484504D110
:1053D000002085F83C0107202FE0012803DBCAF8F4
:1053E0000000062029E0089A3300DBB2D2B2414621
:1053F0003800C0B2FDF7AEFF00280FD195F83C0190
:10540000032804D1002085F83C01052015E0012087
:1054100085F83C0185F8114101200EE010F1010FE3
:1054200004D1012085F83C01002006E0484501D167
:10543000022002E0032000E00020BDE8F087FEB576
:1054400004000D0016001F00FFF701FA002801D12B
:1054500008200EE0002C0BD408980190FFB20097B2
:1054600033002A00D2B201212000FFF785FF00E0BF
:105470000020FEBDFEB504000D0016001F00FFF762
:10548000E6F9002801D108200EE0002C0BD4089882
:105490000190FFB2009733002A00D2B20021200011
:1054A000FFF76AFF00E00020FEBD70B53B4C94F8AA
:1054B000E002800605D50120DFF8E41881F812012A
:1054C00004E00020DFF8D81881F8120194F80503F1
:1054D000000605D50120DFF8C81881F8110104E0A5
:1054E0000020DFF8BC1881F8110194F80503C0060C
:1054F00009D594F80603204490F80703DFF8A018B4
:1055000081F8100104E0FF20DFF8941881F8100101
:1055100094F80703002812D094F8072394F80603A0
:10552000204410F54271DFF8785815F1100630006C
:10553000FEF70AFC94F8070385F80F0104E0002049
:10554000DFF85C1881F80F0194F84404002801D0BA
:10555000012000E00020DFF8485885F8130194F896
:105560005004002812D094F8500410280BDA94F854
:10557000502404F251412E003000FEF7E5FB94F870
:105580005004E87304E00020E87301E00020E873B1
:10559000FDF746FBC5F8140170BD00007000002047
:1055A00038B5DFF8084CDFF85C5995F8A201207097
:1055B000FFF7E0F9002803D095F8BB01002804D1DB
:1055C00095F80403401CA07002E095F80403A07055
:1055D00095F8B00160700020E07095F9121095F90F
:1055E0006E06091A891E012906DB95F9121095F934
:1055F0006E06091A881EE070D5F8740660600020F7
:10560000207231BDDFF8A40B0021017000218170F0
:10561000002141700021C170002141600021017210
:105620007047DFF8AC1491F80523D2070BD5DFF8EB
:10563000F82BDFF8783B1B78137091F836345370F1
:105640000123137112E091F8052392070ED5DFF8BC
:10565000D82B8023137091F8EA3253700223137110
:1056600091F805331B0701D503231371DFF8B82B1D
:105670000B7B9370497BD170C0B200282BD0DFF830
:10568000200790F81201002812D01079012807D1C4
:10569000DFF8980BD0F85011491CC0F8501121E0E8
:1056A000DFF8880BD0F85C11491CC0F85C1119E0D8
:1056B0001079012807D1DFF8740BD0F84C11491C80
:1056C000C0F84C110EE0DFF8640BD0F85811491CFB
:1056D000C0F8581106E0DFF8540BD0F86811491CE7
:1056E000C0F86811704780B5802002F091FB01BDC1
:1056F00070B5DFF8044794F84A00FFF796F90028E0
:1057000007D1DFF82C0B007884F84A00002084F8D9
:10571000480094F84A00FEF73BF9FDF77FFDDFF8FB
:10572000140BFDF7C9FF94F83E00FFF732F994F827
:105730004900FDF7C6FF0020FDF7CAFEE06C40B24D
:10574000FDF7F3FE94F85400FEF702FAFEF730F886
:105750000500012D10DB00260CE004EB860090F81C
:10576000A62104EB860090F8A5113000C0B2FDF729
:10577000E6FF761CAE42F0DBFFF733F9FFF767F880
:10578000002815D094F84800012802D1FFF7BFFC8B
:105790000EE094F84800022807D094F84800032847
:1057A00003D094F84800802802D18020FFF7ACFD98
:1057B00070BD10B50020DFF8741A81F83C0102209A
:1057C000FEF79BFF0400FEF76AFFFEF707FFFEF7F8
:1057D000EAFEFFF716F800F07DF92000C0B210BD18
:1057E000DFF8481A91F81021052A14DA91F81021EF
:1057F00001EBC202C2F8140191F8100101EBC000E4
:1058000091F8102180F8182191F81001421C81F8BC
:105810001021C0B201E05FF0FF307047580C00204B
:1058200010B4002289B22C29C0F24C81DFF8FC1997
:10583000D1F840311400E4B20355D1F840319BB2A5
:105840001B0A1400E4B204446370D1F840311B0C0D
:105850001400E4B20444A370D1F840311B0C9BB295
:105860001B0A1400E4B20444E370121DD1F8443161
:105870001400E4B20355D1F844319BB21B0A140062
:10588000E4B204446370D1F844311B0C1400E4B258
:105890000444A370D1F844311B0C9BB21B0A1400C2
:1058A000E4B20444E370121DD1F848311400E4B2AC
:1058B0000355D1F848319BB21B0A1400E4B20444EA
:1058C0006370D1F848311B0C1400E4B20444A37097
:1058D000D1F848311B0C9BB21B0A1400E4B20444FB
:1058E000E370121DD1F84C311400E4B20355D1F825
:1058F0004C319BB21B0A1400E4B204446370D1F82B
:105900004C311B0C1400E4B20444A370D1F84C31A8
:105910001B0C9BB21B0A1400E4B20444E370121D7A
:10592000D1F850311400E4B20355D1F850319BB294
:105930001B0A1400E4B204446370D1F850311B0C0C
:105940001400E4B20444A370D1F850311B0C9BB294
:105950001B0A1400E4B20444E370121DD1F8543160
:105960001400E4B20355D1F854319BB21B0A140061
:10597000E4B204446370D1F854311B0C1400E4B257
:105980000444A370D1F854311B0C9BB21B0A1400C1
:10599000E4B20444E370121DD1F858311400E4B2AB
:1059A0000355D1F858319BB21B0A1400E4B20444E9
:1059B0006370D1F858311B0C1400E4B20444A37096
:1059C000D1F858311B0C9BB21B0A1400E4B20444FA
:1059D000E370121DD1F85C311400E4B20355D1F824
:1059E0005C319BB21B0A1400E4B204446370D1F82A
:1059F0005C311B0C1400E4B20444A370D1F85C3198
:105A00001B0C9BB21B0A1400E4B20444E370121D89
:105A1000D1F860311400E4B20355D1F860319BB283
:105A20001B0A1400E4B204446370D1F860311B0C0B
:105A30001400E4B20444A370D1F860311B0C9BB293
:105A40001B0A1400E4B20444E370121DD1F864315F
:105A50001400E4B20355D1F864319BB21B0A140060
:105A6000E4B204446370D1F864311B0C1400E4B256
:105A70000444A370D1F864311B0C9BB21B0A1400C0
:105A8000E4B20444E370121DD1F868311400E4B2AA
:105A90000355D1F868319BB21B0A1400E4B20444E8
:105AA0006370D1F868311B0C1400E4B20444A37095
:105AB000D1F86811090C89B2090A1300DBB2184445
:105AC000C170121D1000C0B210BC7047200C002025
:105AD0007000002080B5802002F09AF9FFF708FEE0
