:020000040800F2
:10000000081E002011FE0008DF3400084B5D0008C8
:1000100000000000000000000000000000000000E0
:100020000000000000000000000000004F75000804
:1000300053750008000000005786000821AA000838
:10004000019E00089B9E0008D16100082BE000087B
:10005000DDA500085D97000895970008CF97000878
:10006000000000008FE3000847FD0008E7FE0008DD
:10007000F3FE000819FF0008000000001BFF000845
:10008000000000001DFF000800000000000000004C
:1000900089660008000000001FFF000821FF00081B
:1000A00023FF000825FF000827FF000837A80008E5
:1000B00029FF00082BFF00080000000000000000DE
:1000C0004007400F7047C0B2C0088007800F7047DC
:1000D000C0B240098007800F7047B14A0240480112
:1000E00010437047C1110800C007C00F7047B44AE1
:1000F0000240C801104380B27047000A704780B5C3
:10010000401CC0B200F03AF902BD80B5FFF7F7FF1E
:100110000121FFF7ECFF02BD80B5401CC0B200F02A
:100120002DF9FF2801D0012002BD002002BD10B52D
:100130000C0001E000F0C8F921004C1E0906F9D1BD
:1001400010BD01784078000208437047017842787A
:1001500012020A43817809041143C078000608435B
:100160007047C178827812020A434178090411432A
:1001700000780006084370470A000270090A4170BF
:1001800070470A0002700A0A42700A00120C82705C
:10019000090EC17070470A00C2700A0A82700A0014
:1001A000120C4270090E01707047F2B5050017007D
:1001B0001E00B64C00221021200003F073F94920E4
:1001C00020703800401E8041C043C00F6071E6734C
:1001D0002900A01DFFF7D5FF009920000A30FFF786
:1001E000D0FFF1BD70B50600080011001A00049C94
:1001F000059D2B00FFF7D9FF10223100A44803F022
:100200006FF92800020092B22100022003F0FAF9EF
:1002100006006019FFF7A5FF864201D1012070BDDD
:10022000002070BD70B50600080011001A00049C83
:10023000059D2B00FFF7B9FF10223100944803F011
:100240004FF92800020092B22100022003F0DAF9EF
:1002500001006019FFF79FFF70BD38B504000D0065
:100260008B4805F04CF82800020092B221000A20C9
:1002700003F0C8F901006019FFF78DFF31BD70B5BB
:1002800004000D00824805F03AF82800020092B2FE
:1002900021000A2003F0B6F906006019FFF761FF9C
:1002A000864201D1012070BD002070BD38B5040028
:1002B0000D00774805F023F82A0092B221000020B3
:1002C00003F0A0F931BDFEB5099D002D27DD089E84
:1002D0001F000092019102906C4C0022102120001E
:1002E00003F0E0F80120E07320703800401E8041E8
:1002F000C043C00F60710199A01DFFF742FF009934
:1003000020000A30FFF73DFF10220299604803F0F9
:10031000E7F82A0092B23100042003F073F9F7BD28
:10032000F8B505000F0014001E0000221021200067
:1003300003F0A6F80120207006223900601C03F0AB
:10034000CFF82900E01DFFF717FF10222100300031
:1003500003F0C6F8022030704D4D280004F0CFFFA6
:1003600010222100002003F04DF9280004F0C7FFFF
:1003700010223100002003F045F9F1BD01000A29E7
:1003800001D3FF2070479D4909784906490E03298A
:1003900002D19B49085C70479A49085C704700008D
:1003A0009FFF000098490A7D03009A4205D313225B
:1003B00089564000081A40B270470020704700007C
:1003C0007FFF0000B1480078012801D1012070476B
:1003D0000020704730B48C49AD4A8A5C012A02D1B2
:1003E0000200022A18D0002301E05B1CDBB2102BB4
:1003F00012DA0122D02464000C5B15009D402C42CF
:10040000F3D08240521E5C000C19C0256D00645B65
:100410002240EAD0002000E0012030BC70479D4A15
:1004200049005118C0225200895A01410800C007F2
:10043000C00F401E8041C043C00F704770B50024FC
:1004400006000D0000E0641C2100C9B210291ADA70
:1004500090488900411880225200895C4907490F61
:100460002A009142EFD1D0214900405A0121A140F8
:100470000842E8D02100C9B23000FFF7D0FF0028C1
:10048000E1D0012070BD002070BD0000981900204F
:10049000D412002070B5002406000D0000E0641C9A
:1004A0002000C0B210280DDA0120A040290001422E
:1004B000F5D02100C9B23000FFF7B1FF0028EED01F
:1004C000012070BD002070BD38B505002C0028004B
:1004D000C0B2FFF77FFF002812D16D1EB648018819
:1004E0002800C0B2FFF7D6FF0028F0D02800401C3B
:1004F000C0B2FFF743FFFF28E9D02800C0B232BDE9
:10050000200032BDFEB507000D00FFF7DCFD694697
:1005100008703800FFF7D4FD040005D10B35A8049E
:10052000B44905F00DFAFEBD801D8000C0B20290F6
:10053000052C01DB082000E000200299081AC0B257
:1005400001903800FFF7CEFD002801D0002600E022
:1005500010263800FFF7D1FD002801D0142000E05C
:100560000020E900029A891A89191C31081A00280A
:100570000CDD01994018401E05F0E2F90500380035
:10058000FFF7A6FD401D4543083500E00825AA00F9
:100590003132641C68460078201AB7490300DBB288
:1005A000052B02DB001F014104208240D003CA0F4B
:1005B00052185210801805F0C3F9FEBD38B5050079
:1005C00005F022FA0002040005F01EFA01002000E6
:1005D00008430400B5498C4205DB8113490C091816
:1005E000C913C903441A290004D0C0B205F0A8F900
:1005F000C8032418200032BD0000000015070020A9
:1006000050FE00085CFE0008AC000020F8B546185B
:1006100000273D001F482900FC22825CC9B291429C
:1006200030D22900C9B2CA0051188900401804000C
:1006300024342020205C002822D02088002816D0D6
:10064000207B0100012912D0002819D1A068B042F6
:1006500016DA2000103005F065FAA6603800207325
:10066000B34AA1682000103005F083FA08E0A660C4
:1006700038002073AE4AA1682000103005F079FAE6
:100680006D1CC7E7F1BDBD48017070470C07002025
:1006900079060000AC00002030B4B948D6235B00D6
:1006A000C31814007F25ED43AC4200D0DA701A79EC
:1006B0000C00A24205D019711988802212010A4348
:1006C0001A803F21C943AF4A815430BC7047AC48BF
:1006D000282140567047F8B50700A94D0022402157
:1006E0008800281802F0DEFE00224021A0204000F1
:1006F000281802F0D7FE00222021C0204000281830
:1007000002F0D0FEB3482818002421000170C17106
:10071000C1730174B0482E1830780A380A2803D201
:1007200001203074707402E020003074707402F0A4
:10073000DFFCD020C0002A183900307802F090FD8C
:100740002000D02149006852F07D707010E0200038
:10075000C0B20023DB4341006918B04A8A5A8000C6
:100760002818AF4941582000C0B200F0A1F8641C1D
:100770002000F17DC0B28842E9D3B448281801783E
:10078000B34AA9544068911C6850F1BD10B40021CF
:1007900008E00B00DBB2DC00E3189B00D218282332
:1007A000D054491C764A0B00FC24145DDBB2A342F2
:1007B000EFD310BC704700004C02002070488649FF
:1007C000415C4906490E012902D003290FD0704728
:1007D000FA218900818464224823C25203006C33C9
:1007E0001A809984B4300A210180828470470021E4
:1007F0008184704750C3000038B5002802D0FFF74D
:10080000DDFF31BD0024250011E02900C9B2CA0076
:10081000511889004018243004802021415C0029AF
:1008200004D001210173103005F07CF96D1C54488F
:100830002900FC22825CC9B29142E6D331BD10B5D9
:100840004F498000081880225200805C4007400F0A
:10085000C200101880000C184420205C002805D12C
:1008600001203021605405F04CF9E0624420205C06
:10087000401C4421605410BD093D000040498000E7
:10088000081880225200805C4007400FC2001018F8
:10089000800008184421415C491E44228154090605
:1008A00002D10021302281547047000001800000F5
:1008B000F5B581B018006A461479102C01DB0020D0
:1008C000FEBD0D0001000022D243914202D128005A
:1008D00002F086FC07218D4340B228430700284DD3
:1008E000A0002818F93146183068002803D068465F
:1008F000007900F01FF868460089376000213164F4
:10090000010000D13F2061006918C02252008852C6
:10091000D02040002818018801226B461B799A409C
:100920000A43028068460079FFF789FF0120FEBD77
:10093000BD0A0008F8B50400114DA1006918802215
:1009400052008E183168002917D001278740D02126
:100950004900691800910988394201D0FFF78EFFDC
:1009600000203060306461006918C0225200885253
:1009700000980088B84300990880F1BD5C0200200F
:10098000AC000020E102000080B5401EFFF7DEFB56
:10099000000A64214843784909784906490E01292B
:1009A00002D0032907D00DE074494118744A9142DE
:1009B0000ED3002002BD73494118734A914207D3F8
:1009C000002002BD6D4941186D4A914200D30020BC
:1009D00002BD0000350400006906000038B50400BF
:1009E00000252800C0B2102816DA684800880121C6
:1009F000A94022000A4003000B409A420AD0084254
:100A000004D12800C0B2FFF739FF03E02800C0B2CC
:100A1000FFF715FF6D1CE4E731BD0000C4060000C0
:100A200084060000002001000CE0594A8B00D21817
:100A300080235B00D258002A03D0020001208840A6
:100A40001043491C1029F0DB80B27047E406000017
:100A5000EA02000080B5602802D1FFF7E3FF010041
:100A6000080002BDF8B50A004949D0235B00CE1842
:100A70003588030011D0002301E05B1CDBB2102B92
:100A800013DA01249C4007002742F6D09C000C1981
:100A900080277F00E459002CEFD10020F2BD348084
:100AA0002800FFF79BFF0120F2BD04002100100089
:100AB000FFF7F0FC0028F2D10220F2BDCA49007B0A
:100AC000C2001018800008183021012242547047DB
:100AD000F1B582B02E4ED120400030180090007841
:100AE00080003018802149004558C048315CF089A9
:100AF000FFF708FD0700F917FA229200002305F01E
:100B0000B7F880221202002305F0CBF8B8497050E4
:100B10006807400FC1000818800030180400243412
:100B200007208543B5600220205604216156884283
:100B300000DD0800B0740298218879434018A06055
:100B40002088002808D000202073C34AA168200014
:100B5000103005F00EF804E00120207304F0D1FFFE
:100B6000A06000984078002805D002998740C819F5
:100B7000D22149007050F7BD1507002040AA8FCC44
:100B8000C1CF6A00C02571CC81841E004C020020B8
:100B9000AC000020F3B589B0FF24B04940180390A1
:100BA00007460026904DC04800786946087030001E
:100BB0000978C0B2884200D3DFE03000C0B2C10083
:100BC0000818800029183022895C2A002C3210581D
:100BD000381A012817DA002921D0039887421ED13C
:100BE0003100C9B2D02040002818007CFFF726FC55
:100BF000002814D03400E4B228002C30E100091998
:100C0000890047580BE0002909D03100C9B2D02033
:100C100040002818007CFFF711FC0028EAD1761C60
:100C2000C1E72000C0B2C1000818800001992A0065
:100C30002C321258891A012915DB28184421405CEE
:100C4000002810D02100C9B20298007CFFF7F6FB03
:100C5000002808D02600F6B228002C30F1008919AF
:100C6000890040580190641C200069460978C0B290
:100C7000884200D100247F1C380069460978C0B240
:100C80008842CED3340001980999401A73498842AA
:100C900071D000252E00290016E0534880235B0008
:100CA000C31892009A5C5207520F94420BD1D02283
:100CB0005200805A01228A40104204D004A8320017
:100CC000D2B28154761C491C0A00D2B2102AE4DB4D
:100CD00004F09AFE3100C9B204F032FE0AE0491C69
:100CE00000984422805C0A000300D2B29A4200D3EA
:100CF000091A6D1C3C4AE000001980001018009091
:100D00002800009B44269B5DC0B2984252D204A8A2
:100D10000B00DBB2C05CD0235B00D318029301232D
:100D2000029E37881E0086403742D8D0460096196A
:100D3000C0277F00F65B029F3F7C3F073F0FFE40CE
:100D40001E42CCD01B02D2188300D25C5207520F35
:100D50009442C4D100940AA9097800290BD12249F0
:100D60002246D3009A1892008918292288541046E6
:100D7000085C0299887001981DE00197384609992E
:100D8000401A3649884200D07DE7BA480290BA48F6
:100D9000029989788900405C4007400F401C01009F
:100DA0006A461278C9B2914200D10020002726007D
:100DB000040061E703980BB0F0BDB049097849061B
:100DC000490E032902D00A390A290BD2010006294B
:100DD00008DB02D10020C0437047072902D101205F
:100DE000C043704740B27047AC00002007030000CA
:100DF00074060000F8B5A24CA24825182878FFF721
:100E0000DCFF0021CF22D200A2189378012B00D161
:100E10000221637C1E00361A0F00BE4201DA69709F
:100E200007E011780A00B24201DA697001E0181A8D
:100E30006870D1204000205C80002018A02149006B
:100E400040588721C9006118002802D1A0680860B5
:100E5000F1BD0860F1BD0000BD0A00080000504669
:100E600070B5874CD120400026180E207073BB4807
:100E7000251828780A380A2804D202210020FFF712
:100E800002FC03E005210020FFF7FDFB0120FFF736
:100E900022FC04F0B9FD697804F052FD317004F0D1
:100EA00030FE206070BD0000A8010020F8B50024CD
:100EB00004F027FE2146FFF76DFECE4DD120400005
:100EC0002E187089A6490140718104F01AFE0700AE
:100ED00030788000281880214900405C4007400F8E
:100EE000C10008188000281824308068391A00D5FD
:100EF0000700FF20B17B0841C0B2FFF75FFB381845
:100F00008021090240182860C1208000281801783B
:100F1000491C924AAA5C0A3A0A2A017009D2C9B24B
:100F20000C2904DAB17B0120FFF7ADFB0EE00124B0
:100F30000CE0C8070AD4B07B002801D1012405E0E9
:100F4000FFF7C2FA01000120FFF79DFB2000F2BD70
:100F500080B501F039FD01BD80B504F007FB01F05B
:100F600033FD01BD38B54648B6218900411800223D
:100F70004A600A60D7235B00C31814001C719E4CA2
:100F80000419150025708D818D720D720D820D76FC
:100F9000CD732571A570CD761A703F22D2434A7267
:100FA0000121CC22D200815412214256E1782846F8
:100FB000FFF772FB31BD10B5314C217D020091422B
:100FC0000BD3FFF7EFF98D496156401A801E0121BE
:100FD000C943884201DD012010BD002010BD010081
:100FE0008448427D8A428041C043C00F7047F2B5B9
:100FF00015001E00872469460978FFF733FD002895
:1010000001D1862402E0022800D185246006400E2A
:1010100007282DD1774FD72040003E5428000F28B5
:1010200008D0FFF7BFF90200684601780420FFF7F7
:1010300033FB06E07F22D243684601780420FFF7A5
:101040002BFB28000F2813D000260BE02800FFF709
:10105000A9F93100C9B2CA005118890079182822AB
:101060008854761C3000FC21795CC0B28842EDD3F4
:101070002000F2BD4C020020AC010020150700202A
:10108000AC00002035040000F3B581B00400160068
:101090001F00584D5A48285C802824D120000009A0
:1010A0006946087068460078FFF736F8002807D0D0
:1010B0005448285C002805D068460078022801DAE8
:1010C00085202EE02407240F2000FFF774FF00285E
:1010D00001D1832025E03300220068460178008991
:1010E000FFF785FF1DE0802046496918C97801296E
:1010F00002D002290CD014E0FF2C12D133000F22B1
:10110000D8204000295C68460089FFF770FF08E09E
:1011100033000F22D8204000295C68460089FFF781
:1011200066FF00233900020012E037482F18401EE6
:101130002C1803202678B8552078401C2070160003
:101140007607760FC0B23E542078401C20705B1C9E
:1011500018000C00C0B2A042E7D3F7BD690600003A
:10116000FFF70000F1B582B00D00224C2748215C4A
:10117000E089FFF7C7F90190802636020027009525
:1011800060682168401AC117FA2292003B4604F0B9
:101190006FFD32003B0004F084FD05000198C1178B
:1011A000FA2292003B4604F063FD32003B0004F05B
:1011B00078FD281A009D2D18FA26B6002800310067
:1011C00004F0C1FB0F0002980090E81B310004F00E
:1011D000BAFB0F4941180098401871088F4200D39C
:1011E000401C04F045FF0B482058002800D08047E1
:1011F000F7BD0000AC000020440400006E060000B3
:10120000E602000079060000610400000703000008
:10121000803DD5124C040000F1B586B0D44800786A
:10122000800604D4D348C07D012800D16CE2D248A6
:1012300000900020009A10700446024603460546BE
:101240000495029169460C7108736846C271C381A6
:10125000049C1DE068460079401C694608710698A8
:1012600000194078087306980019801CFEF769FF82
:10127000069909190979F0220A400907090F6B46F6
:10128000D9712C0001001000FFF7E4FB6946C8810A
:1012900002988442684600DB2DE2007900280DD0D8
:1012A0000698005D032809D068460379C279C18990
:1012B000007BFFF7E9FE0020694608710698005D93
:1012C000801E0B2800D914E201A14000095A8F4466
:1012D00016002200820186003000CE01EE022004BA
:1012E000480320042004D8030298E41CA042CFDC69
:1012F0000400CDE725006D1D0298A842AADA044635
:10130000C6E7641C0298A04201DA0446C0E7A84878
:10131000A849411801228A70A74A82180623009D15
:101320002D785355009B1B785B1C009D2B70A34DA3
:101330004019C07CDBB2D05400980078401C009B60
:10134000187009788906890EC0B211540098007887
:10135000401C009908709BE725006D1D0298A8426B
:1013600001DA044694E70698001940780107090F4E
:101370006A46917100094007400F69464871069816
:101380000019801CFFF700FB04902C00884EBB2046
:10139000800035188020287168468079FEF7BCFEF1
:1013A000002801D08220287168464079FFF717FE97
:1013B0000028287903D004210143297102E0FB2190
:1013C0000140297128790499002903D001210143A2
:1013D000297102E0FE2101402971287987280AD16C
:1013E00068464079C94970546846807971497118D6
:1013F000C87104982860704830180490052004993A
:10140000009A1278885400980078401C009908705F
:1014100029794907490F049AC0B2115400980078FD
:10142000401C00990870BA4830180490AC20C000E5
:1014300030180521049A0378D1540178491C0170B1
:101440002A795207520F049BC9B25A540178491C99
:1014500001701DE72000801C0299814201DA0C46D0
:1014600016E70699091949780400514D0807000F3D
:10147000FF21A431685404F044FBD2214900685094
:1014800001204C496918487104204B496918009A99
:101490001278885400980078401C00990870F7E68C
:1014A00002982100891D884201DA0446F0E6069878
:1014B000001940786946887106980019801CFFF76A
:1014C00063FA049006980019407969464871384ECD
:1014D000384835188020A8713848305C401E89791A
:1014E00088424EDA0498002816D1069800198078B0
:1014F000002846D106980019C078002841D10698E6
:101500000019007900283CD10846FFF713FAA879A2
:1015100003210143A97134E06846407907073F0F72
:101520003800FEF7F9FD002806D168464079000929
:10153000FEF7F2FD002801D08220A871754A002331
:10154000DB431000B8400F216F467F793F09C91B6C
:101550000A41024092B2049968468079FFF7A8F9DF
:101560000028A8790AD001210143A97109E000BF30
:10157000B9030020500200200C050020FE2101408C
:10158000A971A41D0C4830180721009A12788154C3
:1015900000990978491C009A1170AA799207920F54
:1015A000C9B2425400980078401C009908706FE658
:1015B000AC000020E3020000610400006A060000A5
:1015C0002000801C0299814201DA0C4660E60699EF
:1015D000091949780A07120F0123110000D11A00D6
:1015E000C6494A4C0C19521EE2716374040008206B
:1015F000C34A8A18009B1B78D054009A1278521C58
:10160000009B1A70AC22D2008A18414BC91813787B
:10161000C8541078401C10703AE602982100491D09
:10162000884201DA044633E60698001945780698A0
:101630000019801CFFF7A8F9FC22002800D0FD2229
:10164000AE49AB00CB1880256D005B191D68002DDD
:1016500002D0150002222A431500FF2D00D1186484
:10166000641DA7480B180A20009D2D785855009D31
:101670002D786D1C009E35709207920FEDB25A5571
:10168000009B1B785B1C009D2B70214BCB18AC255D
:10169000ED0049190D7858550878401C0870C0B203
:1016A0001A540878401C0870F2E52500AD1D029818
:1016B000A84201DA0446EBE5069800194079FA21C0
:1016C00089004843010A06980019427806980019D3
:1016D000807800021043069A1219D278120402434D
:1016E00006980019007900061043FFF73BFD2C0017
:1016F000CEE5029CCCE50379007B6946CA79C989AD
:101700001C0001D0FFF7C0FC07B0F0BD350400009D
:1017100061050000FFFF000038B50400002501E06E
:101720006D1CEDB203F02DF9C0B285420BDA280032
:1017300003F029F90028F3D0280003F033F984429C
:10174000EED1280032BDFF2032BDF1B592B06D4C14
:10175000E078A17801916C49039100252900039A52
:101760001170E0210140602908D001200399087020
:10177000A570152003F0FAFE2846BCE05F4F207AE2
:101780000090BB483818FEF7E1FCBA483818FEF75D
:10179000D8FC029000980007000F09900646083612
:1017A0000198001F059000986021014008D080201A
:1017B00003990870A570152003F0D8FE28469AE01A
:1017C0000598B04208DA202003990870A57015200A
:1017D00003F0CCFE28468EE00020C0430490C220D7
:1017E0008000381807900598864203DA0798805DD4
:1017F0000490761C12A80778380003F0D3F80890FC
:10180000380003F0EEF806900EAA0AA9380003F09B
:10181000F3F805980190079800900123029A08991F
:101820000AA8FEF7DFFC002807D1042003990870FE
:10183000152003F09BFE28465DE006980021C94371
:10184000884204D10299380003F0C2F81DE02F4805
:101850000299069A914207D20021C943891A029A35
:101860008918814211D302E0891A814208D30820E5
:1018700003990870A570152003F078FE28463AE019
:101880000299491C380003F0A3F80498002812D4E8
:101890000598811B00290EDD0498002801DC0AA8A8
:1018A00000E00EA801910799891900910123029A7D
:1018B0000899FEF708FD0998002802DC0498002822
:1018C00008D1102003990870A570152003F04EFE72
:1018D000284610E0207805D520210143217066704C
:1018E000A57007E010210143217030006070059859
:1018F000801BA070012013B0F0BD0000AC000020E0
:1019000061040000B10300201B070020014000001B
:10191000F0B58FB0AE4C20790100E0220A400C9265
:10192000E1780191AB49059100252900059A1170D4
:10193000A94902914968079101990C2957DB800751
:1019400055D1A64F607A0B9049483818FEF7FEFB38
:10195000009048483818FEF7F4FB0B990907090F67
:101960000A910B9949110A00D207D20F0E920A9ED2
:1019700008360199091F0691029909680391009997
:10198000039A914225D0082660783100084208D099
:101990000098FFF7C1FE0100FF2902D0FFF7D5FE36
:1019A00071E16078304202D1022005990870E5703B
:1019B0000798029948606078000708D50598007874
:1019C000002804D0FF2802D0152003F0CFFD2846C0
:1019D00059E10C99602907D0A02905D06178090741
:1019E00002D40121059A11700699B14203DA202030
:1019F00005990870DBE70021C9430891C2218900DD
:101A00007918099106998E4203DA0999895D08913E
:101A1000761C02994968090C090408430490BB48E4
:101A200038180D9006980190099800900123049AA7
:101A300003990D98FEF7D6FB00281DD1049880214C
:101A400049024018049006980190099800900123DB
:101A5000049A029801680D98FEF7C4FB00280BD188
:101A6000042005990870142003F080FD9FE700BF53
:101A7000090300000E0300000298406804998142A7
:101A80001BD2421E914202D10C99A02907D00021FD
:101A9000C943081A04994018AA49884211D2D6208D
:101AA000400038180390C07B01280ED10E98002802
:101AB0000BD140200599087079E7081AA14988429E
:101AC000EDD308200599087071E7089800280AD11D
:101AD0000698801B002806DD0A98002803DD1020E8
:101AE0000599087063E70498401C02994860B24861
:101AF000381807900B98102108400799087428009F
:101B0000079948740C98A02801D1202000E02800F3
:101B1000029908730298007B002802D10B98C00636
:101B20000DD5039801881020084303990880079970
:101B30000978022903D1A1490140039801802800B6
:101B4000039988710299887302980D2140567F216C
:101B5000C943884203D03F20C043029948730D20F7
:101B600038561F21C943884201DAE02002E02028CC
:101B700000DB1F200299C8730898002817D4069824
:101B8000801B002813DD0899002902DC0D990B91B8
:101B900002E08B4979180B91019009988019009007
:101BA0000123049A029801680B98FEF78CFB280029
:101BB000AC21C90078540898002811D10698811BDF
:101BC00000290DDD09988019FFF726FB19E000BFF9
:101BD000B00300201B07002080030020AC00002081
:101BE0000A9807990877C4208000381800900A9A4C
:101BF00001467448381801F073FC0A990098FFF701
:101C00000BFB0598007B8C21C900795C88420DD2C2
:101C100003980188102008430399088007990978E0
:101C2000022903D165490140039801800398C07BD4
:101C300001280BD10E98002801D0802000E0402020
:101C40006178084360700E98002809D02800207041
:101C50000399C8730399087407990875079948751B
:101C600060780899002905D5202101436170A6708C
:101C7000E57007E01021014361703000A070069804
:101C8000801BE07001200FB0F0BD38B54E4CBB207A
:101C900080002518022068764C48205CFEF735FA53
:101CA000E0812868A0600020E8764348205C022894
:101CB0000CD1D6204000205CC00707D5687E0821E3
:101CC00001436976032004F0FDFB31BD022004F0DE
:101CD000F9FB31BD3C4A136818180300513B5360AF
:101CE0000B00072B02D13C2010747047022B02DA44
:101CF000062010747047062904D1A23850601020C5
:101D0000107470470820107470470000B202000081
:101D100038B50D002C4C2D49615CFFF7DBFF616885
:101D200041392548205C022806D12A008520C000C0
:101D3000201803F01EFF31BD2A002000183003F0E8
:101D400018FF31BD01400000F8B504001E4DA04849
:101D50002E180120307018482F18B878FEF7D5F9E2
:101D6000E8817868A8600121E889FEF7C0F9E88178
:101D70000020B070FC603878022806D1D6204000E0
:101D8000281801880D4A0A400280022004F09AFBBC
:101D9000F1BD70B505000E00FFF72CF8B14C617C69
:101DA0002800FFF797FF32006168413920001830A2
:101DB00003F0DFFE70BD000034040000FEFF0000F1
:101DC000C202000051040000AC000020EA02000042
:101DD00080B50820FFF7C0F800F0D8FE01BDF0B5CF
:101DE00085B0A04FD42040003E183079000600D4C2
:101DF000C5E09D483C18657F002D28D1B08841077B
:101E000010D4810600D4BAE098490140B180B07A7C
:101E100001000A2901DA401CB0720920FFF79CF882
:101E20000120BEE092490140B180FFF73FF8040075
:101E3000E00701D58F4D00E08F4D03F062FE2A00D0
:101E400001193800183003F094FE0120A9E0A07FAA
:101E5000694608707819C12189004018FEF776F9A3
:101E6000112D01D0212D05D168460078E3210140D4
:101E7000202906D0E07EC00700D580E000206077F2
:101E8000BCE77E4838180490691EFEF70FFAC2209E
:101E9000800038180390291FFEF7F1F90028E9D0D7
:101EA000AC2080003818029075483818FEF74EF9BB
:101EB00002994862C32080003818FEF747F90002F3
:101EC000000A30600020FEF706FCAB48381801908D
:101ED00000780107090F6A46517000094007400F5A
:101EE0006946087068464078FEF716F900280CD05D
:101EF00068460078FFF773F8002806D06846007837
:101F00009E497854684640782070019840780007D0
:101F1000000F00D10120401E98497918C871112D79
:101F20001EDD0D25A74838180090047811E00398AD
:101F30002900C9B24018FEF727FD002807D000236A
:101F4000DB43002201002000C0B2FEF7B1FC641C9C
:101F5000ED1C2000C0B200990978491D8842E6DBDB
:101F60009F483B1810383A18049902980088401E80
:101F700080B2FEF7D5F9B4882420044201D10020B4
:101F80000FE0A00604D5B17A307AFEF7D0F83072AF
:101F9000C3482040B080FEF7E5FF0620FEF7DCFFD7
:101FA000012005B0F0BD80B5FFF719FFBD4881786D
:101FB000002904D100210170102003F0D7FA01BDDF
:101FC00080B58848B8490860FFF75FFE01BD000092
:101FD0000503000080B5A4480078002803D0FFF76F
:101FE000FEFE002804D1C549C0208002FFF790FE04
:101FF00001BD80B5C248FFF7A7FE01BD80B5052031
:1020000003F0B4FABF49A0208002FFF7C2FE01BD71
:1020100070B5144C8520C000201803F083FDA34840
:1020200025180020E860A2496054C5482618307879
:10203000FF2802D0102003F099FA00F041FB7078DD
:10204000002802D0162003F091FA2878022807D140
:10205000D6204000205C1821014001D100F054F945
:1020600070BD0000AC000020EA0200005FFF00002D
:102070007FFF0000D11D0008510F00080903000078
:102080000F03000070B5AF4C884825182878AE497A
:102090006618B178002914D10021317002280AD1C4
:1020A000D6204000205CC00705D5FF20A44960541D
:1020B00000F02AF970BDA5492000183003F044FD56
:1020C00070BD02280BD18520C000201803F02AFD26
:1020D000D62040002018018880220A43028000F0A8
:1020E000EFFA002818D100203070287802280DD18E
:1020F000D6204000205CC00705D494498520C0004C
:10210000201803F021FD00F0FFF870BD8F4920007A
:10211000183003F019FD70BD287802280BD13078F3
:10212000000708D5D6204000205CC00703D520005A
:10213000183003F0F7FC3078400611D5D620400067
:102140002018018880220A4302808049200018302C
:1021500003F0FAFC287802280DD100F0D5F870BD04
:102160002878022807D1D6204000205C9021014029
:1021700001D100F0C9F870BD130300003504000060
:1021800038B5704CD620400020180188704A0A40AB
:102190000280464825186F48E8602878022802D156
:1021A000002004F08FF9FFF770FD684A2068297A53
:1021B000C9034018A021C90241182000183003F0BB
:1021C000D8FC31BD6A06000080B5002004F07AF921
:1021D000042004F077F95D495F4803F0B5FC01BDC8
:1021E000C2020000A71F000838B5564C2000183066
:1021F00003F098FC00205249605453482518A878F1
:10220000002803D000F05CFA00280FD153482418AE
:102210005349207AC003802252028018FFF778FDCC
:10222000207802281ED100F06FF831BD28784006D2
:102230000CD5D62040002018018880220A43028055
:1022400042492000183003F07FFC31BD4348205C38
:10225000022807D1D6204000205C9021014001D106
:1022600000F052F831BD0000B303002038B5354C02
:102270000E4825182878022802D1002004F022F9FF
:102280003848FFF761FD384A2068297AC9034018A9
:10229000A021C90241182000183003F06AFC31BDAA
:1022A00059FD0000B1030020EC04002034040000BC
:1022B0000703000010B52348D621490041180A88B9
:1022C000802313430B8025494418002121771E4A9F
:1022D00081541B4A8018017041700A2003F046F9AE
:1022E000CA49207AC003802212028018FFF751FDEC
:1022F0002078022801D100F007F810BDC11F0008A6
:10230000D51F0008F31F000810B5FEF75BF8002882
:1023100014D00C4CBE48205C07280FD0002004F0DD
:10232000D1F8D62040002018018801220A430280FB
:1023300008488821C9006050FFF7A7FC10BD0000C5
:102340006F060000AC00002005030000112000080B
:10235000FEFF000085200008C400002034040000B7
:1023600081210008E9210008C9210008F0B585B0E5
:10237000A84CD62040002018009000781821014079
:10238000102901D0012600E00026300004D000987A
:10239000007C6946087202E0002069460872082045
:1023A0000190C1208000201803908920C0002518CA
:1023B000287800280BD003980078002807D1022045
:1023C000B34961182A7E8854287E401C2876687894
:1023D00000280BD003980078002807D10D20AC49C5
:1023E00061182A7E8854287E401C2876287E002882
:1023F0002ED000990979082902DAA64A515C00E03A
:10240000FF210200914202DA002028763DE0A04937
:1024100061180491A049615C814209D30499C420E8
:102420008000201801F05CF8287E083001902CE034
:102430000020009988730499FF20BE30201801F015
:102440004FF8287E009908746946087201261CE03E
:10245000AC20C00025182A78002A16D010001028B9
:1024600013DA00990979082902DA8A4B595C00E0ED
:10247000FF21814209DB89482118C42080002018EF
:1024800001F02EF8287808300190B520800025183A
:102490000027A87B002807D00D202856002801D54A
:1024A000380068733800A873300003D06846007A9B
:1024B000401D00E004200199081880B20490FF2814
:1024C00003DD3E000846001D049040200100039AF1
:1024D00011710D216956002900D53800297BAA7C8D
:1024E0000A4310430199083901430398417229684E
:1024F0006B482018FDF745FE03980078002802D1AC
:10250000A868401CA860A868411E89B265482018C8
:10251000FDF732FE287B00280AD00098807800283A
:1025200006D003990978401E814202D12F7300E042
:102530002F73002E33D00098C07B002809D0802054
:102540000399087103980078002802D101200399AB
:1025500008700098807B01996118C222920088540B
:1025600001982018511C46186846027AFF20BE3098
:102570002118300000F0B4FF0098807B002802D1C1
:102580004948201801E0494820186946097A019114
:1025900000963B46AA68521E2968FDF794FE0498EF
:1025A00080B2001F0190C2208000201800903B469E
:1025B000AA68521E29683C482018FDF733FE04988B
:1025C0000399C87005B0F0BD70B5124C3849661853
:1025D0007070881C201802F080FE3648201802F027
:1025E00085FEAC2080002518298869302018FDF769
:1025F000C3FD1321C22080002018FDF72EFE1720F6
:1026000030702888401C288070BD00006D220008B2
:10261000EA020000AC00002080B500F0D5F901BD51
:1026200038B5FDF7CFFE00282BD1234CD620400033
:10263000251828789021014001D0002032BD0020CB
:10264000FF21A43160541D4961180870C871C84940
:102650006118487008702988C64A0A402A80E873C1
:10266000C12189006054A871FEF7FAFB2888042173
:1026700001432980C0492000183003F065FA012089
:1026800032BD002032BD80B5CC48FDF75FFD02BDF4
:102690006104000040FE00087B06000061050000A8
:1026A000090300000E030000B2020000C202000095
:1026B0000703000011030000AC00002035040000F7
:1026C000FEB5C94ED620400037183888C121890090
:1026D00071180091002401062DD50099C9780029B0
:1026E00003D000994978490625D5F97B002922D1E4
:1026F000009909780A00BB785B1E9A421BDAB04841
:102700003518EC60491C009801700220FDF756FF57
:10271000297AC9030818C021490241183068FDF719
:1027200075FF3888A749014008200843388000F029
:102730004BF90120FEBD81210140012906D1FF2076
:10274000CD21C9007118C8712046FEBD9C4975187D
:10275000B5218900711801910099C978002904D028
:1027600000994978490600D4ECE0009909780029DD
:1027700057D0FA7B012A54D1CD20C00030180290E6
:102780000078814238D2EC60491C00980170C8077B
:1027900011D5C9B202290EDB3879FDF71BFE0028DE
:1027A00009D101213879FDF7C2FC01007F22D24313
:1027B0000220FDF771FF00F02DFC397C884205D224
:1027C0002000F8730420029908721AE00220FDF735
:1027D000F5FE297AC9030818C0214902411830685A
:1027E000FDF714FF388877490140082008433880F6
:1027F00000F0EAF80120FEBD2000F87302200299E3
:1028000008726020009948702000A8828C21C900BD
:1028100070542878022851D1388801210143398029
:102820004CE02A7C102A3BD101220292BA78002A7D
:1028300000D002926A7C029BDBB29A421FD200292E
:1028400004D010464018687400980470687C401CDE
:1028500068740220FDF7B2FE297AC9030818C02166
:10286000490241183068FDF7D1FE388855490140CA
:1028700008200843388000F0A7F80120FEBD2100A1
:1028800029822021009A51702100A9828C22D20035
:10289000B1542978022911D10121014339800DE079
:1028A0002021009A51702100A9828C22D200B154BB
:1028B0002978022902D101210143398001980D2193
:1028C00040567F25ED43A84202D0401C0199487331
:1028D0003879FDF77FFD002801D00198457320006D
:1028E0000099C870009988703988A74808403880D6
:1028F00000994978490704D0C10402D5B94901407B
:10290000398000F061F801980D214056202817DB2E
:102910003879FDF7D9FD7F25ED432A00010003201A
:10292000FDF7BAFE3879FDF755FD0028019801D171
:10293000447300E0457338888021490101433980A0
:102940000120FEBDFEF7E4FF002801D12046FEBDB8
:10295000EC60FFF798FE01990968884203D10A20CC
:1029600002F004FEC0E7172002F000FEBCE7000002
:102970006F060000DEE700001926000810B59A4C2B
:10298000D6204000201801887F4A0A40028020009B
:10299000183003F0C7F88520C000201803F0C2F8F3
:1029A000002003F08FFD112002F0E0FD0448205CC0
:1029B000022801D1FFF7A8FC10BD0000B5030020DC
:1029C000340400007EFF0000FEB5074ED220400018
:1029D0003518287AC121014000D0BBE003F091F8FE
:1029E000070000249B4801E0AC0000203018019053
:1029F00020460199086128893C21084200D1AEE0B7
:102A0000010024220A40511E8941C943C90F6A4668
:102A10001170000515D521463800FEF7BBF830606F
:102A200004002889E11B8C4A914206D18B49014060
:102A30002981122002F09AFDF7BD894901402981C0
:102A400000E03468D120400030184178002902D1DC
:102A50002989C90503D52968621A00D50C00E11B34
:102A600041390FD400788000301880214900405C43
:102A70004007400FC1000818800030183021405C2A
:102A800000285AD02C7B68460078002811D0287A7C
:102A9000800606D5A97B2000FDF749FB0400C02075
:102AA00000E00020FFF790FD7E4897497118C8604C
:102AB00005E0FFF75BFC954893497118C86020005A
:102AC000FDF71DFB697BFDF708FBF0817474288915
:102AD0008F49014088200001084328813800FDF714
:102AE000F7FF8948305C022802D1002003F0EAFC9D
:102AF0008E4A68460078002807D0A020C002391806
:102B00003000183003F035F806E08020C002391894
:102B10003000183003F02DF801980068002800D02C
:102B20008047012003F0CEFC9548315CF089FDF729
:102B3000E9FC381855303060F7BD287A80070AD490
:102B4000132002F013FDA24A210041393000183051
:102B500003F00FF8F7BD002CF5D10124F3E780074F
:102B6000F1D4F7BD002801D0802000E000209D496D
:102B70000870704780B50A009D4908700100002068
:102B8000FDF78AFD01BD000077FF000010B50020B1
:102B900003F098FC994C2000183002F0C3FF852008
:102BA000C000201802F0BEFF00200100CC22D2009D
:102BB000A154C1229200A154D621490061180200FB
:102BC000CA73B5229200A05002000A804A7189217E
:102BD000C90061180A800A76AC21C9006054FDF76B
:102BE0007AFD10BDFFEF0000AC00002038B5834C2B
:102BF0004020D62149006052012081496054C81C00
:102C00002018002529000180817080217D4AA1546F
:102C100029007D4AA154FF2141742900280006E0C3
:102C2000D3009A189200A2182723D054491C0A00F6
:102C3000D2B2062AF4DB00F05BFA8748255002F096
:102C4000E3FE050202F0E0FE0543AC2080002552C1
:102C500031BD00006406000000005046E7FF0000A0
:102C6000FFF7000010B565489549421800215170E2
:102C70001170D62252008218234BC35C022B03D161
:102C80001388904C1C40148013889F4C1C400823D0
:102C9000234313805A0702D4C12292008154FFF7C4
:102CA00093FE10BDFD1F0008F8B506000F001500CB
:102CB0001C00FDF787FB002802D10220C043F2BDB3
:102CC000924800900078072814DA00F0A3F9290050
:102CD000884216D3390003D02A008D4800F000FC4A
:102CE0000098C4720098867200980573FFF7BAFFC7
:102CF0000020F2BDF2209C490978401A2900884240
:102D0000E8DA0120C043F2BD34040000B522000817
:102D1000EFFE000080B5FDF755FB002805D000232D
:102D20001A4611460120FFF7BFFF01BD7D290008AB
:102D3000F8B517001D00314ED4225200B41820609F
:102D4000B52080003150002F05D0102239002238E4
:102D5000301800F0C5FB290004D01022A14830181B
:102D600000F0BEFB0020FDF7B6FCA0889E490140A4
:102D7000802000010843A080FEF7F4F8F1BD0000B8
:102D80000703000010B51D49A14A8A1813780400F2
:102D9000A3421BD010700200012A0AD1D6204000A5
:102DA00008180188474A0A400280002003F08AFB85
:102DB00010BD02280AD1FDF705FB002806D002F05D
:102DC000A0FEC01C03F036FCFFF79EFA10BD000009
:102DD000510F0008A948007870470120AD490870DC
:102DE00070470000920300200120AB490870704733
:102DF000F3040020A949088070470000AC000020BF
:102E000069060000E60200004504000010B5B44C5D
:102E1000B448205C4006400E032803D11E2000F079
:102E2000D1F802E0102000F0CDF80020262206E0C4
:102E30002721615C002901D1E17CA154401CFC21C7
:102E4000615C8842F4DB10BD80B5A749087003F0CF
:102E500011FBFFF7DBFF01BD4C04000010B502F0D1
:102E600050FE04000121FDF795FE001B9F4988429A
:102E700002D10120C04310BD0100413912D498494C
:102E8000D12252008A5C92008A1880235B00D25CB7
:102E90005207520FD3009A18920089183022895C89
:102EA000002901D0002010BDC117FA229200002392
:102EB00002F0DEFE80221202002302F0F2FE10BDBC
:102EC0006F0600007EFF000010B48549854A8A180D
:102ED00013780400A34203D113200856C0B210E0B7
:102EE0004006400E032801D11E2000E010200521DD
:102EF00051560A00103203009A4201DA08001030DD
:102F0000C0B210BC704700007FFF00005C020020D0
:102F10006902002070B500240600714D00E0641CB9
:102F20002000C0B210281DDAD0204000285A01210C
:102F3000A1400842F3D02100C9B23000FDF76FFA7A
:102F40000128ECD1A548285C012802D130000128D5
:102F500008DD3000401CC0B2FDF710FAFF28DED0BB
:102F6000012070BD002070BD0C05002030B59BB065
:102F700004000D006A46002100F072F9002000E014
:102F8000401C694602000B78D2B29A4210D202006D
:102F9000D2B2520089184422895A0122AA40114211
:102FA000EED00A3C0A2C01D2012D01DD012000E007
:102FB00000201BB030BDA44908607047401CA349E5
:102FC0000870704710B44649A14A8A56130010335E
:102FD0000400A34202DA1032CA7400E0C87410BCC4
:102FE00070470000C202000059FD00003C48D82193
:102FF0004900415C082909DA784A805C012802D13D
:103000009448405C70479448405C7047002070478B
:103010003404000080B5FFF7E9FF002804D08F4991
:103020000978401AC0B202BD002002BD30B42C4B5A
:103030002C4C1C5D6406640E012C1BD1062819DA89
:1030400013241C571500AC4214DB0D002C00641E29
:10305000A441E443E40FC500281880001818272570
:1030600044552630002901D0027001E0D97C01705E
:10307000012000E0002030BC70470000E004002088
:10308000B94800784006400E012801D1062070475B
:1030900000207047F4040020F504002018070020E9
:1030A00010B40F4B0F4C1C5D6406640E012C14D140
:1030B000062812DAC4002018800018182724045D9E
:1030C0000C702721415C002902D1D87C107002E0ED
:1030D0002621405C1070012000E0002010BC7047E9
:1030E000AC000020690600001A07002000005046CE
:1030F000FEB502F006FD0500A94C2000FC30009052
:10310000AE48271838784006400E032825D11E20E7
:10311000FFF758FF0120009908701320205628213E
:1031200060542721615C002901D12621605402F0FE
:103130006BFC0007000F29216054E5620025280080
:1031400044216054FDF73AFB402025540A202075A5
:10315000072060750520F873F7BD1020FFF732FFD8
:1031600006200099087000200190029505001DE0DE
:10317000E800401980002618E07C282170542720A0
:10318000305C002802D1E07C2621705402F03CFC27
:103190000007000F292170540298F0620198442121
:1031A00070542800402170546D1CEDB200980078D6
:1031B0008542DDDBFDF702FB0720207505216175E7
:1031C000F873F7BD934902000B789A4200D170471B
:1031D00080B50870FFF7DAFC01BD00007906000039
:1031E000614909784906490E032901D10020704739
:1031F00089494118894A914201D200207047884983
:103200004118884A914201D20120704786494118ED
:10321000864A914201D20220704785494118854A69
:10322000914201D20320704783494118834A914259
:1032300001D204207047824940188249884201D255
:103240000520704700207047100700201407002059
:103250006E06000048FE000840FE00080C05002035
:10326000F0B403005806400E012802D0032822D0F3
:1032700044E00324147074485060744890607448AB
:10328000D06000252E0007E03F20110044313700B8
:10329000FFB27F00C853761C30001178C0B288425C
:1032A000F2D310006430190601D4057000E00470F8
:1032B000684941603FE003201070674850606748EC
:1032C00090606748D060002007E03F21140044343C
:1032D0000500EDB26D006153401C01001478C9B2C5
:1032E000A142F2D310006430190602D40221017009
:1032F00001E0042101705B4941601CE00320107073
:1033000051485060514890605148D0600020010001
:1033100007E03F23140044340D00EDB26D00635309
:10332000491C0B001478DBB2A342F2D311006431C4
:10333000087048484860F0BC70470100102900DB65
:103340000F204949087070470100032903DA4749F3
:103350000870012070470020704780B503F08EF898
:1033600001BD4349087070471507002010B50300E0
:1033700008001400002B0DD0FDF706FB002807D035
:10338000074988608C74052003F09CF8012010BD6B
:10339000002010BD002003F095F8012010BD0000B2
:1033A000AC00002080B5002003F08CF8042003F06E
:1033B00089F83049304802F0C7FB01BD69060000BA
:1033C00080B5002820D0002001000CE02B4ACB0063
:1033D0005B189B00D2183023D35C002B02D044230F
:1033E000D25C8018491C0629F0DBC0B2012809D143
:1033F00002F087FB0021FDF7CDFB052003F062F80A
:10340000012002BD002002BD002003F05BF8012076
:1034100002BD00001507002040AA8FCC81841E0049
:10342000C02571CCC1C62D00005F43CCC127090067
:10343000A0B038CC21A1070040022ECC91D00300CF
:10344000606E29CCE1930400A027BE33E034C13381
:103450002042C43308E6D33364CE8F3384FE9433E2
:10346000E8E19D33F080A6332707002028070020DD
:103470002907002011200008C4000020AC00002013
:103480001206130A1A43130C1A4300BF094205D04F
:1034900083070DD00270401C491EF9D1704700000F
:1034A0000022F3E71206130A1A43130C1A4300BF53
:1034B0001300103906D330B41400150010393CC085
:1034C000FCD230BC490700D30CC000D504C0890031
:1034D00002D30280801C002900D502707047FEE7ED
:1034E000124207D08B0706D00B78491C0370401C92
:1034F000521EF7D87047830706D00B78491C03701B
:10350000401C521EF9D1704770B4103A03D378C9E9
:10351000103A78C0FBD2530701D318C918C001D59F
:1035200008C908C0D20704D30B880380891C801CFB
:10353000002A01D50B78037070BC704770B400226C
:1035400011E09000181801680B060C02FF252D04ED
:1035500025401D430B0AFF2424021C402C43090E66
:1035600021430160521C1B4B042AEADBD8682CE083
:103570005110890F891889108900511A1CD1111F07
:10358000154C05002D0CEDB2655D2D06060AF6B250
:10359000A65D36046E400500EDB2655D2D027540F6
:1035A000000E245C6C4000BF0CA04D10AD0F6918DC
:1035B00089108900405860409100591804000800A3
:1035C0001038006860400860521C2C2AD0DB70BCA8
:1035D00070470000D4120020483C000800000001A1
:1035E00000000002000000040000000800000010BD
:1035F0000000002000000040000000800000001BD0
:1036000000000036F7B584B0FFF798FF6846007CED
:10361000000706D500207E49C860886048600860C1
:1036200093E07B480268FF200002010213061402A7
:103630000C401C43130A03402343120E1A43744BDD
:103640001A601A465268130614020C401C43130AEF
:1036500003402343120E1A436D4B5A601A46926878
:10366000130614020C401C43130A03402343120E9A
:103670001A43674B9A601A46D26813061402214017
:103680001943130A18400843110E01436048C160F2
:103690005BE00A0E059D2A700A00120C059D6A70F7
:1036A0000A0A059DAA70059AD170210E059A11711A
:1036B0002100090C059A5171210A059A9171059909
:1036C000CC71190E059A11721900090C059A5172E4
:1036D000190A059A91720599CB72010E059A117318
:1036E0000100090C059A5173010A059A9173059915
:1036F000C87316E0901900900778080E7840009F74
:1037000038700902B007800F032802D121001C0085
:10371000019B761CAE42EDD305923D48C168491C21
:10372000C1606846007C0A210140022907D0059843
:10373000103005906846008B10386946088368464B
:10374000007C08210143684601746846008B00B282
:10375000012859DB6846007C400705D46846007C98
:103760000A250540022D05D1294801684268836871
:10377000C46862E002206D462F7C05002F4200D114
:1037800058E26D462D8B102D00DD53E200210C0018
:103790000B000A006D462D8B102D00D101203D46F7
:1037A000000128436D46287447E0002701E0FCD162
:1037B00080273602B4463E0067463E43AF07BF0F40
:1037C000032F03D111001A00230034006D1C102DAB
:1037D00020D20700BD42EAD2059F7F5DE9E70C4A8F
:1037E000116054609360D0609BE7520700D450E7AB
:1037F0006A46128B102A01DD102501E06A46158BFE
:103800000026059A019085E70148006807B0F0BDE1
:10381000981900206D4628836846007C80070CD5E7
:10382000B5480D0001686940150042686A401D00F6
:1038300083686B402500C4686C40B04805462D681D
:103840004D40014649685140024696685E40D36843
:1038500063402C000D000269A949270EBF00C95919
:103860005140A84A2F003F0CFFB2BF00D2594A4036
:10387000A549370AFFB2BF00CF595740A3491A00E4
:10388000D2B29200895879404769BC469F4F2200C6
:10389000D2B29200BA5867467A409446984F2A0EA0
:1038A0009200BA5867467A409446964F3200120CFE
:1038B000D2B29200BA5867467A409446924F1A0A9A
:1038C000D2B29200BA5867467A4000928769BC46E5
:1038D0008D4F220AD2B29200BA5867467A40944677
:1038E0008A4F2A00D2B29200BA5867467A4094466C
:1038F000834F320E9200BA5867467A409446814F01
:103900001A00120CD2B29200BA5867467A40C769C0
:10391000BC467C4F240CE4B2A4003C5967467C4072
:10392000794F2D0AEDB2AD007D596540774CF6B266
:10393000B600A4596C40724D1B0E9B00EB586340BF
:10394000046A0E0EB600AD5965406E4C009E360CF2
:10395000F6B2B600A4596C403D46160AF6B2B6005F
:10396000AD596540694C1E00F6B2B600A4596C40D2
:10397000466A664D0F00FFB2BF00ED597540604EBC
:10398000009F3F0EBF00F6596E405E4D17003F0C82
:10399000FFB2BF00EF5977405B4D1E0AF6B2B6008A
:1039A000AD597D40876ABC46574F0E0AF6B2B60045
:1039B000BE5967467E40B446544F009EF6B2B600EC
:1039C000BE5967467E40B4464D4F160EB600BE59EE
:1039D00067467E40B4464B4F1E00360CF6B2B6002A
:1039E000BE5967467E40C76ABC46464F090CC9B2FD
:1039F00089007958674679408C46434F0099090AF7
:103A0000C9B28900795867467940404FD2B29200D6
:103A1000BA584A403A491B0E9B00CB5853402030BD
:103A20008749884200D216E7029536490269344D2B
:103A3000270EBF00ED595540029A120CD2B29200E7
:103A40008A586A40304D370AFFB2BF00ED595540E1
:103A50002E4A1F00FFB2BF00D2596A404769BC46D8
:103A60002A4F2500EDB2AD007D5967467D40AC463A
:103A7000B5A7029D2D0EAD007D5967467D403700EC
:103A80003F0CFFB2BF00CF596F40BC461E4F1D0A0E
:103A9000EDB2AD007D5967467D4000958769BC4613
:103AA000194F250AEDB2AD007D5967467D40AC4601
:103AB000164F029DEDB2AD007D5967467D40AC4684
:103AC000A1A7350EAD007D5967467D401F003F0C14
:103AD000FFB2BF00CF596F400197C569240CE4B213
:103AE000A40009596940084C029D2D0AEDB2AD00B1
:103AF00064594C4005490BE098190020D41200206D
:103B0000483D0008D4E50008D4E90008D4ED0008D9
:103B1000F6B2B500495961408BA41B0E9B00E558D5
:103B20004D4000BF48A6036A110E715C090659405A
:103B3000009B1B0CDBB2F35C1B044B400199090A90
:103B4000C9B2715C0C025C402900C9B2715C614071
:103B5000436A009C240E345D24065C40019B1B0CD0
:103B6000DBB2F35C1B0463402C0AE4B2345D270231
:103B70005F401300DBB2F45C7C40836A019F3F0E20
:103B8000F75D3F065F402B001B0CDBB2F35C1B04B0
:103B90007B40170AFFB2F75D3F025F40009BDBB23C
:103BA000F35C7B40C06A2D0E755D2D06454010000C
:103BB000000CC0B2305C00046840009A120AD2B215
:103BC000B25C120242400198C0B2305C50406A467A
:103BD000127C92076A46127C00D406E61211960700
:103BE000B60F00D1FBE522000400C80F4D00D10F35
:103BF00029435500DA0F2A435D00E30F2B4364008D
:103C0000002802D0200087244440761EEDD10D48C4
:103C100005684D40056045685540456085685D40D4
:103C20008560C5686540C5606846007CCF25054055
:103C300068460574002000906846008B0025C6E5A4
:103C40005413002098190020637C777BF26B6FC5BA
:103C50003001672BFED7AB76CA82C97DFA5947F08F
:103C6000ADD4A2AF9CA472C0B7FD9326363FF7CC6B
:103C700034A5E5F171D8311504C723C31896059A08
:103C8000071280E2EB27B27509832C1A1B6E5AA02B
:103C9000523BD6B329E32F8453D100ED20FCB15B16
:103CA0006ACBBE394A4C58CFD0EFAAFB434D33857F
:103CB00045F9027F503C9FA851A3408F929D38F553
:103CC000BCB6DA2110FFF3D2CD0C13EC5F9744178A
:103CD000C4A77E3D645D197360814FDC222A908801
:103CE00046EEB814DE5E0BDBE0323A0A4906245C8D
:103CF000C2D3AC629195E479E7C8376D8DD54EA9F2
:103D00006C56F4EA657AAE08BA78252E1CA6B4C6BD
:103D1000E8DD741F4BBD8B8A703EB5664803F60E16
:103D2000613557B986C11D9EE1F8981169D98E9405
:103D30009B1E87E9CE5528DF8CA1890DBFE642681E
:103D400041992D0FB054BB16A56363C6847C7CF8E3
:103D5000997777EE8D7B7BF60DF2F2FFBD6B6BD61C
:103D6000B16F6FDE54C5C591503030600301010260
:103D7000A96767CE7D2B2B5619FEFEE762D7D7B514
:103D8000E6ABAB4D9A7676EC45CACA8F9D82821F10
:103D900040C9C989877D7DFA15FAFAEFEB5959B206
:103DA000C947478E0BF0F0FBECADAD4167D4D4B3FF
:103DB000FDA2A25FEAAFAF45BF9C9C23F7A4A4532A
:103DC000967272E45BC0C09BC2B7B7751CFDFDE183
:103DD000AE93933D6A26264C5A36366C413F3F7E61
:103DE00002F7F7F54FCCCC835C343468F4A5A551C9
:103DF00034E5E5D108F1F1F9937171E273D8D8ABEC
:103E0000533131623F15152A0C04040852C7C79577
:103E1000652323465EC3C39D28181830A1969637A4
:103E20000F05050AB59A9A2F0907070E36121224B4
:103E30009B80801B3DE2E2DF26EBEBCD6927274E1E
:103E4000CDB2B27F9F7575EA1B0909129E83831D4F
:103E5000742C2C582E1A1A342D1B1B36B26E6EDCA5
:103E6000EE5A5AB4FBA0A05BF65252A44D3B3B76EF
:103E700061D6D6B7CEB3B37D7B2929523EE3E3DDCD
:103E8000712F2F5E97848413F55353A668D1D1B94F
:103E9000000000002CEDEDC1602020401FFCFCE381
:103EA000C8B1B179ED5B5BB6BE6A6AD446CBCB8D47
:103EB000D9BEBE674B393972DE4A4A94D44C4C980D
:103EC000E85858B04ACFCF856BD0D0BB2AEFEFC5AA
:103ED000E5AAAA4F16FBFBEDC5434386D74D4D9A85
:103EE0005533336694858511CF45458A10F9F9E934
:103EF00006020204817F7FFEF05050A0443C3C78D3
:103F0000BA9F9F25E3A8A84BF35151A2FEA3A35D3E
:103F1000C04040808A8F8F05AD92923FBC9D9D210D
:103F20004838387004F5F5F1DFBCBC63C1B6B6772C
:103F300075DADAAF63212142301010201AFFFFE555
:103F40000EF3F3FD6DD2D2BF4CCDCD81140C0C1805
:103F5000351313262FECECC3E15F5FBEA2979735B4
:103F6000CC4444883917172E57C4C493F2A7A755D9
:103F7000827E7EFC473D3D7AAC6464C8E75D5DBAF5
:103F80002B191932957373E6A06060C0988181196E
:103F9000D14F4F9E7FDCDCA3662222447E2A2A5426
:103FA000AB90903B8388880BCA46468C29EEEEC7BF
:103FB000D3B8B86B3C14142879DEDEA7E25E5EBC91
:103FC0001D0B0B1676DBDBAD3BE0E0DB56323264DB
:103FD0004E3A3A741E0A0A14DB4949920A06060C44
:103FE0006C242448E45C5CB85DC2C29F6ED3D3BD30
:103FF000EFACAC43A66262C4A8919139A495953107
:1040000037E4E4D38B7979F232E7E7D543C8C88B3C
:104010005937376EB76D6DDA8C8D8D0164D5D5B19A
:10402000D24E4E9CE0A9A949B46C6CD8FA5656AC55
:1040300007F4F4F325EAEACFAF6565CA8E7A7AF41D
:10404000E9AEAE4718080810D5BABA6F887878F08C
:104050006F25254A722E2E5C241C1C38F1A6A6570B
:10406000C7B4B47351C6C69723E8E8CB7CDDDDA1A5
:104070009C7474E8211F1F3EDD4B4B96DCBDBD6177
:10408000868B8B0D858A8A0F907070E0423E3E7C55
:10409000C4B5B571AA6666CCD84848900503030636
:1040A00001F6F6F7120E0E1CA36161C25F35356A88
:1040B000F95757AED0B9B9699186861758C1C199D9
:1040C000271D1D3AB99E9E2738E1E1D913F8F8EB78
:1040D000B398982B33111122BB6969D270D9D9A931
:1040E000898E8E07A7949433B69B9B2D221E1E3C6F
:1040F0009287871520E9E9C949CECE87FF5555AA91
:10410000782828507ADFDFA58F8C8C03F8A1A1597D
:1041100080898909170D0D1ADABFBF6531E6E6D728
:10412000C6424284B86868D0C3414182B099992997
:10413000772D2D5A110F0F1ECBB0B07BFC5454A815
:10414000D6BBBB6D3A16162C10B40020AA4902004B
:104150003C23CA5410223D23CA5403223E23CA548E
:1041600001223F23CA54072349240B554A23CA542A
:10417000C8640F225323CA5402005423CA5448234C
:10418000CA54F1225200885410BC704770B5002404
:1041900025000FE09848A9004118FF22A6328E188A
:1041A000210031704A21405CFEF78EFE70702000C5
:1041B000B0706D1C0F2DEDDB70BD38B500249F4A2B
:1041C0000125157002230821204602F03EFB00283D
:1041D00000D12C00200032BD10B5874C0223FF20F7
:1041E000E23022180821002002F0DAFA002804D078
:1041F0000020F1214900605410BD012010BD7FB5A1
:1042000006000C006D46CD202873282068730C2111
:10421000684602F083FC3620A873B520E8730020BE
:1042200004E0315C2A5C4A403254401CA042F8DB76
:104230007FBD10B5704C102120001830FFF7DFFF54
:10424000102120002830FFF7DAFF08212000FFF7B7
:10425000D6FF102120000830FFF7D1FF08212000F1
:104260005530FFF7CCFF10BD38B50024624D082251
:104270002900403128005530FFF732F9FFF7D9FF08
:1042800006205021685460232A000121022002F0F8
:10429000DCFA002800D1012402F0E6FD002808D055
:1042A00060232A000221084602F0CFFA441EA441EE
:1042B000E40FFFF7BEFF200032BDF8B505004E4CFD
:1042C000602322002900022002F06AFA0600200082
:1042D00048300090007A002801D0FFF7AAFF00982C
:1042E000007A032802DA0F21009AD172032802DC37
:1042F000002000990873002E18D0582322002900AE
:10430000022002F04DFA0600FFF793FF002E0DD0B9
:10431000082E0BD0012D05D10220FFF7CEFFFFF7AD
:1043200035FF01E0FFF710FF0020F2BD0098807814
:10433000002802D10120009988700098007A052891
:1043400019DD2800012816D101210020020055277F
:1043500008E0A31840269B5DA618F65DB34200D086
:104360000100521C082AF4DB002904D10220FFF7C7
:10437000A4FFFFF70BFFF120400026180098007AF9
:1043800004280BDD012D05D1FFF726FF30780099B9
:10439000087006E04820205C307002E04820205C75
:1043A00030700120F2BD38B50024B64A01251570E1
:1043B0003D230321022002F048FA002800D12C00FE
:1043C000200032BD80B501003D23AE4A022002F03C
:1043D000E7F9002803D0FFF7D9FE002002BD012035
:1043E00002BDAE480078042803D0052801D0012082
:1043F0007047002070470000C00C002038B5050051
:10440000A74C3F202554FFF7ECFF00280DD0002DCE
:1044100003D1802002F024FE31BD9E204000205CAC
:10442000002802D1802002F028FE31BD9D4800788E
:10443000401E8041C043C00F70470000A10E002005
:1044400080B5FFF7F3FF002802D0802002F015FEB0
:1044500001BD934A002809D0002903D00220482139
:1044600050540CE001204821505408E0002903D0AA
:1044700003204821505402E00020482150540846AF
:10448000105CF12149005054704780B5FFF7E1FFFF
:10449000FFF793FE02F0E8FC002801D0FFF7E4FEEE
:1044A00001BD10B50400AD480078802802D100207D
:1044B000207010BD2070012801D002280BD100F01F
:1044C00033FA6060A64800782072FCF700F9607249
:1044D000FEF7A0FDA07210BDA0480078002801D012
:1044E000032801D1002070470120704710B5040057
:1044F000BE4804702000C007C00FFEF733FB600702
:1045000003D50220FEF73EFC02E00120FEF73AFC54
:10451000210009090800C007C00F02F053FD210067
:1045200049090800C007C00FFEF717FF10BD38B5D6
:104530005B4C3C20205C3D21655C0100082903DACE
:10454000290049B2FEF716FB280040B2FCF71EF91D
:104550003E20205C800703D50120FCF74DF902E0E6
:104560000020FCF749F95320205CFEF7E6FE31BD40
:104570000000000010B40021030000BF55A400E0BB
:10458000491C0A00D2B2022A04DAA25C9342F7D193
:10459000012000E0002010BC704738B5404C9E213F
:1045A0004900615C052901D1082032BD002901D0F4
:1045B00004294CD105006879FFF7DCFF002801D100
:1045C000092032BD687929784A22A25C82420BD048
:1045D000FEF7CCFC00280CD06879FEF775FC6978F2
:1045E000884208D20A2032BD0800FEF793FC00285A
:1045F000F2D1072032BD28783C21605468783D21F3
:104600006054A878FFF772FFE878FFF7F7FE287983
:10461000FF2801D1FE20287128794921605428798A
:10462000FEF7CCFC68794A21615C814206D04A21C0
:1046300060546879FEF7C6FD00F0C4FAA8795321EA
:104640006054FFF774FFFFF70FFE012032BD00201A
:1046500032BD38B50400124D3C20285C20703D204E
:10466000285C60703E20285CA070FFF7DFFEE070E1
:104670004920285C20714A20285C60715320285C06
:10468000A07131BD640E0020584800788021084098
:10469000401E8041C043C00F70470000FC0D002049
:1046A000C00C0020FF0C002070B504290FDB002592
:1046B000040008E06800261806A0405D3070FEF790
:1046C00003FC70706D1C012DF4DD042070BD002012
:1046D00070BD00000181F8B504000D001600BB4F4D
:1046E0009E204000381800900078052801D108204D
:1046F000F2BDFEF7C5FC00282ED0009800780028F7
:1047000001D0042826D1FEF7BBFC2100814201D351
:104710000B20F2BD0120FEF7D7FB3100884201D209
:104720000A20F2BD2800022800DB01253200290002
:104730002000FEF77BFC01280AD1A0003818FF21D9
:10474000A631401805704670FFF72DFE0120F2BD1E
:10475000FF20F2BD0020F2BD0920F2BD080D0020AF
:104760005C02002070B505000C00FEF789FC0028F3
:1047700019D0410009188C4215DB00242E000500D9
:104780000BE060000019301821000170821C411CF0
:104790002000FEF785FC641CE4B2AC42F1DB68004B
:1047A0004019C0B270BD002070BD38B50400874DFF
:1047B0009E204000285C052801D1082032BD002839
:1047C00001D004280CD12000FEF7BEFD002805D042
:1047D00054202C54FFF748FD012032BD042032BD87
:1047E000002032BDAA48007870470000FE0C00206F
:1047F00080B5A8490978052901D1082002BD002902
:1048000001D0042903D1FEF7ACFD012002BD002038
:1048100002BDB848007840210840401E8041C04396
:10482000C00F704780B569499E2252008A5C052AF4
:1048300001D1082002BD002A01D0042A08D1006855
:10484000C86440B2FEF700FBFFF70EFD012002BD79
:10485000002002BD5D49C96C0160704780B5082227
:104860005A49FEF73DFE01BD80B5010008225748B8
:10487000FEF736FE01BD80B50822B949FEF730FECD
:1048800001BD80B501000822B548FEF729FEFFF7FB
:10489000EBFC01BD80B51022BB49FEF721FE01BD36
:1048A00080B501001022B848FEF71AFE01BD10B510
:1048B0000C0078490978052901D1002010BDFFF7C7
:1048C000D3FF2000FFF7ECFFFFF7CEFC012010BD67
:1048D00010B50C00FFF7C2FF2000FFF7DBFF10BD93
:1048E0003A483821425C3921415C090211433A229D
:1048F000825C3B23C05C0002104300040843704705
:1049000010B4324902003823CA5492B2120A392331
:10491000CA54020C13003A240B55120A3B23CA5402
:10492000BB49086010BC7047B9480068704738B58B
:104930000C00B84D1022010028001830FEF7D0FD01
:104940001022210028002830FEF7CAFD31BD38B5FD
:1049500004000D001000FFF7D3FF29002000FFF72F
:10496000E6FF31BD38B50C00AA4D102229001831E0
:10497000FEF7B6FD1022290028312000FEF7B0FD19
:1049800031BD0320704703280ADAA2492C22504384
:1049900008186021405C401E8041C043C00F704732
:1049A0000020704703280FDA9A492C225043081838
:1049B00081300178427812020A438178C07800027F
:1049C000084300041043704700207047C00C0020CB
:1049D000032805DA8F4A2C23584310188822815067
:1049E0007047032806DA8B492C2250430818882187
:1049F000405870470020704738B503000800140085
:104A0000032B0EDA83492C225343CD1810222900A0
:104A10006131FEF765FD1022290071312000FEF79B
:104A20005FFD31BD38B504000D00FFF7DAFC00284A
:104A300001D1082032BDFFF74FFD002801D103202E
:104A400032BD14480078002820D1002C1ED4280044
:104A500002280DD1FEF7C1F90498059900280091AC
:104A60000DD100231A460121200000F0DDF932BDEE
:104A70000D2D02D1FEF7B8F9EEE7042032BD002378
:104A80001A460121200000F0B7F932BD002032BDE6
:104A9000140D0020FC0D002070B5002425005D4E93
:104AA0000BE0E80030188A21490040180068416A8C
:104AB000002901D0204688476D1C88204000305CCA
:104AC0008542EED302F0D0F900280CD13C20305CB6
:104AD000FEF720FA002803D13C203454FFF727FDCD
:104AE000FEF718F970BD9E2040003454FFF7A8FC73
:104AF00070BD0000FE0C002080B5BC4802F0F3FB46
:104B0000FFF7EAFC002802D0FFF7C6FF01BDFDF762
:104B100087FD01BD80B5B64802F0E5FBFEF742FC1B
:104B200001BD10B53B4C00228C214900F220400011
:104B30002018FEF7B7FCFFF7D3FE0100230028334F
:104B4000220018320020FEF7F3F8FFF7F0FC0022F5
:104B50006421B6204000201802F0AEFB10BD00001A
:104B6000000D002080B5FFF73CFC002801D100209B
:104B700002BD80209F49087000210120FFF785FCBD
:104B8000FFF7CFFF012002BDC80C002070B5040064
:104B90000D001600FFF725FC002801D1002070BD94
:104BA0003200290020008023924C2370FFF7CFFEB3
:104BB00000210120FFF769FCFFF756FBFFF7B1FF6B
:104BC000012070BD10B5FFF70CFC002801D10020BA
:104BD00010BD104CC4204000201802F084FB0022BD
:104BE0008C214900F22040002018FEF75BFC0020D9
:104BF0009E21490060540146FFF72BFC00F007FAA4
:104C000000210846FFF741FCFFF71AFC012010BD08
:104C100080030020C00C002038B51400BB4A2C25AE
:104C20006843151801206022A854280081301A001A
:104C3000027092B2120A42701A0C13008370120AA8
:104C4000C270102228006130FEF74AFC10222100B9
:104C500028007130FEF744FC0020C04388216850D2
:104C600031BDF8B504000F0015001E00FFF7B9FBB9
:104C7000002801D10020F2BD20000100032901DB42
:104C80000020F2BD33002A0039008024594D2C70D9
:104C9000FFF7C2FF0120F2BD10B50400FFF7A1FB32
:104CA000002801D1002010BD032C01DB002010BD25
:104CB000002096492C22544309196022885401206F
:104CC00010BD38B50500FFF78CFB002801D1082086
:104CD00032BD8E4CFF201230201801784906490E53
:104CE00001709E21490061180A78002A1FD1002D09
:104CF0001DD401220A702900017000210846FFF727
:104D0000A8FB00F084F9802D04D001210020FFF7DA
:104D1000BCFB03E001210020FFF79BFB0022642184
:104D2000B6204000201802F0C7FA012032BD002052
:104D300032BDF3B581B017001E000024099804604D
:104D4000FFF7CAFB002801D10320FEBD6F4D9E2056
:104D50004000281800900078032802D12000009914
:104D600008700098007800283ED1FEF777F80021FF
:104D7000C94388422BD00121C943884203D10098FE
:104D800004700720FEBD012803DB09990860062096
:104D9000FEBD089A310038006B461B7AFDF784FF90
:104DA000002810D100980078032803D100980470DF
:104DB0000520FEBD01980121009A1170FF211231DA
:104DC00068540120FEBD0021C943884204D101205E
:104DD000009908702046FEBD0121C943884201D1D7
:104DE0000220FEBD0320FEBD2046FEBD2C0E00208D
:104DF000480E0020D10D0020FEB504000F00150064
:104E00001E00FFF7EEFA002801D10820FEBD2000A9
:104E100008D408992B003A00019100960121FFF770
:104E200088FFFEBD0020FEBDFEB504000F0015008A
:104E30001E00FFF7D6FA002801D10820FEBD200091
:104E400008D408992B003A00019100960021FFF741
:104E500070FFFEBD0020FEBDF8B52C4CA148251802
:104E6000A14E1338305C20210840401E8041C043D1
:104E7000C00FE870AD483018017880220A40521EF9
:104E80009241D243D20FAA70C90605D54178711854
:104E9000A74A895C697001E0FF2169708778002F5B
:104EA0000CD03A0040783018C22189004118FA200D
:104EB00040002018FEF714FB2F7001E0002028703E
:104EC0009C4830180178491E8941C943C90F29718E
:104ED000057BFF20F4302718002D0FD02800102864
:104EE00009DA2A0094483118F22040002018FEF711
:104EF000F7FA3D7004E00020387001E000203870BF
:104F0000FDF7C1FBBE2189006050F1BDC00C00203F
:104F100070B5754CD12040002618884D3078287027
:104F2000FFF7DAFA002802D0707E002805D1C120F0
:104F30008000205C401CA87003E0C1208000205C41
:104F4000A870B07B68700020E8707D49615612221D
:104F5000A25613000E009B1B9B1E012B02DB511A55
:104F6000891EE970C94961586960287270BD0020C6
:104F7000724902000A6048600872704770B45A4A69
:104F8000C3495318DC7E6D49E50707D50B780B73D1
:104F9000C04BD35C4B7301230B740BE002252C42F6
:104FA00008D080260E731B784B730D74230701D530
:104FB00003230B74137B8B73527BCA734B4BA62258
:104FC00052009A18002818D0087CB349595C00296F
:104FD00009D0012803D15068401C506010E01069CE
:104FE000401C10610CE0012803D11068401C1060C7
:104FF00006E0D068401CD06002E0D069401CD0615F
:1050000070BC704780B5802002F02AF801BD70B5F1
:10501000364E4A20305CFFF7ADFA002805D101205A
:105020004A2170540020482170544A20305CFEF719
:10503000C9F8FDF7ABFDD048FDF7BDFF3E20305C61
:10504000FFF754FA4920305CFDF7B8FF0020FDF768
:10505000D1FEF06C40B2FDF7F7FE5420305CFEF755
:1050600073F9FEF70DF8002810DD002405000BE0B1
:10507000A0003018FF21A6314018427801782000A6
:10508000C0B2FDF7D3FF641CAC42F1DBFFF74FFA6F
:10509000FFF7A7F900280FD04820305C012802D183
:1050A000FFF73FFD70BD022803D0032801D0802800
:1050B00002D18020FFF705FE70BD10B50020AF497A
:1050C00008700220FFF7F9F80400FFF7CDF8FFF7AA
:1050D00074F8FFF75BF8FFF766F900F0DFF82000DF
:1050E00010BD0000F3020000AC000020C00C002046
:1050F00010B4A349882252008A181378052B10DABD
:10510000DB00CB188A246400185110780300DB0000
:10511000C9188C235B00C85410780100491C117019
:1051200001E00020C04310BC7047000005030000F0
:10513000070300004404000051040000701900201F
:105140006E060000020000202C2900DA9CE08D4849
:1051500001681170016889B2090A51700168090C6F
:1051600091700168090C090AD17041681171416898
:1051700089B2090A51714168090C91714168090CA1
:10518000090AD17181681172816889B2090A517264
:105190008168090C91728168090C090AD172C16891
:1051A0001173C16889B2090A5173C168090C9173FE
:1051B000C168090C090AD17301691174016989B2C6
:1051C000090A51740169090C91740169090C090AF1
:1051D000D17441691175416989B2090A51754169F2
:1051E000090C91754169090C090AD175816911761B
:1051F000816989B2090A51768169090C91768169C0
:10520000090C090AD176C1691177C16989B2090A05
:105210005177C169090C9177C169090C090AD177E5
:10522000016A2023D154016A89B2090A2123D15489
:10523000016A090C2223D154016A090C090A2323AB
:10524000D154416A2423D154416A89B2090A2523E1
:10525000D154416A090C2623D154416A090C090A28
:105260002723D154816A2823D154816A89B2090A3B
:105270002923D154816A090C2A23D154806A000C55
:10528000000A2B2150542C207047000074060000A7
:10529000EA02000036040000F602000080B580201B
:1052A00001F0DEFEFFF7B3FEFFF716F9002801D18B
:1052B000FFF7C6F801BD70B40B005B08002408E0DE
:1052C000025D0D006D1E2D1B45192E7806552A70A6
:1052D000641C9C42F4DB70BC704710B50400FFF7FF
:1052E000BDFA08212000FFF7E6FF10BD10B504004D
:1052F000FFF7C1FA08212000FFF7DDFF10BD80B5E0
:10530000FFF7C8FA01BD38B5C94C9E2040002518EA
:10531000A86A401CA862802001F0A2FEFFF7F8FDF9
:105320000220287001212000F43002F0E6F831BD9F
:1053300080B50020FFF722FEFFF7F9F801210846AB
:10534000FFF7A3F80221BB4802F0D7F8FFF7A4FB50
:1053500001BD80B5B64800219E22520081548021B3
:10536000482281540421F43002F0C7F8FDF70EFC06
:10537000FFF766F801BD000005500008FC0D002095
:10538000C00C0020000E0020F8B5A94C9E20400063
:105390002618A94DA94828180178890753D1FFF785
:1053A000B7FD802001F05CFE012738003070A44872
:1053B0002818009000220078FA2189004843A1496A
:1053C0004118C4204000201801F076FFD72040008B
:1053D0002818417B012911D1B068401CB0609A485F
:1053E00080784921615C491C884201D102203070DB
:1053F00010212000F43002F080F8F1BD7168491CE2
:1054000071600078914961188A78012A0FD10028CB
:1054100000D00700009A527ABA420ED18A4A927896
:1054200082420AD3002088700220307005E086494D
:105430008978814201D30220307008212000F430A5
:1054400002F05BF8F1BD4078002849D0C42040004C
:10545000201801F048FFFFF7FFFC0120FFF78EFD49
:105460007A4820184178012922D0817801291FD05B
:105470005321615C8C22D200AA5C914218D300783F
:10548000002803D07048807800280ED13078022898
:105490000BD0002809D0D72040002818407B401EA0
:1054A0008041C043C00F307004E00020307001E044
:1054B000012030706448007C032806D1FF201230A0
:1054C0002018017880220A43027020212000F43045
:1054D00002F013F83078002806D1FEF7B1FFF1BDD5
:1054E00000203070FEF7ACFFF1BD10B5FFF7B4FC43
:1054F0000120FFF743FD4E4CFF20123020180178A9
:1055000080220A43027080212000F43001F0F5FF70
:105510009E204000205C002801D1FEF791FF10BDC5
:1055200010B5FFF724FD4448CE21C900415C464A2E
:1055300011723F4A00239E2464001355FF23BC339D
:10554000C05C012803D0022901D0042905D1102113
:105550001000F43001F0D1FF04E008211000F43015
:1055600001F0CBFFFEF76CFF10BD0000401F1328B9
:1055700000D9704710B501A1095C8F441218AE1E06
:105580001E24AEAEAEAEAE2A56687A809AA4AAAAFF
:10559000FFF7B9FE10BDFFF7CBFE10BDFFF7D9FE38
:1055A00010BDFFF7F1FE10BD214CC42040002018B3
:1055B00001F099FE9E20400020180178022901D1B7
:1055C0000021017040212000F43001F096FFFEF729
:1055D00037FF10BD9E48C168491CC16000210170A1
:1055E000FEF72EFF10BD9A48C168491CC160032117
:1055F0000170FEF725FF10BDFEF722FF10BD944895
:1056000094490978C90703D58169491C816110BD96
:10561000416A491C416210BD4021AE4801F06DFF56
:1056200010BDFFF77DFF10BDFFF75FFF10BD00004D
:10563000C00C0020B40D0020AC00002005030000C9
:105640003C040000E02E000070190020F50200006C
:10565000FEB5A048029001F066FF002700909E4C26
:105660001BE00098000717D528680169002913D0AE
:105670009A48884710E0FDF706F8010000223078CC
:105680002B681B6A98470098C006EAD52868C1684D
:10569000002901D0914888477F1C882040002618A7
:1056A0003078874200D3CEE0F80020188A214900E4
:1056B0004518009880064FD5894820184178E02980
:1056C00029D1FA21490061180A780078042811D1FB
:1056D000012A0FD14B78012B0CD18B78012B09D1EA
:1056E000C978012906D12868416A00290CD0012017
:1056F000884709E0002A07D1012805D12868416AB6
:10570000002901D00020884728797178884209D083
:10571000002804D106E028797178884202D0707898
:10572000000625D528684369002B21D0F2204000CF
:105730002018019069489E214900615C002906D12A
:10574000012201990C302B685B69984710E0002218
:1057500001990C3098470BE00098000608D528689E
:10576000C269002A04D0F220400021185D48904709
:1057700070782979814201D000068DD50098C00744
:1057800006D528680168002919D05448884716E0D2
:10579000009880070BD52868406800280FD0FFF7D5
:1057A000C3F801004F482A685268904707E0009804
:1057B000400704D528688068002800D080470098FA
:1057C000400600D45FE7FCF75EFF0600FFF7ACF889
:1057D000864203D144480078FF2803D1FEF77CFEBF
:1057E000002813D128688269002A00D14BE73E487F
:1057F00000789E214900615C002904D101212A68BA
:10580000926990473FE7002190473CE7FCF73BFF58
:105810000600FFF789F8864200D134E72868006A5D
:10582000002800D12FE7304E9E204000205C002849
:1058300000D020E7FCF727FF0122010030782B6819
:105840001B6A98471FE7029801F043FEF7BD00006E
:10585000FC0D0020B10300201CB5802001F000FCED
:10586000202001F00AFC1C4C8820400020188021D8
:105870004170002101709E204000215401200090C1
:1058800023001A4A20A12000F43001F0EEFD00228E
:105890001749B6204000201801F0EDFC0022154900
:1058A000C4204000201801F0E6FC00F01BF912486B
:1058B00001F099FD114B124A12492000E43001F029
:1058C000BEFB0120FEF7F9FC0320FEF77BFDFFF78E
:1058D000E5FC13BDB40D0020C00C002070190020A1
:1058E000F30200007C1900201B070020515600081D
:1058F000F94A0008154B0008AB5B0008575C00082C
:10590000455C0008035C0008574D4C4F524157411D
:105910004E000000F446002804D4494200F013F879
:10592000404260474042002905D45FD000F00BF8A8
:10593000404249426047494200F005F84942604709
:1059400003460B43E6D40022030A8B420BD2030921
:105950008B4219D243088B422ED2411A00D2014603
:10596000524110467047FF2209023FD012068B4277
:1059700005D3121209028B4201D312120902030944
:105980008B4219D300E0090AC3098B4201D3CB0132
:10599000C01A524183098B4201D38B01C01A524174
:1059A00043098B4201D34B01C01A524103098B4278
:1059B00001D30B01C01A5241C3088B4201D3CB0063
:1059C000C01A524183088B4201D38B00C01A524146
:1059D00043088B4201D34B00C01A5241884200D386
:1059E000401A5241CFD201461046704708B501F027
:1059F000ADFD08BD80B53448016842684A40406941
:105A0000504000F01AF801BD304801688AB2304BAE
:105A10005343090C5918016041688AB22D4B534316
:105A2000090C5918416000680A04120E5140020422
:105A3000120E4A405040C0B27047010C80B2234A57
:105A4000234B43435B181360224B5843401850606C
:105A5000704780B5012804D0022804D11E481F4990
:105A6000086000F0C9FF01BD38B5050001D100F0A4
:105A7000C3FF164C00221A492000083001F0FBFB3E
:105A8000002809D0012229002000083001F014FC70
:105A9000002801D0012032BD002032BD10B50B4CD2
:105AA00000220F492000083001F0E5FB002809D052
:105AB000022264212000083001F0FEFB002801D002
:105AC000012010BD002010BD5000F81FB8180020A4
:105AD0005194000069A50000EFBEADDEF01F00206C
