:020000040800F2
:10000000101E0020391F01082F680008D381000846
:1000100000000000000000000000000000000000E0
:10002000000000000000000000000000D781000870
:100030000000000000000000B3930008F7BC0008B7
:10004000B9AE00085F950008976D00085FAE000824
:10005000A1B7000833A700086FA70008ADA70008E4
:100060000000000053AF00088BE10008B7F900085A
:100070001BFD00085B1E0108932001089F2001085A
:10008000252101082721010829210108000000007D
:10009000BD7200082B2101082D2101082F21010824
:1000A00031210108332101083521010865BA000812
:1000B000372101083921010800000000000000007C
:1000C0004007400F704780B2C0108007800F704714
:1000D00080B240118007800F7047B94A0240C9B210
:1000E0004801104380B2704780B2C1110800C007B8
:1000F000C00F7047B34A0240C801104380B2704736
:1001000080B2000A80B2704780B5401CC0B200F0D7
:100110005BF980B202BD80B5C0B2FFF7F5FF0121E7
:1001200080B2FFF7E7FF02BD80B5401CC0B200F00F
:100130004BF9FF2801D0012000E00020C0B202BD31
:1001400010B50C0002E0C0B200F0F6F921004C1E20
:10015000C9B20029F7D1C0B210BD017840780002C1
:10016000084380B270470178427812020A438178CE
:1001700009041143C078000608437047C1788278AB
:1001800012020A434178090411430078000608432B
:1001900070470A00027089B2090A417070470A006C
:1001A00002700A0A42700A00120C8270090EC170B5
:1001B00070470A00C2700A0A82700A00120C42706C
:1001C000090E01707047F3B581B015001E001021B3
:1001D00000273A00B24C0094009803F0EDFD00981F
:1001E00049202070002D01D00127FFE7029D0199D1
:1001F0006771E673A01DFFF7D2FF290020000A30C7
:10020000FFF7CDFFF7BD70B50500080011001A001B
:10021000049C059E3300FFF7D6FF10222900B74D3E
:10022000280003F0F3FD3000020092B2210002200A
:1002300003F078FE0500A019FFF7A0FF854201D169
:10024000012000E00020C0B270BD70B505000800BC
:1002500011001A00049C059E3300FFF7B4FF102222
:100260002900A64D280003F0D1FD3000020092B213
:100270002100022003F056FE0100A019FFF799FFAC
:1002800070BD38B504000D009C4805F016FD28002F
:10029000020092B221000A2003F044FE010060191E
:1002A000FFF787FF31BD70B504000D00934805F0DE
:1002B00004FD2800020092B221000A2003F032FE61
:1002C00006006019FFF75AFF864201D1012000E0C5
:1002D0000020C0B270BD38B504000D00874805F09D
:1002E000ECFC2A0092B22100002003F01BFE31BD7D
:1002F000F1B582B00D001700099801282BDB01939E
:10030000102100263200664C0094009803F054FD42
:10031000009801200100E173E17B2170019900291F
:1003200000D13000089E2900029D6071A01DFFF7DA
:1003300036FF390020000A30FFF731FF1022290074
:100340006E4C200003F062FD0998020092B2310069
:10035000042003F0E7FDF7BDF9B581B00E001500EC
:100360001024210000222F00380003F025FD012079
:100370002870062231006E1C300003F047FD6846ED
:100380008188E81DFFF705FF22002900029C20005C
:1003900003F03CFD022002990870584C200005F043
:1003A0008CFC10222900002003F0BCFD200005F089
:1003B00084FC10220299002003F0B4FDF7BD000078
:1003C0009FFF00007FFF000000B50100C9B20A29AD
:1003D00001D3FF200CE0A24909784906490E032900
:1003E00003D1A049C0B2085C02E09F49C0B2085CDA
:1003F00000BD00B5B0490A7D0300DBB29A4207D3C5
:1004000013228956C0B202225043081A40B200E0BB
:10041000002000BD00B5A9480078012801D10120C5
:1004200000E0002000BD30B5A349A54A8A5C012A3E
:1004300005D10200D2B2022A01D101201EE0002221
:1004400000E0521C1300DBB2102B16DA0123D0247B
:1004500064000C5B1D0095402C42F2D083405B1E73
:100460001400E4B202256C430C19C0256D00645BD6
:100470002340002BE5D0002000E0012030BD00B576
:100480008D4AC9B2022359435118C0225200895AD9
:100490000141C80701D5012000E0002000BD000097
:1004A0001419002070B506000D00002400E0641C43
:1004B0002000C0B210281FDA7F482100C9B20422F0
:1004C0005143411880225200895C4907490F2A0094
:1004D000D2B29142EBD1D0214900405A0121A14032
:1004E0000842E4D02100C9B23000C0B2FFF7C7FF14
:1004F0000028DCD0012000E0002070BD1C1200208C
:1005000070B506000D00002400E0641C2000C0B29D
:1005100010280FDA0120A040290089B20142F4D04E
:100520002100C9B23000C0B2FFF7A9FF0028ECD00B
:10053000012000E0002070BD38B505002C00280027
:10054000C0B2FFF770FF002812D16D1E8F480188DE
:100550002800C0B2FFF7D4FF0028F0D02800401CCC
:10056000C0B2FFF731FFFF28E9D02800C0B201E098
:100570002000C0B232BDF1B582B00D0068460089DE
:10058000FFF7A1FD6946487068460089FFF798FDAE
:1005900004002000C0B2002809D1EDB20B35802044
:1005A000C00245432800B34905F030FF55E027005D
:1005B000BF1D042047432000C0B2052801DB0820EE
:1005C00000E000206946381A087068460089FFF785
:1005D0008BFD002801D0002600E010266846008927
:1005E000FFF78EFD002801D0142000E00020EDB2BE
:1005F00008214D43FFB2E91B89191C31081A012853
:1006000010DB694609784018401E6946097805F0F4
:10061000FDFE050068460089FFF75AFD401D454371
:10062000083500E00825AD003135641C6846407887
:10063000201ABC4C0100C9B2052902DB001F04418D
:10064000042085408020000245432000022105F05F
:10065000DDFE2818210005F0D9FEFEBD00000000D7
:10066000C9060020D0200108DC20010870B5040074
:1006700005F030FFC0B2050205F02CFF05432E0047
:10068000B6B2A948864206DB280080B28021090262
:1006900005F0BCFE0E0021000800C0B2002808D002
:1006A000EDB22800C9B205F0B1FE8020000241433E
:1006B0007618300070BD000060000020C0060020E9
:1006C00079060000F8B54718002635002EE0207B9B
:1006D00000282AD1A068B84227DA2000103005F09F
:1006E0008AFFA76030002073904AA1682000103074
:1006F00005F0AEFF19E02900C9B224225143401889
:10070000040024342020205C00280ED020880028FB
:1007100002D0207B0128DAD1A76030002073834A01
:10072000A1682000103005F093FF6D1CAF48290030
:10073000FC22825CC9B29142DDD3F1BDAC480170AC
:10074000704710B5100040B27F23DB43984201D0C0
:10075000A8480270A548D8225200821813780C00CD
:10076000E4B2A34208D01170D621490041180A888A
:1007700080231B0113430B803F21C9439E4A8154B0
:1007800010BD9A4828214056704700000002002002
:10079000F8B506004027390000252A00934C802038
:1007A000400020180090009803F006FB00983900E4
:1007B0002A00A02040002718380003F0FDFA20216D
:1007C0002A00C02040002718380003F0F5FA28005E
:1007D000B54960542800B54960542800B4496054B4
:1007E0002800B4496054B448271838780A380A28D1
:1007F00005D20120B1496054B149605405E0280098
:10080000AE4960542800AE4960546846067003F053
:10081000DDF8C84E320068460178387803F0AEF94A
:100820002800D021490060523078C349605413E059
:100830000023DB432800C0B2022148433018442182
:10084000425A2800C0B204214843301841682800A9
:10085000C0B200F0D3F86D1C28003178C0B28842D5
:10086000E6D36420305CB5496054B06EBB2189008A
:100870006050F1BD50C3000010B5002107E00B002F
:10088000DBB224246343D21824321071491C574A26
:100890000B00FC24145DDBB2A342F0D310BD00B505
:1008A00052488549415C4906490EC9B2012902D026
:1008B000032910D011E0FA22920082846421482397
:1008C000C1526C23C1529023C2520A22B423C25295
:1008D000D822815201E00021818400BD38B5C0B228
:1008E000002802D0FFF7DBFF1BE00024250011E009
:1008F0002900C9B22422514340182430210001802C
:100900002021415C002904D001210173103005F041
:1009100072FE6D1C35482900FC22825CC9B29142EE
:10092000E6D331BD093D0000018000008F0C0008B6
:1009300038B52E4CC0B2042148432018802149000C
:10094000405C45076D0F2800C0B2242148432018A1
:100950004421405C00280FD101202900C9B2242283
:10096000514361183022885405F032FE2900C9B283
:10097000242251436118C8622800C0B22421484390
:1009800020184421405C401CEDB224214D436119E4
:100990004422885431BD10B51449C0B204225043DA
:1009A000081880225200805C4007400F0200D2B23B
:1009B00024235A438A184423D25C521E0300DBB21C
:1009C00024246343CB1844241A550200D2B22423B2
:1009D0005A438A184423D25C002A06D10022C0B2AE
:1009E0002423584308183021425410BD60000020D1
:1009F000100200200F020020E1020000F8B5040000
:100A0000170018002200D2B2102A01DB002049E0B2
:100A10000D0001000022D24349B2914202D12800C8
:100A200003F072F807218D4340B228430500C84EF9
:100A30002000C0B2042148433018802149004058AA
:100A4000002803D02000C0B200F03CF82000C0B263
:100A500004214843301880214900455000202100DE
:100A6000C9B2042251437118A022520088503800A4
:100A700080B2002801D13F27FFE72000C0B2022149
:100A800048433018C02149004752D0204000301858
:100A900001880122A2400A4302802000C0B2FFF771
:100AA00047FF0120F2BD0000350400003C040000B7
:100AB00044040000450400006906000079060000B7
:100AC0007A060000F8B50400A14D2000C0B2042150
:100AD00048432818802149004058002829D0D020B8
:100AE00040002F18012638883100A140084203D069
:100AF0002000C0B2FFF74FFF00202100C9B204223E
:100B0000514369188022520088502100C9B2042242
:100B100051436918A022520088502100C9B2022214
:100B200051436918C022520088523888A640B04309
:100B30003880F1BDC41400206A060000EA020000FB
:100B400080B5401EFFF70FFB000A6421484381492E
:100B500009784906490EC9B2012902D0032907D0F4
:100B60000DE07D49411A7D4A914200D300200CE0FE
:100B70007B49411A7B4A914200D3002005E0764927
:100B8000411A764A914200D3002002BD70B504009C
:100B900000251AE02800C0B2FFF7FDFE14E0724AFB
:100BA0000121200080B20B00AB40034016880800F2
:100BB000A8403040834207D01088A9400842E9D0BD
:100BC0002800C0B2FFF7B4FE6D1C2800C0B2102888
:100BD000E5DB70BD10B5002108000FE05C4A0B009A
:100BE000DBB204246343D21880235B00D258002A6E
:100BF00003D00200012088401043491C0A00D2B2F1
:100C0000102AEBDB80B210BD80B50022C0B2602894
:100C100003D1FFF7DFFF0100FFE7080080B202BD4C
:100C2000F8B504004A48D0225200861835882200C0
:100C300092B2002A01D1002028E0002200E0521CDC
:100C40001300DBB2102B11DA012393402700BFB24F
:100C50001F42F4D01300DBB204277B43C318802764
:100C60007F00DB59002BEAD100200FE008002100B3
:100C700089B2C0B2FFF744FC002801D1022005E090
:100C80003480280080B2FFF781FF0120F2BD304997
:100C9000007B24225043081824300121017370473F
:100CA000F1B52B4DD1204000285C04214843281881
:100CB000802149004658CD48295CE889FFF75BFC54
:100CC00007003800F917FA229200002305F042FDD0
:100CD00080221202002305F056FDC54968507007B6
:100CE000400F242148432818040024340720864359
:100CF000AE600220205604216156884202DAA078B4
:100D0000A87401E02079A874009E208878433018E8
:100D1000A0602088002808D000202073C84AA1685D
:100D20002000103005F094FC04E00120207305F051
:100D30004FFCA060FF20A43028180178002905D0BE
:100D400000788740F019D22149006850F1BD0000B9
:100D500060000020C9060020C0557033C1CF6A0072
:100D600040DA8E3381841E0000020020F3B587B084
:100D7000FF270798B34940180090002545E0280058
:100D8000C0B22421484320183021405C00283BD0C9
:100D900000980799AB4A8918884235D12900C9B211
:100DA000D8204000205CFFF77DFB00282CD02F00CE
:100DB0003800C0B2242148432018C06A009023E0C4
:100DC00000982900C9B2242251436118C96A401A07
:100DD0000128D4DB2800C0B2242148432018302148
:100DE000405C002810D02900C9B2D8204000205C07
:100DF000FFF758FB002807D02F003800C0B224218D
:100E000048432018C06A00906D1C7A4C2000FC30CA
:100E10000190280001990978C0B28842D0D3009887
:100E20000799401A8749884247D1D1204000205C69
:100E300004214843201880214900405C45076D0F7C
:100E40006D1C280001990978C0B2884200D10025A4
:100E500000262CE000982900C9B2242251436118D1
:100E6000C96A401A012819DB2800C0B2242148436E
:100E700020184421405C002810D02900C9B2D82095
:100E80004000205CFFF70EFB002807D02F00380041
:100E9000C0B2242148432018C06A00906D1C28006D
:100EA00001990978C0B2884200D10025761C300033
:100EB00001990978C0B28842CCD300980799401AAA
:100EC0006049884201D100988EE00026350030004C
:100ED0001AE039000200D2B204235A43A218802338
:100EE0005B00D25C5207520FC9B291420BD1D021A4
:100EF0004900615A01228240114204D002A92A000D
:100F0000D2B288546D1C401C0100C9B21029E0DB2C
:100F100005F0E0FA2900C9B205F078FA14E0491C9E
:100F200008003A00D2B224235A43A2184423D25CC8
:100F3000C0B2904207D33800C0B2242250432018D8
:100F40004422805C091A761C30003A00D2B2242375
:100F50005A43A2184423D25CC0B2904241D202A8A4
:100F60000A00D2B2805C0122D0235B00E55A130054
:100F700083401D42D3D00300DBB202256B43E3184C
:100F8000C0256D005B5BD8256D00655D2D072D0FBD
:100F90009BB2EB401342C2D03A000300DBB20425FF
:100FA0006B43E31880256D005B5D5B075B0FD2B27E
:100FB0009A42B4D108A90978C9B200290FD13900E1
:100FC000C9B224225143611829228854FFB2242037
:100FD0004743E0192921405CD12149006054009821
:100FE00002E007981749401809B0F0BD0703000058
:100FF000740600006000002000B5B2490978490677
:10100000490E0A00D2B2032A03D0C9B20A390A290A
:1010100013D20100C9B2062901DA40B20EE0010084
:10102000C9B2062902D10020C04307E00100C9B2BD
:10103000072902D10120C04300E040B200BD0000FA
:101040008F0C00080000504638B59F4C9F48205C2C
:10105000FFF7D2FF00219E4AA25C012A00D10221A3
:10106000627C03005BB2D21A0B00DBB29A4202DA56
:10107000C348215411E0CF21C90061180A78637C6C
:1010800005006DB25B1B9A4203DA0878BC496054D4
:1010900003E0617C081ABA496054D120400020184E
:1010A0000178042251436118A02252008958002976
:1010B00004D1A0688721C900605009E000780421AC
:1010C00048432018A021490040588721C90060509A
:1010D00031BD10B57C4C0E20FF21B0316054A948C1
:1010E000205C0A380A2804D202210020FFF726FBE0
:1010F00003E005210020FFF721FB0120FFF748FB5B
:1011000005F0E8F9C0B2A049615C05F07FF9D12093
:101110004000215405F05CFA206010BDF8B50024B1
:1011200005F056FA0021FFF721FE674DD62040005A
:1011300028180188954A0A40028005F049FA0700FC
:10114000D1204000285C0421484328188021490010
:1011500040584007400F2421484328182430816814
:10116000791A002900D58768D82040002E18FF2062
:1011700031780841C0B2FFF779FA381880210902A6
:10118000401828607F48285C0A380A280FD2C120FE
:10119000800028180178491C017000780C2804DAB6
:1011A00031780120FFF7CAFA17E0012415E0C120C9
:1011B000800028180178491C01700078C0070CD401
:1011C0003078002801D1012407E03078FFF7B4F926
:1011D0000100C9B20120FFF7B1FAE4B22000F2BD6C
:1011E00080B501F0BDFF01BD80B5C0B204F0D0FEF6
:1011F00001F0B6FF01BD80B500213348B72292004F
:10120000821811601268B6239B00C2500A00D923CD
:101210005B00C2540A009D4BC2540A009C4BC2544E
:10122000B9239B00C2549B4BC254B8239B00C254A9
:101230000A00BA239B00C254974BC254BC239B00A4
:10124000C254BB4BC2548922D20082180B001370C7
:101250001278B84BC2540A00B74BC254D72252007E
:1012600081543F21C943B54A81540121CC22D20087
:10127000815412214256B249415C0020FFF761FAC5
:1012800001BD10B5104C217D0200D2B291420DD3A8
:10129000C0B2FFF7AEF840B2AA496156401A801EAC
:1012A0000021C943884201DB012000E0002010BD7D
:1012B00000B50549497DC0B2814201D3012000E05B
:1012C000002000BDC9060020600000203504000099
:1012D0007A060000F8B50F0015001E0087243900BB
:1012E000C9B280B2FFF79CFC0100C9B2002903D14A
:1012F0002000FE24044005E0C0B2022802D12000F4
:10130000FD2404402000C0B24006400E072834D11E
:10131000684605708C4DD72040002E5468460078F2
:101320000F280BD068460078FFF763F8020052B22E
:101330003900C9B20420FFF704FA06E07F22D24345
:101340003900C9B20420FFF7FCF9684600780F287D
:1013500013D000260BE068460078FFF74AF831000A
:10136000C9B224225143691828228854761C3000BF
:10137000FC21695CC0B28842EDD32000C0B2F2BD4E
:1013800036040000690600006A060000FFF700004E
:10139000FFB581B00500002738006B4C6B48205C1E
:1013A00080282FD187262800C0B20009694608701E
:1013B00068460078FEF7B8FE002802D1FD203040D4
:1013C00043E06348205C002806D068460078022885
:1013D00002DAFD20304038E02D072D0F2800C0B282
:1013E000FFF74FFF002802D1FB2030402DE0684678
:1013F000037B2A00D2B26846017868460089FFF76D
:1014000069FF22E080205349615C002903D0022952
:1014100010D001D319E018E0EDB2FF2D09D16846D4
:10142000037B0F22D8204000215C68460089FFF72B
:1014300051FF0AE06846037B0F22D8204000215C60
:1014400068460089FFF746FFFFE76946097C14E01C
:101450008C22D200A2180323157865193E4EAB5595
:1014600013785B1C137043075B0F157865193A4EB0
:10147000AB5513785B1C13707F1C3A000B00D2B283
:10148000DBB29A42E4D305B0F0BD00004404000092
:10149000E5020000E2020000E9020000FEB52F4A6A
:1014A0008518802636020027274C01916068216844
:1014B000401AC117FA229200002305F04BF93200BE
:1014C0003B0005F060F900902548215CE089FFF7BA
:1014D00052F8C117FA229200002305F03BF93200BE
:1014E0003B0005F050F902000098801A01990E188F
:1014F000FA27BF003000390004F08BFF701A390062
:1015000004F087FF2D183000390004F082FFFA2024
:101510004000814200D36D1C280005F065FB114896
:1015200020180168002901D000688047F7BD00003D
:10153000E702000046040000F3020000E1020000A0
:10154000470400006E06000060000020E602000074
:10155000790600007C06000061040000803DD51281
:10156000070300004C040000F0B585B0114E124A8C
:10157000B25C20231A40D2B25209002A05D1FF22C0
:10158000BC32B25C012A00D1A7E28C22D200B5188D
:1015900000222A7000226B461A7000226B461A73D2
:1015A00000226B46DA7000226B46DA81002401903B
:1015B000029104E0600000200D030000E41C02988A
:1015C000844200DB7BE268460078002810D0019856
:1015D000005D03280CD0684603786846C2786846E8
:1015E000C1896846007BFFF7D3FE0020694608707A
:1015F0000198005D022815D003281AD0042800D1D4
:10160000EFE0052869D006283FD0072800D10AE17D
:10161000082800D1A6E10A2800D1D7E10D2800D181
:1016200027E24AE202992000C01C8142C6DA029CED
:10163000C5E702992000401D814201DA029CBEE705
:1016400068460078401C6946087001980019407887
:101650006946087301980019801CFEF77EFD019908
:1016600009190979F0220A4001990919097909072C
:10167000090F6B46D970641D010089B21000C0B219
:10168000FFF7C2FA6946C88199E702992000401C19
:10169000814201DA029C92E70120C8497054062079
:1016A00029787118C64A88542878401C2870C54883
:1016B000305C29787118C24A88542878401C2870F8
:1016C000C148305C8006800E29787118BC4A885465
:1016D0002878401C2870641C71E702992000401D86
:1016E000814201DA029C6AE70198001940780007FC
:1016F000000F69468870019800194078C0B200094F
:101700004007400F6946487001980019801CFFF798
:1017100017FA0490641DBC208000371880203870B0
:1017200068468078FEF700FD002804D03878022152
:101730000143397003E03878FD2101403970684673
:101740004078FFF7B5FD002804D038780421014324
:10175000397003E03878FB21014039700498002883
:1017600004D0387801210143397003E03878FE2134
:1017700001403970387887280BD168464078D849BD
:10178000705468468078D74970540498BB2189000A
:101790007050052001002A78B218894BD15429785D
:1017A000491C297039784907490F2A78B218844BA7
:1017B000D1542978491C2970AC21C90071180A78C4
:1017C000B218C94BD0540878401C087038784007CC
:1017D000400F0A78B218C44BD0540878401C0870E7
:1017E000EDE602992000801C814201DA029CE6E6C7
:1017F000019800194078A41C0007000FFF21A431B4
:10180000705404F0E5FED221490070500120BA2145
:1018100089007054042029787118694A88542878FE
:10182000401C2870CBE602992000801D814201DA1D
:10183000029CC4E6019800194078694688700198B6
:101840000019801CFFF77CF9049001980019407979
:1018500069464870A548371880203870A448305C25
:10186000401E69468978884264DA049800281CD1B1
:10187000019800198078002812D101980019C078C9
:1018800000280DD1019800190079002808D1684678
:101890008078FFF717F938780321014339704DE05C
:1018A0003878FE210140397048E0684640780007EA
:1018B000000F69464978C9B209096A465173C0B236
:1018C000FEF732FC002805D16846407BFEF72CFC71
:1018D000002804D0387802210143397003E03878B9
:1018E000FD2101403970834A0023DB439C461100EF
:1018F000684640780007000F814013000F206A46B9
:101900005278D2B21209801A1A0002410A40634684
:1019100092B2049968468078FFF770F8002804D0E6
:10192000387801210143397008E03878FE21014000
:10193000397003E03878FE2101403970A41D07207A
:10194000297871181E4A88542878401C28703878E5
:101950008007800F29787118194A88542878401C0C
:1019600028702CE602992000801C814201DA029C3A
:1019700025E60198001940780007000F0100C9B260
:10198000002900D10120401E5B49705401205B49B1
:101990007054A41C082029787118094A88542978A1
:1019A000491C2970AC21C90071180A78B2184E4B35
:1019B000D0540878401C087001E600BFE502000022
:1019C000610400007D060000E3020000029920008F
:1019D000401D814201DA029CF1E501980019477827
:1019E00001980019801CFFF7ABF8FC21002802D0F9
:1019F0000A00012111433A00D2B204235A43B2181B
:101A000080235B00D258002A02D00A000221114331
:101A10000A00D2B2FF2A06D1FFB204225743F219BC
:101A2000A0235B00D050641D0A202A78B218C64B50
:101A3000D0542A78521C2A708A07920F2B78F318F8
:101A4000C14FDA552A78521C2A70AC22D200B21843
:101A50001378F318244FD8551078401C107088075D
:101A6000800F11787118204BC8541078401C1070EA
:101A7000A5E502992000801D814201DA029C9EE5C5
:101A800001980019417801980019807800020843F4
:101A900001990919C97809040143019800190079CD
:101AA00000060843019909194979FA229200514325
:101AB000090AFFF7F3FCA41D81E5029C7FE5684657
:101AC0000078002809D0684603786846C2786846DE
:101AD000C1896846007BFFF75BFC05B0F0BD00BF25
:101AE00035040000EA02000061050000E902000080
:101AF0006A060000FFFF00003C04000046040000EE
:101B000038B50400002500E06D1C03F0A5FA29009B
:101B1000C9B2C0B281420ED22800C0B203F09EFA10
:101B20000028F1D02800C0B203F0ADFA8442EBD116
:101B30002800C0B200E0FF2032BDF1B594B0904E55
:101B4000C22080003018059005980178E0200840F8
:101B50008C49711802910299097800917B4971189A
:101B6000039100242100039A1170C0B2602809D0AB
:101B700001200399087002980470152004F008FAF7
:101B80000020DFE0059845790598401CFEF7EBFA48
:101B90000598801DFEF7E1FA04902807000F0A90CF
:101BA00020273800284041110800C007C00F4021FD
:101BB0000D40A9110A9D0835009A121F06920128AE
:101BC00001D0012909D1802003990870029804707E
:101BD000152004F0DDF90020B4E00698A84208DAE8
:101BE0000398077002980470152004F0D1F90020C2
:101BF000A8E00020C04307900698854203DA0598C4
:101C0000405D07906D1C14A8007803F03CFA099021
:101C100014A8007803F06FFA08900FAA0BA914A873
:101C2000007803F079FA0698019005980090012356
:101C3000049A09990BA8FEF7E6FA002807D10420B8
:101C400003990870152004F0A3F900207AE00898A1
:101C50000021C943884205D1049914A8007803F0F3
:101C60003DFA2CE004980899884212D20020C04323
:101C70000899401A04994018B54988421FD3082092
:101C80000399087002980470152004F081F900206F
:101C900058E004980899401AAD49884209D30820B1
:101CA0000399087002980470152004F071F900205F
:101CB00048E00499491C14A8007803F00FFA07982B
:101CC000002814D40698401B012810DB079801282F
:101CD00001DA0BA800E00FA80699491B01910599AC
:101CE000491900910123049A0999FEF701FB0A980A
:101CF000012802DA0798002809D1102003990870FA
:101D000002980470152004F043F900201AE00798A7
:101D1000002809D5C148301801780F4307700C48D6
:101D20003554029804700CE0BC4830180178102239
:101D30000A4302702800064970540698401B029915
:101D40000870012015B0F0BD610400006F060000AE
:101D500006030000F0B591B0094CC22080002018A5
:101D6000069006980078E02101406A461172054904
:101D700061180D910D9909780191C44904E000BFE3
:101D8000600000200703000061180391002529006E
:101D9000039A1170B62189006118079107990968A3
:101DA000109101990C2903DB8007800F002818D0BF
:101DB0002020039908700D98057010980799086005
:101DC0009648205C00070AD503980078002806D0C2
:101DD00003980078FF2802D0152004F0D9F80020DD
:101DE000CFE1069840790C900698401CFEF7BBF9AD
:101DF00000900698801DFEF7B0F90C990907090FAD
:101E0000099120270C99394049110A00D207D20FB5
:101E10000F92099E08360199091F0491B521890086
:101E200061180B9100990B9A1268914218D07B4867
:101E3000271808263878310008420AD00098FFF7A2
:101E40005FFE0100C9B2FF2903D0C0B2FFF775FEE3
:101E500097E13878304202D1022003990870AAE74E
:101E60006946097A60290AD06946097AA02906D00C
:101E70006A49615C090702D40121039A117004992F
:101E8000B14202DA0398077095E70021C94308912F
:101E900004998E4203DA0699895D0891761C0799A8
:101EA0000968090C090480B208430590B648201857
:101EB0000E9004980190069800900123059A0B98C3
:101EC00001680E98FEF79FF9002818D10598802127
:101ED000490240180590049801900698009001234B
:101EE000059A0B9801680E98FEF78DF9002806D127
:101EF000042003990870142004F04AF85BE7059861
:101F000007990968884217D2059807990968491EF8
:101F1000884203D16846007AA0281BD00020C04325
:101F200007990968401A059940180949884211D350
:101F30000820039908703EE7059807990968401A38
:101F40000349884206D308200399087033E700BF8D
:101F500001400000FF20BC3020180A900A98007849
:101F6000012806D10F98002803D14020039908705A
:101F700021E7089800280AD10498801B012806DB75
:101F80000998012803DB10200399087013E70598CE
:101F9000401C079908600C9810210840A049605423
:101FA0002800A04960546846007AA02801D1380072
:101FB00000E02800B821890061180870087800281E
:101FC00002D10C98C0060ED5D620400020180188FA
:101FD00010220A430280A249615C022903D10188D0
:101FE000A04A0A400280D920400020182900017030
:101FF00000789D4960549D482018002141567F2259
:10200000D243914202D03F21C94301700D20205696
:102010001F21C943884203DAE02005E005030000E0
:10202000202801DB1F20FFE7A749605408980028FB
:1020300016D40498801B012812DB0898012801DAC5
:102040000E9801E0AA4820180499891B019106996D
:10205000891900910123059A0B990968FEF748F93F
:102060002800AC21C90060540698083001900898F7
:1020700000280DD10498801B012809DB06988019DF
:102080000499891BFFF770FA13E000BF6F06000088
:1020900009988A21C9006054099A01999548201825
:1020A0000090009801F0B2FE009809990198FFF79E
:1020B0005BFA9148205C8C21C900615C88420ED299
:1020C000D62040002018018810220A43028064496B
:1020D000615C022903D10188624A0A4002800A98A1
:1020E0000078012820D10F98002801D0802100E03D
:1020F0004021824820180278114301700F9800286F
:1021000024D02800C1218900605428000A99087051
:102110002800DE214900605428008921C90060544C
:1021200028007749605411E02800C12189006054DB
:1021300028000A9908702800DE2149006054280010
:102140008921C900605428006D496054089800280E
:1021500009D56A48201801780F430770694826544A
:102160000D9805700CE065482018017810220A438C
:1021700002703000634960540498801B0D99087008
:10218000012011B0F0BD0000B202000038B55E4C75
:102190005A482518022028705C48205CFDF7BBFFD8
:1021A000E081BB2080002058A06000205849605486
:1021B0002B48205C02280CD1D6204000205CC007B0
:1021C00007D52878082101432970032004F07FFFF8
:1021D00002E0022004F07BFF31BD10B54A4A131D16
:1021E00014682418513C1C600C00E4B2072C02D186
:1021F0003C20107412E00C00E4B2022C02DA06203B
:1022000010740BE0C9B2062906D111680818A2386B
:1022100018601020107401E00820107410BD000038
:10222000440400004504000038B50D00364C374921
:10223000615CFFF7D2FF0A48205C022808D12A001F
:10224000616841398520C000201804F001FA06E0D9
:102250002A00616841392000183004F0F9F931BDD5
:1022600034040000FEFF0000E2020000E102000072
:1022700070B50400244D0120204968542E000E360C
:102280002448285CFDF747FF30808720C00028588D
:10229000A8600121E889FDF72DFF308000201C494E
:1022A00068548820C0002C50A548285C022806D11C
:1022B000D620400028180188B74A0A400280022030
:1022C00004F005FF70BD0000E302000070B50500DA
:1022D0000E00FEF7B9FEB64C617C2800FFF77DFFCB
:1022E0003200616841392000183004F0B1F970BD46
:1022F000C2020000510400007B060000050300003C
:10230000490400000603000060000020EA0200000B
:10231000070300003604000080B50820FEF764FFC4
:1023200001F022F801BDFEB5A14CD62040002018D6
:10233000019001980078000601D40020FEE09D483D
:1023400027183878002835D101980078400719D42B
:1023500001980078800601D40020EFE00198008801
:102360009549014001980180D9204000201801784A
:102370000A2902DA0178491C01700920FEF734FFAE
:102380000120DBE001980088A2490140019801800A
:10239000FEF7C4FE0500E80701D59F4E00E09F4E02
:1023A00004F016F9320041192000183004F050F9F9
:1023B0000120C3E0C2208000201800900098067819
:1023C0003D782800C0B22018C12189004018FDF7CF
:1023D000CAFE2800C0B2112803D02800C0B22128AC
:1023E00004D1F6B2E3203040202808D08C48205C8D
:1023F000C00701D50020A1E000203870A4E789487B
:10240000201802902900C9B2491E0298FDF763FF07
:102410002900C9B2091F0098FDF745FF0028E5D043
:1024200081482018FDF79FFEB52189006050C32028
:1024300080002018FDF797FE0002000AD421490011
:1024400060500020FEF7A4F9784820180F2706787E
:102450003E400078C0B200094007400F694608704E
:102460003000C0B2FDF760FE00280BD0684600784F
:10247000FEF71EFF002805D0684600786C496054BE
:102480006C482654C5208000205C07403800C0B24C
:10249000002800D10127781EA7496054EDB2122D03
:1024A0001EDB0D26A54827183D7813E03000C0B28A
:1024B0002018C22189004018FEF742FB01000029C4
:1024C00006D00023DB4300222800C0B2FEF796FAB4
:1024D0006D1CF61C2800C0B23978491D8842E5DB26
:1024E00097482318974822180299AC208000205A58
:1024F000401E80B2FDF730FF019800782421014092
:10250000002901D1002019E001980078800609D542
:10251000D82040002518D9204000215C2878FDF7FC
:102520000FFE287001980088A049014001980180A1
:10253000FEF761FE0620FEF757FE0120FEBD0000FB
:102540003404000080B5FFF7EEFE19481949415CDC
:10255000002905D10021324A8154102003F018FDD2
:1025600001BD80B59248B5490860FFF70FFE01BD77
:1025700080B590480078002803D0FFF7D4FE0028EB
:1025800004D1C049C0208002FFF74EFE01BD80B5D6
:10259000BD48FFF76DFE01BDFEFF000080B50520C0
:1025A00003F0F6FCB949A0208002FFF78FFE01BDC1
:1025B00060000020070300005FFF000010B5A04C82
:1025C0008520C000201804F016F800208821C900DA
:1025D00060509C4960549C48205CFF2802D0102029
:1025E00003F0D6FC00F0CAFBCE20C000205C00281F
:1025F00002D0162003F0CCFCA548205C022808D1AC
:10260000D6204000205C18210140002901D100F0B3
:102610006AF910BD7FFF000019230008E1110008CE
:1026200005030000090300000F030000130300006E
:1026300035040000EA02000038B5814C8148205C76
:10264000002817D10020934960549148205C02284B
:102650000AD1D6204000205CC00705D5FF207A496A
:10266000605400F040F904E0AC492000183003F059
:10267000DAFF60E086482518287802280BD18520EB
:10268000C000201803F0B7FFD620400020180188B2
:1026900080220A43028000F071FB002819D100203B
:1026A0007C496054287802280DD1D6204000205C57
:1026B000C00705D499498520C000201803F0B3FF56
:1026C00000F011F904E095492000183003F0ABFF49
:1026D00031E0287802280CD16E48205C000708D52C
:1026E000D6204000205CC00703D52000183003F03E
:1026F00082FF6848205C400611D5D6204000201893
:10270000018880220A43028084492000183003F0A7
:102710008AFF287802280ED100F0E5F80BE028782F
:10272000022808D1D6204000205C902101400029D9
:1027300001D100F0D8F831BD3C0400006A06000069
:10274000C2020000B202000010B53D4CD62040008D
:1027500020180188724A0A40028072488821C90004
:1027600060504B48205C022802D1002004F0AFFCEE
:10277000FFF70CFD694A20686B49615C80231B02EE
:1027800059434018A021C90241182000183003F015
:102790005FFF10BD80B5002004F099FC042004F018
:1027A00096FC5E49614803F03EFF01BD59FD000003
:1027B000452500086703002038B5214D2C0018344A
:1027C000200003F018FF00201F4968541D48285CB2
:1027D000002803D000F0D2FA002811D15449524801
:1027E000285C802212025043802252028018FFF798
:1027F0001BFD2748285C022801D100F074F81CE07A
:102800002448285C40060BD5D620400028180188B3
:1028100080220A4302804149200003F004FF0CE0BB
:102820001B48285C022808D1D6204000285C902153
:102830000140002901D100F056F831BDA00400206C
:1028400060000020070300006F06000010B5394C3F
:102850000F48205C022802D1002004F038FC3648E2
:10286000FFF706FD354A20682F49615C80231B0273
:1028700059434018A021C90241182000183003F024
:10288000E7FE10BD63250008712500088F250008AC
:10289000340400000503000010B5264CD62040008B
:1028A0002018018880220A43028000208A21C90062
:1028B00060542349605423496054CE21C9006054B8
:1028C0000A2003F065FB802000021F49164AA25C23
:1028D00042431018FFF7FAFC1C48205C022801D183
:1028E00000F001F810BD10B5FDF794FD002814D0DC
:1028F000104C1748205C07280FD0002004F0E7FB9D
:10290000D62040002018018801220A430280054891
:102910008821C9006050FFF739FC10BDBD250008B3
:10292000FEFF0000392600083C040000780000206B
:102930004927000860000020B927000895270008F3
:10294000050300006F0600004D2800083404000055
:10295000EA020000F8B586B0C04CD6204000205CEA
:1029600018210140102901D0012500E00025280090
:10297000C0B2002803D0DE204000275C00E0002722
:1029800008268920C000205C00280FD0C1208000CC
:10299000205C00280AD18C20C00020180221027877
:1029A000A218AF4BD1540178491C0170AD48205C8E
:1029B00000280FD0C1208000205C00280AD18C2084
:1029C000C00020180D210278A218A54BD15401781F
:1029D000491C01708C20C0002018009000980078DD
:1029E000002840D0D820400020180178082903DAB8
:1029F000AD490078085C00E0FF2000990978884222
:102A000003DA00200099087058E0A848205C00997B
:102A10000978884210D30098027891482118A019AB
:102A2000C2239B00C0180190019801F0EFF90198B2
:102A300000980078361841E00020DD2149006054FC
:102A40000098027886482118FF20BE3025182800FB
:102A500001F0DCF9DE2040002018009909780170AF
:102A6000077801252AE0AC20C000201800900098CB
:102A70000078002822D00098007810281EDAD8208C
:102A8000400020180178082903DA87490078085C9B
:102A900000E0FF200099097888420FDB0098027857
:102AA000A5482118A019C2239B00C01801900198C5
:102AB00001F0ACF901980098007836189F4820186A
:102AC0000178002909D09E49611800228A56002AFF
:102AD00001D500220A70002101702800C0B2002830
:102AE00003D03800C0B2401D00E0042031000818B7
:102AF0006946088168460089FF2804DD002530000A
:102B0000001D69460881C2208000201805904020E1
:102B10000100059A11708A496156002900D50020EC
:102B2000B82189006118019101990978854AA25C50
:102B30000A43104331000839014383482154B5202A
:102B40008000201804900498016880482018FDF740
:102B500026FBC120800020180090009800780028F3
:102B600005D1B720800020180168491C0160B720FA
:102B700080002018039003980068411E89B27448B1
:102B80002018FDF706FB0198007800280FD0D72009
:102B9000400020180178002909D0009909780078B0
:102BA000401E814206D100200199087002E00020F9
:102BB00001990870EDB2002D3AD0FF20BC30205CA6
:102BC000002809D080200599087000980078002816
:102BD00002D1012000990870DD20400020180090EB
:102BE00000980078A119C222920088543A00D2B20B
:102BF000FF20BE302118A019544BC518280001F041
:102C000005F900980078002802D15248201801E008
:102C100051482018FFB20197A1194C4A8918009118
:102C2000002303990A68521E04990968FDF760FBA6
:102C300068460089001F01900598009000230398C2
:102C40000268521E0498016842482018FDF7FDFAF8
:102C5000684600894149605407B0F0BD600000201B
:102C6000610400004904000070B53D4CC221890098
:102C700065182870681C03F00CF82800093003F070
:102C800012F8AC2080002618318828001130FDF79A
:102C900080FA13212800FDF7F4FA17202F49605419
:102CA0003088401C308070BD102101087B06000078
:102CB00080B500F055FA01BD38B5FDF7ABFB002833
:102CC00031D1274CD620400025182878902101408A
:102CD000002901D0002027E00020FF21A43160540A
:102CE0002049605420496054CE21C90060541F49D6
:102CF000605429881E4A0A402A80FF21BC31605452
:102D0000C12189006054D92149006054FEF7E1F9DE
:102D1000288804210143298016492000183003F037
:102D200082FC012000E0002032BD80B51248401C2A
:102D3000FDF719FA02BD000061050000E202000083
:102D4000E1020000E60200000D030000090300009C
:102D50000E030000B2020000C202000007030000E0
:102D600060000020350400003C0400006F060000F5
:102D7000DEE70000B12C000868030020FEB5954C8A
:102D8000D620400025182878000638D59248205CC7
:102D9000002803D09148205C400630D5FF20BC308D
:102DA000205C00282BD1C120800020180178D72278
:102DB0005200A25C521E914221DA00218822D200E8
:102DC000A1500178491C01700220FDF74FFCCA494F
:102DD000615C8022120251430818C0214902411847
:102DE0002068FDF76FFC2888C449014029802888A5
:102DF00008210143298000F0B3F90120FEBD2878A5
:102E000081210140012904D1FF20BD4960540020E7
:102E1000F4E771482018019001980078002804D048
:102E20006E48205C400600D44CE1C1208000271889
:102E30003878002878D0FF20BC3020180090009807
:102E40000078012870D13878CD21C900615C8842B2
:102E50004CD200268820C00026503878401C38709C
:102E60003878022103F0D2FA012915D138780228E6
:102E700012DBD820400027183878FDF7D4FA002854
:102E80000AD101213878FDF75BF901007F22D24396
:102E9000C9B20220FDF755FC00F002FDDE21490019
:102EA000615CC0B2884206D2009806700420CE2130
:102EB000C900605421E00220FDF7D8FB8E49615C17
:102EC0008022120251430818C0214902411820688B
:102ED000FDF7F8FB288889490140298028880821C6
:102EE0000143298000F03CF9012087E70020009988
:102EF00008700220CE21C900605460203749605418
:102F0000002001008922D200A15401008D4AA15461
:102F10008C21C90060548C48205C022876D1288816
:102F200001210143298071E0884820180178102987
:102F300056D101210A00D7235B00E3181E78002E2A
:102F400001D01B785A43824BE3181E78D2B29642C6
:102F500026D23878002805D01878397840181870AB
:102F6000002038701878401C18700220FDF77EFB96
:102F70006149615C8022120251430818C021490254
:102F800041182068FDF79EFB28885C490140298094
:102F9000288808210143298000F0E2F801202DE76C
:102FA0000022160006701000187020200B4BE05411
:102FB00010008923DB00E0541000624BE0548C20A9
:102FC000C00022546048205C02281FD12888014399
:102FD00029801BE0600000200703000005030000BB
:102FE00020205C496054002001008922D200A154B5
:102FF0000100544AA1548C21C90060545248205CFD
:10300000022803D12888012101432980C8482618B5
:10301000002030567F21C943884202D03078401CBE
:103020003070D8204000205CFDF7FDF9002802D068
:103030007F20C043307000203056002804D12888FB
:10304000C00401D40020307000200199087001985C
:1030500000784149605428884049014029803D4812
:10306000205C4007400F002806D02888C00403D504
:103070002888B5490140298000F072F8AC4826182C
:103080000020305620281BDBD82040002718387835
:10309000FDF752FA7F24E44322000100C9B2032065
:1030A000FDF74FFB3878FDF7BEF9002802D100206C
:1030B000307000E034702888802149010143298064
:1030C00001209BE6FEF746FE002801D1002095E690
:1030D00000208821C9006050FFF727FEB521890034
:1030E0006158884203D10A2002F052FF02E0172003
:1030F00002F04EFFAFE700003C0400007EFF00003E
:103100006F06000010B5974CD620400020180188AB
:10311000124A0A4002802000183003F06CFA852021
:10312000C000201803F067FA002003F0D0FF112040
:1031300002F02EFF0448205C022801D1FFF7D3FBE8
:1031400010BD0000490400003404000044040000E5
:1031500045040000050300000603000077FF00009F
:10316000FEB5804CD620400026183078C1210140A1
:10317000002900D0D2E003F02BFA009000200025B7
:1031800000209549605030783C210140002900D151
:10319000C9E0307824210140002901D0012700E056
:1031A00000273088000517D500210098FDF7DEFDC7
:1031B000206005000098281AA449884207D1308869
:1031C000A34901403180122002F0E2FEA6E03088DF
:1031D000A0490140318000E02568FF20A430205C38
:1031E000002802D13088C00507D5D2204000201821
:1031F0000168691A002900D50568D1204000205CCB
:1032000004214843201880214900405C4007400FBA
:103210000099691A4139002907D4C0B224214843D2
:1032200020183021405C00286BD000980190D820F5
:103230004000255C3800C0B2002815D030788006E8
:1032400009D5D9204000215C2800C0B2FCF778FFE6
:103250000500C02000E00020C0B2FFF705FD924845
:103260008821C900605005E0FFF774FB8F48882172
:10327000C90060502800C0B2FCF746FFFF21B23100
:10328000615C80B2FCF729FFE08165743088884971
:10329000014088200001084330800198FDF700FDBF
:1032A0008448205C022802D1002003F010FFFFB206
:1032B000002F09D0804A0098A021C902411820009F
:1032C000183003F0C5F908E07B4A00988021C90254
:1032D00041182000183003F0BBF99A482018016803
:1032E000002901D000688047012003F0F0FE009D16
:1032F0009548215CE089FDF73EF92818553020609B
:103300000CE0307880070AD4132002F041FEAD4A69
:10331000290041392000183003F09AF9F7BD002D3B
:10332000F5D16D1CF3E730788007F0D4F6E70000A4
:10333000E102000000B5C0B2002801D0802000E00A
:103340000020A149087000BDFFEF000080B50A0011
:103350009E49087052B20100C9B20020FDF7F1F990
:1033600001BD00006000002010B5002003F0AFFE9A
:10337000974C2000183003F03EF98520C00020183B
:1033800003F039F900200100CC22D200A154010041
:10339000C1229200A1540100FF22BC32A154B521E8
:1033A000890060500100D6225200A1520100FF2284
:1033B000B232A15401008922D200A1540100A54AD1
:1033C000A15401008C22D200A154AC21C900605448
:1033D0000020FDF7DDF910BD7406000038B57C4C07
:1033E0004020D6214900605201208E4960540025BA
:1033F00028008D49605228008C49605480208E49F5
:10340000605428008F496054FF208F496054280081
:1034100008E029000200D2B224235A43A21827232D
:10342000D154401C0100C9B20629F2DB00F0CEFAEB
:103430009E48255003F04EF8C0B2050203F04AF84A
:103440000543AC208000255231BD000000005046ED
:10345000E7FF0000FFF7000010B55D480021CE2215
:10346000D2008154924A8154124A825C022A06D1C7
:10347000D6225200821813888E4C1C401480D6220B
:10348000520082181388A74C1C401480138808240B
:103490001C4314801278520702D4C1229200815436
:1034A000FFF75EFE10BD00009D250008992800086A
:1034B000EFFE00003404000005310008F3B581B0D0
:1034C000070015001E00FCF7A5FF002802D102200E
:1034D000C04335E03E4C68460570D8204000205C73
:1034E000072808DA00F0DCF96946097888420ED22C
:1034F0000120C04324E0F2208C21C900615C401A05
:1035000069460978884202DA0120C04318E002992E
:10351000002907D068460278FF20BE302518280011
:1035200000F074FCFF20BC302654DD2040002754FE
:1035300068460078DE2149006054FFF78DFF0020C7
:10354000FEBD0000640600000703000080B5FCF724
:1035500061FF002805D00023002200210120FFF791
:10356000ADFF01BD70B51D00194CD4235B00E050C8
:10357000B52080002150002A07D010201100954A64
:10358000A6180200300000F041FC2900002905D0F7
:10359000102291482518280000F038FC0020FDF783
:1035A000F7F8D620400020180188A44A0A4002807B
:1035B0000188802212010A430280FDF71CFE70BDC3
:1035C00000000000E111000846030020A7040020CD
:1035D0006000002010B5A549A54A8A181378040098
:1035E000E4B2A3421DD010700200D2B2012A0AD167
:1035F000D6204000081801882E4A0A400280002088
:1036000003F065FD0DE0C0B202280AD1FCF702FF0D
:10361000002806D002F0DCFFC01C03F01FFEFFF7FD
:1036200062F910BD690600006C0600006E0600001D
:10363000A248007870470000E60200000120A0497F
:1036400008707047450400007D06000001209D4978
:1036500008707047490400009B490880704710B506
:10366000824CB748205C4006400E032803D11E2040
:1036700000F0EAF802E0102000F0E6F8002007E091
:103680002721615C002902D1E17C2622A154401C43
:10369000FC21615C8842F3DB10BD80B5AF49087046
:1036A00040B203F0EDFCFFF7DAFF01BD4C0400006F
:1036B0006F0600007EFF000010B502F089FF0400D5
:1036C00001212000FDF752FB011BA54A914202D1C6
:1036D0000120C04325E06549D12252008A5C0423C1
:1036E0005A438A1880235B00D25C5207520F031B97
:1036F000413B002B07D4D2B224235A4389183022ED
:10370000895C002901D000200BE0001BC117FA22C0
:103710009200002303F01EF880221202002303F01F
:1037200032F810BD7FFF000000B55049844A8A5C22
:103730000300DBB29A4203D113200856C0B21AE04C
:10374000C0B24006400EC0B2012802D0032802D009
:1037500003E0102002E01E2000E01020984A8918A3
:1037600000228A5610320300DBB29A4202DA0020AD
:1037700008561030C0B200BD70B50600002407E046
:103780003000401CC0B2FCF71FFEFF281ED1641C95
:103790002000C0B210281BDA344DD0204000285A37
:1037A0000121A1400842F2D02100C9B23000C0B2CC
:1037B000FCF765FE0128EAD18248285C0128DFD1A8
:1037C0003000C0B20228DBDA002002E0012000E075
:1037D000002070BDB2020000C202000030B59BB0F4
:1037E00004000D006A4600212000C0B200F0C6F9B6
:1037F000002000E0401C694602000B78D2B29A42D9
:1038000015D20200D2B202235A4389184422895A9F
:103810000122AA401142EDD0E4B20A3C0A2C04D2A3
:10382000EDB2022D01DA002002E0012000E00020CC
:103830001BB030BDB04908607047000059FD000062
:10384000401CAE490870704710B508495C4A8A1898
:103850000023D3561033040064B2A34203DA107875
:103860001030C87400E0C87410BD00006000002073
:103870003404000000B5A248D821490041180A7854
:10388000082A0BDA4F4A805C012803D19D48097849
:10389000405C04E0B7480978405C00E0002000BDCF
:1038A00080B5FFF7E7FF0100C9B2002904D0B24993
:1038B0000978401AC0B200E0002002BD9404002044
:1038C000A8040020A9040020CC06002070B58C4B71
:1038D0003D4C1C5D6406640E012C2ED10400E4B244
:1038E000062C28DA13241C571500EDB224B22DB291
:1038F000AC4220DB0C00E4B2002C01D0012400E03B
:1039000000240500EDB2242675435D192726AC5529
:10391000C9B2002906D0C0B2242148431818262174
:10392000425406E0D97CC0B2242250431818262203
:103930008154012002E0002000E0002070BD000062
:103940006906000000B5C54800784006400E012811
:1039500001D1062000E0002000BD0000CE060020BE
:103960000000504630B5664B174C1C5D6406640E73
:10397000012C22D10400E4B2062C1CDA0400E4B2CB
:1039800024256C431C192725645D0C700100C9B205
:103990002424614359182724095D002902D1D87CC9
:1039A000107006E0C0B22421484318182621405C5C
:1039B0001070012002E0002000E0002030BD000077
:1039C0006E0600007906000069060000F8B502F0F6
:1039D000FFFD06004A4CBD48205C4006400E03280F
:1039E00028D11E20FFF730FF0120FC216054E07C2D
:1039F000282160542720205C002802D1E07C262169
:103A0000605402F067FD102102F000FD29202154CE
:103A1000E6620025280044216054FCF740FF402066
:103A200025540A202075072060750520CF21C90084
:103A3000605455E01020FFF707FF2000FC30009095
:103A400006200099087000273D003AE0E07C29003C
:103A5000C9B2242251436118282288542800C0B2D8
:103A60002421484320182721405C002807D1E07C0E
:103A70002900C9B22422514361182622885402F039
:103A800029FD102102F0C2FC2800C0B224225043BC
:103A90002018292281542800C0B22421484320182C
:103AA000C66238002900C9B2242251436118442259
:103AB00088542800C0B2242148432018402145548E
:103AC0006D1C280000990978C0B28842BED3FCF76B
:103AD000E6FE0720207505216175CF21C9006054DD
:103AE000F1BD80B5994902000B78D2B29A4202D05A
:103AF0000870FFF739FC01BDC4060020C80600208D
:103B0000600000201821010800B5544909784906D1
:103B1000490E032901D100202AE08D49411A8D4A1E
:103B2000914201D2002023E08B49411A8B4A9142F5
:103B300001D201201CE08A49411A8A4A914201D2ED
:103B4000022015E08849411A884A914201D2032097
:103B50000EE08749411A874A914201D2042007E0CA
:103B60008549401A8549884201D2052000E000209D
:103B700000BD000010210108C0040020F0B50100C4
:103B8000C9B24906490EC9B2012902D0032923D07E
:103B900046E0032111707A4B53607A4B93607A4B65
:103BA000D36000231C0008E03F272500EDB2022669
:103BB000754355194426AF53641C25001678EDB2A1
:103BC000B542F1D3000602D46420135401E064200E
:103BD00011546E48906640E0032111706C495160A9
:103BE0006C4991606C49D160002108E03F230C00D2
:103BF000E4B202256C43141944256353491C0B009D
:103C00001478DBB2A342F1D3000603D4022064216E
:103C1000505402E0042064215054604890661CE037
:103C20000320107056485060564890605648D06047
:103C30000020010008E03F230C00E4B202256C43A1
:103C4000141944256353491C0B001478DBB2A342BA
:103C5000F1D3642150544D489066F0BDC906002050
:103C600000B50100C9B2102900DB0F204C490870D3
:103C700000BD00B50100C9B2032903DA4949087043
:103C8000012000E0002000BD80B5C0B203F0FDF9C6
:103C900001BD45490870704710B5030008001400C5
:103CA000DBB2002B0DD0FCF74BFF002807D03F49BB
:103CB00088608C74052003F00AFA012005E00020DA
:103CC00003E0002003F003FA012010BD69060000A4
:103CD00080B5002003F0FBF9042003F0F8F9344923
:103CE000344802F0A0FC01BD10B5C0B2002828D0B5
:103CF0000020020012E02D490300DBB224246343BC
:103D0000CB1830241B5D002B07D00300DBB224242A
:103D10006343C9184423C95C5218401C0100C9B24E
:103D20000629E8DBD2B2012A09D102F051FC0021B8
:103D3000FDF71CF8052003F0CAF9012005E000207A
:103D400003E0002003F0C3F9012010BDC9060020E4
:103D5000C055703381841E0040DA8E33C1C62D00F9
:103D600000A1BC33C1270900604FC73321A1070060
:103D7000C0FDD13391D00300A091D633E19304006C
:103D8000A027BE33E034C1332042C43308E6D33326
:103D900064CE8F3384FE9433E8E19D33F080A63304
:103DA000DB060020DC060020DD060020600000208D
:103DB000BD250008780000201206130A1A43130CD0
:103DC0001A4300BF094205D0830707D00270401C88
:103DD000491EF9D1704700000022F3E713001039A3
:103DE00006D330B41400150010393CC0FCD230BCEE
:103DF000490700D30CC000D504C0890002D302805B
:103E0000801C002900D5027070470181124207D042
:103E10008B0706D00B78491C0370401C521EF7D844
:103E20007047830706D00B78491C0370401C521E54
:103E3000F9D1704770B4103A03D378C9103A78C0FA
:103E4000FBD2530701D318C918C001D508C908C04F
:103E5000D20704D30B880380891C801C002A01D55B
:103E60000B78037070BC7047F0B500241DE02A4841
:103E70000421614341580A060421614341580B0261
:103E8000FF21090419401143042262438258120A97
:103E9000FF231B0213400B43042161434158090EC9
:103EA0001943042262438150641C042CDFDB1A4D49
:103EB000EF682EE004262000310002F0A7FA002966
:103EC0001CD116483900090CC9B2415C09063A0AEE
:103ED000D2B2825C12044A403900C9B2415C090284
:103EE00051403A0E875C4F40201F310002F08EFA9D
:103EF000042148430A490858784007003900042043
:103F000060432818103807684F40042060432F5042
:103F1000641C2C2CCEDBF0BD1C1200209C1A010866
:103F2000981F0108F7B586B0FFF79EFF6846007E30
:103F3000000706D500215A48C160816041600160D8
:103F400097E0FF200002FF210904554A13681B0671
:103F5000146824020C401C4313681B0A03402343CB
:103F60001468240E1C43146053681B065468240212
:103F70000C401C4353681B0A034023435468240E1F
:103F80001C43546093681B06946824020C401C4335
:103F900093681B0A034023439468240E1C439460D7
:103FA000D3681B06D468240221401943D3681B0A36
:103FB00018400843D168090E0143D16059E0200E32
:103FC000079D28702000000C079D6870200A079D3F
:103FD000A8700798C470180E079C20711800000C78
:103FE000079C6071180A079CA0710798C371100E96
:103FF000079B18721000000C079B5872100A079B51
:1040000098720798C272080E079A10730800000C85
:10401000079A5073080A079A90730798C17314E0BF
:10402000079E775D260E7E40079F7E552402AE07D1
:10403000B60F032E02D11C0013000A006D1C85422E
:10404000EED31748C168491CC1606846007E0A214A
:104050000140022907D00798103007906846008C6D
:104060001038694608846846007E08210143684686
:1040700001766846008C00B2012800DA1FE368462A
:10408000007E400705D46846007E0A250540022DC3
:1040900008D10348046843688268C1684EE000BFE5
:1040A0001419002002206D462F7E05002F4200D1FA
:1040B000EDE26D462D8C112D00DBE8E2002421009D
:1040C000220023006D462D8C102D01D10120FFE729
:1040D0006D462D7E000128436D4628762EE02F0088
:1040E00004E06F463F8CB842F9D180273602B446CF
:1040F0003E0067463E438707BF0F032F03D11C00D6
:1041000013000A003100401C102806D26F463F8C75
:10411000B842E6D2079F3F5CE8E76846007E80072A
:104120000CD5CE48250004686C401D0043686B40E8
:10413000150082686A400D00C1686940C8480500E2
:10414000803504950568654044685C408368534049
:10415000C2684A401100426986690196C6690769CA
:1041600002970092F04A94462F00FFB20422574370
:104170006246D259009F7A400392019F0097F14A0C
:1041800094462F0AFFB2042257436246D259009F39
:104190007A400096F14EB4462F003F0CFFB2042641
:1041A00077436646F659009F7E40029F0097EC4F8A
:1041B000BC462F0E04256F436546ED59009F7D4098
:1041C0000092D94A94462700FFB204225743624620
:1041D000D259009F7A400192DA4A9446270AFFB2E8
:1041E000042257436246D2597240DC4EB44627003F
:1041F0003F0CFFB2042677436646F6596E40350001
:10420000039EB446D64E270E04246743F4596646EF
:104210007440C54EB4461F00FFB20426774366467D
:10422000F65956403200C74EB4461F0AFFB2042664
:1042300077436646F6596E403500C84EB4461F00B7
:104240003F0CFFB2042677436646F65966403400B9
:10425000019EB446C24E1F0E04235F43F3596646C7
:104260007340B14EB4460F00FFB204267743664652
:10427000F6596E40B34DAC460F0AFFB204256F43AA
:104280006546ED5965402C00B44DAC460F003F0C1F
:10429000FFB204256F436546ED595D40B04B090EF2
:1042A0000427794359585140426A836A0193C36A8B
:1042B000076A039700929C4A94463700FFB2042293
:1042C00057436246D259009F7A400292019F00975D
:1042D0009C4A9446370AFFB2042257436246D25999
:1042E000009F7A4000939D4B9C4637003F0CFFB2E5
:1042F00004235F436346DB59009F7B40039F009785
:10430000974FBC46370E042677436646F659009F02
:104310007E400092844A94462700FFB2042257430D
:104320006246D259009F7A400192864A9446270AF3
:10433000FFB2042257436246D2595A40874B9C46EB
:1043400027003F0CFFB204235F436346DB597340F1
:10435000029F834EB446260E042466436446A45945
:104360007C40714EB4462F00FFB204267743664668
:10437000F65956403200734EB4462F0AFFB2042657
:1043800077436646F6595E403300744EB4462F00BC
:104390003F0CFFB2042677436646F6596640340068
:1043A000019F6F4EB4462E0E04256E436546AE59EE
:1043B0007E405D4DAC460F00FFB204256F4365465D
:1043C000ED595D405F4B9C460F0AFFB204235F43EB
:1043D0006346DB5963401C00604B9C460F003F0C5A
:1043E000FFB204235F436346DB5973405C4E090E02
:1043F00004277943715851402030049A904200D2EA
:10440000A9E6466982690192C26907690297009626
:10441000454EB4462F00FFB2042677436646F65950
:10442000009F7E400396019F0097464EB4462F0A98
:10443000FFB2042677436646F659009F7E400092FD
:10444000464A94462F003F0CFFB20422574362466F
:10445000D259009F7A400492414A03E01419002087
:104460001C120020029FBC462F0E04256F43D55915
:1044700067467D4000962C4EB4462700FFB20426C6
:1044800077436646F659009F7E400196049E00964B
:104490002C4EB446270AFFB2042677436646F759E6
:1044A000009E774000952D4DAC462600360CF6B2A6
:1044B00004256E436546AD59009E7540039EB44683
:1044C000260E042466439659644666400097164CAF
:1044D000A4461F00FFB2042467436446E459009FCA
:1044E0007C400095174DAC461F0AFFB204256F4370
:1044F0006546ED59009F7D400096184EB4461F005A
:104500003F0CFFB2042677436646F659009F7E4073
:10451000019FBC461F0E04235F43D35967467B406F
:104520000095014D02E000BF44150108AC460F00A4
:10453000FFB204256F436546ED59009F7D4002950B
:10454000004D01E044110108AC460F0AFFB20425FA
:104550006F436546ED597540004E03E0440D010878
:1045600044090108B4460F003F0CFFB2042677430C
:104570006646F6595E400196090E04235943515888
:104580006140026A504E029B1B0EF35C1B065340B7
:104590002A00120CD2B2B25C12045A40019B1B0AD0
:1045A000DBB2F35C1B0253400A00D2B2B45C5C4045
:1045B000426A2B0EF35C1B065340019A120CD2B2D6
:1045C000B25C12045A400B0ADBB2F35C1F02574084
:1045D000029AD2B2B35C7B40826A019F3F0EF75DC4
:1045E0003F0657400A00120CD2B2B25C12047A4065
:1045F000029F3F0AFFB2F75D3F0257402A00D2B246
:10460000B25C7A40C06A090E715C090641400298AA
:10461000000CC0B2305C00044840290AC9B2715C89
:104620000D0245400198C0B2315C69406846007E89
:10463000800735D56846007E00118607B60F002E2C
:1046400028D0E00F6500DC0F2C435D00D30F2B4317
:104650005500CA0F2A434900002802D008008721CC
:104660004140761E002EECD1184805686540056073
:1046700045685D404560856855408560C5684D402A
:10468000C5606846007ECF25054068460576002552
:10469000280039E50D48046043608260C160D4E4BD
:1046A0006846007E400700D489E46846008C1128E3
:1046B00001DB102001E06846008C0025BFE40348C0
:1046C000006809B0F0BD00009C1A01081419002010
:1046D00010B40020A64902003C23CA5410223D23F6
:1046E000CA5403223E23CA5401223F23CA5407233B
:1046F00049240B554A23CA54C8640F225323CA5471
:1047000002005423CA5402004823CA54F122520022
:10471000885410BC704770B50026340019E0944DE1
:104720003000042161436918FF22A63288544A20D0
:10473000285CFEF7F9FF042161436918D322520077
:1047400088543000042161436918FF22A83288543C
:10475000641C0F2CE3DB70BD38B500249C4A012596
:10476000157002230821002002F091FE002800D1DC
:104770002C002000C0B232BD10B57D4C0223FF20BA
:10478000E23022180821002002F02CFEC0B20028DE
:1047900005D00020F12149006054002000E00120F4
:1047A00010BD7FB504000E006D46CD202873282073
:1047B00068730C21684602F0ECFF3620A873B52020
:1047C000E873002004E0215C2A5C4A402254401C2B
:1047D000B042F8DB7FBD10B5654C102120001830C9
:1047E000FFF7DFFF102120002830FFF7DAFF082154
:1047F0002000FFF7D6FF102120000830FFF7D1FF7F
:10480000082120005530FFF7CCFF10BDF8B5002679
:1048100034000822564D290040312F00553738000A
:10482000FFF7F4FAFFF7D7FF062050216854602302
:104830002A000121022002F02AFE002800D10124D2
:1048400003F054F900280AD060232A000221022034
:1048500002F01DFE002801D1012400E03400FFF722
:10486000BAFF2000C0B2F2BDF8B50500404C60238D
:1048700022002900C9B2022002F0B4FD0600502037
:10488000205C002801D0FFF7A6FF5020205C032801
:1048900002DA0F20532160545020205C042802DAF1
:1048A000002054216054F6B2002E1DD0582322005F
:1048B0002900C9B2022002F095FD0600FFF78BFF28
:1048C0003000C0B200280FD0F6B2082E0CD0EDB2E6
:1048D000012D05D10220FFF7C7FFFFF71CFF01E004
:1048E000FFF7F6FE002042E04A20205C002803D1BA
:1048F000914800784A2160545020205C06281BDB38
:104900002800C0B2012817D1012000210A0009E0C7
:10491000A31840269B5DA6185527F65DB34200D02C
:104920000800521C082AF3DBC0B2002804D1022080
:10493000FFF79AFFFFF7EFFE5020205C052810DB01
:10494000EDB2012D07D1FFF717FFF1204000205CE9
:10495000482160540AE04820205CF121490060545D
:1049600004E04820205CF121490060540120F2BDA0
:10497000080C002038B500248D4A012515703D2310
:104980000321022002F083FD002800D12C0020002A
:10499000C0B232BD80B501003D23854AC9B20220B4
:1049A00002F020FDC0B2002803D0FFF7B4FE0020C3
:1049B00000E0012002BD00B5B0480178042904D010
:1049C0000078052801D0012000E0002000BD000093
:1049D000E90D002038B505003B4C3F202554FFF77A
:1049E000EAFF00280ED0EDB2002D03D1802003F0A5
:1049F00079F907E09E204000205C002802D1802049
:104A000003F07DF931BD00B5AE480078002801D033
:104A1000012000E00020C0B200BD80B5FFF7F3FF29
:104A2000002802D0802003F06AF901BD00B5C0B2B1
:104A300000280AD0C9B2002903D00220B949087061
:104A40000DE00120B749087009E0C9B2002903D080
:104A50000320B449087002E00020B24908701A48E7
:104A60004821415CF1225200815400BD80B5C9B299
:104A7000C0B2FFF7DBFFFFF76FFE03F037F8002847
:104A800001D0FFF7C3FE01BD10B504000E48482158
:104A9000415C802902D10020207014E04821405C54
:104AA00020702078012802D0207802280BD100F055
:104AB000A0FA60609C4800782072FBF762FE60728A
:104AC000FEF7EEFEA07210BD080C002000B5954860
:104AD00000780100C9B2002902D0C0B2032801D178
:104AE000002000E0012000BD10B50400B9480470AA
:104AF0002000C007C00FFEF71DFC04202040C0B2FC
:104B00008008C0B2002803D00220FEF763FD02E057
:104B10000120FEF75FFD10202040C0B20009C0B2A6
:104B200003F092F8202004402000C0B24009C0B237
:104B3000FFF7AAF810BD00000A3E000838B5A64CE1
:104B40003C20205C3D21655C0100C9B2082904DAE3
:104B5000290049B2C0B2FEF7F9FB280040B2FBF7CA
:104B60008BFE3E20205C800703D50120FBF7B6FEBC
:104B700002E00020FBF7B2FE5320205CFFF770F844
:104B800031BD30B50221002200E0521C13000C00A0
:104B9000DBB2E4B2A34209D20300BD4C1500EDB272
:104BA000645DDBB2A342F0D1012000E0002030BD03
:104BB000AC0D002038B50500874C9E204000201821
:104BC0000178052901D1082057E00178002902D099
:104BD0000078042850D16879FFF7D3FF002801D16D
:104BE00009204AE04A20205C6979884207D0297868
:104BF0006879FEF7F3FD002808D107203DE028780A
:104C0000FEF7BAFD002801D1072036E06879FEF7EB
:104C10008BFD6978C0B2884201D20A202DE0287845
:104C20003C21605468783D216054A878FFF75CFF10
:104C3000E878FFF7CFFE2879FF2801D1FE20287100
:104C40002879492160542879FEF7FAFD4A20205C32
:104C50006979884207D068794A2160546879FEF7FB
:104C600040FF00F053FBA87953216054FFF766FF23
:104C7000FFF7CCFD012000E0002032BD440D0020F4
:104C800038B50400544D3C20285C20703D20285C41
:104C900060703E20285CA070FFF7B5FEE0704920F0
:104CA000285C20714A20285C60715320285CA07128
:104CB00031BD00B547480078000601D5012000E06D
:104CC000002000BD470C002070B5022489B22200EC
:104CD000D2B202235A43914222DB0025060014E09F
:104CE0006B482900C9B2415C2A00D2B202235A4360
:104CF000B1542900C9B2405CFEF716FD2900C9B2C3
:104D000002225143711848706D1C28002100C0B266
:104D1000C9B28842E4D3022044432000C0B200E07C
:104D2000002070BD500C002010020020F8B50700D4
:104D30000C001600284D9E20400028180090009876
:104D40000078052801D1082043E0FEF7FBFD00288C
:104D50003ED000980078002803D0009800780428FE
:104D600034D1FEF7EFFD3900C9B2814201D30B20E7
:104D70002FE00120FEF7D8FC3100C9B2884201D2F1
:104D80000A2026E02000C0B2022800DB0124320005
:104D9000D2B22100C9B23800C0B2FEF797FD012897
:104DA00012D13800C0B2042148432818FF21A6318F
:104DB0004454FFB204204743E819D3214900465424
:104DC000FFF7D8FD012004E0FF2002E0002000E012
:104DD0000920F2BD460C0020080C002070B506002A
:104DE0000C00FEF7AFFD05002800C0B2002829D056
:104DF000A4B22800C0B203214843844222DB00242D
:104E000015E02000C0B20321484334542000C0B252
:104E1000032148433018821C2000C0B203214843BC
:104E20003018411C2000C0B2FEF79CFD641C20001D
:104E30002900C0B2C9B28842E3D303204543280009
:104E4000C0B200E0002070BD38B50400B14D9E2016
:104E5000400028180178052901D1082014E00178C4
:104E6000002902D0007804280DD12000C0B2FEF73E
:104E700000FF002805D054202C54FFF7C7FC012068
:104E800002E0042000E0002032BDB4480078704702
:104E90000A3E000880B5B2490A78052A01D10820E7
:104EA0000BE00A78002A02D00978042904D1C0B2A4
:104EB000FEF7EFFE012000E0002002BD00B5A9488A
:104EC0000078400601D5012000E0002000BD80B53B
:104ED00090499E2252008A181378052B01D1082090
:104EE00010E01378002B02D01278042A09D1006850
:104EF000C864C86C40B2FEF7D0FBFFF787FC012006
:104F000000E0002002BD8349C96C0160704710B504
:104F1000040008227F492000FEF778FF10BD10B57D
:104F2000010008227B4C2000FEF770FF10BD10B579
:104F300004000822A9492000FEF768FF10BD10B543
:104F400001000822A54C2000FEF760FFFFF75EFC81
:104F500010BD10B504001022B9492000FEF756FF1D
:104F600010BD10B501001022B54C2000FEF74EFF19
:104F700010BD10B50C007A490978052901D100202F
:104F800007E0FFF7CCFF2000FFF7EBFFFFF73EFC49
:104F9000012010BD10B50C00FFF7B9FF2000FFF78E
:104FA000D8FF10BDC0483821425C3921415C09025C
:104FB000114389B23A22825C3B23C05C0002104359
:104FC000000408437047534902003823CA540200C2
:104FD00092B2120A3923CA540200120C3A23CA545C
:104FE0000200120C92B2120A3B23CA54B84908605C
:104FF0007047B74800687047F8B50C0010252A00C4
:105000000100A94E370018373800FEF7FFFE2A00CE
:105010002100340028342000FEF7F8FEF1BD38B539
:1050200004000D001000FFF7CEFF29002000FFF75D
:10503000E3FF31BDF8B50D00102422009A4E310077
:10504000183107003800FEF7E1FE22003100283158
:105050002800FEF7DBFEF1BD0320704700B501001C
:10506000C9B203290DDA9049C0B22C225043081866
:105070006021405C002801D0012000E00020C0B287
:1050800000E0002000BD10B50100C9B2032923DAF9
:1050900085490200D2B22C235A438A188123D25C5C
:1050A0000300DBB22C246343CB1882241B5D1B025C
:1050B00013439BB20200D2B22C2462438A18832489
:1050C000125DC0B22C24604308188421405C0002A9
:1050D00010430004184300E0002010BD00B502009A
:1050E000D2B2032A06DA704AC0B22C2358431018F1
:1050F0008822815000BD00B50100C9B2032907DA3A
:105100006949C0B22C22504308188821405800E059
:10511000002000BD080C0020F8B505002800C0B232
:10512000032819DA0092102422005F4E2800C0B232
:105130002C235843301861300F0001003800FEF76F
:1051400065FE2200EDB22C2045437019010071313B
:10515000009C2000FEF75AFEF1BD00005C0C002010
:10516000440D0020460C002038B504000D00FFF768
:1051700022FC002801D108202FE0FFF7A7FC00281F
:1051800001D1032029E0B9480078002824D1002C5F
:1051900022D42800C0B202280ED1FEF74FFA04989C
:1051A0000599C0B200280FD10091002300220121EF
:1051B000200000F012FA10E0EDB20D2D02D1FEF742
:1051C00045FAECE7042008E00091002300220121C9
:1051D000200000F0E7F900E0002032BD480C00207C
:1051E00070B5002425000EE00820684330188A219D
:1051F000490041180868406A002803D00020096867
:10520000496A88476D1C284E88204000305C8542E2
:10521000EAD302F06BFC00280CD13C20305CFEF796
:10522000ABFA002803D13C203454FFF787FCFEF78B
:105230008DF904E09E2040003454FFF7EEFB70BD72
:10524000100C002080B5A64802F08FFEFFF73EFC50
:10525000002802D0FFF7C4FF01E0FDF72DFD01BDDE
:1052600080B5A04802F081FEFEF732FD01BD10B509
:105270008C2149000022C84C2000FEF79DFDFFF75D
:1052800091FE094C2300283322001832010000202F
:10529000FEF768F9FFF752FC00226421B6204000B7
:1052A000201802F04BFE10BD080C002080B5FFF75F
:1052B00082FB002801D1002009E08020B749087056
:1052C00000210120FFF7D2FBFFF7D1FF012002BD33
:1052D0003403002070B504000D001600FFF76BFBCF
:1052E000002801D1002010E0320029002000802396
:1052F000AA4C2370FFF793FE00210120FFF7B6FBB5
:10530000FFF784FAFFF7B3FF012070BD70B5FFF718
:1053100052FB002801D100201DE0A14CC420400018
:10532000201802F022FE8C21490000252A009A4E06
:105330003000FEF741FD9E20400025540021002052
:10534000FFF774FB00F077FA00210020FFF78EFBD7
:10535000FFF763FB012070BDF8B504001500904E07
:1053600001272000C0B22C225043301860228754FD
:105370001F002000C0B22C225043301881228754D5
:1053800018000700BFB23F0A2000C0B22C225043D1
:105390003018822287541F003F0C2000C0B22C22FC
:1053A00050433018832287541800000C80B2000A42
:1053B0002200D2B22C235A43B2188423D05410278F
:1053C0003A002000C0B22C235843301861300090BE
:1053D0000098FEF71BFD00983A0029002000C0B29B
:1053E0002C2358433018050071352800FEF70EFDB8
:1053F0000020C043E4B22C214C433119882288504C
:10540000F1BDF8B504000F0015001E00FFF7D3FA38
:10541000002801D1002010E020000100C9B20329BA
:1054200001DB002009E033002A00390080245B4DB5
:105430002C70C0B2FFF790FF0120F2BD10B5040040
:10544000FFF7B9FA002801D100200EE02000C0B219
:10545000032801DB002008E000205149E4B22C229F
:105460005443091960228854012010BD440D0020C6
:1054700038B50500FFF79FFA002801D108202EE07B
:10548000474CFF201230201801784906490E017060
:105490009E21490061180A78002A1FD1002D1DD4D1
:1054A00001220A702900017000210020FFF7BEFAD6
:1054B00000F0C1F9802D04D001210020FFF7D6FAB9
:1054C00003E001210020FFF7B1FA00226421B62099
:1054D0004000201802F032FD012000E0002032BD23
:1054E000740D0020900D0020F3B581B017001E0050
:1054F000002509980560FFF7E9FA002801D103208B
:1055000049E09B4C2078032801D1280020702078A6
:1055100000283FD1FEF7D0F80021C943884203D1CB
:1055200001202070002036E00121C943884202D1C9
:10553000257007202FE0012803DB09990860062069
:1055400029E0089A310038006B461B7ADBB2D2B2F0
:10555000C0B2FDF7B3FF00280CD12078032802D198
:105560002570052017E00198012121700B49087072
:10557000012010E00021C943884203D1012020709E
:10558000002008E00121C943884201D1022002E045
:10559000032000E00020FEBD3C0F0020190D00207C
:1055A000080C0020FEB504000F0015001E00FFF7D8
:1055B00002FA002801D108200EE0200000280AD4B9
:1055C00008992B003A000191F6B20096D2B201215F
:1055D000FFF78AFF00E00020FEBDFEB504000F00CB
:1055E00015001E00FFF7E7F9002801D108200EE0A2
:1055F000200000280AD408992B003A000191F6B245
:105600000096D2B20021FFF76FFF00E00020FEBD40
:10561000F8B57F4EB8208000305C800603D50120AD
:105620007C49087002E000207A4908707A483018F6
:105630000178090603D50121784A117002E00021A2
:10564000764A11700078C00607D57548305C30186E
:105650007449405C7449087002E0FF207249087088
:10566000704834182078002811D022786C48305CBB
:105670003018C22189004118A04D2F001037380082
:10568000FEF7C4FB2078FF211031685402E00020AF
:10569000A6490870A648305C002801D0012000E02F
:1056A0000020964CFF21143160548A20C000351828
:1056B000287800280FD02878102809DA2A78AD48F1
:1056C000311826003000FEF7A1FB2878E07304E0D3
:1056D0000020E07301E00020E073FDF726FB8A2143
:1056E00049006050F1BD70B5A34C494DD120400038
:1056F000285C2070FFF7EAF9002804D0FF20BC30B6
:10570000285C002805D1C1208000285C401CA070C6
:1057100003E0C1208000285CA070D8204000285CF5
:105720006070E01C00210A000270944AAA1812233B
:10573000EB56002696579B1B9B1E012B06DB122364
:10574000EB56002692579A1A921E02708C482858DF
:105750006060217270BD0020874902000A7002005B
:105760008A7002004A700200CA704860087270476E
:10577000440D002030B52649274A8A181378DB07E4
:1057800009D5804A7C4B1B7813707F4BCB5C5370E0
:105790000123137111E0022314781D002C420CD058
:1057A000784C80252570794D4D5D6570241D2370E2
:1057B0001278120701D503222270724A0B7B937074
:1057C000497BD170C0B200281DD012480078002853
:1057D0000CD01079012804D16D480168491C016082
:1057E00015E06C480168491C016010E0107901283F
:1057F00004D169480168491C016008E067480168F4
:10580000491C016003E066480168491C016030BD25
:10581000600000204E100020050300004D10002005
:1058200006030000070300004C10002080B5802014
:1058300002F058FA01BD70B55A4D4A20285CFFF7B6
:10584000A0F9002806D1584800784A216854002061
:10585000482168544A20285CFEF743F9FDF784FD8F
:105860005248FDF7E7FF3E20285CFFF73DF949204D
:10587000285CFDF7E5FF0020FDF7EEFEE86C40B286
:10588000FDF70BFF5420285CFEF7F3F9FEF75AF8FA
:105890000600012E14DB002410E0042060432818C9
:1058A000D3214900425C042060432818FF21A6311F
:1058B000415C2000C0B2FEF709F8641CB442ECDB86
:1058C000FFF73CF9FFF777F8002815D04820285C4F
:1058D000012802D1FFF7CBFC0EE04820285C02280B
:1058E00007D04820285C032803D04820285C802863
:1058F00002D18020FFF7BCFD70BD00003C0F0020EE
:1059000010B50020CF4908700220FEF7ADFF04005B
:10591000FEF77CFFFEF720FFFEF7FDFEFFF72AF8FB
:1059200000F092F92000C0B210BD00004B10002022
:105930004404000010B51B49882252008A181378CD
:10594000052B14DA137808246343CB188A246400E7
:10595000185110780823584308188C2149001378EF
:10596000435410780100491C1170C0B201E00020BE
:10597000C04310BD51040000741900206E060000E1
:10598000740600009819002036040000EA020000A6
:10599000580D0020640D0020540D0020600D0020E3
:1059A000700D0020080C00200A3E00082D58000849
:1059B00030B50200002089B22C2900DA3FE1DE492F
:1059C000A0235B00CB181C680500EDB254551C6881
:1059D000A4B2240A0500EDB255196C701C68240CA1
:1059E0000500EDB25519AC701B681B0C9BB21B0A6D
:1059F0000400E4B21419E370001DA2235B00CB186D
:105A00001C680500EDB254551C68A4B2240A0500B8
:105A1000EDB255196C701C68240C0500EDB25519D7
:105A2000AC701B681B0C9BB21B0A0400E4B2141977
:105A3000E370001DA4235B00CB181C680500EDB2C9
:105A400054551C68A4B2240A0500EDB255196C70B7
:105A50001C68240C0500EDB25519AC701B681B0CBA
:105A60009BB21B0A0400E4B21419E370001DA623C4
:105A70005B00CB181C680500EDB254551C68A4B23D
:105A8000240A0500EDB255196C701C68240C050041
:105A9000EDB25519AC701B681B0C9BB21B0A0400BD
:105AA000E4B21419E370001DA8235B00CB181C6836
:105AB0000500EDB254551C68A4B2240A0500EDB2ED
:105AC00055196C701C68240C0500EDB25519AC70AA
:105AD0001B681B0C9BB21B0A0400E4B21419E37090
