:020000040800F2
:10000000C01E00200D0B01087D0D0108810D0108A7
:10001000850D0108890D01088D0D01080000000003
:10002000000000000000000000000000910D010829
:10003000950D010800000000990D0108F1AF0008BE
:100040007D9D0008FF680008A90D0108375F0008C2
:10005000B10D01087FAB00084D88000867880008D3
:10006000818800089B880008B5880008CD0D01082C
:10007000D10D0108D50D0108D90D0108DD0D0108CC
:10008000E10D0108E50D0108E90D0108ED0D01087C
:10009000F10D0108F50D0108F90D0108CF880008E0
:1000A000010E0108875600086FAA0008CFB20008A9
:1000B000F3AA0008150E0108190E01081D0E01080B
:1000C000210E0108250E0108290E01082D0E010838
:1000D000310E010899AD0008390E01083D0E0108E6
:1000E0007B890008755F0008490E01084D0E010864
:1000F000510E010810F007007047C0F3C100C0B2F4
:100100007047C0F34110C0B270474FF69F72104065
:10011000C9B250EA411080B2704780B2C0F3C0103B
:1001200070474FF67F72104050EAC11080B270479E
:1001300080B2000A80B2704780B5401CC0B200F0A7
:1001400071F980B202BD80B5C0B2FFF7F5FF0121A1
:1001500080B2FFF7E6FF02BD80B5401CC0B200F0E0
:1001600061F9FF2801D0012000E00020C0B202BDEB
:1001700010B50C0002E0C0B200F0CBF921004C1E1B
:10018000C9B20029F7D1C0B210BD01000878497882
:1001900050EA012080B27047010008784A7850EA9E
:1001A00002208A7850EA0240C97850EA016070471C
:1001B0000100C8788A7850EA02204A7850EA024062
:1001C000097850EA01607047017089B2090A4170EC
:1001D000704701700A00120A42700A00120C827005
:1001E000090EC1707047C1700A00120A82700A00BD
:1001F000120C4270090E017070472DE9F84305009A
:100200000E0014001F0010210022DFF8188CC146D8
:10021000484602F0D1FD492088F80000002C01D0AA
:10022000012000E0002088F8050088F80F70290000
:1002300018F10600FFF7CDFF310018F10A00FFF7B3
:10024000C8FFBDE8F183F8B50600080011001A00E8
:10025000069C079D2B00FFF7D0FF1022DFF8C87B1C
:100260003100380002F0DCFD2800020092B22100CB
:10027000022002F07CFE060004EB0500FFF798FF69
:10028000864201D1012000E00020C0B2F2BDF8B5E5
:100290000600080011001A00069C079D2B00FFF7BE
:1002A000ACFF1022DFF8807B3100380002F0B8FD8F
:1002B0002800020092B22100022002F058FE010044
:1002C00004EB0500FFF78FFFF1BD38B504000D000A
:1002D000DFF8540B04F0C2FB2800020092B22100A8
:1002E0000A2002F044FE010004EB0500FFF77BFF4B
:1002F00031BD70B504000D00DFF82C0B04F0AEFB2F
:100300002800020092B221000A2002F030FE06000E
:1003100004EB0500FFF74CFF864201D1012000E00D
:100320000020C0B270BD38B504000D00DFF8F80A37
:1003300004F094FB2A0092B22100002002F017FE84
:1003400031BD2DE9F04707000D0016001C00DDF857
:100350002480B8F1010F2DDB10210022DFF8C49AB0
:10036000CA46504602F028FD012089F80F0099F88E
:100370000F0089F80000002C01D0012000E00020CF
:10038000089C290089F8050019F10600FFF721FFF4
:10039000310019F10A00FFF71CFF1022DFF8885A1C
:1003A0003900280002F03CFD424692B221000420B0
:1003B00002F0DDFDBDE8F0872DE9F04106000F00F9
:1003C00014001D0010210022A046404602F0F4FC5B
:1003D00001202070062214F101083900404602F085
:1003E0001FFD310089B2E01DFFF7EEFE1022210053
:1003F0002E00300002F014FD02202870DFF8286A79
:10040000300004F02BFB10222100002002F0AFFD91
:10041000300004F023FB10222900002002F0A7FD89
:10042000BDE8F081DFF8041AC0B2085C7047DFF85D
:10043000000A90F83805012801D1012000E00020D1
:10044000704770B402000020002311E0012519005C
:10045000C9B232F8116015FA04F10E40A540AE425F
:1004600000D1401C641C2100C9B21029EEDB5B1CCA
:100470001900C9B2042901DA0024F4E7C0B270BC43
:10048000704780B50100C9B2002901D101201BE0ED
:10049000C0B2042807D1DFF89C09FFF7D2FF042877
:1004A00001DA012010E0DFF88819888C002808D1D3
:1004B000C88C002805D1088D002802D1488D00285D
:1004C00001D0002000E0012002BD38B504000D007D
:1004D0002888002808D16888002805D1A888002825
:1004E00002D1E88800280AD02000C0B2042806DA29
:1004F0002800FFF7A6FF042801DB012008E0288977
:10050000002804D0E4B2042C01D1012000E0002036
:1005100032BD10B50400DFF814092100C9B2405CF7
:10052000FF2802D12000C0B20AE02000C0B2FFF7CD
:10053000A8FF002802D1601EC0B201E02000C0B2B6
:1005400010BD2DE9F04705000F00280080B2FFF72D
:10055000D4FD0400280080B2FFF7CCFD0600300077
:10056000C0B2002809D1FFB20B375FF480204743A7
:100570004CF2503097FBF0F05BE0B01DC0B25FEA88
:1005800080083000C0B2052802DB5FF0080901E0F6
:100590005FF00009B8EB0909280080B2FFF7BDFD44
:1005A000002802D05FF0000A01E05FF0100A280086
:1005B00080B2FFF7BDFD002801D0142000E000202C
:1005C000FFB25FFA88F8D8EBC7081AEB080818F1F1
:1005D0001C08B8EB0008B8F1010F11DB4846C0B2A7
:1005E00010EB0808B8F101085FFA89F998FBF9F7F0
:1005F000280080B2FFF785FD401D4743083700E023
:100600000827BF003137761C341B43F60951200000
:10061000C0B2052802DB201F0141042417FA04F4AC
:100620004FF40042022091FBF0F002FB040494FB23
:10063000F1F0BDE8F08738B5040004F0A1FD050035
:10064000EDB204F09DFD020052EA0522110089B2CC
:1006500048F20100814207DB100080B24FF40043F2
:1006600090FBF3F103FB11012000C0B200280AD077
:10067000D2B2E4B292FBF4F004FB10244FF4004039
:1006800000FB04142100080032BD0818DFF8A01791
:10069000C8677047DFF8980780F888107047100027
:1006A00040B210F1800F02D0DFF884078274DFF8C7
:1006B000800790F888200B00DBB29A4207D080F8C0
:1006C0008810B0F8841051F40061A0F884107FF015
:1006D0003F0180F8B9117047DFF8540790F9120014
:1006E00070477FB5684600210022002380E80E0095
:1006F000002413E0DFF83807204480F832100800A7
:10070000C0B2001132F81030012511F00F00854001
:100710002B43C9B2091122F81130641C402C39DA7C
:1007200004F02EFD010011F03F016A460800C0B23E
:10073000001132F8100011F00F0380B2D840C0074A
:10074000D8D500231800C0B20028E6D1491C11F00A
:100750003F010800C0B2001132F8100011F00F057F
:1007600080B2E840C007EDD4DFF8C406204480F82A
:1007700032100800C0B2001132F81030012511F01B
:100780000F0085402B430800C0B2001122F8103042
:100790000123D7E700240AE0DFF89406204480F81C
:1007A0007210188912FA01F101431981641C082C96
:1007B00024DA04F0E5FC010011F0070101226B4688
:1007C000188912FA01F52842E6D000252800C0B2A7
:1007D0000028EBD1491C11F00701188912FA01F623
:1007E0003042F3D1DFF84806204480F872101D89AA
:1007F00012FA01F005431D810125E7E77FBD10B521
:10080000DFF82C4694F8311094F8300002F0DDF94E
:10081000082084F8C201DFF8780CC4F8C401002075
:1008200084F80D03002084F814031E2002F01DFA42
:100830000A2020750320607510BD80B5401EFFF7AB
:10084000ABFC000A64214843DFF8481C411ADFF87A
:10085000482C914200D3002002BD10B40300DBB24B
:10086000002B01D1118032E00300DBB2102B01D14B
:1008700051802CE00300DBB2202B01D1918026E0D7
:100880000300DBB2302B01D1D18020E00300DBB2CA
:10089000402B01D111811AE00300DBB2602B03D0A1
:1008A0000300DBB2702B12D1C0B2602802D14FF628
:1008B000FF7000E00020002304E01C00E4B222F8F6
:1008C00014005B1C1C00E4B2042CF6DB118110BC8C
:1008D000704738B504000A00208800280DD16088D0
:1008E00000280AD1A088002807D1E088002804D178
:1008F0002089002801D1002010E021001000C0B2A2
:10090000FFF7E3FD002801D1022007E00A22DFF80B
:1009100024552100280002F083FA012032BD70B571
:100920000500DFF80C4594F8DF11E089FFF709FEB8
:1009300006004FF47A7080FB06014FF4004200235A
:1009400004F09AFCC4F84C0594F87A100800C0B280
:10095000402808DAC9B2DFF8442BDFF8440B02FB69
:100960000101A16014E00800C0B2482807DAC9B24A
:10097000DFF8302BDFF8300B02FB0101A16094F8A7
:100980007B00002804D094F97B0086407519E56748
:1009900070BD70B50400DFF89854E88D002804D1CC
:1009A00004F0EEFB10F03F00E88595F8880004287D
:1009B0001CDBA88D002100E0491C0A00D2B2082AE5
:1009C00035DAEA8D521CEA8595F82E2012F00702DE
:1009D0002A4492F87220012393400600F6B21E4288
:1009E000EAD0403285F87A20200024E0002000E0A0
:1009F000401C0100C9B2402919DAE98D491CE9857A
:100A000095F82E1011F03F01294491F832100A0098
:100A1000D2B2121105EB4202928C11F00F0392B286
:100A2000DA40D207E4D585F87A10200003E0DFF839
:100A30007C0A0419200070BD10B5DFF8744A00204C
:100A4000E085142084F88700B4F88400000501D5FF
:100A500004F013FE04F0A2FE206000210020FFF746
:100A600019FE04F09BFE0021FFF793FF002002F027
:100A700074F8002808D104210020FFF70BFE04F0D1
:100A80008DFE0021FFF785FF10BD70B50025DFF852
:100A9000204A94F88800042804D0042002F05DF86D
:100AA000002804D1002002F058F8002809D10421C0
:100AB0000020FFF7EFFD04F071FE0021FFF769FF52
:100AC0000FE0002002F049F8002809D000210020A2
:100AD000FFF7E0FD04F062FE0021FFF75AFF00E09F
:100AE0000125B4F884104FF2FF700140A4F884107F
:100AF00004F054FE0600102094F988100841C0B29A
:100B0000FFF799FD8619266094F8DC01411C84F8F2
:100B1000DC11C0B20B2800D10125EDB2280070BD58
:100B200080B501F0A3FD01BD80B5C0B204F0EEF8C0
:100B300001F09CFD01BD80B5DFF874090021C0F80B
:100B4000B411D0F8B411C0F8B011002180F88A10A7
:100B5000002180F81C13002180F8BD1180F8BC1121
:100B600080F8BA1180F8B811002180F8C01180F81F
:100B7000C11180F8C81180F8BF11002180F820133E
:100B800090F8201380F81E13002180F8CB1100216B
:100B900080F886107FF03F0180F8B911012180F8BC
:100BA000381590F9122090F81F130020FFF777FDF9
:100BB00001BDDFF8FC180A7D0300DBB29A420DD3B9
:100BC000400010F01E00D0F11E0040B291F9461511
:100BD000401A801E002801D4012000E00020704748
:100BE000DFF8CC18497DC0B2814201D3012000E07A
:100BF000002070472DE9F0410C0015001E008727EA
:100C00002100C9B2FFF765FE0100C9B2002902D177
:100C100017F0FE0704E0C0B2022801D117F0FD076B
:100C20003800C0B210F07F0007282CD1DFF8808890
:100C300088F886602800C0B20F280BD06A0012F036
:100C40001E02D2F11E0252B22100C9B20420FFF7E7
:100C500026FD06E07FF07F022100C9B20420FFF7E5
:100C60001EFD2800C0B20F280DD06D0015F01E0526
:100C7000D5F11E0588F8125098F91200152802DBEC
:100C8000142088F812003800C0B2BDE8F0812DE9C8
:100C9000F0470700884691461C000020DFF81058F6
:100CA00095F8BE01802824D18726BA465FFA8AFAD1
:100CB0005FEA1A1A5046C0B2FFF74EFA002802D176
:100CC00016F0FD0636E017F00F073800C0B2FFF748
:100CD00070FF002802D116F0FB062BE04B46DBB27A
:100CE0003A00D2B25146C9B24046FFF783FF060030
:100CF00020E0802695F85405002803D002280FD064
:100D000001D317E016E0FFB2FF2F08D14B46DBB24C
:100D10000F2295F888104046FFF76CFF060009E0A7
:100D20004B46DBB20F2295F888104046FFF762FF72
:100D30000600FFE7002017E0032195F838232A4436
:100D400082F8391395F83813491C85F8381316F0D2
:100D5000070195F838232A4482F8391395F8381397
:100D6000491C85F83813401C01002200C9B2D2B2D8
:100D70009142E1D3BDE8F0872DE9F843DFF8602C1C
:100D8000101806004FF47A740025DFF8247789469E
:100D90007A683868121AD317A4FB020104FB031106
:100DA00005FB02114FF40042002304F065FA80466F
:100DB00097F8DF11F889FFF7C4FBC11702000B0099
:100DC000A4FB020104FB031105FB02114FF40042D6
:100DD000002304F051FAB8EB000010EB09094FF4BE
:100DE0007A71B9EB0900B9FBF1F201FB02004FF493
:100DF0007A72B0FBF2F086193000B9FBF1F201FB18
:100E00001299B9F5FA7F00D3401C04F065FFD7F8BA
:100E10002403002802D0D7F824038047BDE8F183DB
:100E200000000000AC150020F8100020E40C0108C0
:100E300060000020840000202DE9F84F84B0DFF826
:100E4000705695F8E521C2F3401212F00102002A13
:100E500004D195F89320012A00F00282002285F83F
:100E60003823002600228DF8012000228DF8002072
:100E700001AA00230024002782E89800002780466A
:100E8000894600E0FF1C4F4580F2DD813000C0B292
:100E900000280DD018F80700032809D03300DBB272
:100EA0009DF8002001A99DF80100FFF7F0FE002643
:100EB00018F80700022815D0032818D0042800F0DD
:100EC000F680052867D0062836D0072800F00E8166
:100ED000082800F031810A2800F05B810D2800F01D
:100EE0008E81AEE1F81C8145CCDA4F46CBE7781D08
:100EF000814501DA4F46C6E7761C08EB07004078CB
:100F00008DF8010008EB0700801CFFF73EF908EBA5
:100F100007010B7913F0F00308EB0701097911F0D1
:100F20000F018DF800107F1D01AA010089B2180081
:100F3000C0B2FFF792FCA6E7781C814501DA4F4664
:100F4000A1E7012085F8BD01062095F83813294452
:100F500081F8390395F83803401C85F8380395F873
:100F6000550595F83813294481F8390395F8380365
:100F7000401C85F8380395F8BB0110F03F0095F848
:100F80003813294481F8390395F83803401C85F853
:100F900038037F1C77E7781D814501DA4F4672E7F9
:100FA00008EB070090F801A01AF00F0A08EB070001
:100FB0004078C0F3021B08EB0700801CFFF73DFCE4
:100FC00004007F1D802085F8C8015046C0B2FFF79D
:100FD000C3F8002806D095F8C80150F0020085F843
:100FE000C80105E095F8C80110F0FD0085F8C801BA
:100FF0005846C0B2FFF7F4FD002806D095F8C801A6
:1010000050F0040085F8C80105E095F8C80110F01B
:10101000FB0085F8C801002C06D095F8C80150F0F7
:10102000010085F8C80105E095F8C80110F0FE0040
:1010300085F8C80195F8C801872805D185F80DB352
:1010400085F8C2A1C5F8C441052095F83813294494
:1010500081F8390395F83803401C85F8380395F872
:10106000C80110F0070095F83813294481F83903B6
:1010700095F83803401C85F83803052095F8381496
:10108000294481F8390495F83804401C85F838045F
:1010900095F8C80110F0070095F83814294481F834
:1010A000390495F83804401C85F83804EBE6B81C80
:1010B000814501DA4F46E6E608EB07004078BF1CA1
:1010C00010F00F0085F87B0004F068FBE867012052
:1010D00085F8C001042095F83813294481F83903B4
:1010E00095F83803401C85F83803CCE6B81D8145D7
:1010F00001DA4F46C7E695F8C10110F0FE0085F809
:10110000C101BF1D072095F83813294481F8390320
:1011100095F83803401C85F8380395F8C10110F0A4
:10112000030095F83813294481F8390395F83803FA
:10113000401C85F83803A6E6B81C814501DA4F4605
:10114000A1E608EB0700407810F00F000100C9B2DB
:10115000002900D10120401E85F81403012085F8E4
:101160001E03BF1C082095F83813294481F8390361
:1011700095F83803401C85F83803082095F8381492
:10118000294481F8390495F83804401C85F838045E
:1011900079E6781D814501DA4F4674E6FC207F1D13
:1011A0000A2195F838232A4482F8391395F8381320
:1011B000491C85F8381310F0030195F838232A44A8
:1011C00082F8391395F83813491C85F838130A2129
:1011D00095F838242A4482F8391495F83814491CB3
:1011E00085F8381410F0030095F83814294481F874
:1011F000390495F83804401C85F8380443E6B81DD6
:10120000814501DA4F463EE608EB0700407808EBDF
:101210000701897850EA012008EB0701C97850EAF4
:10122000014008EB0701097950EA016008EB07016A
:1012300049794FF47A725143090AFFF79DFDBF1DAA
:1012400021E64F461FE63000C0B2002808D0330028
:10125000DBB29DF8002001A99DF80100FFF717FD02
:1012600005B0BDE8F08F38B50400002500E06D1C26
:1012700002F0EDFD2900C9B2C0B281420ED22800B1
:10128000C0B202F0E6FD0028F1D02800C0B202F0A2
:10129000F5FD8442EBD12800C0B200E0FF2032BD52
:1012A0002DE9F84F8CB08246814F17F5F0763078F3
:1012B00010F0E00097F8DF51002187F84715C0B221
:1012C00060280AD0012087F84705002087F8DF0151
:1012D000152003F01BFD0020D7E07479701CFEF789
:1012E0005BFFB01DFEF751FF804614F00F00039026
:1012F000C4F3401111F00101C4F3801010F001009B
:10130000DDF80C9019F108092D1F012901D00128E1
:101310000AD1802087F84705002087F8DF011520D3
:1013200003F0F4FC0020B0E04D450ADA202087F8F5
:101330004705002087F8DF01152003F0E7FC0020B7
:10134000A3E05FF0FF34A94503DA16F8094019F16C
:1013500001098DF808A09DF8080002F08FFD824673
:101360009DF8080002F0C3FD834608AA04A99DF871
:10137000080002F0CBFD019500960123424651463C
:1013800004A8FEF760FF002807D1042087F847056E
:10139000152003F0BBFC002077E01BF1010F05D105
:1013A00041469DF8080002F095FD2DE0D84514D285
:1013B0005FF0FF30B0EB0B0B18EB0B0B44F20100AE
:1013C000834521D3082087F84705002087F8DF01EF
:1013D000152003F09BFC002057E0B8EB0B0B44F208
:1013E000010083450AD3082087F84705002087F8C5
:1013F000DF01152003F08AFC002046E018F101010E
:101400009DF8080002F066FD002C13D4B5EB09002E
:1014100001280FDB012C01DA04A800E008A8B5EBD5
:101420000901019106EB0901009101234246514651
:10143000FEF787FF0398012801DA002C0AD110205B
:1014400087F84705002087F8DF01152003F05EFCD0
:1014500000201AE0002C0BD597F8DD0150F0200099
:1014600087F8DD0187F8DE91002087F8DF010BE0C7
:1014700097F8DD0150F0100087F8DD0187F8DE9164
:10148000B5EB090987F8DF9101200DB0BDE8F08FB9
:10149000A0700837806DC33581BA8C01400D030000
:1014A0006001C835006A1800C02FB82F00005046F0
:1014B000600000202DE9F84F86B0DFF8546A16F579
:1014C000F077387810F0E0018DF8081096F8DF9189
:1014D000002186F84715D6F8B0110591B9F10C0F27
:1014E00002DB10F0030F19D0202086F847050020FA
:1014F00086F8DF010598C6F8B00196F8DD0100070F
:101500000AD596F84705002806D096F84705FF2823
:1015100002D0152003F0FAFB002098E197F805802F
:10152000781CFEF739FE0500B81DFEF72EFE18F0F8
:101530000F010391C8F3401414F00104DDF80CA06E
:101540001AF1080AB9F10409D6F8AC118D4216D087
:1015500096F8DD0100070AD52800FFF784FE010098
:10156000C9B2FF2903D0C0B2FFF79AFE6FE196F827
:10157000DD01000702D4022086F84705B7E79DF891
:10158000081060290AD09DF80810A02906D096F806
:10159000DD11090702D4012186F84715D14503DA88
:1015A000202086F84705A2E75FF0FF35CA4503DA39
:1015B00017F80A501AF1010AD6F8B011090C61F3B4
:1015C0001F40834616F5C5700490CDF8049000972F
:1015D00001235A46D6F8AC110498FEF734FE0028D1
:1015E00014D11BF5803BCDF80490009701235A4697
:1015F000D6F8AC110498FEF726FE002806D1042088
:1016000086F84705142003F081FB70E7D6F8B00197
:10161000834517D2D6F8B001401E834503D19DF80B
:101620000800A0281AD05FF0FF31D6F8B001091ADF
:101630001BEB010144F2010081420FD3082086F820
:10164000470554E7D6F8B001BBEB000044F20101B6
:10165000884203D3082086F8470548E796F89300A8
:10166000012805D1002C03D1402086F847053EE72C
:10167000002D0AD1B9EB0A00012806DB03980128E6
:1016800003DB102086F8470531E71BF10100C6F89F
:10169000B00118F0100086F81C03002086F81D0326
:1016A0009DF80800A02801D1202000E0002086F845
:1016B000B80196F8B801002802D15FEAC86010D5D9
:1016C000B6F8840050F01000A6F8840096F80C03D9
:1016D000022806D1B6F884104FF6FE700140A6F835
:1016E0008410002086F88A0096F88A0086F8BA01ED
:1016F00096F9B90110F1800F03D07FF03F0086F812
:10170000B90196F90D0010F1200F01DAE02003E095
:10171000202801DB1F20FFE786F8BB01002D15D430
:10172000B9EB0A00012811DB012D01DA049801E070
:1017300016F5CD70B9EB0A01019107EB0A01009192
:1017400001235A46D6F8AC11FEF7FBFD002086F8BF
:10175000380417F10808002D0AD1B9EB0A00012856
:1017600006DB07EB0A00B9EB0A01FFF765FB0DE0AA
:10177000039886F82803039A414606F22937380071
:1017800001F04EFB03994046FFF756FB96F85305D0
:1017900096F83813884210D2B6F8840050F0100042
:1017A000A6F8840096F80C03022806D1B6F8841037
:1017B0004FF6FE700140A6F8841096F893000128B9
:1017C0001BD1002C01D0802000E0402096F8DD11D4
:1017D000084386F8DD01002C1ED0002086F8DC01CD
:1017E000002086F89300002086F89400002086F8F8
:1017F0002003002086F821030EE0002086F8DC019B
:10180000002086F89300002086F89400002086F8D7
:101810002003002086F82103002D0BD596F8DD016A
:1018200050F0200086F8DD0186F8DEA1002086F861
:10183000DF010BE096F8DD0150F0100086F8DD01C5
:1018400086F8DEA1B9EB0A0A86F8DFA1012007B00D
:10185000BDE8F08F10B5DFF8344A022084F8DD01CE
:1018600094F8C201FEF76FFCE081D4F8C401A060D7
:10187000002084F8DF0194F80C0302280DD194F8BD
:101880008400C00709D594F8DD0150F0080084F801
:10189000DD01032004F015FD02E0022004F011FD3B
:1018A00010BDDFF8E8291368C0185B385060C9B272
:1018B000002902D11420107401E016201074704722
:1018C00038B50C00DFF8C45995F8C211FFF7E9FFED
:1018D00095F80C03022807D122006968413915F5F3
:1018E000407003F09AFF06E022006968413915F163
:1018F000180003F092FF31BD38B50400DFF88C59B1
:10190000012085F8DD0195F80E03FEF71CFCE88147
:10191000D5F81003A8600121E889FEF702FCE881F0
:10192000002085F8DF01C5F8184395F80C0302285C
:1019300006D1B5F884104FF6FE700140A5F884106A
:10194000022004F0BEFC31BD70B504000D00DFF8CC
:10195000C06596F87A1011F00701DFF83429DFF836
:10196000340902FB0101C6F81013707C042807DA61
:10197000717C0A3196F80D03091A86F80E1317E0E8
:10198000707C042807D196F80D03002803D10D20A0
:1019900086F80E030CE0707C042809D196F80D033C
:1019A000002805D096F80D03D0F10E0086F80E033E
:1019B00096F80E03092802DA082086F80E0396F836
:1019C0000E03FEF7C0FBF081717C2000FFF769FF7A
:1019D0002A007168413916F1180003F01EFF70BD2E
:1019E000803DD51280B50820FFF79EF800F030FF4B
:1019F00001BD2DE9F041DFF8184594F88400000698
:101A000001D40020D3E094F8DF0100283AD194F803
:101A1000840040071AD494F88400800601D4002082
:101A2000C5E0B4F884104FF65F700140A4F884104C
:101A300094F88A000A2804DA94F88A00401C84F892
:101A40008A000920FFF770F80120B0E0B4F8841094
:101A50004FF67F700140A4F88410FFF716F80500D8
:101A6000E80702D5DFF8FC6B01E0DFF8FC6B03F060
:101A700095FE32002D18290014F1180003F0CDFE58
:101A8000012094E094F8E06194F8DF512800C0B29E
:101A9000204410F5EE70FEF77FFB2800C0B211283D
:101AA00003D02800C0B2212804D1F6B216F0E30614
:101AB000202E09D094F8DD01C00701D5002076E082
:101AC000002084F8DF01A2E704F2E1162900C9B280
:101AD000491E3000FEF727FC2900C9B2091F14F582
:101AE000F070FEF706FC0028E4D004F2E710FEF7E1
:101AF00053FBC4F8AC0114F5F270FEF74DFB20F077
:101B00007F40C4F88000FEF77AFE94F8EB7117F07E
:101B10000F0794F8EB01C0F302183800C0B2FEF7CB
:101B20001BFB002809D04046C0B2FFF759F8002837
:101B300003D084F80D8384F8C27194F8EC0110F09E
:101B40000F000100C9B2002900D10120401E84F815
:101B50001403EDB2122DADDA14F5CD7314F5C57280
:101B60003100B4F88801401E80B2FEF725FC94F8DD
:101B7000840010F0240F01D1002018E094F88400B4
:101B8000800607D594F88A1094F88800FEF7F0FADA
:101B900084F88800B4F884104FF659500140A4F836
:101BA0008410FEF7C8FF0620FEF7BEFF0120BDE847
:101BB000F08180B5FFF71DFFDFF8541391F8DF01C6
:101BC000002805D1002081F8DD01102003F09EF8E7
:101BD00001BD80B5DFF8740CDFF8B016C1F818034A
:101BE000FFF738FE01BD80B5C94890F8DF01002835
:101BF00003D0FFF7FEFE002805D1DFF8C01C5FF41C
:101C00004030FFF75DFE01BD80B5DFF8B40CFFF793
:101C100073FE01BD80B5052003F078F8DFF8A41C41
:101C20005FF42030FFF790FE01BD10B5B84C14F5FD
:101C3000407003F0C5FD0020C4F81803002084F8AC
:101C4000DF0194F84705FF2802D0102003F05EF86A
:101C500000F022FB94F84805002802D0162003F07B
:101C600055F894F80C03022806D194F8840010F07B
:101C7000180F01D100F039F910BD10B5A44C94F83B
:101C8000DF01002817D1002084F8DD0194F80C034F
:101C9000022809D194F88400C00705D5FF2084F8F4
:101CA000470500F022F905E0DFF86C1C14F118007C
:101CB00003F09EFD5EE094F80C03022809D114F5B0
:101CC000407003F07DFDB4F8840050F08000A4F86B
:101CD000840000F0E1FA00281AD1002084F8DD0128
:101CE00094F80C0302280CD194F88400C00705D4A2
:101CF000DFF8241C14F5407003F07AFD00F0F5F8CD
:101D000005E0DFF8141C14F1180003F071FD31E058
:101D100094F80C0302280BD194F8DD01000707D5D5
:101D200094F88400C00703D514F1180003F048FDAF
:101D300094F8DD01400612D5B4F8840050F080001C
:101D4000A4F88400DFF8D01B14F1180003F050FD54
:101D500094F80C0302280DD100F0C7F80AE094F8BB
:101D60000C03022806D194F8840010F0900F01D1E2
:101D700000F0BBF810BD10B5654CB4F884104FF6F8
:101D8000FE700140A4F88410DFF8580CC4F8180362
:101D900094F80C03022802D1002004F092FAFFF715
:101DA00059FDDFF8A02C216894F814334FF400405B
:101DB00000FB031111F5802114F1180003F02DFD33
:101DC00010BD80B5002004F07CFA042004F079FAFC
:101DD000DFF8441BDFF8700C03F00AFD01BD38B5D5
:101DE0004B4C14F11805280003F0EAFC002084F89D
:101DF000470594F8DF01002803D000F04DFA0028D1
:101E000011D1DFF8481C94F814034FF400425043FA
:101E100010F58030FFF754FD94F80C03022801D12F
:101E200000F063F81AE094F8DD0140060BD5B4F831
:101E3000840050F08000A4F88400DFF8081C28001B
:101E400003F0D6FC0AE094F80C03022806D194F8BB
:101E5000840010F0900F01D100F047F831BD10B5AB
:101E60002B4C94F80C03022802D1002004F029FA2C
:101E7000DFF8400CFFF740FDDFF8482C216894F8AC
:101E800014334FF4004000FB031111F5802114F1CD
:101E9000180003F0C2FC10BD10B51D4CB4F884004E
:101EA00050F08000A4F88400002084F8280300206B
:101EB00084F8DD01002084F84705002084F84805F7
:101EC0000A2002F023FFDFF8381C94F814034FF4C3
:101ED0000042504310F50040FFF736FD94F80C0324
:101EE000022801D100F001F810BD80B5002004F0F7
:101EF000E8F90748B0F8841051F00101A0F8841007
:101F0000DFF8E01AC0F81813FFF7A4FC01BD0000C9
:101F1000600000202DE9FC41DFF8705395F8840043
:101F200010F01800102801D0012400E00024200047
:101F3000C0B2002802D095F8946000E0002608277F
:101F400095F8200300280ED095F8DC0100280AD16E
:101F5000022095F83813294481F8390395F838039D
:101F6000401C85F8380395F8210300280ED095F819
:101F7000DC0100280AD10D2095F83813294481F896
:101F8000390395F83803401C85F8380395F8380371
:101F900000283BD095F888000E2805DADFF8F80B0A
:101FA00095F88810405C00E0FF2095F838138842CF
:101FB00003DA002085F838034DE095F8530595F8CD
:101FC000381388420ED395F8382305F2393105EBE2
:101FD000070010F5F078404600F022FF95F838032E
:101FE000C71938E0002085F8920095F8382305F2EB
:101FF000393115F19504200000F012FF95F83803EF
:1020000085F8940095F89460012424E095F838044C
:10201000002820D095F8380410281CDA95F888009C
:102020000E2805DADFF8700B95F88810405C00E0A8
:10203000FF2095F8381488420DDB95F8382405F216
:10204000394105EB070010F5F078404600F0E8FE56
:1020500095F83804C71995F8BA01002809D095F900
:10206000B901002802D5002085F8B901002085F8C3
:10207000BA012000C0B2002805D0B0465FFA88F847
:1020800018F1050801E05FF0040818EB0708404666
:1020900080B2B0F5807F02DB002417F104084020F5
:1020A00085F8E00195F9B901002801D4402100E04C
:1020B000002195F8B82195F8BE010243114338007C
:1020C0000838014385F8E511D5F8AC1105F2E110A7
:1020D000FEF77FF895F8DC01002804D1D5F8B401AB
:1020E000401CC5F8B401D5F8B401411E89B215F5FC
:1020F000F370FEF769F895F8B80100280ED095F84E
:10210000860000280AD095F8DC0195F88610491E53
:10211000884206D1002085F8B80102E0002085F849
:10212000B801E4B2002C36D095F89300002809D00D
:10213000802085F8E00195F8DC01002802D101201B
:1021400085F8DC0195F8920005EB070181F8E001C4
:102150003200D2B215F1950105EB070000F2E1144F
:10216000200000F05DFE95F89200002802D115F5E0
:10217000C57001E015F5CD70F6B2019605EB0701CB
:1021800001F2E11100910023D5F8B421521ED5F8D7
:10219000AC11FEF7D6F8404680B2001F019015F54D
:1021A000F07000900023D5F8B421521ED5F8AC1180
:1021B00015F5C570FEF76BF885F8DF81BDE8F38192
:1021C00038B5324D15F5F0742070601C02F032FC09
:1021D00014F1090002F038FCB5F8881114F111006F
:1021E000FDF7F2FF13212000FEF76FF8172085F8A6
:1021F000DF01B5F88801401CA5F8880131BD80B524
:1022000000F034FA01BD10B5FEF711F9002834D101
:102210001E4C94F8840010F0900F01D000202DE0A7
:10222000002084F87B00002084F80D03002084F84F
:102230001403002084F84805002084F84705B4F80A
:1022400084104EF2DE700140A4F88410002084F85F
:10225000930084F8DC0184F88A00FEF7EDFBB4F803
:10226000840050F00400A4F88400DFF8CC1A14F1C4
:10227000180003F0BDFA012000E0002010BD80B579
:10228000DFF8B80A401CFDF787FF02BD60000020A0
:10229000C0270900A070083738B5DFF8A44A94F8C1
:1022A000840000063AD594F8DF01002803D094F8A2
:1022B000DD01400632D594F8930000282ED194F821
:1022C000DC0194F88610491E884227DA0020C4F801
:1022D000180394F8DC01401C84F8DC010220FEF7AE
:1022E000AAF9010094F814034FF4004202FB001114
:1022F00011F5B0312068FEF7C8F9B4F884104FF634
:102300007E700140A4F88410B4F8840050F00800F6
:10231000A4F8840000F0AAF9012032BD94F88400EA
:1023200010F08100012804D1FF2084F84705002027
:10233000F3E794F8DF01002804D094F8DD014006AB
:1023400040F15A8194F8DC0100287BD094F8930086
:10235000012877D194F8DC0194F84015884254D2D2
:102360000020C4F8180394F8DC01401C84F8DC0158
:1023700094F8DC01022190FBF1F201FB120001282C
:1023800015D194F8DC01022811DB94F88800FEF7DF
:1023900078F800280BD1012194F88800FDF7E8FEB9
:1023A0007FF07F020100C9B20220FEF778F900F049
:1023B00071FC94F89410C0B2884206D2002084F8D0
:1023C0009300042084F8480525E00220FEF733F945
:1023D00094F814134FF4004202FB010010F5B030E2
:1023E00001002068FEF751F9B4F884104FF67E70B2
:1023F0000140A4F88410B4F8840050F00800A4F858
:10240000840000F033F9012087E7002084F893006E
:10241000022084F84805602084F8DD01002084F85B
:102420002003002084F82103002084F8380394F866
:102430000C0302287DD1B4F8840050F00100A4F808
:10244000840076E094F81C0310285CD1012194F8F4
:102450008600002802D094F88600414394F81D03BA
:10246000C9B2884232D294F8DC01002809D094F82D
:102470001D1394F8DC01411884F81D13002084F822
:10248000DC0194F81D03401C84F81D030220FEF7B4
:10249000D2F894F814134FF4004202FB010010F537
:1024A000B03001002068FEF7F0F8B4F884104FF661
:1024B0007E700140A4F88410B4F8840050F0080045
:1024C000A4F8840000F0D2F8012026E7002084F868
:1024D0001C03002084F81D03202084F8DD01002067
:1024E00084F82003002084F82103002084F83803B6
:1024F00094F80C0302281CD1B4F8840050F00100B9
:10250000A4F8840015E0202084F8DD01002084F880
:102510002003002084F82103002084F8380394F875
:102520000C03022805D1B4F8840050F00100A4F88F
:10253000840094F9B90110F1800F04D094F8B90126
:10254000401C84F8B90194F88800FDF79AFF002830
:1025500003D07FF07F0084F8B90194F9B901002815
:1025600006D1B4F88400C00402D4002084F8B90174
:10257000002084F8DF0194F8DF0184F8DE01B4F86C
:1025800084104FF677700140A4F8841094F8DD01B0
:1025900010F0070F0AD0B4F88400C00406D5B4F8D0
:1025A00084104EF6FF700140A4F8841000F05EF82D
:1025B00094F9B90120281DDB94F88800FDF7A9FFE4
:1025C0007FF07F052A000100C9B20320FEF767F8FB
:1025D00094F88800FDF755FF002803D1002084F807
:1025E000B90101E084F8B951B4F8840050F4805086
:1025F000A4F88400012090E6FEF75CFF002801D1DA
:1026000000208AE60020C4F81803FFF738FED4F84B
:10261000AC11884203D10A2002F078FB02E01720B7
:1026200002F074FBABE710B5DFF81447B4F8841080
:102630004FF677700140A4F8841014F1180003F0ED
:10264000BFF814F5407003F0BBF8002003F039FE2A
:10265000112002F05BFB94F80C03022801D1FFF774
:1026600044FC10BDE5190008210B00082DE9F041DC
:10267000DFF8CC6696F8840010F0C10F40F0C280FD
:1026800003F08CF80700002000250020C6F84C0558
:1026900096F8840010F03C0F00F0BA8096F88400A1
:1026A00010F0240F01D0012400E00024B6F88400CB
:1026B00000051DD500213800FEF76BF905003560D7
:1026C000E81BDFF8801688420AD1B6F884104FF66E
:1026D000E7700140A6F88410122002F017FB91E089
:1026E000B6F884104FF2FF700140A6F8841000E0A5
:1026F000356896F87B00002803D1B6F88400C00541
:1027000004D5F06F281A002800D5F56FE81B413872
:10271000002868D53D0096F888802000C0B20028C7
:1027200015D096F88400800608D596F88A104046A1
:10273000C0B2FDF71DFD8046C02000E00020C0B201
:10274000FFF73EFDDFF80006C6F8180305E0FFF7C7
:10275000E1FBDFF8F805C6F818034046C0B2FDF704
:10276000EBFC96F8891080B2FDF7CFFCF08186F87B
:102770001180B6F884104FF6EF60014051F4086103
:10278000A6F884102800FEF7CAF896F80C03022871
:1027900002D1002003F095FDE4B2002C08D0DFF850
:1027A000B02517F5A02116F1180003F036F807E060
:1027B000DFF89C2517F5802116F1180003F02DF89D
:1027C000D6F83C05002802D0D6F83C058047012009
:1027D00003F077FD96F8DF11F089FDF7B2FEC71917
:1027E000553737600EE096F8840080070CD413202C
:1027F00002F08CFADFF85C25413D290016F1180043
:1028000003F00BF8BDE8F081002DF3D16D1CF1E76A
:1028100096F884008007EDD4F4E7C0B2002801D018
:10282000802000E00020DFF8181581F8BE01704715
:1028300080B50A00DFF8081581F81F0352B20100C5
:10284000C9B20020FDF72BFF01BD0000B31B00083B
:1028500010B5002003F035FDDFF8E44414F1180052
:1028600002F0AEFF14F5407002F0AAFF002084F8D9
:102870003805002084F8DC01002084F89300002053
:10288000C4F8AC010020A4F88400002084F889007A
:10289000002084F82003002084F82103002084F81D
:1028A0003803002084F838040020E085002084F8F4
:1028B0007A00FDF7A4FF10BD00000000D31B000844
:1028C000E71B0008091C000838B5DFF874444020F5
:1028D000A4F88400012084F841050020A4F84405F0
:1028E000002084F84605802084F8BE01002084F88A
:1028F0001D03FF2084F85505FDF7F3FE0020C4F802
:10290000240302F03DFC0500EDB202F039FC50EA70
:102910000520A4F8880131BD2B1C000880B5DFF824
:102920002014002081F84805002081F8470591F81F
:102930000C03022806D1B1F884204FF67E700240C5
:10294000A1F88420B1F884204FF67F700240A1F8EE
:102950008420B1F8840050F00800A1F8840091F8B8
:102960008400400702D4002081F8DC01FFF77EFEDE
:1029700001BD2DE9F04105000C0016001F00FDF718
:1029800056FD002802D17FF002001DE000F082F920
:102990003100C9B2884202D27FF0010014E0002C5D
:1029A00007D03200D2B2DFF8B0832100404600F0F9
:1029B00037FADFF88C0380F8937080F8925080F833
:1029C0009460FFF7ABFF0020BDE8F08180B5FDF714
:1029D0002EFD002805D00023002200210120FFF752
:1029E000C8FF01BD7B1C000870B50D0011001C0064
:1029F000DFF84C63C6F88000C6F8AC51002905D05A
:102A0000102216F5C575280000F00AFA002C06D031
:102A1000102216F5CD752100280000F001FAFDF70F
:102A2000EEFEB6F884104FF659500140A6F8841017
:102A3000B6F8840050F40060A6F88400FEF77BF836
:102A400070BD00002B1C000878000020771D0008D6
:102A500080B5DFF8EC1291F80C230300DBB29A4248
:102A60001ED081F80C030200D2B2012A0AD1B1F8BB
:102A700084204FF67E700240A1F88420002003F0ED
:102A800020FC0DE0C0B202280AD1FDF7D0FC0028DE
:102A900006D002F083FEC01C02F0BDFDFFF725FA50
:102AA00001BDA74890F80C0370470120A44981F8A4
:102AB00020037047DF1D00080120A14981F8210390
:102AC00070470000C31D00089D49A1F844057047E8
:102AD00080B59B4981F8460540B203F0CFFB1E202C
:102AE00000F0C3F801BD80B5954890F8880000F06B
:102AF00034F8002801D0002001E07FF0010002BD81
:102B00005F1E00088E4991F841250300DBB29A420E
:102B100003D191F91300C0B21EE0C0B210F07F00E3
:102B2000C0B2012806D0022808D0032804D02928E2
:102B300004D005E0102004E01E2002E01E2000E08A
:102B4000102091F9462516320300DBB29A4202DAD0
:102B500091F946051630C0B27047794A918C002928
:102B600008D1D18C002905D1118D002902D1518DB8
:102B7000002905D00100C9B2042901DA012009E0C9
:102B800092F82C10090604D0C0B2042801D101200B
:102B900000E00020704700000C0D0108C0B20028C2
:102BA00005D01000C0B2042801DA012008E0C9B243
:102BB000002904D0D2B2042A01D1012000E0002073
:102BC00070475F4981F84105704730B45C4A82F82C
:102BD000300082F83110002306E000241D00EDB221
:102BE00002EB4505AC845B1C1C00E4B2042CF4DB56
:102BF000C30703D5938C53F0FF039384830703D556
:102C0000938C53F47F439384430703D5D38C53F0C1
:102C1000FF03D384030703D5D38C53F47F43D384BA
:102C2000C30603D5138D53F0FF031385830603D525
:102C3000138D53F47F431385430603D5538D53F00F
:102C4000FF035385000603D5508D50F47F40508517
:102C5000C9B2918530BC70473949C1F83C0570470D
:102C6000401C374981F840057047354991F94625A0
:102C7000163203005BB29A4204DA91F84605163028
:102C8000C87400E0C874704734482D4991F8881022
:102C9000405C704780B5FFF7F7FF0100C9B200291B
:102CA00005D0274991F83813401AC0B200E000203F
:102CB00002BD0100C9B2102900DB0F20204981F8B4
:102CC000530570470100C9B2032904DA1C4981F891
:102CD0005405012000E00020704780B5C0B203F029
:102CE000D2FA01BD164981F85505704710B5140098
:102CF000C0B200280ED00800FDF79FFD002807D0C5
:102D00000F4988608C74052003F0DBFA012005E090
:102D1000002003E0002003F0D4FA012010BD80B5AC
:102D2000002003F0CEFA042003F0CBFA0C490D4842
:102D300002F05EFD01BD0000FF21000840020020FE
:102D40006000002000005046151C0008991E000875
:102D500027260008210B0008F50000200C0D0108B3
:102D60002B1C00087800002080B5C0B2002801D0DC
:102D7000002003E0002003F0A4FA012002BD30B4DB
:102D8000002513E050F8042BD30744BFA9F1010339
:102D90009A18091F042942F8045BFAD213468C07DB
:102DA00044BF15809B1CC90748BF1D7050F8041B09
:102DB0000029E7D130BC704762F30F2262F31F4253
:102DC000401810F0030308D0C91A1FD3DB0748BF0F
:102DD00000F8012D28BF20F8022D130030B414464E
:102DE0001546103928BF20E93C00FAD8490728BF0A
:102DF00020E90C0048BF40F8042D890028BF20F8C6
:102E0000022D48BF00F8012D30BC7047C91818BF0B
:102E100000F8012DCB0728BF00F8012D70470200F4
:102E200062B38B0708D0521E11F8013B00F8013B3A
:102E300000F024808B07F6D1830740F0208000BF8C
:102E4000103A07D330B4B1E83810103AA0E838107F
:102E5000F9D230BC530724BFB1E80810A0E808102D
:102E600044BF51F8043B40F8043BD20724BF31F87B
:102E7000022B20F8022B44BF0B7803707047121FFF
:102E800017D35B0009D151F8043B20F8023B1B0C1F
:102E9000121F20F8023BF6D20BE051F8043B00F879
:102EA000013B1B0A20F8023B1B0C121F00F8013BE0
:102EB000F3D238BF121D521E24BF11F8013B00F897
:102EC000013BF8D87047000030B4002117E0DFF86C
:102ED000480750F8212050F821301B0213F47F03DB
:102EE00053EA026350F82120120A12F47F4213437E
:102EF00050F8212053EA126340F82130491C04297C
:102F0000E5DBDFF81427D3682DE0042091FBF0F413
:102F100000FB141000281ED1DFF800071C00240C51
:102F2000E4B2045D1D002D0AEDB2455D2D0495EA65
:102F300004651C00E4B2045D95EA04251B0EC05C28
:102F40002B004340081F042490FBF4F0DFF8D04628
:102F500054F82000434002EB810050F8100C43402D
:102F600042F82130491C2C29CFDB30BC70472DE9B9
:102F7000F74F82B00400FFF7A7FF200707D5002115
:102F8000DFF8A006C160816041600160A3E0DFF866
:102F9000940601680268120212F47F0252EA01628A
:102FA0000168090A11F47F410A43016852EA11627B
:102FB000026041684268120212F47F0252EA016222
:102FC0004168090A11F47F410A43416852EA1162DB
:102FD000426081688268120212F47F0252EA016242
:102FE0008168090A11F47F410A43816852EA11623B
:102FF0008260C168C268120212F47F0252EA016262
:10300000C168090A11F47F410A43C16852EA11629A
:10301000C26060E01000000E039908701000000C00
:10302000039948701000000A039988700398C270D1
:103030003000000E039908713000000C03994871AC
:103040003000000A039988710398C6713800000E99
:10305000039908723800000C039948723800000A7E
:10306000039988720398C7721800000E03990873B9
:103070001800000C039948731800000A039988731C
:103080000398C37319E0039810F805C01000000EF0
:1030900090EA0C0C039800F805C0120215F003002A
:1030A000032802D132003E001F006D1C8D42EAD37E
:1030B000DFF87005C168491CC16014F00A000228DD
:1030C00007D0039810300390BDF810001038ADF809
:1030D000100054F00804BDF9100000B20128C0F23D
:1030E0009682610703D414F00A01022906D1DFF8A1
:1030F0003405026846688768C3683EE0A10740F16E
:103100007182BDF81010112980F26C820022130028
:1031100017001600BDF81000102801D1012000E0B2
:10312000022054EA001428E0002504E0BDF8105005
:10313000A942F9D180258446280050EA0C2011F0DC
:103140000305032D03D132003E001F000300491C7C
:10315000102906D2BDF81050A942E7D2039D6D5C3C
:10316000E9E7A00709D5DFF8BC14086842404868C1
:10317000464088684740C8684340DFF89CE41EF139
:1031800080000090DEF8000042401500DEF80400E8
:103190004640DEF808004740DEF80C0043409C46FD
:1031A000DEF81480DEF81890DEF81CA0DEF810B00F
:1031B000DFF874042900C9B250F8211091EA080818
:1031C000DFF868142A00120AD2B251F8222092EADB
:1031D0000909DFF85C242B001B0CDBB252F823300A
:1031E00093EA0A0ADFF84C342D0E53F8255095EA7D
:1031F0000B05B3465FFA8BFB50F82BB09BEA09092D
:10320000B3465FEA1B2B5FFA8BFB51F82BB09BEAAE
:103210000A0AB3465FEA1B4B5FFA8BFB52F82BB0EE
:103220009BEA0505360E53F8266096EA08084646DE
:10323000B8465FFA88F850F8288098EA0A0AD0461B
:10324000BA465FEA1A2A5FFA8AFA51F82AA09AEA7D
:103250000505BA465FEA1A4A5FFA8AFA52F82AA0C6
:103260009AEA06063F0E53F8277097EA09094F4677
:10327000E1465FFA89F950F8299099EA0505E14697
:103280005FEA19295FFA89F951F8299099EA060647
:10329000E1465FEA19495FFA89F952F8299099EAFB
:1032A00007075FEA1C6C53F82CC09CEA0808C44668
:1032B000DEF82480DEF82890DEF82CA0DEF820B0BE
:1032C000CDF804B0AB465FFA8BFB50F82BB09BEA0D
:1032D0000808AB465FEA1B2B5FFA8BFB51F82BB05B
:1032E0009BEA0909AB465FEA1B4B5FFA8BFB52F87E
:1032F0002BB09BEA0A0ADDF804B02D0E53F82550D6
:1033000095EA0B05B3465FFA8BFB50F82BB09BEAAE
:103310000909B3465FEA1B2B5FFA8BFB51F82BB010
:103320009BEA0A0AB3465FEA1B4B5FFA8BFB52F833
:103330002BB09BEA0505360E53F8266096EA08087E
:103340004646B8465FFA88F850F8288098EA0A0A94
:10335000D046BA465FEA1A2A5FFA8AFA51F82AA0DA
:103360009AEA0505BA465FEA1A4A5FFA8AFA52F8FB
:103370002AA09AEA06063F0E53F8277097EA090931
:103380004F46E1465FFA89F950F8299099EA050518
:10339000E1465FEA19295FFA89F951F8299099EA1B
:1033A0000606E1465FEA19495FFA89F952F8299061
:1033B00099EA07075FEA1C6C53F82C90C44699EA17
:1033C0000C0C1EF1200EDDF80080C645FFF4E8AEBF
:1033D000DEF81480DEF81890DEF81CA0DEF810B0DD
:1033E000CDF800B0AB465FFA8BFB50F82BB09BEAF0
:1033F0000808AB465FEA1B2B5FFA8BFB51F82BB03A
:103400009BEA0909AB465FEA1B4B5FFA8BFB52F85C
:103410002BB09BEA0A0ADDF800B02D0E53F82550B8
:1034200095EA0B05B3465FFA8BFB50F82BB09BEA8D
:103430000909B3465FEA1B2B5FFA8BFB51F82BB0EF
:103440009BEA0A0AB3465FEA1B4B5FFA8BFB52F812
:103450002BB09BEA0505360E53F8266096EA08085D
:103460003E00F6B250F8266096EA0A0A3E00360A96
:10347000F6B251F8266075403E00360CF6B252F8AE
:10348000266096EA08083F0E53F8276096EA090975
:103490006646F6B250F8260045406046000AC0B2C3
:1034A00051F8200090EA08086046000CC0B252F8BB
:1034B000200090EA09095FEA1C6C53F82C0090EA9E
:1034C0000A0ADEF8202055492800000E085C92EA1E
:1034D00000624046000CC0B2085C92EA00424846D6
:1034E000000AC0B2085C92EA00225046C0B2085CF2
:1034F0004240DEF824604046000E085C96EA006612
:103500004846000CC0B2085C96EA00465046000AE5
:10351000C0B2085C96EA00262800C0B2085C4640AB
:10352000DEF828704846000E085C97EA00675046AF
:10353000000CC0B2085C97EA00472800000AC0B23D
:10354000085C97EA00274046C0B2085C4740DEF8B6
:103550002C005FEA1A6A11F80A3090EA03602D0C19
:10356000EDB24B5D90EA03405FEA18285FFA88F8F5
:1035700011F8083090EA03205FFA89F911F8091070
:1035800003004B40A00735D52000C0B2C0F30110A6
:10359000002829D01100C90F15003200D20F52EABD
:1035A000450235003E00F60F56EA45063D001F0075
:1035B000FF0F57EA45075B00002901D093F087030E
:1035C000401E0028E6D117490D6855400D604D6832
:1035D00075404D608D687D408D60CD685D40CD60EB
:1035E00014F0CF040021B3E50E4802604660876006
:1035F000C36062E560077FF50DADBDF810001128CE
:1036000001DB102101E0BDF8101000254EE5054852
:10361000006805B0BDE8F08FF8100020C005010873
:103620006C0B0108AC15002048FC000848F80008A5
:1036300048F4000848F00008DFF8F80A002180F894
:103640003C10162180F83D10032180F83E10012126
:1036500080F83F10072180F84910022180F84A10B5
:10366000FF2180F8511080F852100021C1640F2111
:1036700080F85310002180F85410002180F8481081
:10368000002180F8E211704710B50024DFF8A40A89
:10369000012180F8E111022300F2E112082100204B
:1036A00002F060FE002800D101242000C0B210BD4D
:1036B00010B5DFF8804A022304F2E112082100204D
:1036C00002F030FEC0B2002804D0002084F8E201ED
:1036D000002000E0012010BD7FB504000D006E4603
:1036E000CD20307328208DF80D000C21684603F0A2
:1036F000E1F836208DF80E00B5208DF80F0000217E
:1037000004E0625C705C42406254491CA942F8DBF0
:103710007FBD10B5DFF8904B102114F11800FFF7B2
:10372000DBFF102114F12800FFF7D6FF082120004D
:10373000FFF7D2FF102114F10800FFF7CDFF082199
:1037400014F15500FFF7C8FF10BD70B50024082222
:10375000DFF8545B15F1400115F155063000FFF715
:103760005FFBFFF7D6FF062085F8500060232A0094
:103770000121022002F0F6FD002800D1012403F00F
:10378000FFFA00280AD060232A000221022002F05A
:10379000E9FD002801D1012400E00024FFF7B9FF72
:1037A0002000C0B270BD70B50500DFF888696023E5
:1037B00032002900C9B2022002F0B4FD040096F8DC
:1037C0005000002801D0FFF7A4FF96F8500003280E
:1037D00002DA0F2086F8530096F85000042802DA27
:1037E000002086F85400E4B2002C1BD0582332008D
:1037F0002900C9B2022002F095FD0400FFF789FFFD
:103800002000C0B200280DD0E4B2082C0AD0EDB2DE
:10381000012D03D10220FFF7C6FF01E0FFF70CFFE7
:1038200000203FE096F84A00002804D1DFF8440B5E
:10383000007886F84A0096F8500006281ADB28001F
:10384000C0B2012816D1012000210BE006EB0102D5
:1038500092F8402006EB010393F855309A4200D0CD
:103860000020491C0829F1DBC0B2002802D1022047
:10387000FFF799FF96F8500005280EDBEDB2012DF9
:1038800006D1FFF715FF96F8E20186F8480008E038
:1038900096F8480086F8E20103E096F8480086F8BA
:1038A000E201012070BDDFF8000A90F83C11042904
:1038B00005D090F83C01052801D0012000E000204F
:1038C000704738B50400DFF8E05985F83F40FFF74E
:1038D000EAFF00280DD0E4B2002C03D1802003F0D1
:1038E00082FB06E095F83C01002802D1802003F01D
:1038F00087FB31BDDFF8B00990F83F00002801D008
:10390000012000E00020C0B2704780B5FFF7F2FF51
:10391000002802D0802003F073FB01BDC0B2002854
:103920000ED0C9B2002905D00220DFF87C1981F839
:10393000480013E00120DFF8701981F848000DE01D
:10394000C9B2002905D00320DFF85C1981F84800CE
:1039500004E00020DFF8501981F84800DFF848093A
:1039600090F8481080F8E211704780B5C9B2C0B233
:10397000FFF7D4FFFFF788FE03F002FA002801D01A
:10398000FFF7E3FE01BD10B50400DFF8A80790F8CB
:103990004810802902D10020207016E090F84800DD
:1039A00020702078012802D0207802280DD100F064
:1039B0001AFA6060DFF8600C90F888002072FCF75B
:1039C0008BFE6072FFF766F9A07210BDDFF8D808B1
:1039D00090F848100800C0B2002802D0C9B20329EC
:1039E00001D1002000E00120704710B50400DFF88D
:1039F000B80880F83E4014F00100FEF70EFF14F006
:103A00000400C0B28008C0B2002803D00220FFF733
:103A10001FF802E00120FFF71BF814F01000C0B2FD
:103A20000009C0B203F0A9FA14F02004E4B264095A
:103A30002000C0B2FFF751F910BD10B5DFF868489B
:103A400094F83C0094F83D100200D2B2052A04DA42
:103A500049B2C0B2FEF7ECFE03E049B20120FEF726
:103A6000E7FE94F85300FFF724F910BD30B40121AC
:103A7000002200E0521C13000C00DBB2E4B2A342AF
:103A80000AD20300DFF8EC481500EDB2645DDBB24A
:103A9000A342EFD1012000E0002030BC704738B5D0
:103AA0000500DFF8904694F83C01052801D1082074
:103AB0005AE094F83C01002803D094F83C01042813
:103AC00051D16879FFF7D2FF002801D109204BE0DE
:103AD0002A78E979A879FFF761F8002801D1072051
:103AE00042E06879FFF70EF86978C0B2884201D2E7
:103AF0000A2039E0287884F83C00687884F83D0092
:103B0000A878FFF772FFE878FFF7DBFE2879FF2837
:103B100001D1FE202871287984F849002879FFF71F
:103B20009FF894F84A006979884207D0687984F848
:103B30004A006879FFF745F800F0D6FAA87984F8CA
:103B40005100E87984F8520094F8521094F851002A
:103B5000FFF73BF8287A84F85300FFF76EFFFFF772
:103B6000F4FD012000E0002032BD38B50400DFF88C
:103B7000385795F83C00207095F83D00607095F836
:103B80003E00A070FFF7B6FEE07095F84900207186
:103B900095F84A00607195F85300207295F851002D
:103BA000A07195F85200E07131BDDFF8FC0690F885
:103BB0003E00000601D5012000E00020704770B5EE
:103BC0000500012489B22000C0B2B1EB400F1FDB19
:103BD000002613E0DFF89C073100C9B2415C3200D7
:103BE000D2B205F812103100C9B2405CFEF78AFF6C
:103BF0003100C9B205EB41014870761C300021004C
:103C0000C0B2C9B28842E5D3E4B26000C0B200E0FD
:103C1000002070BD38B50400DFF88C5695F83C01E3
:103C2000052801D1082016E095F83C01002803D0B2
:103C300095F83C0104280DD12000C0B2FFF742F8EE
:103C4000002805D085F85440FFF77FFD012002E0F1
:103C5000042000E0002032BDDFF84C0690F854004C
:103C6000704780B5DFF8402692F83C11052901D154
:103C700008200DE092F83C11002903D092F83C1185
:103C8000042904D1C0B2FFF72DF8012000E0002084
:103C900002BDDFF8140690F83E00400601D5012071
:103CA00000E00020704780B5DFF8FC2592F83C1159
:103CB000052901D1082012E092F83C11002903D017
:103CC00092F83C11042909D10068D064D06C40B24C
:103CD000FEF7FEFEFFF739FD012000E0002002BDE7
:103CE000DFF8C415C96C0160704710B504000822E4
:103CF000DFF8B4152000FFF793F810BD10B50100F0
:103D00000822DFF8A4452000FFF78AF810BD10B59F
:103D100004000822DFF8C81C2000FFF781F810BD5E
:103D200010B501000822DFF8B84C2000FFF778F842
:103D3000FFF70BFD10BD10B504001022DFF8A41C26
:103D40002000FFF76DF810BD10B501001022DFF85C
:103D5000944C2000FFF764F810BD10B50C00DFF89C
:103D6000481591F83C11052901D1002007E0FFF723
:103D7000C5FF2000FFF7E8FFFFF7E7FC012010BDBB
:103D800010B50C00FFF7B1FF2000FFF7D4FF10BD06
:103D9000DFF8141591F8380091F8392050EA022024
:103DA00080B291F83A2091F83B1052EA012292B287
:103DB00050EA02407047DFF87C1381F838000200B7
:103DC00092B2120A81F839200200120C81F83A20CE
:103DD0000200120C92B2120A81F83B20DFF8381868
:103DE000C1F8AC017047DFF83008D0F8AC0170477B
:103DF00070B50C001022DFF8B05415F11806010060
:103E00003000FFF70DF81022283521002800FFF7B9
:103E100007F870BD38B504000D001000FFF7CBFFA8
:103E200029002000FFF7E4FF31BD70B504000D004C
:103E30001022DFF8746416F118012000FEF7F0FF7D
:103E4000102216F128012800FEF7EAFF70BD0320BA
:103E500070470100C9B203290EDADFF84C24C0B262
:103E60002C214843104490F86000002801D0012024
:103E700000E00020C0B200E00020704710B4010054
:103E80000800C0B2032822DA2C22DFF81C34080014
:103E9000C0B25043184490F881000C00E4B254437F
:103EA0001C4494F8824050EA042080B20C00E4B232
:103EB00054431C4494F88340C9B25143194491F8C7
:103EC000841054EA0124A4B250EA044000E0002027
:103ED00010BC70470200D2B2032A07DADFF8C833F9
:103EE000C0B22C2250431844C0F88810704701001B
:103EF000C9B2032908DADFF8B023C0B22C21484345
:103F00001044D0F8880000E0002070472DE9F0410F
:103F10000500884614002800C0B2032816DA1022D3
:103F20002C26DFF884732800C0B27043384410F1A7
:103F300061014046FEF774FF1022EDB2754307EBB6
:103F4000050010F171012000FEF76AFFBDE8F08165
:103F500038B504000D00FFF7A6FC002801D10820A9
:103F600030E0FFF733FD002801D103202AE071483B
:103F700090F83C01002824D1002C22D42800C0B2A3
:103F800002280ED1FEF791FD04980599C0B20028D1
:103F90000FD10091002300220121200000F007FA38
:103FA00010E0EDB20D2D02D1FEF786FDECE7042006
:103FB00008E00091002300220121200000F0DCF93C
:103FC00000E0002032BD38B500240CE005EBC40051
:103FD00010F58A710868406A002803D0002009683B
:103FE000496A8847641CB04D95F810018442EDD3AE
:103FF00002F0C6FE00280DD195F83C00FEF7ADFD9D
:10400000002804D1002085F83C00FFF716FDFEF7DC
:10401000DDFC04E0002085F83C01FFF776FC31BDB3
:1040200080B5DFF8E00C03F054F9FFF7CFFC00286F
:1040300002D0FFF7C8FF01E0FEF7E5F801BD80B54B
:10404000DFF8C40C03F045F9FEF769FE01BD10B5B9
:104050004FF48C710022DFF8584C2000FEF7ACFEC4
:10406000FFF796FE904C14F1280314F1180201009A
:104070000020FEF7B9FCFFF7E0FC0022642114F5F4
:10408000B67003F00DF910BD80B5FFF70CFC0028E9
:1040900001D100200AE08020834981F8110100212C
:1040A0000120FFF762FCFFF7D2FF012002BD70B5CF
:1040B00004000D001600FFF7F6FB002801D10020D8
:1040C00011E08020784981F8110132002900200098
:1040D000FFF7A0FE00210120FFF747FCFFF735FBAB
:1040E000FFF7B5FF012070BD38B5FFF7DCFB0028F6
:1040F00001D100201CE00F4C14F5C47003F0E9F866
:104100004FF48C710022DFF8A85B2800FEF754FE04
:10411000002084F83C0100210020FFF7FFFB00F0A5
:1041200082FA00210020FFF720FCFFF7EEFB0120C0
:1041300032BD0000E00A00202DE9F0410400150026
:104140002C26594F2000C0B270433844012280F819
:1041500060202000C0B27043384480F881302000D5
:10416000C0B2704338441A0092B2120A80F882201A
:104170002000C0B2704338441A00120C80F883202B
:104180002000C0B2704338441B0C9BB21B0A80F85D
:10419000843010222000C0B27043384410F161080E
:1041A0004046FEF73DFE10222000C0B27043384466
:1041B00010F1710829004046FEF732FEE4B2744364
:1041C00007EB04005FF0FF31C0F88810BDE8F08114
:1041D000F8B504000D0016001F00FFF764FB00286F
:1041E00001D1002011E02000C0B2032801DB002033
:1041F0000BE080202C4981F811013B00320029009E
:104200002000C0B2FFF798FF0120F2BD10B50400F6
:10421000FFF749FB002801D100200FE02000C0B2C9
:10422000032801DB002009E000211F4AE4B22C2012
:10423000444302EB040080F86010012010BD38B543
:104240000400FFF730FB002801D108202BE0164DB9
:1042500095F8110110F07F0085F8110195F83C01E7
:1042600000281FD1002C1DD4012085F83C0185F8C1
:10427000114100210020FFF751FB00F0D4F9802C00
:1042800004D001210020FFF770FB03E00121002092
:10429000FFF744FB0022642115F5B67003F000F827
:1042A000012000E0002032BDE00A00202DE9F047A7
:1042B00004000E0017009846DDF824A00020CAF87C
:1042C0000000FFF783FB002801D103204FE0DFF857
:1042D0003C5B95F83C01032802D1002085F83C01A5
:1042E00095F83C01002841D1FEF7FDFB10F1010FCC
:1042F00004D1012085F83C01002038E07FF001095D
:10430000484504D1002085F83C0107202FE0012812
:1043100003DBCAF80000062029E0089A3300DBB26C
:10432000D2B241463800C0B2FEF723FB00280FD1BD
:1043300095F83C01032804D1002085F83C010520B4
:1043400015E0012085F83C0185F8114101200EE0BF
:1043500010F1010F04D1012085F83C01002006E096
:10436000484501D1022002E0032000E00020BDE822
:10437000F08700001E2E0008FEB504000D00160098
:104380001F00FFF790FA002801D108200EE0002C52
:104390000BD408980190FFB2009733002A00D2B2E4
:1043A00001212000FFF782FF00E00020FEBDFEB5E6
:1043B00004000D0016001F00FFF775FA002801D158
:1043C00008200EE0002C0BD408980190FFB2009753
:1043D00033002A00D2B200212000FFF767FF00E07F
:1043E0000020FEBD70B58C4C94F8B801800605D550
:1043F0000120DFF8BC1881F8120104E00020DFF88A
:10440000B01881F8120194F8DD01000605D50120ED
:10441000DFF89C1881F8110104E00020DFF8901803
:1044200081F8110194F8DD01C00609D594F8DE0188
:10443000204490F8DF01DFF8781881F8100104E0DB
:10444000FF20DFF86C1881F8100194F8DF010028D4
:1044500012D094F8DF2194F8DE01204410F5F071B9
:10446000DFF84C5815F110063000FEF7D9FC94F82F
:10447000DF0185F80F0104E00020DFF8341881F82F
:104480000F0194F81C03002801D0012000E0002057
:10449000DFF81C5885F8130194F82803002812D07F
:1044A00094F8280310280BDA94F8282304F2293111
:1044B0002E003000FEF7B4FC94F82803E87304E003
:1044C0000020E87301E00020E873FDF7D8FEC5F88E
:1044D000140170BD38B5DFF8E04BDFF8345995F8BA
:1044E0007A002070FFF772FA002803D095F8930045
:1044F000002804D195F8DC01401CA07002E095F87A
:10450000DC01A07095F8880060700020E07095F9DB
:10451000121095F94605091A891E012906DB95F93D
:10452000121095F94605091A881EE070D5F84C0559
:1045300060600020207231BDDFF87C0B002101702B
:1045400000218170002141700021C1700021416073
:10455000002101727047304991F8DD21D2070BD557
:10456000DFF8C82BDFF8503B1B78137091F80E333F
:1045700053700123137112E091F8DD2192070ED5DB
:10458000DFF8A82B8023137091F8C23153700223F7
:10459000137191F8DD311B0701D503231371DFF887
:1045A0008C2B0B7B9370497BD170C0B200282BD031
:1045B000DFF8FC0690F81201002812D010790128CB
:1045C00007D1DFF86C0BD0F85011491CC0F850111E
:1045D00021E0DFF85C0BD0F85C11491CC0F85C11DD
:1045E00019E01079012807D1DFF8440BD0F84C11FD
:1045F000491CC0F84C110EE0DFF8340BD0F858110C
:10460000491CC0F8581106E0DFF8240BD0F86811F7
:10461000491CC0F8681170476000002080B58020F8
:1046200002F0E1FC01BD10B5DFF8E04794F84A0064
:10463000FFF71CFA00280CD1DFF8F80A007884F89C
:104640004A00FF2084F8510084F85200002084F8CA
:10465000480094F84A00FEF7B4FA94F8521094F81F
:104660005100FEF7B2FAFEF7F3F8DFF8CC0AFEF7D6
:10467000F3FA94F83E00FFF7B8F994F84900FEF712
:10468000EFFA0020FEF720FAE06C40B2FEF720FAC5
:1046900094F85400FEF716FBFFF7CFF9FFF703F984
:1046A000002815D094F84800012802D1FFF7CFFC6C
:1046B0000EE094F84800022807D094F84800032838
:1046C00003D094F84800802802D18020FFF7B7FD7E
:1046D00010BD10B50020DFF8581A81F83C01022007
:1046E000FFF761F80400FFF730F8FEF7CDFF00F0A8
:1046F0007BF92000C0B210BDDFF8341A91F8102108
:10470000052A14DA91F8102101EBC202C2F8140153
:1047100091F8100101EBC00091F8102180F81821E8
:1047200091F81001421C81F81021C0B201E05FF045
:10473000FF30704710B4002289B22C29C0F24C819E
:10474000DFF8EC19D1F840311400E4B20355D1F888
:1047500040319BB21B0A1400E4B204446370D1F8E8
:1047600040311B0C1400E4B20444A370D1F8403172
:104770001B0C9BB21B0A1400E4B20444E370121D2C
:10478000D1F844311400E4B20355D1F844319BB25E
:104790001B0A1400E4B204446370D1F844311B0CCA
:1047A0001400E4B20444A370D1F844311B0C9BB252
:1047B0001B0A1400E4B20444E370121DD1F848311E
:1047C0001400E4B20355D1F848319BB21B0A14001F
:1047D000E4B204446370D1F848311B0C1400E4B215
:1047E0000444A370D1F848311B0C9BB21B0A14007F
:1047F000E4B20444E370121DD1F84C311400E4B269
:104800000355D1F84C319BB21B0A1400E4B20444A6
:104810006370D1F84C311B0C1400E4B20444A37053
:10482000D1F84C311B0C9BB21B0A1400E4B20444B7
:10483000E370121DD1F850311400E4B20355D1F8E1
:1048400050319BB21B0A1400E4B204446370D1F8E7
:1048500050311B0C1400E4B20444A370D1F8503161
:104860001B0C9BB21B0A1400E4B20444E370121D3B
:10487000D1F854311400E4B20355D1F854319BB24D
:104880001B0A1400E4B204446370D1F854311B0CC9
:104890001400E4B20444A370D1F854311B0C9BB251
:1048A0001B0A1400E4B20444E370121DD1F858311D
:1048B0001400E4B20355D1F858319BB21B0A14001E
:1048C000E4B204446370D1F858311B0C1400E4B214
:1048D0000444A370D1F858311B0C9BB21B0A14007E
:1048E000E4B20444E370121DD1F85C311400E4B268
:1048F0000355D1F85C319BB21B0A1400E4B20444A6
:104900006370D1F85C311B0C1400E4B20444A37052
:10491000D1F85C311B0C9BB21B0A1400E4B20444B6
:10492000E370121DD1F860311400E4B20355D1F8E0
:1049300060319BB21B0A1400E4B204446370D1F8E6
:1049400060311B0C1400E4B20444A370D1F8603150
:104950001B0C9BB21B0A1400E4B20444E370121D4A
:10496000D1F864311400E4B20355D1F864319BB23C
:104970001B0A1400E4B204446370D1F864311B0CC8
:104980001400E4B20444A370D1F864311B0C9BB250
:104990001B0A1400E4B20444E370121DD1F868311C
:1049A0001400E4B20355D1F868319BB21B0A14001D
:1049B000E4B204446370D1F868311B0C1400E4B213
:1049C0000444A370D1F86811090C89B2090A1300D4
:1049D000DBB21844C170121D1000C0B210BC704789
:1049E000200B0020E80A002080B5802002F0FBFAAE
:1049F000FFF719FEFEF7EAFF002801D1FEF785FF59
:104A000001BD30B40A00D2B2520800230CE0C45CED
:104A10000D00EDB26D1EED1A455DC5540D00EDB2F1
:104A20006D1EED1A44555B1C1400E4B2A342EEDB8C
:104A300030BC704710B504002000FFF756F908217C
:104A40002000FFF7DEFF10BD10B504002000FFF7C7
:104A50005EF908212000FFF7D4FF10BD80B5FFF7F5
:104A60006AF901BD10B5DFF8C846D4F86401401CEE
:104A7000C4F86401802002F0B6FAFFF72BFD022093
:104A800084F83C01012114F1F40002F045FD10BD51
:104A900080B50020FFF75FFDFEF7CFFF0121012069
:104AA000FEF763FF0221DFF8940602F035FDFFF701
:104AB0008AFA01BD80B5DFF87806002180F83C1144
:104AC000802180F848100421F43002F025FDFDF724
:104AD000BFFEFEF71AFF01BD38B5DFF8344394F886
:104AE000DD0110F0030F68D1FFF7F4FC802002F025
:104AF0007AFADFF83C56012085F83C01002294F850
:104B000014134FF47A7342F6E06003FB01010120B5
:104B100091FBF0F115F5C47002F0C2FB94F893001C
:104B2000012815D1D5F84401401CC5F84401DFF82F
:104B30008805807895F84910491C884202D10220E6
:104B400085F83C01102115F1F40002F0E5FC94E039
:104B5000D5F84001401CC5F84001554991F81301B2
:104B600001281AD1012294F88600002802D094F876
:104B70008600424394F81D03D2B2904217D1DFF869
:104B80003805807894F88620904210D3002081F870
:104B90001301022085F83C0109E0DFF81C0580784C
:104BA00094F88610884202D3022085F83C0108213F
:104BB00015F1F40002F0B0FC5FE094F8DE0100288B
:104BC00054D0DFF86C5515F5C47002F082FBFFF786
:104BD00009FC0120FFF7BFFC354890F812110129AC
:104BE00009D090F81311012905D095F8531094F8C5
:104BF0003823914203D2012085F83C011FE090F850
:104C00001101002808D0DFF8B0048078002803D014
:104C1000002085F83C0112E095F83C01022807D0FD
:104C200095F83C01002803D094F89300002803D1A4
:104C3000002085F83C0102E0012085F83C01DFF806
:104C4000EC040079032805D195F8110150F080009B
:104C500085F81101202115F1F40002F05DFC95F8B2
:104C60003C01002809D1FEF750FE06E00020DFF8E5
:104C7000C01481F83C01FEF748FE31BD10B5FFF7C6
:104C8000B1FB0120FFF767FCDFF8A44494F81101A1
:104C900050F0800084F81101802114F1F40002F03A
:104CA0003BFC94F83C01002801D1FEF72EFE10BD1C
:104CB000180E002080B5FFF73FFC554890F84815C6
:104CC000DFF8F4231172DFF86824002182F83C1128
:104CD00090F89310012907D090F84815022903D0C5
:104CE00090F84805042805D1102112F1F40002F0D3
:104CF00013FC04E0082112F1F40002F00DFCFEF7B1
:104D000004FE01BD4C0C0020680C002010B5C0B2A0
:104D100005281AD006281BD008281CD009281DD029
:104D20000A281ED010281FD0112831D012283BD0BD
:104D3000132845D0142846D0152857D016285BD004
:104D400017285CD018285DD05EE0FFF78BFE5BE093
:104D5000FFF79EFE58E0FFF7ADFE55E0FFF7AAFE15
:104D600052E0FFF7B9FE4FE0284C14F5C47002F092
:104D7000B0FA94F83C01022802D1002084F83C01EA
:104D8000402114F1F40002F0C7FBFEF7BEFD3BE04A
:104D90001E48D0F84811491CC0F84811002180F87D
:104DA0003C11FEF7B2FD2FE01848D0F84811491C1D
:104DB000C0F84811032180F83C11FEF7A6FD23E05E
:104DC000FEF7A3FD20E0124890F8DD01C00706D5EC
:104DD0000E48D0F85411491CC0F8541105E00B4896
:104DE000D0F86011491CC0F860110DE04021DFF8D7
:104DF0004C0302F091FB07E0FFF75CFF04E0FFF7D4
:104E00003DFF01E0FFF73AFF10BD0000E00A00207F
:104E1000600000202DE9F843DFF8144314F1F40595
:104E2000280002F092FB0600002724E0300721D57D
:104E3000D8F80000006900281CD09F48D8F800105E
:104E40000969884716E0FDF71AFA00220100BC48FC
:104E500090F84705D8F800301B6A9847F006E5D56A
:104E6000D8F80000C068002804D09348D8F8001093
:104E7000C96888477F1C94F81001874280F016812A
:104E800004EBC70010F58A78B00640F18180DFF8A6
:104E9000B49299F81001E02857D199F80F0104282D
:104EA0001AD199F81000012816D199F8110001289B
:104EB00012D199F8120001280ED199F81300012897
:104EC0000AD1D8F80000406A002817D00120D8F88D
:104ED0000010496A884711E099F8100000280DD1A8
:104EE00099F80F01012809D1D8F80000406A00287C
:104EF00004D00020D8F80010496A884798F80400C8
:104F000094F81111884207D098F80400002803D0C3
:104F100094F81101000648D5D8F80000406900282F
:104F200043D094F83C01002807D1012249467F482C
:104F3000D8F800305B69984737E0002249467B4843
:104F4000D8F800305B6998472FE098F8040094F88F
:104F50001111884203D094F81101000625D5D8F824
:104F600000004069002820D094F83C01002807D1B7
:104F7000012249466D48D8F800305B69984714E033
:104F8000002249466948D8F800305B6998470CE030
:104F900030060AD5D8F80000C069002805D0694954
:104FA0006248D8F80020D269904798F8040094F835
:104FB0001111884204D094F8110100067FF55AAF10
:104FC000F0070AD5D8F800000068002820D03A4839
:104FD000D8F80010096888471AE0B0070DD5D8F84E
:104FE00000004068002813D0FEF7FDFE01004F4886
:104FF000D8F80020526890470AE0700708D5D8F822
:1050000000008068002803D0D8F80000806880473E
:1050100070067FF523AFFDF732F98146FEF7E3FE18
:10502000814504D1464890F84705FF2803D1FEF793
:10503000CDFC00281BD1D8F80000806900283FF47F
:105040000DAF94F83C01002808D101213C4890F8AC
:105050004705D8F8002092699047FFE600213848BC
:1050600090F84705D8F8002092699047F6E6FDF7DA
:1050700006F98146FEF7B7FE81453FF4EFAED8F85A
:105080000000006A00283FF4E9AE94F83C010028D3
:105090007FF4D9AEFDF7F3F801220100284890F81B
:1050A0004705D8F800301B6A9847D7E6280002F079
:1050B0001AFABDE8F1830000281600201CB58020F4
:1050C00001F091FF202001F09BFF194C802084F813
:1050D0001101002084F81001002084F83C01012017
:1050E00000902300184A194914F1F40002F0BFF9A6
:1050F0000022174914F5B67002F0ACF800221549E9
:1051000014F5C47002F0A6F800F038FB124802F063
:105110006FF9124B124A134914F1E40001F051FFE8
:105120000120FEF740FBFFF75FFC13BD4416002093
:10513000E00A00201E2E00081D460008D40B0020A7
:1051400060000020180E0020154E0008180D010800
:10515000214000083F40000857580008FD5800084B
:10516000ED580008AF58000880B53B4800683B493F
:10517000096848403A490968484000F01FF801BDF5
:10518000384A118849F251404143106811EB1041EF
:10519000116091884AF269504143506811EB104107
:1051A0005160506880B2000A5168484013689BB251
:1051B0001B0A11684B405840C0B27047294A03008F
:1051C0009BB249F251414B4313EB10431360030070
:1051D0009BB24AF269514B4313EB10435360704743
:1051E00080B5012802D101F0E3F906E0022804D1DC
:1051F0001D481E49016001F0DBF901BD38B504000E
:10520000002C01D101F0D4F9194D002219492800D0
:1052100002F020F8002808D001222100280002F026
:105220003FF8002801D0012000E0002032BD10B579
:105230000F4C00220F49200002F00CF8002808D083
:1052400002226421200002F02BF8002801D0012066
:1052500000E0002010BD00005000F81F5400F81FAF
:105260006400F81F20150020F03F0020EFBEADDEE7
:1052700028150020E151000813F0004C03D55B42D3
:10528000524263F100039CEA210C00F0178010B534
:10529000644603D34942404261F1000100F00EF838
:1052A000640004D34942404261F10001244203D525
:1052B0005B42524263F1000310BD0000BBBBE1B191
:1052C000B2F5803F80F07E80022A1ED98C46B1FB69
:1052D000F2F102FB11C31B0443EA1043B3FBF2FCDF
:1052E00002FB1C3380B240EA0343B3FBF2F002FB43
:1052F000103240EA0C4000237047022A05D9844648
:10530000B0FBF2F002FB10C270474AB105D100F0C9
:10531000010249085FEA300070470022002370470D
:1053200002F040B90B0002000021002070479042BB
:1053300071EB030CF6D3B3F5803F2FD2F0B5B3FA7F
:1053400083F7B1FA81F4A7F10F0E3D1B5340CEF164
:10535000200602FA0EF2F3415340B5F10F0746D88A
:105360000F3C2C444140C4F12006A040F141414093
:10537000B1FBF3F603FB1611A2FB0645001BA94186
:1053800002D2761E8018594180EA010221FA0EF3FA
:1053900062FA0EF200215A403046F0BD30B4B1FB43
:1053A000F3FC03FB1C11A2FB0C45001BA94103D21B
:1053B000ACF1010C8018594130BC02460B466046E6
:1053C00000217047B2F1807F65D3F0B5B2FA82F761
:1053D000B1FA81F4C7F10F063D1B22FA06F307F17B
:1053E000110EF24120355A40B5F10F07B8D94140AE
:1053F000C4F12006A040F1414140B1FBF3FC03FBA6
:105400001C11A2FB0C45001BA94103D2BCF1010CED
:10541000801859410F2F12D30F3FC90341EA504161
:10542000B1FBF3F603FB1611A2FB0645D4EBC0302B
:10543000A94102D2761E8018594146EACC3C07B3F6
:105440004140C7F12006B840F1414140B1FBF3F6BD
:1054500003FB1611A2FB0645001BA94102D2761ED2
:105460008018594180EA010221FA0EF3C7F12004A5
:1054700062FA0EF20CFA07F05A402CFA04F13043AB
:10548000F0BD80EA010221FA0EF3002162FA0EF269
:1054900060465A40F0BD8C46B1FBF2F102FB11C3ED
:1054A0001B0243EA1063B3FBF2FC02FB1C331B023A
:1054B0004CEA002043EA1063B3FBF2FC02FB1C330E
:1054C0001B024CEA002043EA1063B3FBF2FC02FB30
:1054D0001C331B024CEA002043EA1063B3FBF2FCCE
:1054E00002FB1C324CEA0020002370471CB55FF41D
:1054F000803002F042F902F07BFA0121042002F030
:105500006BF90121042002F09FF90121042002F02F
:105510007FF90021042002F07BF9954C0023002242
:105520000021200002F0CBFE19208DF800000020A1
:105530008DF8010000208DF8020001208DF8030095
:10554000684602F063FF01220121200002F07BFE89
:105550000121200002F0F7FD13BD10B50C2100223F
:10556000844C2000FDF728FC00F007F8FFF7BEFF91
:1055700000F0E6F800F00DF810BD7E4948680028FC
:1055800002D1EFF31080086072B64868401C486092
:10559000704778494868012802DB4868401E486027
:1055A0004868002805D10878C00701D572B600E028
:1055B00062B6704730BF704770B5FFF7DEFF6D48C9
:1055C00084686B4E300002F0BAFD05000121300006
:1055D00002F047FE012804D1300002F0B0FD0500C2
:1055E000641CFFF7D6FFADB255EA0445280070BD34
:1055F00010B50400FFF7E0FF241A012C01DA0020A7
:1056000008E020000014002802D04FF6FF7001E0EF
:10561000200080B210BD10B504002000FFF7E8FFA5
:105620000028FAD110BD38B50400514D04212800DE
:1056300002F036FE2000FFF7DBFF040080B20528F1
:1056400006DA00220421280002F0FDFD012013E00B
:10565000280002F074FDA4B224182100280002F0F2
:1056600080FD01220421280002F0EDFD0122042129
:10567000280002F078FD002032BD80B5FFF77DFFE5
:10568000FFF798FFFEE710B5394C0121200002F02A
:10569000E8FD012803D137488168491C8160042155
:1056A000200002F0EBFD0521200002F0F9FD10BD05
:1056B00010B5FDF7F6F9022807D1FAF7B8FE002871
:1056C00003D0002002F036FF02E0012002F032FF9A
:1056D000294C0121200003F072FA0221200003F07E
:1056E0006EFA0821200003F06AFA4FF4807120005E
:1056F00003F065FA002001F0A0FF10BD38B50500E9
:10570000FFF73BFFFFF758FF04004FF40040A0FBFA
:1057100005014FF47A720023FFF7AEFD0419200053
:10572000000C14498860A4B22100114802F005FD64
:10573000012002F050FF00F003F8FFF72AFF31BD0F
:1057400010B50D4C00220121200003F056FA002272
:105750000221200003F051FA00220821200003F06A
:105760004CFA00224FF48071200003F046FA10BD7D
:1057700000080140EC1500200000024010B5644C08
:10578000002020720C2100222000FDF715FBFFF7FE
:10579000E4FE00F083FDFDF797F810BD80B5FFF73C
:1057A0000BFF02BD00E000680268002A06D0026814
:1057B0008A42F8D109680160012000E000207047AA
:1057C00038B50400FFF7D9FE514D21002800FFF73E
:1057D000E9FF002805D12100281DFFF7E3FF00287D
:1057E00001D0012000E00020C0B2FFF7D2FE31BDA1
:1057F00038B504000D00FFF7C0FE2000FFF7E0FF02
:10580000A56000202060434900E00968086800287E
:10581000FBD10C60FFF7BDFE31BD70B504000D007B
:105820001600FFF7AAFE2000FFF7CAFF6560A6601A
:1058300000202060364900E009680868002806D08A
:1058400008684068401B0128F6DB086820600C608F
:10585000FFF79FFE70BD38B50024FFF78EFE2C4D7C
:105860006868002803D06C68206868600BE02868CE
:10587000002808D028684068FFF7D5FE002802D02D
:105880002C6820682860A068002800D10024FFF759
:1058900080FE002C02D02000A1688847002C02D096
:1058A0002868002801D0012000E0002032BD10B59A
:1058B000174C207A012816D06068002801D00020FB
:1058C00013E0206800280ED0FFF768FF21684968C0
:1058D000081A4FF47A7181FB00014FF40042002353
:1058E000FFF7CAFC01E05FF0FF3010BD80B508484B
:1058F000007A012801D0FFF7DBFE01BD80B5044925
:10590000097A012901D0FFF7F9FE01BD000000006E
:105910000416002008160020010049B2002909D40D
:10592000012210F01F018A40DFF8801640B24009C2
:1059300041F82020704710B5DFF874460020606001
:105940000020206000202072002002F099FA43F22B
:10595000F22188420AD0012003F092FA012001F0DE
:1059600029FF002001F026FF002014E001215FF054
:10597000805001F03FFF012003F082FA02F038F876
:105980004FF4807002F0CEFA5FF4003003F038FB81
:1059900001202072012010BDDFF81806006810F405
:1059A0004030704730B585B00C001500C0B20028FB
:1059B0000DD0492001F064FF002801D1002042E011
:1059C0005FF4803001F0D9FE0394049507E05FF4A2
:1059D000003001F0D2FE641E03946D1E0495012078
:1059E00001F0E4FE02F004F80020029002A801F0A9
:1059F000ABFF00208DF8070000208DF80400002088
:105A00008DF8050000208DF8060001A9002002F0A5
:105A100017F80D208DF8030005208DF801001620E1
:105A20008DF8020003208DF800006946002002F086
:105A30009AF843F2F221002002F015FA0120DFF873
:105A400070150872012005B030BDDFF86C251368B1
:105A50001B0C0360106880B208607047DFF85005C7
:105A6000007A704780B50020DFF8441508720120E5
:105A700003F006FA002001F0E0FD002001F0D7FD60
:105A8000002001F093FE4FF6FF71002002F0EBF9C9
:105A900001BD80B5DFF818351B7A002B01D100203D
:105AA00020E00300DBB2182B07DA0B00DBB23C2B43
:105AB00003DA1300DBB23C2B01DB002012E00023F1
:105AC0008DF803308DF800008DF801108DF802205C
:105AD0006946002001F0B4FFC0B2002801D10020C7
