:100000000C942A000C943F000C943F000C943F0089
:100010000C943F000C943F000C943F000C943F0064
:100020000C943F000C943F000C943F000C943F0054
:100030000C943F000C943F000C943F000C943F0044
:100040000C943F000C943F000C943F000C943F0034
:100050000C943F0011241FBECFE5D8E0DEBFCDBF1A
:1000600010E0A0E6B0E0EEECF0E002C005900D92EA
:10007000A237B107D9F70E9452000C9465000C9486
:10008000000059985898539A549A529810BC83E398
:1000900089B986E880BD08959BB18CB908958BB16C
:1000A0008CB108951F930E94410090E004C00E940B
:1000B0004C00912F9F5FE92FF0E0E05AFF4F8081C5
:0E00C000192F90E08823B9F3F2CFF894FFCF08
:1000CE0041686D616420416264656C72617A696B2E
:0200DE00000020
:00000001FF
